---
---
0108143109862TFNYF0200006134592BNFTW     FITX   201208                    00000+07514000             000000000             000000000             0001    00000000201208150832170000000000000000000y
0108143109894TFNYF0200006134592BNFTW     FITX   201208                    00000+07514000             000000000             000000000             0001    00000000201208150832180000000000000000000y
---
---
0108143109862TFNYF0200006134592BNFTW     FITX   201208                    00000+07514000             000000000             000000000             0001    00000000201208150832170000000000000000000y
0108143109894TFNYF0200006134592BNFTW     FITX   201208                    00000+07514000             000000000             000000000             0001    00000000201208150832180000000000000000000y
0108143109793TFNYF0200006134592SNFTW     FITX   201208                    00000+07527000             000000000             000000000             0002    00000000201208150832180000000000000000000y
0108143109794TFNYF0200006134592BNFTW     FITX   201208                    00000+07533000             000000000             000000000             0002    00000000201208150832180000000000000000000y
0108143109795TFNYF0200006134592SNFTW     FITX   201208                    00000+07528000             000000000             000000000             0002    00000000201208150832180000000000000000000y
0108143109796TFNYF0200006134592BNFTW     FITX   201208                    00000+07469000             000000000             000000000             0002    00000000201208150832180000000000000000000y
0108143109797TFNYF0200006134592SNFTW     FITX   201208                    00000+07460000             000000000             000000000             0002    00000000201208150832180000000000000000000y
0108143109798TFNYF0200006134592BNFTW     FITX   201208                    00000+07471000             000000000             000000000             0002    00000000201208150832180000000000000000000y
0108143109799TFNYF0200006134592SNFTW     FITX   201208                    00000+07469000             000000000             000000000             0002    00000000201208150832180000000000000000000y
0108143109800TFNYF0200006134592BNFTW     FITX   201208                    00000+07471000             000000000             000000000             0002    00000000201208150832180000000000000000000y
0108143109801TFNYF0200006134592SNFTW     FITX   201208                    00000+07467000             000000000             000000000             0002    00000000201208150832180000000000000000000y
0108143109803TFNYF0200006134592BNFTW     FITX   201208                    00000+07473000             000000000             000000000             0002    00000000201208150832180000000000000000000y
0108143109804TFNYF0200006134592SNFTW     FITX   201208                    00000+07473000             000000000             000000000             0002    00000000201208150832180000000000000000000y
0108143109805TFNYF0200006134592BNFTW     FITX   201208                    00000+07462000             000000000             000000000             0002    00000000201208150832190000000000000000000y
0108143109806TFNYF0200006134592SNFTW     FITX   201208                    00000+07475000             000000000             000000000             0002    00000000201208150832190000000000000000000y
0108143109807TFNYF0200006134592BNFTW     FITX   201208                    00000+07472000             000000000             000000000             0002    00000000201208150832190000000000000000000y
0108143109808TFNYF0200006134592SNFTW     FITX   201208                    00000+07474000             000000000             000000000             0002    00000000201208150832190000000000000000000y
0108143109809TFNYF0200006134592BNFTW     FITX   201208                    00000+07479000             000000000             000000000             0002    00000000201208150832190000000000000000000y
0108143109810TFNYF0200006134592SNFTW     FITX   201208                    00000+07474000             000000000             000000000             0002    00000000201208150832190000000000000000000y
0108143109816TFNYF0200006134592BNFTW     FITX   201208                    00000+07514000             000000000             000000000             0001    00000000201208150832190000000000000000000y
0108143109817TFNYF0200006134592BNFTW     FITX   201208                    00000+07530000             000000000             000000000             0001    00000000201208150832190000000000000000000y
0108143109818TFNYF0200006134592SNFTW     FITX   201208                    00000+07527000             000000000             000000000             0002    00000000201208150832190000000000000000000y
0108143109819TFNYF0200006134592BNFTW     FITX   201208                    00000+07533000             000000000             000000000             0002    00000000201208150832190000000000000000000y
0108143109820TFNYF0200006134592SNFTW     FITX   201208                    00000+07528000             000000000             000000000             0002    00000000201208150832190000000000000000000y
0108143109821TFNYF0200006134592BNFTW     FITX   201208                    00000+07469000             000000000             000000000             0002    00000000201208150832190000000000000000000y
0108143109822TFNYF0200006134592SNFTW     FITX   201208                    00000+07460000             000000000             000000000             0002    00000000201208150832200000000000000000000y
0108143109823TFNYF0200006134592BNFTW     FITX   201208                    00000+07471000             000000000             000000000             0002    00000000201208150832200000000000000000000y
0108143109824TFNYF0200006134592SNFTW     FITX   201208                    00000+07469000             000000000             000000000             0002    00000000201208150832210000000000000000000y
0108143109825TFNYF0200006134592BNFTW     FITX   201208                    00000+07471000             000000000             000000000             0002    00000000201208150832210000000000000000000y
0108143109826TFNYF0200006134592SNFTW     FITX   201208                    00000+07467000             000000000             000000000             0002    00000000201208150832210000000000000000000y
0108143109827TFNYF0200006134592BNFTW     FITX   201208                    00000+07473000             000000000             000000000             0002    00000000201208150832210000000000000000000y
0108143109828TFNYF0200006134592SNFTW     FITX   201208                    00000+07473000             000000000             000000000             0002    00000000201208150832220000000000000000000y
0108143109829TFNYF0200006134592BNFTW     FITX   201208                    00000+07462000             000000000             000000000             0002    00000000201208150832220000000000000000000y
0108143109830TFNYF0200006134592SNFTW     FITX   201208                    00000+07475000             000000000             000000000             0002    00000000201208150832220000000000000000000y
0108143109831TFNYF0200006134592BNFTW     FITX   201208                    00000+07472000             000000000             000000000             0002    00000000201208150832220000000000000000000y
0108143109832TFNYF0200006134592SNFTW     FITX   201208                    00000+07474000             000000000             000000000             0002    00000000201208150832220000000000000000000y
0108143109833TFNYF0200006134592BNFTW     FITX   201208                    00000+07479000             000000000             000000000             0002    00000000201208150832220000000000000000000y
0108143109842TFNYF0200006134592BNFTW     FITX   201208                    00000+07514000             000000000             000000000             0001    00000000201208150832220000000000000000000y
0108143109930TFNYF0200006134592BNFTW     FITX   201208                    00000+07481000             000000000             000000000             0001    00000000201208150832220000000000000000000y
0108143109931TFNYF0200006134592SNFTW     FITX   201208                    00000+07527000             000000000             000000000             0002    00000000201208150832220000000000000000000y
0108143109933TFNYF0200006134592BNFTW     FITX   201208                    00000+07533000             000000000             000000000             0002    00000000201208150832220000000000000000000y
0108143109934TFNYF0200006134592SNFTW     FITX   201208                    00000+07528000             000000000             000000000             0002    00000000201208150832220000000000000000000y
0108143109935TFNYF0200006134592BNFTW     FITX   201208                    00000+07469000             000000000             000000000             0002    00000000201208150832230000000000000000000y
0108143109936TFNYF0200006134592SNFTW     FITX   201208                    00000+07460000             000000000             000000000             0002    00000000201208150832230000000000000000000y
0108143109937TFNYF0200006134592BNFTW     FITX   201208                    00000+07471000             000000000             000000000             0002    00000000201208150832230000000000000000000y
0108143109939TFNYF0200006134592SNFTW     FITX   201208                    00000+07469000             000000000             000000000             0002    00000000201208150832230000000000000000000y
0108143109940TFNYF0200006134592BNFTW     FITX   201208                    00000+07471000             000000000             000000000             0002    00000000201208150832230000000000000000000y
0108143109941TFNYF0200006134592SNFTW     FITX   201208                    00000+07467000             000000000             000000000             0002    00000000201208150832230000000000000000000y
0108143106906TFNYF0200006134592BNFTW     FITX   201208                    00000+07505000             000000000             000000000             0973    00000000201208150832230000000000000000000y
0108143106908TFNYF0200006134592SNFTW     FITX   201208                    00000+07526000             000000000             000000000             0001    00000000201208150832230000000000000000000y
0108143106909TFNYF0200006134592BNFTW     FITX   201208                    00000+07470000             000000000             000000000             0002    00000000201208150832230000000000000000000y
0108143106910TFNYF0200006134592SNFTW     FITX   201208                    00000+07460000             000000000             000000000             0002    00000000201208150832230000000000000000000y
0108143106911TFNYF0200006134592BNFTW     FITX   201208                    00000+07470000             000000000             000000000             0002    00000000201208150832230000000000000000000y
0108143106912TFNYF0200006134592SNFTW     FITX   201208                    00000+07468000             000000000             000000000             0002    00000000201208150832240000000000000000000y
0108143106913TFNYF0200006134592BNFTW     FITX   201208                    00000+07466000             000000000             000000000             0002    00000000201208150832240000000000000000000y
0108143106914TFNYF0200006134592SNFTW     FITX   201208                    00000+07473000             000000000             000000000             0002    00000000201208150832240000000000000000000y
0108143106915TFNYF0200006134592BNFTW     FITX   201208                    00000+07475000             000000000             000000000             0002    00000000201208150832240000000000000000000y
0108143106916TFNYF0200006134592SNFTW     FITX   201208                    00000+07473000             000000000             000000000             0002    00000000201208150832240000000000000000000y
0108143106917TFNYF0200006134592BNFTW     FITX   201208                    00000+07481000             000000000             000000000             0002    00000000201208150832240000000000000000000y
0108143109942TFNYF0200006134592BNFTW     FITX   201208                    00000+07473000             000000000             000000000             0002    00000000201208150832240000000000000000000y
0108143109943TFNYF0200006134592SNFTW     FITX   201208                    00000+07473000             000000000             000000000             0002    00000000201208150832240000000000000000000y
0108143109944TFNYF0200006134592BNFTW     FITX   201208                    00000+07462000             000000000             000000000             0002    00000000201208150832240000000000000000000y
0108143109945TFNYF0200006134592SNFTW     FITX   201208                    00000+07475000             000000000             000000000             0002    00000000201208150832240000000000000000000y
0108143109946TFNYF0200006134592BNFTW     FITX   201208                    00000+07472000             000000000             000000000             0002    00000000201208150832240000000000000000000y
0108143109947TFNYF0200006134592SNFTW     FITX   201208                    00000+07474000             000000000             000000000             0002    00000000201208150832240000000000000000000y
0108143109948TFNYF0200006134592BNFTW     FITX   201208                    00000+07479000             000000000             000000000             0002    00000000201208150832250000000000000000000y
0108143109986TFNYF0200006134592BNFTW     FITX   201208                    00000+07514000             000000000             000000000             0001    00000000201208150832250000000000000000000y
---
---
0108143109862TFNYF0200006134592BNFTW     FITX   201208                    00000+07514000             000000000             000000000             0001    00000000201208150832170000000000000000000y
0108143109894TFNYF0200006134592BNFTW     FITX   201208                    00000+07514000             000000000             000000000             0001    00000000201208150832180000000000000000000y
0108143109793TFNYF0200006134592SNFTW     FITX   201208                    00000+07527000             000000000             000000000             0002    00000000201208150832180000000000000000000y
0108143109794TFNYF0200006134592BNFTW     FITX   201208                    00000+07533000             000000000             000000000             0002    00000000201208150832180000000000000000000y
0108143109795TFNYF0200006134592SNFTW     FITX   201208                    00000+07528000             000000000             000000000             0002    00000000201208150832180000000000000000000y
0108143109796TFNYF0200006134592BNFTW     FITX   201208                    00000+07469000             000000000             000000000             0002    00000000201208150832180000000000000000000y
0108143109797TFNYF0200006134592SNFTW     FITX   201208                    00000+07460000             000000000             000000000             0002    00000000201208150832180000000000000000000y
0108143109798TFNYF0200006134592BNFTW     FITX   201208                    00000+07471000             000000000             000000000             0002    00000000201208150832180000000000000000000y
0108143109799TFNYF0200006134592SNFTW     FITX   201208                    00000+07469000             000000000             000000000             0002    00000000201208150832180000000000000000000y
0108143109800TFNYF0200006134592BNFTW     FITX   201208                    00000+07471000             000000000             000000000             0002    00000000201208150832180000000000000000000y
0108143109801TFNYF0200006134592SNFTW     FITX   201208                    00000+07467000             000000000             000000000             0002    00000000201208150832180000000000000000000y
0108143109803TFNYF0200006134592BNFTW     FITX   201208                    00000+07473000             000000000             000000000             0002    00000000201208150832180000000000000000000y
0108143109804TFNYF0200006134592SNFTW     FITX   201208                    00000+07473000             000000000             000000000             0002    00000000201208150832180000000000000000000y
0108143109805TFNYF0200006134592BNFTW     FITX   201208                    00000+07462000             000000000             000000000             0002    00000000201208150832190000000000000000000y
0108143109806TFNYF0200006134592SNFTW     FITX   201208                    00000+07475000             000000000             000000000             0002    00000000201208150832190000000000000000000y
0108143109807TFNYF0200006134592BNFTW     FITX   201208                    00000+07472000             000000000             000000000             0002    00000000201208150832190000000000000000000y
0108143109808TFNYF0200006134592SNFTW     FITX   201208                    00000+07474000             000000000             000000000             0002    00000000201208150832190000000000000000000y
0108143109809TFNYF0200006134592BNFTW     FITX   201208                    00000+07479000             000000000             000000000             0002    00000000201208150832190000000000000000000y
0108143109810TFNYF0200006134592SNFTW     FITX   201208                    00000+07474000             000000000             000000000             0002    00000000201208150832190000000000000000000y
0108143109816TFNYF0200006134592BNFTW     FITX   201208                    00000+07514000             000000000             000000000             0001    00000000201208150832190000000000000000000y
0108143109817TFNYF0200006134592BNFTW     FITX   201208                    00000+07530000             000000000             000000000             0001    00000000201208150832190000000000000000000y
0108143109818TFNYF0200006134592SNFTW     FITX   201208                    00000+07527000             000000000             000000000             0002    00000000201208150832190000000000000000000y
0108143109819TFNYF0200006134592BNFTW     FITX   201208                    00000+07533000             000000000             000000000             0002    00000000201208150832190000000000000000000y
0108143109820TFNYF0200006134592SNFTW     FITX   201208                    00000+07528000             000000000             000000000             0002    00000000201208150832190000000000000000000y
0108143109821TFNYF0200006134592BNFTW     FITX   201208                    00000+07469000             000000000             000000000             0002    00000000201208150832190000000000000000000y
0108143109822TFNYF0200006134592SNFTW     FITX   201208                    00000+07460000             000000000             000000000             0002    00000000201208150832200000000000000000000y
0108143109823TFNYF0200006134592BNFTW     FITX   201208                    00000+07471000             000000000             000000000             0002    00000000201208150832200000000000000000000y
0108143109824TFNYF0200006134592SNFTW     FITX   201208                    00000+07469000             000000000             000000000             0002    00000000201208150832210000000000000000000y
0108143109825TFNYF0200006134592BNFTW     FITX   201208                    00000+07471000             000000000             000000000             0002    00000000201208150832210000000000000000000y
0108143109826TFNYF0200006134592SNFTW     FITX   201208                    00000+07467000             000000000             000000000             0002    00000000201208150832210000000000000000000y
0108143109827TFNYF0200006134592BNFTW     FITX   201208                    00000+07473000             000000000             000000000             0002    00000000201208150832210000000000000000000y
0108143109828TFNYF0200006134592SNFTW     FITX   201208                    00000+07473000             000000000             000000000             0002    00000000201208150832220000000000000000000y
0108143109829TFNYF0200006134592BNFTW     FITX   201208                    00000+07462000             000000000             000000000             0002    00000000201208150832220000000000000000000y
0108143109830TFNYF0200006134592SNFTW     FITX   201208                    00000+07475000             000000000             000000000             0002    00000000201208150832220000000000000000000y
0108143109831TFNYF0200006134592BNFTW     FITX   201208                    00000+07472000             000000000             000000000             0002    00000000201208150832220000000000000000000y
0108143109832TFNYF0200006134592SNFTW     FITX   201208                    00000+07474000             000000000             000000000             0002    00000000201208150832220000000000000000000y
0108143109833TFNYF0200006134592BNFTW     FITX   201208                    00000+07479000             000000000             000000000             0002    00000000201208150832220000000000000000000y
0108143109842TFNYF0200006134592BNFTW     FITX   201208                    00000+07514000             000000000             000000000             0001    00000000201208150832220000000000000000000y
0108143109930TFNYF0200006134592BNFTW     FITX   201208                    00000+07481000             000000000             000000000             0001    00000000201208150832220000000000000000000y
0108143109931TFNYF0200006134592SNFTW     FITX   201208                    00000+07527000             000000000             000000000             0002    00000000201208150832220000000000000000000y
0108143109933TFNYF0200006134592BNFTW     FITX   201208                    00000+07533000             000000000             000000000             0002    00000000201208150832220000000000000000000y
0108143109934TFNYF0200006134592SNFTW     FITX   201208                    00000+07528000             000000000             000000000             0002    00000000201208150832220000000000000000000y
0108143109935TFNYF0200006134592BNFTW     FITX   201208                    00000+07469000             000000000             000000000             0002    00000000201208150832230000000000000000000y
0108143109936TFNYF0200006134592SNFTW     FITX   201208                    00000+07460000             000000000             000000000             0002    00000000201208150832230000000000000000000y
0108143109937TFNYF0200006134592BNFTW     FITX   201208                    00000+07471000             000000000             000000000             0002    00000000201208150832230000000000000000000y
0108143109939TFNYF0200006134592SNFTW     FITX   201208                    00000+07469000             000000000             000000000             0002    00000000201208150832230000000000000000000y
0108143109940TFNYF0200006134592BNFTW     FITX   201208                    00000+07471000             000000000             000000000             0002    00000000201208150832230000000000000000000y
0108143109941TFNYF0200006134592SNFTW     FITX   201208                    00000+07467000             000000000             000000000             0002    00000000201208150832230000000000000000000y
0108143106906TFNYF0200006134592BNFTW     FITX   201208                    00000+07505000             000000000             000000000             0973    00000000201208150832230000000000000000000y
0108143106908TFNYF0200006134592SNFTW     FITX   201208                    00000+07526000             000000000             000000000             0001    00000000201208150832230000000000000000000y
0108143106909TFNYF0200006134592BNFTW     FITX   201208                    00000+07470000             000000000             000000000             0002    00000000201208150832230000000000000000000y
0108143106910TFNYF0200006134592SNFTW     FITX   201208                    00000+07460000             000000000             000000000             0002    00000000201208150832230000000000000000000y
0108143106911TFNYF0200006134592BNFTW     FITX   201208                    00000+07470000             000000000             000000000             0002    00000000201208150832230000000000000000000y
0108143106912TFNYF0200006134592SNFTW     FITX   201208                    00000+07468000             000000000             000000000             0002    00000000201208150832240000000000000000000y
0108143106913TFNYF0200006134592BNFTW     FITX   201208                    00000+07466000             000000000             000000000             0002    00000000201208150832240000000000000000000y
0108143106914TFNYF0200006134592SNFTW     FITX   201208                    00000+07473000             000000000             000000000             0002    00000000201208150832240000000000000000000y
0108143106915TFNYF0200006134592BNFTW     FITX   201208                    00000+07475000             000000000             000000000             0002    00000000201208150832240000000000000000000y
0108143106916TFNYF0200006134592SNFTW     FITX   201208                    00000+07473000             000000000             000000000             0002    00000000201208150832240000000000000000000y
0108143106917TFNYF0200006134592BNFTW     FITX   201208                    00000+07481000             000000000             000000000             0002    00000000201208150832240000000000000000000y
0108143109942TFNYF0200006134592BNFTW     FITX   201208                    00000+07473000             000000000             000000000             0002    00000000201208150832240000000000000000000y
0108143109943TFNYF0200006134592SNFTW     FITX   201208                    00000+07473000             000000000             000000000             0002    00000000201208150832240000000000000000000y
0108143109944TFNYF0200006134592BNFTW     FITX   201208                    00000+07462000             000000000             000000000             0002    00000000201208150832240000000000000000000y
0108143109945TFNYF0200006134592SNFTW     FITX   201208                    00000+07475000             000000000             000000000             0002    00000000201208150832240000000000000000000y
0108143109946TFNYF0200006134592BNFTW     FITX   201208                    00000+07472000             000000000             000000000             0002    00000000201208150832240000000000000000000y
0108143109947TFNYF0200006134592SNFTW     FITX   201208                    00000+07474000             000000000             000000000             0002    00000000201208150832240000000000000000000y
0108143109948TFNYF0200006134592BNFTW     FITX   201208                    00000+07479000             000000000             000000000             0002    00000000201208150832250000000000000000000y
0108143109986TFNYF0200006134592BNFTW     FITX   201208                    00000+07514000             000000000             000000000             0001    00000000201208150832250000000000000000000y
0108153062999TFNYF0200006134592SNFTW     FITX   201208                    00000+07469000             000000000             000000000             0002    00000000201208151136550000000000000000012y
0108153063002TFNYF0200006134592BNFTW     FITX   201208                    00000+07469000             000000000             000000000             0002    00000000201208151136560000000000000000012y
0108153063009TFNYF0200006134592SNFTW     FITX   201208                    00000+07463000             000000000             000000000             0002    00000000201208151136580000000000000000012y
0108153063018TFNYF0200006134592BNFTW     FITX   201208                    00000+07470000             000000000             000000000             0002    00000000201208151137020000000000000000012y
0108153063021TFNYF0200006134592BNFTW     FITX   201208                    00000+07469000             000000000             000000000             0002    00000000201208151137030000000000000000012y
0108153063030TFNYF0200006134592SNFTW     FITX   201208                    00000+07469000             000000000             000000000             0002    00000000201208151137050000000000000000012y
0108153063045TFNYF0200006134592SNFTW     FITX   201208                    00000+07466000             000000000             000000000             0002    00000000201208151137110000000000000000012y
0108153063047TFNYF0200006134592BNFTW     FITX   201208                    00000+07467000             000000000             000000000             0002    00000000201208151137120000000000000000012y
0108153063051TFNYF0200006134592SNFTW     FITX   201208                    00000+07467000             000000000             000000000             0002    00000000201208151137140000000000000000012y
0108153063054TFNYF0200006134592BNFTW     FITX   201208                    00000+07470000             000000000             000000000             0002    00000000201208151137160000000000000000012y
0108153063060TFNYF0200006134592SNFTW     FITX   201208                    00000+07469000             000000000             000000000             0002    00000000201208151137190000000000000000012y
0108153063071TFNYF0200006134592BNFTW     FITX   201208                    00000+07467000             000000000             000000000             0002    00000000201208151137240000000000000000012y
0108153063074TFNYF0200006134592BNFTW     FITX   201208                    00000+07467000             000000000             000000000             0002    00000000201208151137250000000000000000012y
0108153063081TFNYF0200006134592SNFTW     FITX   201208                    00000+07466000             000000000             000000000             0002    00000000201208151137280000000000000000012y
0108153063093TFNYF0200006134592BNFTW     FITX   201208                    00000+07470000             000000000             000000000             0002    00000000201208151137310000000000000000012y
0108153063101TFNYF0200006134592SNFTW     FITX   201208                    00000+07469000             000000000             000000000             0002    00000000201208151137340000000000000000012y
---
---
0108143109862TFNYF0200006134592BNFTW     FITX   201208                    00000+07514000             000000000             000000000             0001    00000000201208150832170000000000000000000y
0108143109894TFNYF0200006134592BNFTW     FITX   201208                    00000+07514000             000000000             000000000             0001    00000000201208150832180000000000000000000y
0108143109793TFNYF0200006134592SNFTW     FITX   201208                    00000+07527000             000000000             000000000             0002    00000000201208150832180000000000000000000y
0108143109794TFNYF0200006134592BNFTW     FITX   201208                    00000+07533000             000000000             000000000             0002    00000000201208150832180000000000000000000y
0108143109795TFNYF0200006134592SNFTW     FITX   201208                    00000+07528000             000000000             000000000             0002    00000000201208150832180000000000000000000y
0108143109796TFNYF0200006134592BNFTW     FITX   201208                    00000+07469000             000000000             000000000             0002    00000000201208150832180000000000000000000y
0108143109797TFNYF0200006134592SNFTW     FITX   201208                    00000+07460000             000000000             000000000             0002    00000000201208150832180000000000000000000y
0108143109798TFNYF0200006134592BNFTW     FITX   201208                    00000+07471000             000000000             000000000             0002    00000000201208150832180000000000000000000y
0108143109799TFNYF0200006134592SNFTW     FITX   201208                    00000+07469000             000000000             000000000             0002    00000000201208150832180000000000000000000y
0108143109800TFNYF0200006134592BNFTW     FITX   201208                    00000+07471000             000000000             000000000             0002    00000000201208150832180000000000000000000y
0108143109801TFNYF0200006134592SNFTW     FITX   201208                    00000+07467000             000000000             000000000             0002    00000000201208150832180000000000000000000y
0108143109803TFNYF0200006134592BNFTW     FITX   201208                    00000+07473000             000000000             000000000             0002    00000000201208150832180000000000000000000y
0108143109804TFNYF0200006134592SNFTW     FITX   201208                    00000+07473000             000000000             000000000             0002    00000000201208150832180000000000000000000y
0108143109805TFNYF0200006134592BNFTW     FITX   201208                    00000+07462000             000000000             000000000             0002    00000000201208150832190000000000000000000y
0108143109806TFNYF0200006134592SNFTW     FITX   201208                    00000+07475000             000000000             000000000             0002    00000000201208150832190000000000000000000y
0108143109807TFNYF0200006134592BNFTW     FITX   201208                    00000+07472000             000000000             000000000             0002    00000000201208150832190000000000000000000y
0108143109808TFNYF0200006134592SNFTW     FITX   201208                    00000+07474000             000000000             000000000             0002    00000000201208150832190000000000000000000y
0108143109809TFNYF0200006134592BNFTW     FITX   201208                    00000+07479000             000000000             000000000             0002    00000000201208150832190000000000000000000y
0108143109810TFNYF0200006134592SNFTW     FITX   201208                    00000+07474000             000000000             000000000             0002    00000000201208150832190000000000000000000y
0108143109816TFNYF0200006134592BNFTW     FITX   201208                    00000+07514000             000000000             000000000             0001    00000000201208150832190000000000000000000y
0108143109817TFNYF0200006134592BNFTW     FITX   201208                    00000+07530000             000000000             000000000             0001    00000000201208150832190000000000000000000y
0108143109818TFNYF0200006134592SNFTW     FITX   201208                    00000+07527000             000000000             000000000             0002    00000000201208150832190000000000000000000y
0108143109819TFNYF0200006134592BNFTW     FITX   201208                    00000+07533000             000000000             000000000             0002    00000000201208150832190000000000000000000y
0108143109820TFNYF0200006134592SNFTW     FITX   201208                    00000+07528000             000000000             000000000             0002    00000000201208150832190000000000000000000y
0108143109821TFNYF0200006134592BNFTW     FITX   201208                    00000+07469000             000000000             000000000             0002    00000000201208150832190000000000000000000y
0108143109822TFNYF0200006134592SNFTW     FITX   201208                    00000+07460000             000000000             000000000             0002    00000000201208150832200000000000000000000y
0108143109823TFNYF0200006134592BNFTW     FITX   201208                    00000+07471000             000000000             000000000             0002    00000000201208150832200000000000000000000y
0108143109824TFNYF0200006134592SNFTW     FITX   201208                    00000+07469000             000000000             000000000             0002    00000000201208150832210000000000000000000y
0108143109825TFNYF0200006134592BNFTW     FITX   201208                    00000+07471000             000000000             000000000             0002    00000000201208150832210000000000000000000y
0108143109826TFNYF0200006134592SNFTW     FITX   201208                    00000+07467000             000000000             000000000             0002    00000000201208150832210000000000000000000y
0108143109827TFNYF0200006134592BNFTW     FITX   201208                    00000+07473000             000000000             000000000             0002    00000000201208150832210000000000000000000y
0108143109828TFNYF0200006134592SNFTW     FITX   201208                    00000+07473000             000000000             000000000             0002    00000000201208150832220000000000000000000y
0108143109829TFNYF0200006134592BNFTW     FITX   201208                    00000+07462000             000000000             000000000             0002    00000000201208150832220000000000000000000y
0108143109830TFNYF0200006134592SNFTW     FITX   201208                    00000+07475000             000000000             000000000             0002    00000000201208150832220000000000000000000y
0108143109831TFNYF0200006134592BNFTW     FITX   201208                    00000+07472000             000000000             000000000             0002    00000000201208150832220000000000000000000y
0108143109832TFNYF0200006134592SNFTW     FITX   201208                    00000+07474000             000000000             000000000             0002    00000000201208150832220000000000000000000y
0108143109833TFNYF0200006134592BNFTW     FITX   201208                    00000+07479000             000000000             000000000             0002    00000000201208150832220000000000000000000y
0108143109842TFNYF0200006134592BNFTW     FITX   201208                    00000+07514000             000000000             000000000             0001    00000000201208150832220000000000000000000y
0108143109930TFNYF0200006134592BNFTW     FITX   201208                    00000+07481000             000000000             000000000             0001    00000000201208150832220000000000000000000y
0108143109931TFNYF0200006134592SNFTW     FITX   201208                    00000+07527000             000000000             000000000             0002    00000000201208150832220000000000000000000y
0108143109933TFNYF0200006134592BNFTW     FITX   201208                    00000+07533000             000000000             000000000             0002    00000000201208150832220000000000000000000y
0108143109934TFNYF0200006134592SNFTW     FITX   201208                    00000+07528000             000000000             000000000             0002    00000000201208150832220000000000000000000y
0108143109935TFNYF0200006134592BNFTW     FITX   201208                    00000+07469000             000000000             000000000             0002    00000000201208150832230000000000000000000y
0108143109936TFNYF0200006134592SNFTW     FITX   201208                    00000+07460000             000000000             000000000             0002    00000000201208150832230000000000000000000y
0108143109937TFNYF0200006134592BNFTW     FITX   201208                    00000+07471000             000000000             000000000             0002    00000000201208150832230000000000000000000y
0108143109939TFNYF0200006134592SNFTW     FITX   201208                    00000+07469000             000000000             000000000             0002    00000000201208150832230000000000000000000y
0108143109940TFNYF0200006134592BNFTW     FITX   201208                    00000+07471000             000000000             000000000             0002    00000000201208150832230000000000000000000y
0108143109941TFNYF0200006134592SNFTW     FITX   201208                    00000+07467000             000000000             000000000             0002    00000000201208150832230000000000000000000y
0108143106906TFNYF0200006134592BNFTW     FITX   201208                    00000+07505000             000000000             000000000             0973    00000000201208150832230000000000000000000y
0108143106908TFNYF0200006134592SNFTW     FITX   201208                    00000+07526000             000000000             000000000             0001    00000000201208150832230000000000000000000y
0108143106909TFNYF0200006134592BNFTW     FITX   201208                    00000+07470000             000000000             000000000             0002    00000000201208150832230000000000000000000y
0108143106910TFNYF0200006134592SNFTW     FITX   201208                    00000+07460000             000000000             000000000             0002    00000000201208150832230000000000000000000y
0108143106911TFNYF0200006134592BNFTW     FITX   201208                    00000+07470000             000000000             000000000             0002    00000000201208150832230000000000000000000y
0108143106912TFNYF0200006134592SNFTW     FITX   201208                    00000+07468000             000000000             000000000             0002    00000000201208150832240000000000000000000y
0108143106913TFNYF0200006134592BNFTW     FITX   201208                    00000+07466000             000000000             000000000             0002    00000000201208150832240000000000000000000y
0108143106914TFNYF0200006134592SNFTW     FITX   201208                    00000+07473000             000000000             000000000             0002    00000000201208150832240000000000000000000y
0108143106915TFNYF0200006134592BNFTW     FITX   201208                    00000+07475000             000000000             000000000             0002    00000000201208150832240000000000000000000y
0108143106916TFNYF0200006134592SNFTW     FITX   201208                    00000+07473000             000000000             000000000             0002    00000000201208150832240000000000000000000y
0108143106917TFNYF0200006134592BNFTW     FITX   201208                    00000+07481000             000000000             000000000             0002    00000000201208150832240000000000000000000y
0108143109942TFNYF0200006134592BNFTW     FITX   201208                    00000+07473000             000000000             000000000             0002    00000000201208150832240000000000000000000y
0108143109943TFNYF0200006134592SNFTW     FITX   201208                    00000+07473000             000000000             000000000             0002    00000000201208150832240000000000000000000y
0108143109944TFNYF0200006134592BNFTW     FITX   201208                    00000+07462000             000000000             000000000             0002    00000000201208150832240000000000000000000y
0108143109945TFNYF0200006134592SNFTW     FITX   201208                    00000+07475000             000000000             000000000             0002    00000000201208150832240000000000000000000y
0108143109946TFNYF0200006134592BNFTW     FITX   201208                    00000+07472000             000000000             000000000             0002    00000000201208150832240000000000000000000y
0108143109947TFNYF0200006134592SNFTW     FITX   201208                    00000+07474000             000000000             000000000             0002    00000000201208150832240000000000000000000y
0108143109948TFNYF0200006134592BNFTW     FITX   201208                    00000+07479000             000000000             000000000             0002    00000000201208150832250000000000000000000y
0108143109986TFNYF0200006134592BNFTW     FITX   201208                    00000+07514000             000000000             000000000             0001    00000000201208150832250000000000000000000y
0108153062999TFNYF0200006134592SNFTW     FITX   201208                    00000+07469000             000000000             000000000             0002    00000000201208151136550000000000000000012y
0108153063002TFNYF0200006134592BNFTW     FITX   201208                    00000+07469000             000000000             000000000             0002    00000000201208151136560000000000000000012y
0108153063009TFNYF0200006134592SNFTW     FITX   201208                    00000+07463000             000000000             000000000             0002    00000000201208151136580000000000000000012y
0108153063018TFNYF0200006134592BNFTW     FITX   201208                    00000+07470000             000000000             000000000             0002    00000000201208151137020000000000000000012y
0108153063021TFNYF0200006134592BNFTW     FITX   201208                    00000+07469000             000000000             000000000             0002    00000000201208151137030000000000000000012y
0108153063030TFNYF0200006134592SNFTW     FITX   201208                    00000+07469000             000000000             000000000             0002    00000000201208151137050000000000000000012y
0108153063045TFNYF0200006134592SNFTW     FITX   201208                    00000+07466000             000000000             000000000             0002    00000000201208151137110000000000000000012y
0108153063047TFNYF0200006134592BNFTW     FITX   201208                    00000+07467000             000000000             000000000             0002    00000000201208151137120000000000000000012y
0108153063051TFNYF0200006134592SNFTW     FITX   201208                    00000+07467000             000000000             000000000             0002    00000000201208151137140000000000000000012y
0108153063054TFNYF0200006134592BNFTW     FITX   201208                    00000+07470000             000000000             000000000             0002    00000000201208151137160000000000000000012y
0108153063060TFNYF0200006134592SNFTW     FITX   201208                    00000+07469000             000000000             000000000             0002    00000000201208151137190000000000000000012y
0108153063071TFNYF0200006134592BNFTW     FITX   201208                    00000+07467000             000000000             000000000             0002    00000000201208151137240000000000000000012y
0108153063074TFNYF0200006134592BNFTW     FITX   201208                    00000+07467000             000000000             000000000             0002    00000000201208151137250000000000000000012y
0108153063081TFNYF0200006134592SNFTW     FITX   201208                    00000+07466000             000000000             000000000             0002    00000000201208151137280000000000000000012y
0108153063093TFNYF0200006134592BNFTW     FITX   201208                    00000+07470000             000000000             000000000             0002    00000000201208151137310000000000000000012y
0108153063101TFNYF0200006134592SNFTW     FITX   201208                    00000+07469000             000000000             000000000             0002    00000000201208151137340000000000000000012y
0108153063118TFNYF0200006134592SNFTW     FITX   201208                    00000+07479000             000000000             000000000             0002    00000000201208151137390000000000000000012y
0108153063122TFNYF0200006134592BNFTW     FITX   201208                    00000+07479000             000000000             000000000             0002    00000000201208151137400000000000000000012y
0108153063134TFNYF0200006134592SNFTW     FITX   201208                    00000+07471000             000000000             000000000             0002    00000000201208151137440000000000000000012y
0108153063158TFNYF0200006134592BNFTW     FITX   201208                    00000+07467000             000000000             000000000             0002    00000000201208151137520000000000000000012y
0108153063163TFNYF0200006134592SNFTW     FITX   201208                    00000+07466000             000000000             000000000             0002    00000000201208151137550000000000000000012y
0108153064270TFNYF0200006134592BNFTW     FITX   201208                    00000+07490000             000000000             000000000             0022    00000000201208151144240000000000000000012y
0108153064272TFNYF0200006134592SNFTW     FITX   201208                    00000+07481000             000000000             000000000             0002    00000000201208151144240000000000000000012y
0108153064273TFNYF0200006134592BNFTW     FITX   201208                    00000+07483000             000000000             000000000             0002    00000000201208151144250000000000000000012y
0108153064276TFNYF0200006134592SNFTW     FITX   201208                    00000+07479000             000000000             000000000             0002    00000000201208151144260000000000000000012y
0108153064277TFNYF0200006134592BNFTW     FITX   201208                    00000+07467000             000000000             000000000             0002    00000000201208151144260000000000000000012y
0108153064279TFNYF0200006134592SNFTW     FITX   201208                    00000+07466000             000000000             000000000             0002    00000000201208151144270000000000000000012y
0108153064280TFNYF0200006134592BNFTW     FITX   201208                    00000+07470000             000000000             000000000             0002    00000000201208151144270000000000000000012y
0108153064281TFNYF0200006134592SNFTW     FITX   201208                    00000+07469000             000000000             000000000             0002    00000000201208151144280000000000000000012y
0108153064283TFNYF0200006134592BNFTW     FITX   201208                    00000+07469000             000000000             000000000             0002    00000000201208151144290000000000000000012y
0108153064285TFNYF0200006134592SNFTW     FITX   201208                    00000+07463000             000000000             000000000             0002    00000000201208151144290000000000000000012y
0108153064288TFNYF0200006134592BNFTW     FITX   201208                    00000+07469000             000000000             000000000             0002    00000000201208151144300000000000000000012y
0108153064292TFNYF0200006134592SNFTW     FITX   201208                    00000+07469000             000000000             000000000             0002    00000000201208151144310000000000000000012y
0108153064295TFNYF0200006134592BNFTW     FITX   201208                    00000+07467000             000000000             000000000             0002    00000000201208151144320000000000000000012y
0108153064297TFNYF0200006134592SNFTW     FITX   201208                    00000+07467000             000000000             000000000             0002    00000000201208151144320000000000000000012y
0108153064299TFNYF0200006134592BNFTW     FITX   201208                    00000+07470000             000000000             000000000             0002    00000000201208151144330000000000000000012y
0108153064303TFNYF0200006134592SNFTW     FITX   201208                    00000+07469000             000000000             000000000             0002    00000000201208151144330000000000000000012y
0108153064304TFNYF0200006134592BNFTW     FITX   201208                    00000+07467000             000000000             000000000             0002    00000000201208151144340000000000000000012y
0108153064305TFNYF0200006134592SNFTW     FITX   201208                    00000+07466000             000000000             000000000             0002    00000000201208151144350000000000000000012y
0108153064308TFNYF0200006134592BNFTW     FITX   201208                    00000+07470000             000000000             000000000             0002    00000000201208151144350000000000000000012y
0108153064311TFNYF0200006134592SNFTW     FITX   201208                    00000+07469000             000000000             000000000             0002    00000000201208151144360000000000000000012y
0108153064312TFNYF0200006134592BNFTW     FITX   201208                    00000+07479000             000000000             000000000             0002    00000000201208151144370000000000000000012y
0108153064315TFNYF0200006134592SNFTW     FITX   201208                    00000+07471000             000000000             000000000             0002    00000000201208151144370000000000000000012y
0108153064319TFNYF0200006134592BNFTW     FITX   201208                    00000+07467000             000000000             000000000             0002    00000000201208151144380000000000000000012y
0108153064321TFNYF0200006134592SNFTW     FITX   201208                    00000+07466000             000000000             000000000             0002    00000000201208151144390000000000000000012y
0108153064857TFNYF0200006134592BNFTW     FITX   201208                    00000+07490000             000000000             000000000             0018    00000000201208151148230000000000000000012y
0108153064861TFNYF0200006134592SNFTW     FITX   201208                    00000+07481000             000000000             000000000             0002    00000000201208151148230000000000000000012y
0108153064865TFNYF0200006134592BNFTW     FITX   201208                    00000+07483000             000000000             000000000             0002    00000000201208151148240000000000000000012y
0108153064867TFNYF0200006134592SNFTW     FITX   201208                    00000+07479000             000000000             000000000             0002    00000000201208151148250000000000000000012y
0108153064873TFNYF0200006134592BNFTW     FITX   201208                    00000+07467000             000000000             000000000             0002    00000000201208151148250000000000000000012y
0108153064874TFNYF0200006134592SNFTW     FITX   201208                    00000+07466000             000000000             000000000             0002    00000000201208151148260000000000000000012y
0108153064876TFNYF0200006134592BNFTW     FITX   201208                    00000+07470000             000000000             000000000             0002    00000000201208151148270000000000000000012y
0108153064879TFNYF0200006134592SNFTW     FITX   201208                    00000+07469000             000000000             000000000             0002    00000000201208151148270000000000000000012y
0108153064884TFNYF0200006134592BNFTW     FITX   201208                    00000+07469000             000000000             000000000             0002    00000000201208151148280000000000000000012y
0108153064889TFNYF0200006134592SNFTW     FITX   201208                    00000+07463000             000000000             000000000             0002    00000000201208151148290000000000000000012y
0108153064891TFNYF0200006134592BNFTW     FITX   201208                    00000+07469000             000000000             000000000             0002    00000000201208151148290000000000000000012y
0108153064892TFNYF0200006134592SNFTW     FITX   201208                    00000+07469000             000000000             000000000             0002    00000000201208151148300000000000000000012y
0108153064896TFNYF0200006134592BNFTW     FITX   201208                    00000+07467000             000000000             000000000             0002    00000000201208151148300000000000000000012y
0108153064898TFNYF0200006134592SNFTW     FITX   201208                    00000+07467000             000000000             000000000             0002    00000000201208151148310000000000000000012y
0108153064900TFNYF0200006134592BNFTW     FITX   201208                    00000+07470000             000000000             000000000             0002    00000000201208151148320000000000000000012y
0108153064901TFNYF0200006134592SNFTW     FITX   201208                    00000+07469000             000000000             000000000             0002    00000000201208151148320000000000000000012y
0108153064902TFNYF0200006134592BNFTW     FITX   201208                    00000+07467000             000000000             000000000             0002    00000000201208151148330000000000000000012y
0108153064906TFNYF0200006134592SNFTW     FITX   201208                    00000+07466000             000000000             000000000             0002    00000000201208151148340000000000000000012y
0108153064908TFNYF0200006134592BNFTW     FITX   201208                    00000+07470000             000000000             000000000             0002    00000000201208151148340000000000000000012y
0108153064911TFNYF0200006134592SNFTW     FITX   201208                    00000+07469000             000000000             000000000             0002    00000000201208151148350000000000000000012y
0108153064914TFNYF0200006134592BNFTW     FITX   201208                    00000+07479000             000000000             000000000             0002    00000000201208151148360000000000000000012y
0108153064916TFNYF0200006134592SNFTW     FITX   201208                    00000+07471000             000000000             000000000             0002    00000000201208151148360000000000000000012y
0108153064918TFNYF0200006134592BNFTW     FITX   201208                    00000+07467000             000000000             000000000             0002    00000000201208151148370000000000000000012y
0108153064920TFNYF0200006134592SNFTW     FITX   201208                    00000+07466000             000000000             000000000             0002    00000000201208151148380000000000000000012y
000000y
0108143109821TFNYF0200006134592BNFTW     FITX   201208                    00000+07469000             000000000             000000000             0002    00000000201208150832190000000000000000000y
0108143109822TFNYF0200006134592SNFTW     FITX   201208                    00000+07460000             000000000             000000000             0002    00000000201208150832200000000000000000000y
0108143109823TFNYF0200006134592BNFTW     FITX   201208                    00000+07471000             000000000             000000000             0002    00000000201208150832200000000000000000000y
0108143109824TFNYF0200006134592SNFTW     FITX   201208                    00000+07469000             000000000             000000000             0002    00000000201208150832210000000000000000000y
0108143109825TFNYF0200006134592BNFTW     FITX   201208                    00000+07471000             000000000             000000000             0002    00000000201208150832210000000000000000000y
0108143109826TFNYF0200006134592SNFTW     FITX   201208                    00000+07467000             000000000             000000000             0002    00000000201208150832210000000000000000000y
0108143109827TFNYF0200006134592BNFTW     FITX   201208                    00000+07473000             000000000             000000000             0002    00000000201208150832210000000000000000000y
0108143109828TFNYF0200006134592SNFTW     FITX   201208                    00000+07473000             000000000             000000000             0002    00000000201208150832220000000000000000000y
0108143109829TFNYF0200006134592BNFTW     FITX   201208                    00000+07462000             000000000             000000000             0002    00000000201208150832220000000000000000000y
0108143109830TFNYF0200006134592SNFTW     FITX   201208                    00000+07475000             000000000             000000000             0002    00000000201208150832220000000000000000000y
0108143109831TFNYF0200006134592BNFTW     FITX   201208                    00000+07472000             000000000             000000000             0002    00000000201208150832220000000000000000000y
0108143109832TFNYF0200006134592SNFTW     FITX   201208                    00000+07474000             000000000             000000000             0002    00000000201208150832220000000000000000000y
0108143109833TFNYF0200006134592BNFTW     FITX   201208                    00000+07479000             000000000             000000000             0002    00000000201208150832220000000000000000000y
0108143109842TFNYF0200006134592BNFTW     FITX   201208                    00000+07514000             000000000             000000000             0001    00000000201208150832220000000000000000000y
0108143109930TFNYF0200006134592BNFTW     FITX   201208                    00000+07481000             000000000             000000000             0001    00000000201208150832220000000000000000000y
0108143109931TFNYF0200006134592SNFTW     FITX   201208                    00000+07527000             000000000             000000000             0002    00000000201208150832220000000000000000000y
0108143109933TFNYF0200006134592BNFTW     FITX   201208                    00000+07533000             000000000             000000000             0002    00000000201208150832220000000000000000000y
0108143109934TFNYF0200006134592SNFTW     FITX   201208                    00000+07528000             000000000             000000000             0002    00000000201208150832220000000000000000000y
0108143109935TFNYF0200006134592BNFTW     FITX   201208                    00000+07469000             000000000             000000000             0002    00000000201208150832230000000000000000000y
0108143109936TFNYF0200006134592SNFTW     FITX   201208                    00000+07460000             000000000             000000000             0002    00000000201208150832230000000000000000000y
0108143109937TFNYF0200006134592BNFTW     FITX   201208                    00000+07471000             000000000             000000000             0002    00000000201208150832230000000000000000000y
0108143109939TFNYF0200006134592SNFTW     FITX   201208                    00000+07469000             000000000             000000000             0002    00000000201208150832230000000000000000000y
0108143109940TFNYF0200006134592BNFTW     FITX   201208                    00000+07471000             000000000             000000000             0002    00000000201208150832230000000000000000000y
0108143109941TFNYF0200006134592SNFTW     FITX   201208                    00000+07467000             000000000             000000000             0002    00000000201208150832230000000000000000000y
0108143106906TFNYF0200006134592BNFTW     FITX   201208                    00000+07505000             000000000             000000000             0973    00000000201208150832230000000000000000000y
0108143106908TFNYF0200006134592SNFTW     FITX   201208                    00000+07526000             000000000             000000000             0001    00000000201208150832230000000000000000000y
0108143106909TFNYF0200006134592BNFTW     FITX   201208                    00000+07470000             000000000             000000000             0002    00000000201208150832230000000000000000000y
0108143106910TFNYF0200006134592SNFTW     FITX   201208                    00000+07460000             000000000             000000000             0002    00000000201208150832230000000000000000000y
0108143106911TFNYF0200006134592BNFTW     FITX   201208                    00000+07470000             000000000             000000000             0002    00000000201208150832230000000000000000000y
0108143106912TFNYF0200006134592SNFTW     FITX   201208                    00000+07468000             000000000             000000000             0002    00000000201208150832240000000000000000000y
0108143106913TFNYF0200006134592BNFTW     FITX   201208                    00000+07466000             000000000             000000000             0002    00000000201208150832240000000000000000000y
0108143106914TFNYF0200006134592SNFTW     FITX   201208                    00000+07473000             000000000             000000000             0002    00000000201208150832240000000000000000000y
0108143106915TFNYF0200006134592BNFTW     FITX   201208                    00000+07475000             000000000             000000000             0002    00000000201208150832240000000000000000000y
0108143106916TFNYF0200006134592SNFTW     FITX   201208                    00000+07473000             000000000             000000000             0002    00000000201208150832240000000000000000000y
0108143106917TFNYF0200006134592BNFTW     FITX   201208                    00000+07481000             000000000             000000000             0002    00000000201208150832240000000000000000000y
0108143109942TFNYF0200006134592BNFTW     FITX   201208                    00000+07473000             000000000             000000000             0002    00000000201208150832240000000000000000000y
0108143109943TFNYF0200006134592SNFTW     FITX   201208                    00000+07473000             000000000             000000000             0002    00000000201208150832240000000000000000000y
0108143109944TFNYF0200006134592BNFTW     FITX   201208                    00000+07462000             000000000             000000000             0002    00000000201208150832240000000000000000000y
0108143109945TFNYF0200006134592SNFTW     FITX   201208                    00000+07475000             000000000             000000000             0002    00000000201208150832240000000000000000000y
0108143109946TFNYF0200006134592BNFTW     FITX   201208                    00000+07472000             000000000             000000000             0002    00000000201208150832240000000000000000000y
0108143109947TFNYF0200006134592SNFTW     FITX   201208                    00000+07474000             000000000             000000000             0002    00000000201208150832240000000000000000000y
0108143109948TFNYF0200006134592BNFTW     FITX   201208                    00000+07479000             000000000             000000000             0002    00000000201208150832250000000000000000000y
0108143109986TFNYF0200006134592BNFTW     FITX   201208                    00000+07514000             000000000             000000000             0001    00000000201208150832250000000000000000000y
0108153062999TFNYF0200006134592SNFTW     FITX   201208                    00000+07469000             000000000             000000000             0002    00000000201208151136550000000000000000012y
0108153063002TFNYF0200006134592BNFTW     FITX   201208                    00000+07469000             000000000             000000000             0002    00000000201208151136560000000000000000012y
0108153063009TFNYF0200006134592SNFTW     FITX   201208                    00000+07463000             000000000             000000000             0002    00000000201208151136580000000000000000012y
0108153063018TFNYF0200006134592BNFTW     FITX   201208                    00000+07470000             000000000             000000000             0002    00000000201208151137020000000000000000012y
0108153063021TFNYF0200006134592BNFTW     FITX   201208                    00000+07469000             000000000             000000000             0002    00000000201208151137030000000000000000012y
0108153063030TFNYF0200006134592SNFTW     FITX   201208                    00000+07469000             000000000             000000000             0002    00000000201208151137050000000000000000012y
0108153063045TFNYF0200006134592SNFTW     FITX   201208                    00000+07466000             000000000             000000000             0002    00000000201208151137110000000000000000012y
0108153063047TFNYF0200006134592BNFTW     FITX   201208                    00000+07467000             000000000             000000000             0002    00000000201208151137120000000000000000012y
0108153063051TFNYF0200006134592SNFTW     FITX   201208                    00000+07467000             000000000             000000000             0002    00000000201208151137140000000000000000012y
0108153063054TFNYF0200006134592BNFTW     FITX   201208                    00000+07470000             000000000             000000000             0002    00000000201208151137160000000000000000012y
0108153063060TFNYF0200006134592SNFTW     FITX   201208                    00000+07469000             000000000             000000000             0002    00000000201208151137190000000000000000012y
0108153063071TFNYF0200006134592BNFTW     FITX   201208                    00000+07467000             000000000             000000000             0002    00000000201208151137240000000000000000012y
0108153063074TFNYF0200006134592BNFTW     FITX   201208                    00000+07467000             000000000             000000000             0002    00000000201208151137250000000000000000012y
0108153063081TFNYF0200006134592SNFTW     FITX   201208                    00000+07466000             000000000             000000000             0002    00000000201208151137280000000000000000012y
0108153063093TFNYF0200006134592BNFTW     FITX   201208                    00000+07470000             000000000             000000000             0002    00000000201208151137310000000000000000012y
0108153063101TFNYF0200006134592SNFTW     FITX   201208                    00000+07469000             000000000             000000000             0002    00000000201208151137340000000000000000012y
0108153063118TFNYF0200006134592SNFTW     FITX   201208                    00000+07479000             000000000             000000000             0002    00000000201208151137390000000000000000012y
0108153063122TFNYF0200006134592BNFTW     FITX   201208                    00000+07479000             000000000             000000000             0002    00000000201208151137400000000000000000012y
0108153063134TFNYF0200006134592SNFTW     FITX   201208                    00000+07471000             000000000             000000000             0002    00000000201208151137440000000000000000012y
0108153063158TFNYF0200006134592BNFTW     FITX   201208                    00000+07467000             000000000             000000000             0002    00000000201208151137520000000000000000012y
0108153063163TFNYF0200006134592SNFTW     FITX   201208                    00000+07466000             000000000             000000000             0002    00000000201208151137550000000000000000012y
0108153064270TFNYF0200006134592BNFTW     FITX   201208                    00000+07490000             000000000             000000000             0022    00000000201208151144240000000000000000012y
0108153064272TFNYF0200006134592SNFTW     FITX   201208                    00000+07481000             000000000             000000000             0002    00000000201208151144240000000000000000012y
0108153064273TFNYF0200006134592BNFTW     FITX   201208                    00000+07483000             000000000             000000000             0002    00000000201208151144250000000000000000012y
0108153064276TFNYF0200006134592SNFTW     FITX   201208                    00000+07479000             000000000             000000000             0002    00000000201208151144260000000000000000012y
0108153064277TFNYF0200006134592BNFTW     FITX   201208                    00000+07467000             000000000             000000000             0002    00000000201208151144260000000000000000012y
0108153064279TFNYF0200006134592SNFTW     FITX   201208                    00000+07466000             000000000             000000000             0002    00000000201208151144270000000000000000012y
0108153064280TFNYF0200006134592BNFTW     FITX   201208                    00000+07470000             000000000             000000000             0002    00000000201208151144270000000000000000012y
0108153064281TFNYF0200006134592SNFTW     FITX   201208                    00000+07469000             000000000             000000000             0002    00000000201208151144280000000000000000012y
0108153064283TFNYF0200006134592BNFTW     FITX   201208                    00000+07469000             000000000             000000000             0002    00000000201208151144290000000000000000012y
0108153064285TFNYF0200006134592SNFTW     FITX   201208                    00000+07463000             000000000             000000000             0002    00000000201208151144290000000000000000012y
0108153064288TFNYF0200006134592BNFTW     FITX   201208                    00000+07469000             000000000             000000000             0002    00000000201208151144300000000000000000012y
0108153064292TFNYF0200006134592SNFTW     FITX   201208                    00000+07469000             000000000             000000000             0002    00000000201208151144310000000000000000012y
0108153064295TFNYF0200006134592BNFTW     FITX   201208                    00000+07467000             000000000             000000000             0002    00000000201208151144320000000000000000012y
0108153064297TFNYF0200006134592SNFTW     FITX   201208                    00000+07467000             000000000             000000000             0002    00000000201208151144320000000000000000012y
0108153064299TFNYF0200006134592BNFTW     FITX   201208                    00000+07470000             000000000             000000000             0002    00000000201208151144330000000000000000012y
0108153064303TFNYF0200006134592SNFTW     FITX   201208                    00000+07469000             000000000             000000000             0002    00000000201208151144330000000000000000012y
0108153064304TFNYF0200006134592BNFTW     FITX   201208                    00000+07467000             000000000             000000000             0002    00000000201208151144340000000000000000012y
0108153064305TFNYF0200006134592SNFTW     FITX   201208                    00000+07466000             000000000             000000000             0002    00000000201208151144350000000000000000012y
0108153064308TFNYF0200006134592BNFTW     FITX   201208                    00000+07470000             000000000             000000000             0002    00000000201208151144350000000000000000012y
0108153064311TFNYF0200006134592SNFTW     FITX   201208                    00000+07469000             000000000             000000000             0002    00000000201208151144360000000000000000012y
0108153064312TFNYF0200006134592BNFTW     FITX   201208                    00000+07479000             000000000             000000000             0002    00000000201208151144370000000000000000012y
0108153064315TFNYF0200006134592SNFTW     FITX   201208                    00000+07471000             000000000             000000000             0002    00000000201208151144370000000000000000012y
0108153064319TFNYF0200006134592BNFTW     FITX   201208                    00000+07467000             000000000             000000000             0002    00000000201208151144380000000000000000012y
0108153064321TFNYF0200006134592SNFTW     FITX   201208                    00000+07466000             000000000             000000000             0002    00000000201208151144390000000000000000012y
0108153064857TFNYF0200006134592BNFTW     FITX   201208                    00000+07490000             000000000             000000000             0018    00000000201208151148230000000000000000012y
0108153064861TFNYF0200006134592SNFTW     FITX   201208                    00000+07481000             000000000             000000000             0002    00000000201208151148230000000000000000012y
0108153064865TFNYF0200006134592BNFTW     FITX   201208                    00000+07483000             000000000             000000000             0002    00000000201208151148240000000000000000012y
0108153064867TFNYF0200006134592SNFTW     FITX   201208                    00000+07479000             000000000             000000000             0002    00000000201208151148250000000000000000012y
0108153064873TFNYF0200006134592BNFTW     FITX   201208                    00000+07467000             000000000             000000000             0002    00000000201208151148250000000000000000012y
0108153064874TFNYF0200006134592SNFTW     FITX   201208                    00000+07466000             000000000             000000000             0002    00000000201208151148260000000000000000012y
0108153064876TFNYF0200006134592BNFTW     FITX   201208                    00000+07470000             000000000             000000000             0002    00000000201208151148270000000000000000012y
0108153064879TFNYF0200006134592SNFTW     FITX   201208                    00000+07469000             000000000             000000000             0002    00000000201208151148270000000000000000012y
0108153064884TFNYF0200006134592BNFTW     FITX   201208                    00000+07469000             000000000             000000000             0002    00000000201208151148280000000000000000012y
0108153064889TFNYF0200006134592SNFTW     FITX   201208                    00000+07463000             000000000             000000000             0002    00000000201208151148290000000000000000012y
0108153064891TFNYF0200006134592BNFTW     FITX   201208                    00000+07469000             000000000             000000000             0002    00000000201208151148290000000000000000012y
0108153064892TFNYF0200006134592SNFTW     FITX   201208                    00000+07469000             000000000             000000000             0002    00000000201208151148300000000000000000012y
0108153064896TFNYF0200006134592BNFTW     FITX   201208                    00000+07467000             000000000             000000000             0002    00000000201208151148300000000000000000012y
0108153064898TFNYF0200006134592SNFTW     FITX   201208                    00000+07467000             000000000             000000000             0002    00000000201208151148310000000000000000012y
0108153064900TFNYF0200006134592BNFTW     FITX   201208                    00000+07470000             000000000             000000000             0002    00000000201208151148320000000000000000012y
0108153064901TFNYF0200006134592SNFTW     FITX   201208                    00000+07469000             000000000             000000000             0002    00000000201208151148320000000000000000012y
0108153064902TFNYF0200006134592BNFTW     FITX   201208                    00000+07467000             000000000             000000000             0002    00000000201208151148330000000000000000012y
0108153064906TFNYF0200006134592SNFTW     FITX   201208                    00000+07466000             000000000             000000000             0002    00000000201208151148340000000000000000012y
0108153064908TFNYF0200006134592BNFTW     FITX   201208                    00000+07470000             000000000             000000000             0002    00000000201208151148340000000000000000012y
0108153064911TFNYF0200006134592SNFTW     FITX   201208                    00000+07469000             000000000             000000000             0002    00000000201208151148350000000000000000012y
0108153064914TFNYF0200006134592BNFTW     FITX   201208                    00000+07479000             000000000             000000000             0002    00000000201208151148360000000000000000012y
0108153064916TFNYF0200006134592SNFTW     FITX   201208                    00000+07471000             000000000             000000000             0002    00000000201208151148360000000000000000012y
0108153064918TFNYF0200006134592BNFTW     FITX   201208                    00000+07467000             000000000             000000000             0002    00000000201208151148370000000000000000012y
0108153064920TFNYF0200006134592SNFTW     FITX   201208                    00000+07466000             000000000             000000000             0002    00000000201208151148380000000000000000012y
---
---
0108143109862TFNYF0200006134592BNFTW     FITX   201208                    00000+07514000             000000000             000000000             0001    00000000201208150832170000000000000000000y
0108143109894TFNYF0200006134592BNFTW     FITX   201208                    00000+07514000             000000000             000000000             0001    00000000201208150832180000000000000000000y
0108143109793TFNYF0200006134592SNFTW     FITX   201208                    00000+07527000             000000000             000000000             0002    00000000201208150832180000000000000000000y
0108143109794TFNYF0200006134592BNFTW     FITX   201208                    00000+07533000             000000000             000000000             0002    00000000201208150832180000000000000000000y
0108143109795TFNYF0200006134592SNFTW     FITX   201208                    00000+07528000             000000000             000000000             0002    00000000201208150832180000000000000000000y
0108143109796TFNYF0200006134592BNFTW     FITX   201208                    00000+07469000             000000000             000000000             0002    00000000201208150832180000000000000000000y
0108143109797TFNYF0200006134592SNFTW     FITX   201208                    00000+07460000             000000000             000000000             0002    00000000201208150832180000000000000000000y
0108143109798TFNYF0200006134592BNFTW     FITX   201208                    00000+07471000             000000000             000000000             0002    00000000201208150832180000000000000000000y
0108143109799TFNYF0200006134592SNFTW     FITX   201208                    00000+07469000             000000000             000000000             0002    00000000201208150832180000000000000000000y
0108143109800TFNYF0200006134592BNFTW     FITX   201208                    00000+07471000             000000000             000000000             0002    00000000201208150832180000000000000000000y
0108143109801TFNYF0200006134592SNFTW     FITX   201208                    00000+07467000             000000000             000000000             0002    00000000201208150832180000000000000000000y
0108143109803TFNYF0200006134592BNFTW     FITX   201208                    00000+07473000             000000000             000000000             0002    00000000201208150832180000000000000000000y
0108143109804TFNYF0200006134592SNFTW     FITX   201208                    00000+07473000             000000000             000000000             0002    00000000201208150832180000000000000000000y
0108143109805TFNYF0200006134592BNFTW     FITX   201208                    00000+07462000             000000000             000000000             0002    00000000201208150832190000000000000000000y
0108143109806TFNYF0200006134592SNFTW     FITX   201208                    00000+07475000             000000000             000000000             0002    00000000201208150832190000000000000000000y
0108143109807TFNYF0200006134592BNFTW     FITX   201208                    00000+07472000             000000000             000000000             0002    00000000201208150832190000000000000000000y
0108143109808TFNYF0200006134592SNFTW     FITX   201208                    00000+07474000             000000000             000000000             0002    00000000201208150832190000000000000000000y
0108143109809TFNYF0200006134592BNFTW     FITX   201208                    00000+07479000             000000000             000000000             0002    00000000201208150832190000000000000000000y
0108143109810TFNYF0200006134592SNFTW     FITX   201208                    00000+07474000             000000000             000000000             0002    00000000201208150832190000000000000000000y
0108143109816TFNYF0200006134592BNFTW     FITX   201208                    00000+07514000             000000000             000000000             0001    00000000201208150832190000000000000000000y
0108143109817TFNYF0200006134592BNFTW     FITX   201208                    00000+07530000             000000000             000000000             0001    00000000201208150832190000000000000000000y
0108143109818TFNYF0200006134592SNFTW     FITX   201208                    00000+07527000             000000000             000000000             0002    00000000201208150832190000000000000000000y
0108143109819TFNYF0200006134592BNFTW     FITX   201208                    00000+07533000             000000000             000000000             0002    00000000201208150832190000000000000000000y
0108143109820TFNYF0200006134592SNFTW     FITX   201208                    00000+07528000             000000000             000000000             0002    00000000201208150832190000000000000000000y
0108143109821TFNYF0200006134592BNFTW     FITX   201208                    00000+07469000             000000000             000000000             0002    00000000201208150832190000000000000000000y
0108143109822TFNYF0200006134592SNFTW     FITX   201208                    00000+07460000             000000000             000000000             0002    00000000201208150832200000000000000000000y
0108143109823TFNYF0200006134592BNFTW     FITX   201208                    00000+07471000             000000000             000000000             0002    00000000201208150832200000000000000000000y
0108143109824TFNYF0200006134592SNFTW     FITX   201208                    00000+07469000             000000000             000000000             0002    00000000201208150832210000000000000000000y
0108143109825TFNYF0200006134592BNFTW     FITX   201208                    00000+07471000             000000000             000000000             0002    00000000201208150832210000000000000000000y
0108143109826TFNYF0200006134592SNFTW     FITX   201208                    00000+07467000             000000000             000000000             0002    00000000201208150832210000000000000000000y
0108143109827TFNYF0200006134592BNFTW     FITX   201208                    00000+07473000             000000000             000000000             0002    00000000201208150832210000000000000000000y
0108143109828TFNYF0200006134592SNFTW     FITX   201208                    00000+07473000             000000000             000000000             0002    00000000201208150832220000000000000000000y
0108143109829TFNYF0200006134592BNFTW     FITX   201208                    00000+07462000             000000000             000000000             0002    00000000201208150832220000000000000000000y
0108143109830TFNYF0200006134592SNFTW     FITX   201208                    00000+07475000             000000000             000000000             0002    00000000201208150832220000000000000000000y
0108143109831TFNYF0200006134592BNFTW     FITX   201208                    00000+07472000             000000000             000000000             0002    00000000201208150832220000000000000000000y
0108143109832TFNYF0200006134592SNFTW     FITX   201208                    00000+07474000             000000000             000000000             0002    00000000201208150832220000000000000000000y
0108143109833TFNYF0200006134592BNFTW     FITX   201208                    00000+07479000             000000000             000000000             0002    00000000201208150832220000000000000000000y
0108143109842TFNYF0200006134592BNFTW     FITX   201208                    00000+07514000             000000000             000000000             0001    00000000201208150832220000000000000000000y
0108143109930TFNYF0200006134592BNFTW     FITX   201208                    00000+07481000             000000000             000000000             0001    00000000201208150832220000000000000000000y
0108143109931TFNYF0200006134592SNFTW     FITX   201208                    00000+07527000             000000000             000000000             0002    00000000201208150832220000000000000000000y
0108143109933TFNYF0200006134592BNFTW     FITX   201208                    00000+07533000             000000000             000000000             0002    00000000201208150832220000000000000000000y
0108143109934TFNYF0200006134592SNFTW     FITX   201208                    00000+07528000             000000000             000000000             0002    00000000201208150832220000000000000000000y
0108143109935TFNYF0200006134592BNFTW     FITX   201208                    00000+07469000             000000000             000000000             0002    00000000201208150832230000000000000000000y
0108143109936TFNYF0200006134592SNFTW     FITX   201208                    00000+07460000             000000000             000000000             0002    00000000201208150832230000000000000000000y
0108143109937TFNYF0200006134592BNFTW     FITX   201208                    00000+07471000             000000000             000000000             0002    00000000201208150832230000000000000000000y
0108143109939TFNYF0200006134592SNFTW     FITX   201208                    00000+07469000             000000000             000000000             0002    00000000201208150832230000000000000000000y
0108143109940TFNYF0200006134592BNFTW     FITX   201208                    00000+07471000             000000000             000000000             0002    00000000201208150832230000000000000000000y
0108143109941TFNYF0200006134592SNFTW     FITX   201208                    00000+07467000             000000000             000000000             0002    00000000201208150832230000000000000000000y
0108143106906TFNYF0200006134592BNFTW     FITX   201208                    00000+07505000             000000000             000000000             0973    00000000201208150832230000000000000000000y
0108143106908TFNYF0200006134592SNFTW     FITX   201208                    00000+07526000             000000000             000000000             0001    00000000201208150832230000000000000000000y
0108143106909TFNYF0200006134592BNFTW     FITX   201208                    00000+07470000             000000000             000000000             0002    00000000201208150832230000000000000000000y
0108143106910TFNYF0200006134592SNFTW     FITX   201208                    00000+07460000             000000000             000000000             0002    00000000201208150832230000000000000000000y
0108143106911TFNYF0200006134592BNFTW     FITX   201208                    00000+07470000             000000000             000000000             0002    00000000201208150832230000000000000000000y
0108143106912TFNYF0200006134592SNFTW     FITX   201208                    00000+07468000             000000000             000000000             0002    00000000201208150832240000000000000000000y
0108143106913TFNYF0200006134592BNFTW     FITX   201208                    00000+07466000             000000000             000000000             0002    00000000201208150832240000000000000000000y
0108143106914TFNYF0200006134592SNFTW     FITX   201208                    00000+07473000             000000000             000000000             0002    00000000201208150832240000000000000000000y
0108143106915TFNYF0200006134592BNFTW     FITX   201208                    00000+07475000             000000000             000000000             0002    00000000201208150832240000000000000000000y
0108143106916TFNYF0200006134592SNFTW     FITX   201208                    00000+07473000             000000000             000000000             0002    00000000201208150832240000000000000000000y
0108143106917TFNYF0200006134592BNFTW     FITX   201208                    00000+07481000             000000000             000000000             0002    00000000201208150832240000000000000000000y
0108143109942TFNYF0200006134592BNFTW     FITX   201208                    00000+07473000             000000000             000000000             0002    00000000201208150832240000000000000000000y
0108143109943TFNYF0200006134592SNFTW     FITX   201208                    00000+07473000             000000000             000000000             0002    00000000201208150832240000000000000000000y
0108143109944TFNYF0200006134592BNFTW     FITX   201208                    00000+07462000             000000000             000000000             0002    00000000201208150832240000000000000000000y
0108143109945TFNYF0200006134592SNFTW     FITX   201208                    00000+07475000             000000000             000000000             0002    00000000201208150832240000000000000000000y
0108143109946TFNYF0200006134592BNFTW     FITX   201208                    00000+07472000             000000000             000000000             0002    00000000201208150832240000000000000000000y
0108143109947TFNYF0200006134592SNFTW     FITX   201208                    00000+07474000             000000000             000000000             0002    00000000201208150832240000000000000000000y
0108143109948TFNYF0200006134592BNFTW     FITX   201208                    00000+07479000             000000000             000000000             0002    00000000201208150832250000000000000000000y
0108143109986TFNYF0200006134592BNFTW     FITX   201208                    00000+07514000             000000000             000000000             0001    00000000201208150832250000000000000000000y
0108153062999TFNYF0200006134592SNFTW     FITX   201208                    00000+07469000             000000000             000000000             0002    00000000201208151136550000000000000000012y
0108153063002TFNYF0200006134592BNFTW     FITX   201208                    00000+07469000             000000000             000000000             0002    00000000201208151136560000000000000000012y
0108153063009TFNYF0200006134592SNFTW     FITX   201208                    00000+07463000             000000000             000000000             0002    00000000201208151136580000000000000000012y
0108153063018TFNYF0200006134592BNFTW     FITX   201208                    00000+07470000             000000000             000000000             0002    00000000201208151137020000000000000000012y
0108153063021TFNYF0200006134592BNFTW     FITX   201208                    00000+07469000             000000000             000000000             0002    00000000201208151137030000000000000000012y
0108153063030TFNYF0200006134592SNFTW     FITX   201208                    00000+07469000             000000000             000000000             0002    00000000201208151137050000000000000000012y
0108153063045TFNYF0200006134592SNFTW     FITX   201208                    00000+07466000             000000000             000000000             0002    00000000201208151137110000000000000000012y
0108153063047TFNYF0200006134592BNFTW     FITX   201208                    00000+07467000             000000000             000000000             0002    00000000201208151137120000000000000000012y
0108153063051TFNYF0200006134592SNFTW     FITX   201208                    00000+07467000             000000000             000000000             0002    00000000201208151137140000000000000000012y
0108153063054TFNYF0200006134592BNFTW     FITX   201208                    00000+07470000             000000000             000000000             0002    00000000201208151137160000000000000000012y
0108153063060TFNYF0200006134592SNFTW     FITX   201208                    00000+07469000             000000000             000000000             0002    00000000201208151137190000000000000000012y
0108153063071TFNYF0200006134592BNFTW     FITX   201208                    00000+07467000             000000000             000000000             0002    00000000201208151137240000000000000000012y
0108153063074TFNYF0200006134592BNFTW     FITX   201208                    00000+07467000             000000000             000000000             0002    00000000201208151137250000000000000000012y
0108153063081TFNYF0200006134592SNFTW     FITX   201208                    00000+07466000             000000000             000000000             0002    00000000201208151137280000000000000000012y
0108153063093TFNYF0200006134592BNFTW     FITX   201208                    00000+07470000             000000000             000000000             0002    00000000201208151137310000000000000000012y
0108153063101TFNYF0200006134592SNFTW     FITX   201208                    00000+07469000             000000000             000000000             0002    00000000201208151137340000000000000000012y
0108153063118TFNYF0200006134592SNFTW     FITX   201208                    00000+07479000             000000000             000000000             0002    00000000201208151137390000000000000000012y
0108153063122TFNYF0200006134592BNFTW     FITX   201208                    00000+07479000             000000000             000000000             0002    00000000201208151137400000000000000000012y
0108153063134TFNYF0200006134592SNFTW     FITX   201208                    00000+07471000             000000000             000000000             0002    00000000201208151137440000000000000000012y
0108153063158TFNYF0200006134592BNFTW     FITX   201208                    00000+07467000             000000000             000000000             0002    00000000201208151137520000000000000000012y
0108153063163TFNYF0200006134592SNFTW     FITX   201208                    00000+07466000             000000000             000000000             0002    00000000201208151137550000000000000000012y
0108153064270TFNYF0200006134592BNFTW     FITX   201208                    00000+07490000             000000000             000000000             0022    00000000201208151144240000000000000000012y
0108153064272TFNYF0200006134592SNFTW     FITX   201208                    00000+07481000             000000000             000000000             0002    00000000201208151144240000000000000000012y
0108153064273TFNYF0200006134592BNFTW     FITX   201208                    00000+07483000             000000000             000000000             0002    00000000201208151144250000000000000000012y
0108153064276TFNYF0200006134592SNFTW     FITX   201208                    00000+07479000             000000000             000000000             0002    00000000201208151144260000000000000000012y
0108153064277TFNYF0200006134592BNFTW     FITX   201208                    00000+07467000             000000000             000000000             0002    00000000201208151144260000000000000000012y
0108153064279TFNYF0200006134592SNFTW     FITX   201208                    00000+07466000             000000000             000000000             0002    00000000201208151144270000000000000000012y
0108153064280TFNYF0200006134592BNFTW     FITX   201208                    00000+07470000             000000000             000000000             0002    00000000201208151144270000000000000000012y
0108153064281TFNYF0200006134592SNFTW     FITX   201208                    00000+07469000             000000000             000000000             0002    00000000201208151144280000000000000000012y
0108153064283TFNYF0200006134592BNFTW     FITX   201208                    00000+07469000             000000000             000000000             0002    00000000201208151144290000000000000000012y
0108153064285TFNYF0200006134592SNFTW     FITX   201208                    00000+07463000             000000000             000000000             0002    00000000201208151144290000000000000000012y
0108153064288TFNYF0200006134592BNFTW     FITX   201208                    00000+07469000             000000000             000000000             0002    00000000201208151144300000000000000000012y
0108153064292TFNYF0200006134592SNFTW     FITX   201208                    00000+07469000             000000000             000000000             0002    00000000201208151144310000000000000000012y
0108153064295TFNYF0200006134592BNFTW     FITX   201208                    00000+07467000             000000000             000000000             0002    00000000201208151144320000000000000000012y
0108153064297TFNYF0200006134592SNFTW     FITX   201208                    00000+07467000             000000000             000000000             0002    00000000201208151144320000000000000000012y
0108153064299TFNYF0200006134592BNFTW     FITX   201208                    00000+07470000             000000000             000000000             0002    00000000201208151144330000000000000000012y
0108153064303TFNYF0200006134592SNFTW     FITX   201208                    00000+07469000             000000000             000000000             0002    00000000201208151144330000000000000000012y
0108153064304TFNYF0200006134592BNFTW     FITX   201208                    00000+07467000             000000000             000000000             0002    00000000201208151144340000000000000000012y
0108153064305TFNYF0200006134592SNFTW     FITX   201208                    00000+07466000             000000000             000000000             0002    00000000201208151144350000000000000000012y
0108153064308TFNYF0200006134592BNFTW     FITX   201208                    00000+07470000             000000000             000000000             0002    00000000201208151144350000000000000000012y
0108153064311TFNYF0200006134592SNFTW     FITX   201208                    00000+07469000             000000000             000000000             0002    00000000201208151144360000000000000000012y
0108153064312TFNYF0200006134592BNFTW     FITX   201208                    00000+07479000             000000000             000000000             0002    00000000201208151144370000000000000000012y
