---
---
---
---
---
0106213091357TFNYF0200006134592BNFTW     FITX   201207                    00000+07160000             000000000             000000000             0002    00000000201206220832160000000000000000000y
0106213091358TFNYF0200006134592SNFTW     FITX   201207                    00000+07134000             000000000             000000000             0002    00000000201206220832160000000000000000000y
0106213091359TFNYF0200006134592BNFTW     FITX   201207                    00000+07134000             000000000             000000000             0002    00000000201206220832160000000000000000000y
0106213091360TFNYF0200006134592SNFTW     FITX   201207                    00000+07108000             000000000             000000000             0002    00000000201206220832170000000000000000000y
0106213091361TFNYF0200006134592BNFTW     FITX   201207                    00000+07110000             000000000             000000000             0002    00000000201206220832170000000000000000000y
0106213091362TFNYF0200006134592SNFTW     FITX   201207                    00000+07100000             000000000             000000000             0002    00000000201206220832170000000000000000000y
0106213091363TFNYF0200006134592BNFTW     FITX   201207                    00000+07101000             000000000             000000000             0002    00000000201206220832170000000000000000000y
0106213091364TFNYF0200006134592SNFTW     FITX   201207                    00000+07100000             000000000             000000000             0002    00000000201206220832170000000000000000000y
0106213093654TFNYF0200006134592BNFTW     FITX   201207                    00000+07148000             000000000             000000000             0001    00000000201206220832170000000000000000000y
0106213093655TFNYF0200006134592BNFTW     FITX   201207                    00000+07150000             000000000             000000000             0001    00000000201206220832170000000000000000000y
0106213093656TFNYF0200006134592SNFTW     FITX   201207                    00000+07151000             000000000             000000000             0002    00000000201206220832170000000000000000000y
0106213093657TFNYF0200006134592BNFTW     FITX   201207                    00000+07152000             000000000             000000000             0002    00000000201206220832170000000000000000000y
0106213093658TFNYF0200006134592SNFTW     FITX   201207                    00000+07147000             000000000             000000000             0002    00000000201206220832170000000000000000000y
0106213093659TFNYF0200006134592BNFTW     FITX   201207                    00000+07151000             000000000             000000000             0002    00000000201206220832170000000000000000000y
0106213093660TFNYF0200006134592SNFTW     FITX   201207                    00000+07145000             000000000             000000000             0002    00000000201206220832170000000000000000000y
0106213093661TFNYF0200006134592BNFTW     FITX   201207                    00000+07117000             000000000             000000000             0002    00000000201206220832180000000000000000000y
0106213093662TFNYF0200006134592SNFTW     FITX   201207                    00000+07109000             000000000             000000000             0002    00000000201206220832190000000000000000000y
0106213093663TFNYF0200006134592BNFTW     FITX   201207                    00000+07113000             000000000             000000000             0002    00000000201206220832190000000000000000000y
0106213093664TFNYF0200006134592SNFTW     FITX   201207                    00000+07108000             000000000             000000000             0002    00000000201206220832190000000000000000000y
0106213093665TFNYF0200006134592BNFTW     FITX   201207                    00000+07110000             000000000             000000000             0002    00000000201206220832190000000000000000000y
0106213093666TFNYF0200006134592SNFTW     FITX   201207                    00000+07109000             000000000             000000000             0002    00000000201206220832190000000000000000000y
0106213093667TFNYF0200006134592BNFTW     FITX   201207                    00000+07099000             000000000             000000000             0002    00000000201206220832200000000000000000000y
0106213093668TFNYF0200006134592SNFTW     FITX   201207                    00000+07101000             000000000             000000000             0002    00000000201206220832200000000000000000000y
0106213093669TFNYF0200006134592BNFTW     FITX   201207                    00000+07108000             000000000             000000000             0002    00000000201206220832200000000000000000000y
0106213093670TFNYF0200006134592SNFTW     FITX   201207                    00000+07109000             000000000             000000000             0002    00000000201206220832200000000000000000000y
0106213093671TFNYF0200006134592BNFTW     FITX   201207                    00000+07113000             000000000             000000000             0002    00000000201206220832200000000000000000000y
0106213093672TFNYF0200006134592SNFTW     FITX   201207                    00000+07116000             000000000             000000000             0002    00000000201206220832200000000000000000000y
0106213094093TFNYF0200006134592SNFTW     FITX   201207                    00000+07148000             000000000             000000000             0002    00000000201206220832200000000000000000000y
0106213094094TFNYF0200006134592BNFTW     FITX   201207                    00000+07148000             000000000             000000000             0002    00000000201206220832200000000000000000000y
0106213091149TFNYF0200006134592BNFTW     FITX   201207                    00000+07124000             000000000             000000000             0001    00000000201206220832200000000000000000000y
0106213091154TFNYF0200006134592SNFTW     FITX   201207                    00000+07119000             000000000             000000000             0001    00000000201206220832200000000000000000000y
0106213091365TFNYF0200006134592BNFTW     FITX   201207                    00000+07100000             000000000             000000000             0002    00000000201206220832200000000000000000000y
0106213091369TFNYF0200006134592BNFTW     FITX   201207                    00000+07100000             000000000             000000000             0002    00000000201206220832200000000000000000000y
0106213091370TFNYF0200006134592SNFTW     FITX   201207                    00000+07100000             000000000             000000000             0002    00000000201206220832200000000000000000000y
0106213091371TFNYF0200006134592BNFTW     FITX   201207                    00000+07100000             000000000             000000000             0002    00000000201206220832200000000000000000000y
0106213091372TFNYF0200006134592SNFTW     FITX   201207                    00000+07100000             000000000             000000000             0002    00000000201206220832210000000000000000000y
0106213091366TFNYF0200006134592SNFTW     FITX   201207                    00000+07100000             000000000             000000000             0002    00000000201206220832210000000000000000000y
0106213091373TFNYF0200006134592BNFTW     FITX   201207                    00000+07100000             000000000             000000000             0002    00000000201206220832210000000000000000000y
0106213091374TFNYF0200006134592SNFTW     FITX   201207                    00000+07100000             000000000             000000000             0002    00000000201206220832210000000000000000000y
0106213091367TFNYF0200006134592BNFTW     FITX   201207                    00000+07100000             000000000             000000000             0002    00000000201206220832210000000000000000000y
0106213091375TFNYF0200006134592BNFTW     FITX   201207                    00000+07100000             000000000             000000000             0002    00000000201206220832210000000000000000000y
0106213091376TFNYF0200006134592SNFTW     FITX   201207                    00000+07100000             000000000             000000000             0002    00000000201206220832210000000000000000000y
0106213091377TFNYF0200006134592BNFTW     FITX   201207                    00000+07100000             000000000             000000000             0002    00000000201206220832210000000000000000000y
0106213091378TFNYF0200006134592SNFTW     FITX   201207                    00000+07100000             000000000             000000000             0002    00000000201206220832210000000000000000000y
0106213091379TFNYF0200006134592BNFTW     FITX   201207                    00000+07100000             000000000             000000000             0002    00000000201206220832210000000000000000000y
0106213091380TFNYF0200006134592SNFTW     FITX   201207                    00000+07100000             000000000             000000000             0002    00000000201206220832220000000000000000000y
0106213091381TFNYF0200006134592BNFTW     FITX   201207                    00000+07100000             000000000             000000000             0002    00000000201206220832220000000000000000000y
0106213091382TFNYF0200006134592SNFTW     FITX   201207                    00000+07100000             000000000             000000000             0002    00000000201206220832220000000000000000000y
0106213091383TFNYF0200006134592BNFTW     FITX   201207                    00000+07101000             000000000             000000000             0002    00000000201206220832220000000000000000000y
0106213091384TFNYF0200006134592SNFTW     FITX   201207                    00000+07100000             000000000             000000000             0002    00000000201206220832220000000000000000000y
0106213091368TFNYF0200006134592SNFTW     FITX   201207                    00000+07100000             000000000             000000000             0002    00000000201206220832220000000000000000000y
0106213091385TFNYF0200006134592BNFTW     FITX   201207                    00000+07100000             000000000             000000000             0002    00000000201206220832220000000000000000000y
0106213091386TFNYF0200006134592SNFTW     FITX   201207                    00000+07100000             000000000             000000000             0002    00000000201206220832220000000000000000000y
0106213091387TFNYF0200006134592BNFTW     FITX   201207                    00000+07100000             000000000             000000000             0002    00000000201206220832220000000000000000000y
0106213091388TFNYF0200006134592SNFTW     FITX   201207                    00000+07100000             000000000             000000000             0002    00000000201206220832220000000000000000000y
0106213091389TFNYF0200006134592BNFTW     FITX   201207                    00000+07100000             000000000             000000000             0002    00000000201206220832220000000000000000000y
0106213091390TFNYF0200006134592SNFTW     FITX   201207                    00000+07100000             000000000             000000000             0002    00000000201206220832230000000000000000000y
0106213091391TFNYF0200006134592BNFTW     FITX   201207                    00000+07100000             000000000             000000000             0002    00000000201206220832230000000000000000000y
0106213091392TFNYF0200006134592SNFTW     FITX   201207                    00000+07100000             000000000             000000000             0002    00000000201206220832230000000000000000000y
0106213091393TFNYF0200006134592BNFTW     FITX   201207                    00000+07101000             000000000             000000000             0002    00000000201206220832230000000000000000000y
0106213091394TFNYF0200006134592SNFTW     FITX   201207                    00000+07100000             000000000             000000000             0002    00000000201206220832230000000000000000000y
0106213091395TFNYF0200006134592BNFTW     FITX   201207                    00000+07100000             000000000             000000000             0002    00000000201206220832230000000000000000000y
0106213091396TFNYF0200006134592SNFTW     FITX   201207                    00000+07100000             000000000             000000000             0002    00000000201206220832230000000000000000000y
0106213091397TFNYF0200006134592BNFTW     FITX   201207                    00000+07100000             000000000             000000000             0002    00000000201206220832230000000000000000000y
0106213094064TFNYF0200006134592BNFTW     FITX   201207                    00000+07160000             000000000             000000000             0002    00000000201206220832230000000000000000000y
0106213094068TFNYF0200006134592SNFTW     FITX   201207                    00000+07148000             000000000             000000000             0002    00000000201206220832230000000000000000000y
0106213094069TFNYF0200006134592BNFTW     FITX   201207                    00000+07148000             000000000             000000000             0002    00000000201206220832230000000000000000000y
0106213094070TFNYF0200006134592SNFTW     FITX   201207                    00000+07148000             000000000             000000000             0002    00000000201206220832240000000000000000000y
0106213094071TFNYF0200006134592BNFTW     FITX   201207                    00000+07148000             000000000             000000000             0002    00000000201206220832240000000000000000000y
0106213094072TFNYF0200006134592SNFTW     FITX   201207                    00000+07147000             000000000             000000000             0002    00000000201206220832240000000000000000000y
0106213094073TFNYF0200006134592BNFTW     FITX   201207                    00000+07147000             000000000             000000000             0002    00000000201206220832240000000000000000000y
0106213094074TFNYF0200006134592SNFTW     FITX   201207                    00000+07147000             000000000             000000000             0002    00000000201206220832240000000000000000000y
0106213094075TFNYF0200006134592BNFTW     FITX   201207                    00000+07147000             000000000             000000000             0002    00000000201206220832240000000000000000000y
0106213094076TFNYF0200006134592SNFTW     FITX   201207                    00000+07148000             000000000             000000000             0002    00000000201206220832240000000000000000000y
0106213094077TFNYF0200006134592BNFTW     FITX   201207                    00000+07148000             000000000             000000000             0002    00000000201206220832240000000000000000000y
0106213094078TFNYF0200006134592SNFTW     FITX   201207                    00000+07148000             000000000             000000000             0002    00000000201206220832240000000000000000000y
0106213094079TFNYF0200006134592BNFTW     FITX   201207                    00000+07148000             000000000             000000000             0002    00000000201206220832240000000000000000000y
0106213094080TFNYF0200006134592SNFTW     FITX   201207                    00000+07148000             000000000             000000000             0002    00000000201206220832240000000000000000000y
0106213094081TFNYF0200006134592BNFTW     FITX   201207                    00000+07148000             000000000             000000000             0002    00000000201206220832240000000000000000000y
0106213094082TFNYF0200006134592SNFTW     FITX   201207                    00000+07148000             000000000             000000000             0002    00000000201206220832250000000000000000000y
0106213094083TFNYF0200006134592BNFTW     FITX   201207                    00000+07148000             000000000             000000000             0002    00000000201206220832250000000000000000000y
0106213094084TFNYF0200006134592SNFTW     FITX   201207                    00000+07147000             000000000             000000000             0002    00000000201206220832250000000000000000000y
0106213094085TFNYF0200006134592BNFTW     FITX   201207                    00000+07147000             000000000             000000000             0002    00000000201206220832250000000000000000000y
0106213094087TFNYF0200006134592SNFTW     FITX   201207                    00000+07148000             000000000             000000000             0002    00000000201206220832250000000000000000000y
0106213094088TFNYF0200006134592BNFTW     FITX   201207                    00000+07148000             000000000             000000000             0002    00000000201206220832250000000000000000000y
0106213094089TFNYF0200006134592SNFTW     FITX   201207                    00000+07147000             000000000             000000000             0002    00000000201206220832250000000000000000000y
0106213094090TFNYF0200006134592BNFTW     FITX   201207                    00000+07147000             000000000             000000000             0002    00000000201206220832250000000000000000000y
0106213094091TFNYF0200006134592SNFTW     FITX   201207                    00000+07147000             000000000             000000000             0002    00000000201206220832250000000000000000000y
0106213094092TFNYF0200006134592BNFTW     FITX   201207                    00000+07147000             000000000             000000000             0002    00000000201206220832250000000000000000000y
0106213091120TFNYF0200006134592BNFTW     FITX   201207                    00000+07148000             000000000             000000000             0001    00000000201206220832250000000000000000000y
0106213091134TFNYF0200006134592SNFTW     FITX   201207                    00000+07134000             000000000             000000000             0001    00000000201206220832250000000000000000000y
0106213091135TFNYF0200006134592BNFTW     FITX   201207                    00000+07135000             000000000             000000000             0001    00000000201206220832260000000000000000000y
0106213091264TFNYF0200006134592BNFTW     FITX   201207                    00000+07103000             000000000             000000000             0002    00000000201206220832260000000000000000000y
0106213091268TFNYF0200006134592BNFTW     FITX   201207                    00000+07148000             000000000             000000000             0001    00000000201206220832260000000000000000000y
0106213091265TFNYF0200006134592SNFTW     FITX   201207                    00000+07117000             000000000             000000000             0002    00000000201206220832260000000000000000000y
0106213091269TFNYF0200006134592SNFTW     FITX   201207                    00000+07133000             000000000             000000000             0001    00000000201206220832260000000000000000000y
0106213091270TFNYF0200006134592BNFTW     FITX   201207                    00000+07136000             000000000             000000000             0001    00000000201206220832260000000000000000000y
0106213091272TFNYF0200006134592BNFTW     FITX   201207                    00000+07103000             000000000             000000000             0002    00000000201206220832260000000000000000000y
0106213091273TFNYF0200006134592SNFTW     FITX   201207                    00000+07117000             000000000             000000000             0002    00000000201206220832260000000000000000000y
0106213091275TFNYF0200006134592BNFTW     FITX   201207                    00000+07119000             000000000             000000000             0002    00000000201206220832260000000000000000000y
0106213091238TFNYF0200006134592BNFTW     FITX   201207                    00000+07148000             000000000             000000000             0001    00000000201206220832270000000000000000000y
0106213091239TFNYF0200006134592SNFTW     FITX   201207                    00000+07133000             000000000             000000000             0001    00000000201206220832270000000000000000000y
0106213091240TFNYF0200006134592BNFTW     FITX   201207                    00000+07136000             000000000             000000000             0001    00000000201206220832270000000000000000000y
0106213091253TFNYF0200006134592BNFTW     FITX   201207                    00000+07103000             000000000             000000000             0002    00000000201206220832270000000000000000000y
0106213091254TFNYF0200006134592SNFTW     FITX   201207                    00000+07117000             000000000             000000000             0002    00000000201206220832270000000000000000000y
0106213091256TFNYF0200006134592BNFTW     FITX   201207                    00000+07119000             000000000             000000000             0002    00000000201206220832270000000000000000000y
---
---
0106213091357TFNYF0200006134592BNFTW     FITX   201207                    00000+07160000             000000000             000000000             0002    00000000201206220832160000000000000000000y
0106213091358TFNYF0200006134592SNFTW     FITX   201207                    00000+07134000             000000000             000000000             0002    00000000201206220832160000000000000000000y
0106213091359TFNYF0200006134592BNFTW     FITX   201207                    00000+07134000             000000000             000000000             0002    00000000201206220832160000000000000000000y
0106213091360TFNYF0200006134592SNFTW     FITX   201207                    00000+07108000             000000000             000000000             0002    00000000201206220832170000000000000000000y
0106213091361TFNYF0200006134592BNFTW     FITX   201207                    00000+07110000             000000000             000000000             0002    00000000201206220832170000000000000000000y
0106213091362TFNYF0200006134592SNFTW     FITX   201207                    00000+07100000             000000000             000000000             0002    00000000201206220832170000000000000000000y
0106213091363TFNYF0200006134592BNFTW     FITX   201207                    00000+07101000             000000000             000000000             0002    00000000201206220832170000000000000000000y
0106213091364TFNYF0200006134592SNFTW     FITX   201207                    00000+07100000             000000000             000000000             0002    00000000201206220832170000000000000000000y
0106213093654TFNYF0200006134592BNFTW     FITX   201207                    00000+07148000             000000000             000000000             0001    00000000201206220832170000000000000000000y
0106213093655TFNYF0200006134592BNFTW     FITX   201207                    00000+07150000             000000000             000000000             0001    00000000201206220832170000000000000000000y
0106213093656TFNYF0200006134592SNFTW     FITX   201207                    00000+07151000             000000000             000000000             0002    00000000201206220832170000000000000000000y
0106213093657TFNYF0200006134592BNFTW     FITX   201207                    00000+07152000             000000000             000000000             0002    00000000201206220832170000000000000000000y
0106213093658TFNYF0200006134592SNFTW     FITX   201207                    00000+07147000             000000000             000000000             0002    00000000201206220832170000000000000000000y
0106213093659TFNYF0200006134592BNFTW     FITX   201207                    00000+07151000             000000000             000000000             0002    00000000201206220832170000000000000000000y
0106213093660TFNYF0200006134592SNFTW     FITX   201207                    00000+07145000             000000000             000000000             0002    00000000201206220832170000000000000000000y
0106213093661TFNYF0200006134592BNFTW     FITX   201207                    00000+07117000             000000000             000000000             0002    00000000201206220832180000000000000000000y
0106213093662TFNYF0200006134592SNFTW     FITX   201207                    00000+07109000             000000000             000000000             0002    00000000201206220832190000000000000000000y
0106213093663TFNYF0200006134592BNFTW     FITX   201207                    00000+07113000             000000000             000000000             0002    00000000201206220832190000000000000000000y
0106213093664TFNYF0200006134592SNFTW     FITX   201207                    00000+07108000             000000000             000000000             0002    00000000201206220832190000000000000000000y
0106213093665TFNYF0200006134592BNFTW     FITX   201207                    00000+07110000             000000000             000000000             0002    00000000201206220832190000000000000000000y
0106213093666TFNYF0200006134592SNFTW     FITX   201207                    00000+07109000             000000000             000000000             0002    00000000201206220832190000000000000000000y
0106213093667TFNYF0200006134592BNFTW     FITX   201207                    00000+07099000             000000000             000000000             0002    00000000201206220832200000000000000000000y
0106213093668TFNYF0200006134592SNFTW     FITX   201207                    00000+07101000             000000000             000000000             0002    00000000201206220832200000000000000000000y
0106213093669TFNYF0200006134592BNFTW     FITX   201207                    00000+07108000             000000000             000000000             0002    00000000201206220832200000000000000000000y
0106213093670TFNYF0200006134592SNFTW     FITX   201207                    00000+07109000             000000000             000000000             0002    00000000201206220832200000000000000000000y
0106213093671TFNYF0200006134592BNFTW     FITX   201207                    00000+07113000             000000000             000000000             0002    00000000201206220832200000000000000000000y
0106213093672TFNYF0200006134592SNFTW     FITX   201207                    00000+07116000             000000000             000000000             0002    00000000201206220832200000000000000000000y
0106213094093TFNYF0200006134592SNFTW     FITX   201207                    00000+07148000             000000000             000000000             0002    00000000201206220832200000000000000000000y
0106213094094TFNYF0200006134592BNFTW     FITX   201207                    00000+07148000             000000000             000000000             0002    00000000201206220832200000000000000000000y
0106213091149TFNYF0200006134592BNFTW     FITX   201207                    00000+07124000             000000000             000000000             0001    00000000201206220832200000000000000000000y
0106213091154TFNYF0200006134592SNFTW     FITX   201207                    00000+07119000             000000000             000000000             0001    00000000201206220832200000000000000000000y
0106213091365TFNYF0200006134592BNFTW     FITX   201207                    00000+07100000             000000000             000000000             0002    00000000201206220832200000000000000000000y
0106213091369TFNYF0200006134592BNFTW     FITX   201207                    00000+07100000             000000000             000000000             0002    00000000201206220832200000000000000000000y
0106213091370TFNYF0200006134592SNFTW     FITX   201207                    00000+07100000             000000000             000000000             0002    00000000201206220832200000000000000000000y
0106213091371TFNYF0200006134592BNFTW     FITX   201207                    00000+07100000             000000000             000000000             0002    00000000201206220832200000000000000000000y
0106213091372TFNYF0200006134592SNFTW     FITX   201207                    00000+07100000             000000000             000000000             0002    00000000201206220832210000000000000000000y
0106213091366TFNYF0200006134592SNFTW     FITX   201207                    00000+07100000             000000000             000000000             0002    00000000201206220832210000000000000000000y
0106213091373TFNYF0200006134592BNFTW     FITX   201207                    00000+07100000             000000000             000000000             0002    00000000201206220832210000000000000000000y
0106213091374TFNYF0200006134592SNFTW     FITX   201207                    00000+07100000             000000000             000000000             0002    00000000201206220832210000000000000000000y
0106213091367TFNYF0200006134592BNFTW     FITX   201207                    00000+07100000             000000000             000000000             0002    00000000201206220832210000000000000000000y
0106213091375TFNYF0200006134592BNFTW     FITX   201207                    00000+07100000             000000000             000000000             0002    00000000201206220832210000000000000000000y
0106213091376TFNYF0200006134592SNFTW     FITX   201207                    00000+07100000             000000000             000000000             0002    00000000201206220832210000000000000000000y
0106213091377TFNYF0200006134592BNFTW     FITX   201207                    00000+07100000             000000000             000000000             0002    00000000201206220832210000000000000000000y
0106213091378TFNYF0200006134592SNFTW     FITX   201207                    00000+07100000             000000000             000000000             0002    00000000201206220832210000000000000000000y
0106213091379TFNYF0200006134592BNFTW     FITX   201207                    00000+07100000             000000000             000000000             0002    00000000201206220832210000000000000000000y
0106213091380TFNYF0200006134592SNFTW     FITX   201207                    00000+07100000             000000000             000000000             0002    00000000201206220832220000000000000000000y
0106213091381TFNYF0200006134592BNFTW     FITX   201207                    00000+07100000             000000000             000000000             0002    00000000201206220832220000000000000000000y
0106213091382TFNYF0200006134592SNFTW     FITX   201207                    00000+07100000             000000000             000000000             0002    00000000201206220832220000000000000000000y
0106213091383TFNYF0200006134592BNFTW     FITX   201207                    00000+07101000             000000000             000000000             0002    00000000201206220832220000000000000000000y
0106213091384TFNYF0200006134592SNFTW     FITX   201207                    00000+07100000             000000000             000000000             0002    00000000201206220832220000000000000000000y
0106213091368TFNYF0200006134592SNFTW     FITX   201207                    00000+07100000             000000000             000000000             0002    00000000201206220832220000000000000000000y
0106213091385TFNYF0200006134592BNFTW     FITX   201207                    00000+07100000             000000000             000000000             0002    00000000201206220832220000000000000000000y
0106213091386TFNYF0200006134592SNFTW     FITX   201207                    00000+07100000             000000000             000000000             0002    00000000201206220832220000000000000000000y
0106213091387TFNYF0200006134592BNFTW     FITX   201207                    00000+07100000             000000000             000000000             0002    00000000201206220832220000000000000000000y
0106213091388TFNYF0200006134592SNFTW     FITX   201207                    00000+07100000             000000000             000000000             0002    00000000201206220832220000000000000000000y
0106213091389TFNYF0200006134592BNFTW     FITX   201207                    00000+07100000             000000000             000000000             0002    00000000201206220832220000000000000000000y
0106213091390TFNYF0200006134592SNFTW     FITX   201207                    00000+07100000             000000000             000000000             0002    00000000201206220832230000000000000000000y
0106213091391TFNYF0200006134592BNFTW     FITX   201207                    00000+07100000             000000000             000000000             0002    00000000201206220832230000000000000000000y
0106213091392TFNYF0200006134592SNFTW     FITX   201207                    00000+07100000             000000000             000000000             0002    00000000201206220832230000000000000000000y
0106213091393TFNYF0200006134592BNFTW     FITX   201207                    00000+07101000             000000000             000000000             0002    00000000201206220832230000000000000000000y
0106213091394TFNYF0200006134592SNFTW     FITX   201207                    00000+07100000             000000000             000000000             0002    00000000201206220832230000000000000000000y
0106213091395TFNYF0200006134592BNFTW     FITX   201207                    00000+07100000             000000000             000000000             0002    00000000201206220832230000000000000000000y
0106213091396TFNYF0200006134592SNFTW     FITX   201207                    00000+07100000             000000000             000000000             0002    00000000201206220832230000000000000000000y
0106213091397TFNYF0200006134592BNFTW     FITX   201207                    00000+07100000             000000000             000000000             0002    00000000201206220832230000000000000000000y
0106213094064TFNYF0200006134592BNFTW     FITX   201207                    00000+07160000             000000000             000000000             0002    00000000201206220832230000000000000000000y
0106213094068TFNYF0200006134592SNFTW     FITX   201207                    00000+07148000             000000000             000000000             0002    00000000201206220832230000000000000000000y
0106213094069TFNYF0200006134592BNFTW     FITX   201207                    00000+07148000             000000000             000000000             0002    00000000201206220832230000000000000000000y
0106213094070TFNYF0200006134592SNFTW     FITX   201207                    00000+07148000             000000000             000000000             0002    00000000201206220832240000000000000000000y
0106213094071TFNYF0200006134592BNFTW     FITX   201207                    00000+07148000             000000000             000000000             0002    00000000201206220832240000000000000000000y
0106213094072TFNYF0200006134592SNFTW     FITX   201207                    00000+07147000             000000000             000000000             0002    00000000201206220832240000000000000000000y
0106213094073TFNYF0200006134592BNFTW     FITX   201207                    00000+07147000             000000000             000000000             0002    00000000201206220832240000000000000000000y
0106213094074TFNYF0200006134592SNFTW     FITX   201207                    00000+07147000             000000000             000000000             0002    00000000201206220832240000000000000000000y
0106213094075TFNYF0200006134592BNFTW     FITX   201207                    00000+07147000             000000000             000000000             0002    00000000201206220832240000000000000000000y
0106213094076TFNYF0200006134592SNFTW     FITX   201207                    00000+07148000             000000000             000000000             0002    00000000201206220832240000000000000000000y
0106213094077TFNYF0200006134592BNFTW     FITX   201207                    00000+07148000             000000000             000000000             0002    00000000201206220832240000000000000000000y
0106213094078TFNYF0200006134592SNFTW     FITX   201207                    00000+07148000             000000000             000000000             0002    00000000201206220832240000000000000000000y
0106213094079TFNYF0200006134592BNFTW     FITX   201207                    00000+07148000             000000000             000000000             0002    00000000201206220832240000000000000000000y
0106213094080TFNYF0200006134592SNFTW     FITX   201207                    00000+07148000             000000000             000000000             0002    00000000201206220832240000000000000000000y
0106213094081TFNYF0200006134592BNFTW     FITX   201207                    00000+07148000             000000000             000000000             0002    00000000201206220832240000000000000000000y
0106213094082TFNYF0200006134592SNFTW     FITX   201207                    00000+07148000             000000000             000000000             0002    00000000201206220832250000000000000000000y
0106213094083TFNYF0200006134592BNFTW     FITX   201207                    00000+07148000             000000000             000000000             0002    00000000201206220832250000000000000000000y
0106213094084TFNYF0200006134592SNFTW     FITX   201207                    00000+07147000             000000000             000000000             0002    00000000201206220832250000000000000000000y
0106213094085TFNYF0200006134592BNFTW     FITX   201207                    00000+07147000             000000000             000000000             0002    00000000201206220832250000000000000000000y
0106213094087TFNYF0200006134592SNFTW     FITX   201207                    00000+07148000             000000000             000000000             0002    00000000201206220832250000000000000000000y
0106213094088TFNYF0200006134592BNFTW     FITX   201207                    00000+07148000             000000000             000000000             0002    00000000201206220832250000000000000000000y
0106213094089TFNYF0200006134592SNFTW     FITX   201207                    00000+07147000             000000000             000000000             0002    00000000201206220832250000000000000000000y
0106213094090TFNYF0200006134592BNFTW     FITX   201207                    00000+07147000             000000000             000000000             0002    00000000201206220832250000000000000000000y
0106213094091TFNYF0200006134592SNFTW     FITX   201207                    00000+07147000             000000000             000000000             0002    00000000201206220832250000000000000000000y
0106213094092TFNYF0200006134592BNFTW     FITX   201207                    00000+07147000             000000000             000000000             0002    00000000201206220832250000000000000000000y
0106213091120TFNYF0200006134592BNFTW     FITX   201207                    00000+07148000             000000000             000000000             0001    00000000201206220832250000000000000000000y
0106213091134TFNYF0200006134592SNFTW     FITX   201207                    00000+07134000             000000000             000000000             0001    00000000201206220832250000000000000000000y
0106213091135TFNYF0200006134592BNFTW     FITX   201207                    00000+07135000             000000000             000000000             0001    00000000201206220832260000000000000000000y
0106213091264TFNYF0200006134592BNFTW     FITX   201207                    00000+07103000             000000000             000000000             0002    00000000201206220832260000000000000000000y
0106213091268TFNYF0200006134592BNFTW     FITX   201207                    00000+07148000             000000000             000000000             0001    00000000201206220832260000000000000000000y
0106213091265TFNYF0200006134592SNFTW     FITX   201207                    00000+07117000             000000000             000000000             0002    00000000201206220832260000000000000000000y
0106213091269TFNYF0200006134592SNFTW     FITX   201207                    00000+07133000             000000000             000000000             0001    00000000201206220832260000000000000000000y
0106213091270TFNYF0200006134592BNFTW     FITX   201207                    00000+07136000             000000000             000000000             0001    00000000201206220832260000000000000000000y
0106213091272TFNYF0200006134592BNFTW     FITX   201207                    00000+07103000             000000000             000000000             0002    00000000201206220832260000000000000000000y
0106213091273TFNYF0200006134592SNFTW     FITX   201207                    00000+07117000             000000000             000000000             0002    00000000201206220832260000000000000000000y
0106213091275TFNYF0200006134592BNFTW     FITX   201207                    00000+07119000             000000000             000000000             0002    00000000201206220832260000000000000000000y
0106213091238TFNYF0200006134592BNFTW     FITX   201207                    00000+07148000             000000000             000000000             0001    00000000201206220832270000000000000000000y
0106213091239TFNYF0200006134592SNFTW     FITX   201207                    00000+07133000             000000000             000000000             0001    00000000201206220832270000000000000000000y
0106213091240TFNYF0200006134592BNFTW     FITX   201207                    00000+07136000             000000000             000000000             0001    00000000201206220832270000000000000000000y
0106213091253TFNYF0200006134592BNFTW     FITX   201207                    00000+07103000             000000000             000000000             0002    00000000201206220832270000000000000000000y
0106213091254TFNYF0200006134592SNFTW     FITX   201207                    00000+07117000             000000000             000000000             0002    00000000201206220832270000000000000000000y
0106213091256TFNYF0200006134592BNFTW     FITX   201207                    00000+07119000             000000000             000000000             0002    00000000201206220832270000000000000000000y
---
---
0106213091357TFNYF0200006134592BNFTW     FITX   201207                    00000+07160000             000000000             000000000             0002    00000000201206220832160000000000000000000y
0106213091358TFNYF0200006134592SNFTW     FITX   201207                    00000+07134000             000000000             000000000             0002    00000000201206220832160000000000000000000y
0106213091359TFNYF0200006134592BNFTW     FITX   201207                    00000+07134000             000000000             000000000             0002    00000000201206220832160000000000000000000y
0106213091360TFNYF0200006134592SNFTW     FITX   201207                    00000+07108000             000000000             000000000             0002    00000000201206220832170000000000000000000y
0106213091361TFNYF0200006134592BNFTW     FITX   201207                    00000+07110000             000000000             000000000             0002    00000000201206220832170000000000000000000y
0106213091362TFNYF0200006134592SNFTW     FITX   201207                    00000+07100000             000000000             000000000             0002    00000000201206220832170000000000000000000y
0106213091363TFNYF0200006134592BNFTW     FITX   201207                    00000+07101000             000000000             000000000             0002    00000000201206220832170000000000000000000y
0106213091364TFNYF0200006134592SNFTW     FITX   201207                    00000+07100000             000000000             000000000             0002    00000000201206220832170000000000000000000y
0106213093654TFNYF0200006134592BNFTW     FITX   201207                    00000+07148000             000000000             000000000             0001    00000000201206220832170000000000000000000y
0106213093655TFNYF0200006134592BNFTW     FITX   201207                    00000+07150000             000000000             000000000             0001    00000000201206220832170000000000000000000y
0106213093656TFNYF0200006134592SNFTW     FITX   201207                    00000+07151000             000000000             000000000             0002    00000000201206220832170000000000000000000y
0106213093657TFNYF0200006134592BNFTW     FITX   201207                    00000+07152000             000000000             000000000             0002    00000000201206220832170000000000000000000y
0106213093658TFNYF0200006134592SNFTW     FITX   201207                    00000+07147000             000000000             000000000             0002    00000000201206220832170000000000000000000y
0106213093659TFNYF0200006134592BNFTW     FITX   201207                    00000+07151000             000000000             000000000             0002    00000000201206220832170000000000000000000y
0106213093660TFNYF0200006134592SNFTW     FITX   201207                    00000+07145000             000000000             000000000             0002    00000000201206220832170000000000000000000y
0106213093661TFNYF0200006134592BNFTW     FITX   201207                    00000+07117000             000000000             000000000             0002    00000000201206220832180000000000000000000y
0106213093662TFNYF0200006134592SNFTW     FITX   201207                    00000+07109000             000000000             000000000             0002    00000000201206220832190000000000000000000y
0106213093663TFNYF0200006134592BNFTW     FITX   201207                    00000+07113000             000000000             000000000             0002    00000000201206220832190000000000000000000y
0106213093664TFNYF0200006134592SNFTW     FITX   201207                    00000+07108000             000000000             000000000             0002    00000000201206220832190000000000000000000y
0106213093665TFNYF0200006134592BNFTW     FITX   201207                    00000+07110000             000000000             000000000             0002    00000000201206220832190000000000000000000y
0106213093666TFNYF0200006134592SNFTW     FITX   201207                    00000+07109000             000000000             000000000             0002    00000000201206220832190000000000000000000y
0106213093667TFNYF0200006134592BNFTW     FITX   201207                    00000+07099000             000000000             000000000             0002    00000000201206220832200000000000000000000y
0106213093668TFNYF0200006134592SNFTW     FITX   201207                    00000+07101000             000000000             000000000             0002    00000000201206220832200000000000000000000y
0106213093669TFNYF0200006134592BNFTW     FITX   201207                    00000+07108000             000000000             000000000             0002    00000000201206220832200000000000000000000y
0106213093670TFNYF0200006134592SNFTW     FITX   201207                    00000+07109000             000000000             000000000             0002    00000000201206220832200000000000000000000y
0106213093671TFNYF0200006134592BNFTW     FITX   201207                    00000+07113000             000000000             000000000             0002    00000000201206220832200000000000000000000y
0106213093672TFNYF0200006134592SNFTW     FITX   201207                    00000+07116000             000000000             000000000             0002    00000000201206220832200000000000000000000y
0106213094093TFNYF0200006134592SNFTW     FITX   201207                    00000+07148000             000000000             000000000             0002    00000000201206220832200000000000000000000y
0106213094094TFNYF0200006134592BNFTW     FITX   201207                    00000+07148000             000000000             000000000             0002    00000000201206220832200000000000000000000y
0106213091149TFNYF0200006134592BNFTW     FITX   201207                    00000+07124000             000000000             000000000             0001    00000000201206220832200000000000000000000y
0106213091154TFNYF0200006134592SNFTW     FITX   201207                    00000+07119000             000000000             000000000             0001    00000000201206220832200000000000000000000y
0106213091365TFNYF0200006134592BNFTW     FITX   201207                    00000+07100000             000000000             000000000             0002    00000000201206220832200000000000000000000y
0106213091369TFNYF0200006134592BNFTW     FITX   201207                    00000+07100000             000000000             000000000             0002    00000000201206220832200000000000000000000y
0106213091370TFNYF0200006134592SNFTW     FITX   201207                    00000+07100000             000000000             000000000             0002    00000000201206220832200000000000000000000y
0106213091371TFNYF0200006134592BNFTW     FITX   201207                    00000+07100000             000000000             000000000             0002    00000000201206220832200000000000000000000y
0106213091372TFNYF0200006134592SNFTW     FITX   201207                    00000+07100000             000000000             000000000             0002    00000000201206220832210000000000000000000y
0106213091366TFNYF0200006134592SNFTW     FITX   201207                    00000+07100000             000000000             000000000             0002    00000000201206220832210000000000000000000y
0106213091373TFNYF0200006134592BNFTW     FITX   201207                    00000+07100000             000000000             000000000             0002    00000000201206220832210000000000000000000y
0106213091374TFNYF0200006134592SNFTW     FITX   201207                    00000+07100000             000000000             000000000             0002    00000000201206220832210000000000000000000y
0106213091367TFNYF0200006134592BNFTW     FITX   201207                    00000+07100000             000000000             000000000             0002    00000000201206220832210000000000000000000y
0106213091375TFNYF0200006134592BNFTW     FITX   201207                    00000+07100000             000000000             000000000             0002    00000000201206220832210000000000000000000y
0106213091376TFNYF0200006134592SNFTW     FITX   201207                    00000+07100000             000000000             000000000             0002    00000000201206220832210000000000000000000y
0106213091377TFNYF0200006134592BNFTW     FITX   201207                    00000+07100000             000000000             000000000             0002    00000000201206220832210000000000000000000y
0106213091378TFNYF0200006134592SNFTW     FITX   201207                    00000+07100000             000000000             000000000             0002    00000000201206220832210000000000000000000y
0106213091379TFNYF0200006134592BNFTW     FITX   201207                    00000+07100000             000000000             000000000             0002    00000000201206220832210000000000000000000y
0106213091380TFNYF0200006134592SNFTW     FITX   201207                    00000+07100000             000000000             000000000             0002    00000000201206220832220000000000000000000y
0106213091381TFNYF0200006134592BNFTW     FITX   201207                    00000+07100000             000000000             000000000             0002    00000000201206220832220000000000000000000y
0106213091382TFNYF0200006134592SNFTW     FITX   201207                    00000+07100000             000000000             000000000             0002    00000000201206220832220000000000000000000y
0106213091383TFNYF0200006134592BNFTW     FITX   201207                    00000+07101000             000000000             000000000             0002    00000000201206220832220000000000000000000y
0106213091384TFNYF0200006134592SNFTW     FITX   201207                    00000+07100000             000000000             000000000             0002    00000000201206220832220000000000000000000y
0106213091368TFNYF0200006134592SNFTW     FITX   201207                    00000+07100000             000000000             000000000             0002    00000000201206220832220000000000000000000y
0106213091385TFNYF0200006134592BNFTW     FITX   201207                    00000+07100000             000000000             000000000             0002    00000000201206220832220000000000000000000y
0106213091386TFNYF0200006134592SNFTW     FITX   201207                    00000+07100000             000000000             000000000             0002    00000000201206220832220000000000000000000y
0106213091387TFNYF0200006134592BNFTW     FITX   201207                    00000+07100000             000000000             000000000             0002    00000000201206220832220000000000000000000y
0106213091388TFNYF0200006134592SNFTW     FITX   201207                    00000+07100000             000000000             000000000             0002    00000000201206220832220000000000000000000y
0106213091389TFNYF0200006134592BNFTW     FITX   201207                    00000+07100000             000000000             000000000             0002    00000000201206220832220000000000000000000y
0106213091390TFNYF0200006134592SNFTW     FITX   201207                    00000+07100000             000000000             000000000             0002    00000000201206220832230000000000000000000y
0106213091391TFNYF0200006134592BNFTW     FITX   201207                    00000+07100000             000000000             000000000             0002    00000000201206220832230000000000000000000y
0106213091392TFNYF0200006134592SNFTW     FITX   201207                    00000+07100000             000000000             000000000             0002    00000000201206220832230000000000000000000y
0106213091393TFNYF0200006134592BNFTW     FITX   201207                    00000+07101000             000000000             000000000             0002    00000000201206220832230000000000000000000y
0106213091394TFNYF0200006134592SNFTW     FITX   201207                    00000+07100000             000000000             000000000             0002    00000000201206220832230000000000000000000y
0106213091395TFNYF0200006134592BNFTW     FITX   201207                    00000+07100000             000000000             000000000             0002    00000000201206220832230000000000000000000y
0106213091396TFNYF0200006134592SNFTW     FITX   201207                    00000+07100000             000000000             000000000             0002    00000000201206220832230000000000000000000y
0106213091397TFNYF0200006134592BNFTW     FITX   201207                    00000+07100000             000000000             000000000             0002    00000000201206220832230000000000000000000y
0106213094064TFNYF0200006134592BNFTW     FITX   201207                    00000+07160000             000000000             000000000             0002    00000000201206220832230000000000000000000y
0106213094068TFNYF0200006134592SNFTW     FITX   201207                    00000+07148000             000000000             000000000             0002    00000000201206220832230000000000000000000y
0106213094069TFNYF0200006134592BNFTW     FITX   201207                    00000+07148000             000000000             000000000             0002    00000000201206220832230000000000000000000y
0106213094070TFNYF0200006134592SNFTW     FITX   201207                    00000+07148000             000000000             000000000             0002    00000000201206220832240000000000000000000y
0106213094071TFNYF0200006134592BNFTW     FITX   201207                    00000+07148000             000000000             000000000             0002    00000000201206220832240000000000000000000y
0106213094072TFNYF0200006134592SNFTW     FITX   201207                    00000+07147000             000000000             000000000             0002    00000000201206220832240000000000000000000y
0106213094073TFNYF0200006134592BNFTW     FITX   201207                    00000+07147000             000000000             000000000             0002    00000000201206220832240000000000000000000y
0106213094074TFNYF0200006134592SNFTW     FITX   201207                    00000+07147000             000000000             000000000             0002    00000000201206220832240000000000000000000y
0106213094075TFNYF0200006134592BNFTW     FITX   201207                    00000+07147000             000000000             000000000             0002    00000000201206220832240000000000000000000y
0106213094076TFNYF0200006134592SNFTW     FITX   201207                    00000+07148000             000000000             000000000             0002    00000000201206220832240000000000000000000y
0106213094077TFNYF0200006134592BNFTW     FITX   201207                    00000+07148000             000000000             000000000             0002    00000000201206220832240000000000000000000y
0106213094078TFNYF0200006134592SNFTW     FITX   201207                    00000+07148000             000000000             000000000             0002    00000000201206220832240000000000000000000y
0106213094079TFNYF0200006134592BNFTW     FITX   201207                    00000+07148000             000000000             000000000             0002    00000000201206220832240000000000000000000y
0106213094080TFNYF0200006134592SNFTW     FITX   201207                    00000+07148000             000000000             000000000             0002    00000000201206220832240000000000000000000y
0106213094081TFNYF0200006134592BNFTW     FITX   201207                    00000+07148000             000000000             000000000             0002    00000000201206220832240000000000000000000y
0106213094082TFNYF0200006134592SNFTW     FITX   201207                    00000+07148000             000000000             000000000             0002    00000000201206220832250000000000000000000y
0106213094083TFNYF0200006134592BNFTW     FITX   201207                    00000+07148000             000000000             000000000             0002    00000000201206220832250000000000000000000y
0106213094084TFNYF0200006134592SNFTW     FITX   201207                    00000+07147000             000000000             000000000             0002    00000000201206220832250000000000000000000y
0106213094085TFNYF0200006134592BNFTW     FITX   201207                    00000+07147000             000000000             000000000             0002    00000000201206220832250000000000000000000y
0106213094087TFNYF0200006134592SNFTW     FITX   201207                    00000+07148000             000000000             000000000             0002    00000000201206220832250000000000000000000y
0106213094088TFNYF0200006134592BNFTW     FITX   201207                    00000+07148000             000000000             000000000             0002    00000000201206220832250000000000000000000y
0106213094089TFNYF0200006134592SNFTW     FITX   201207                    00000+07147000             000000000             000000000             0002    00000000201206220832250000000000000000000y
0106213094090TFNYF0200006134592BNFTW     FITX   201207                    00000+07147000             000000000             000000000             0002    00000000201206220832250000000000000000000y
0106213094091TFNYF0200006134592SNFTW     FITX   201207                    00000+07147000             000000000             000000000             0002    00000000201206220832250000000000000000000y
0106213094092TFNYF0200006134592BNFTW     FITX   201207                    00000+07147000             000000000             000000000             0002    00000000201206220832250000000000000000000y
0106213091120TFNYF0200006134592BNFTW     FITX   201207                    00000+07148000             000000000             000000000             0001    00000000201206220832250000000000000000000y
0106213091134TFNYF0200006134592SNFTW     FITX   201207                    00000+07134000             000000000             000000000             0001    00000000201206220832250000000000000000000y
0106213091135TFNYF0200006134592BNFTW     FITX   201207                    00000+07135000             000000000             000000000             0001    00000000201206220832260000000000000000000y
0106213091264TFNYF0200006134592BNFTW     FITX   201207                    00000+07103000             000000000             000000000             0002    00000000201206220832260000000000000000000y
0106213091268TFNYF0200006134592BNFTW     FITX   201207                    00000+07148000             000000000             000000000             0001    00000000201206220832260000000000000000000y
0106213091265TFNYF0200006134592SNFTW     FITX   201207                    00000+07117000             000000000             000000000             0002    00000000201206220832260000000000000000000y
0106213091269TFNYF0200006134592SNFTW     FITX   201207                    00000+07133000             000000000             000000000             0001    00000000201206220832260000000000000000000y
0106213091270TFNYF0200006134592BNFTW     FITX   201207                    00000+07136000             000000000             000000000             0001    00000000201206220832260000000000000000000y
0106213091272TFNYF0200006134592BNFTW     FITX   201207                    00000+07103000             000000000             000000000             0002    00000000201206220832260000000000000000000y
0106213091273TFNYF0200006134592SNFTW     FITX   201207                    00000+07117000             000000000             000000000             0002    00000000201206220832260000000000000000000y
0106213091275TFNYF0200006134592BNFTW     FITX   201207                    00000+07119000             000000000             000000000             0002    00000000201206220832260000000000000000000y
0106213091238TFNYF0200006134592BNFTW     FITX   201207                    00000+07148000             000000000             000000000             0001    00000000201206220832270000000000000000000y
0106213091239TFNYF0200006134592SNFTW     FITX   201207                    00000+07133000             000000000             000000000             0001    00000000201206220832270000000000000000000y
0106213091240TFNYF0200006134592BNFTW     FITX   201207                    00000+07136000             000000000             000000000             0001    00000000201206220832270000000000000000000y
0106213091253TFNYF0200006134592BNFTW     FITX   201207                    00000+07103000             000000000             000000000             0002    00000000201206220832270000000000000000000y
0106213091254TFNYF0200006134592SNFTW     FITX   201207                    00000+07117000             000000000             000000000             0002    00000000201206220832270000000000000000000y
0106213091256TFNYF0200006134592BNFTW     FITX   201207                    00000+07119000             000000000             000000000             0002    00000000201206220832270000000000000000000y
0106223053391TFNYF0200006134592BNFTW     FITX   201207                    00000+07008000             000000000             000000000             0001    00000000201206221054070000000000000000012y
---
---
0106213091357TFNYF0200006134592BNFTW     FITX   201207                    00000+07160000             000000000             000000000             0002    00000000201206220832160000000000000000000y
0106213091358TFNYF0200006134592SNFTW     FITX   201207                    00000+07134000             000000000             000000000             0002    00000000201206220832160000000000000000000y
0106213091359TFNYF0200006134592BNFTW     FITX   201207                    00000+07134000             000000000             000000000             0002    00000000201206220832160000000000000000000y
0106213091360TFNYF0200006134592SNFTW     FITX   201207                    00000+07108000             000000000             000000000             0002    00000000201206220832170000000000000000000y
0106213091361TFNYF0200006134592BNFTW     FITX   201207                    00000+07110000             000000000             000000000             0002    00000000201206220832170000000000000000000y
0106213091362TFNYF0200006134592SNFTW     FITX   201207                    00000+07100000             000000000             000000000             0002    00000000201206220832170000000000000000000y
0106213091363TFNYF0200006134592BNFTW     FITX   201207                    00000+07101000             000000000             000000000             0002    00000000201206220832170000000000000000000y
0106213091364TFNYF0200006134592SNFTW     FITX   201207                    00000+07100000             000000000             000000000             0002    00000000201206220832170000000000000000000y
0106213093654TFNYF0200006134592BNFTW     FITX   201207                    00000+07148000             000000000             000000000             0001    00000000201206220832170000000000000000000y
0106213093655TFNYF0200006134592BNFTW     FITX   201207                    00000+07150000             000000000             000000000             0001    00000000201206220832170000000000000000000y
0106213093656TFNYF0200006134592SNFTW     FITX   201207                    00000+07151000             000000000             000000000             0002    00000000201206220832170000000000000000000y
0106213093657TFNYF0200006134592BNFTW     FITX   201207                    00000+07152000             000000000             000000000             0002    00000000201206220832170000000000000000000y
0106213093658TFNYF0200006134592SNFTW     FITX   201207                    00000+07147000             000000000             000000000             0002    00000000201206220832170000000000000000000y
0106213093659TFNYF0200006134592BNFTW     FITX   201207                    00000+07151000             000000000             000000000             0002    00000000201206220832170000000000000000000y
0106213093660TFNYF0200006134592SNFTW     FITX   201207                    00000+07145000             000000000             000000000             0002    00000000201206220832170000000000000000000y
0106213093661TFNYF0200006134592BNFTW     FITX   201207                    00000+07117000             000000000             000000000             0002    00000000201206220832180000000000000000000y
0106213093662TFNYF0200006134592SNFTW     FITX   201207                    00000+07109000             000000000             000000000             0002    00000000201206220832190000000000000000000y
0106213093663TFNYF0200006134592BNFTW     FITX   201207                    00000+07113000             000000000             000000000             0002    00000000201206220832190000000000000000000y
0106213093664TFNYF0200006134592SNFTW     FITX   201207                    00000+07108000             000000000             000000000             0002    00000000201206220832190000000000000000000y
0106213093665TFNYF0200006134592BNFTW     FITX   201207                    00000+07110000             000000000             000000000             0002    00000000201206220832190000000000000000000y
0106213093666TFNYF0200006134592SNFTW     FITX   201207                    00000+07109000             000000000             000000000             0002    00000000201206220832190000000000000000000y
0106213093667TFNYF0200006134592BNFTW     FITX   201207                    00000+07099000             000000000             000000000             0002    00000000201206220832200000000000000000000y
0106213093668TFNYF0200006134592SNFTW     FITX   201207                    00000+07101000             000000000             000000000             0002    00000000201206220832200000000000000000000y
0106213093669TFNYF0200006134592BNFTW     FITX   201207                    00000+07108000             000000000             000000000             0002    00000000201206220832200000000000000000000y
0106213093670TFNYF0200006134592SNFTW     FITX   201207                    00000+07109000             000000000             000000000             0002    00000000201206220832200000000000000000000y
0106213093671TFNYF0200006134592BNFTW     FITX   201207                    00000+07113000             000000000             000000000             0002    00000000201206220832200000000000000000000y
0106213093672TFNYF0200006134592SNFTW     FITX   201207                    00000+07116000             000000000             000000000             0002    00000000201206220832200000000000000000000y
0106213094093TFNYF0200006134592SNFTW     FITX   201207                    00000+07148000             000000000             000000000             0002    00000000201206220832200000000000000000000y
0106213094094TFNYF0200006134592BNFTW     FITX   201207                    00000+07148000             000000000             000000000             0002    00000000201206220832200000000000000000000y
0106213091149TFNYF0200006134592BNFTW     FITX   201207                    00000+07124000             000000000             000000000             0001    00000000201206220832200000000000000000000y
0106213091154TFNYF0200006134592SNFTW     FITX   201207                    00000+07119000             000000000             000000000             0001    00000000201206220832200000000000000000000y
0106213091365TFNYF0200006134592BNFTW     FITX   201207                    00000+07100000             000000000             000000000             0002    00000000201206220832200000000000000000000y
0106213091369TFNYF0200006134592BNFTW     FITX   201207                    00000+07100000             000000000             000000000             0002    00000000201206220832200000000000000000000y
0106213091370TFNYF0200006134592SNFTW     FITX   201207                    00000+07100000             000000000             000000000             0002    00000000201206220832200000000000000000000y
0106213091371TFNYF0200006134592BNFTW     FITX   201207                    00000+07100000             000000000             000000000             0002    00000000201206220832200000000000000000000y
0106213091372TFNYF0200006134592SNFTW     FITX   201207                    00000+07100000             000000000             000000000             0002    00000000201206220832210000000000000000000y
0106213091366TFNYF0200006134592SNFTW     FITX   201207                    00000+07100000             000000000             000000000             0002    00000000201206220832210000000000000000000y
0106213091373TFNYF0200006134592BNFTW     FITX   201207                    00000+07100000             000000000             000000000             0002    00000000201206220832210000000000000000000y
0106213091374TFNYF0200006134592SNFTW     FITX   201207                    00000+07100000             000000000             000000000             0002    00000000201206220832210000000000000000000y
0106213091367TFNYF0200006134592BNFTW     FITX   201207                    00000+07100000             000000000             000000000             0002    00000000201206220832210000000000000000000y
0106213091375TFNYF0200006134592BNFTW     FITX   201207                    00000+07100000             000000000             000000000             0002    00000000201206220832210000000000000000000y
0106213091376TFNYF0200006134592SNFTW     FITX   201207                    00000+07100000             000000000             000000000             0002    00000000201206220832210000000000000000000y
0106213091377TFNYF0200006134592BNFTW     FITX   201207                    00000+07100000             000000000             000000000             0002    00000000201206220832210000000000000000000y
0106213091378TFNYF0200006134592SNFTW     FITX   201207                    00000+07100000             000000000             000000000             0002    00000000201206220832210000000000000000000y
0106213091379TFNYF0200006134592BNFTW     FITX   201207                    00000+07100000             000000000             000000000             0002    00000000201206220832210000000000000000000y
0106213091380TFNYF0200006134592SNFTW     FITX   201207                    00000+07100000             000000000             000000000             0002    00000000201206220832220000000000000000000y
0106213091381TFNYF0200006134592BNFTW     FITX   201207                    00000+07100000             000000000             000000000             0002    00000000201206220832220000000000000000000y
0106213091382TFNYF0200006134592SNFTW     FITX   201207                    00000+07100000             000000000             000000000             0002    00000000201206220832220000000000000000000y
0106213091383TFNYF0200006134592BNFTW     FITX   201207                    00000+07101000             000000000             000000000             0002    00000000201206220832220000000000000000000y
0106213091384TFNYF0200006134592SNFTW     FITX   201207                    00000+07100000             000000000             000000000             0002    00000000201206220832220000000000000000000y
0106213091368TFNYF0200006134592SNFTW     FITX   201207                    00000+07100000             000000000             000000000             0002    00000000201206220832220000000000000000000y
0106213091385TFNYF0200006134592BNFTW     FITX   201207                    00000+07100000             000000000             000000000             0002    00000000201206220832220000000000000000000y
0106213091386TFNYF0200006134592SNFTW     FITX   201207                    00000+07100000             000000000             000000000             0002    00000000201206220832220000000000000000000y
0106213091387TFNYF0200006134592BNFTW     FITX   201207                    00000+07100000             000000000             000000000             0002    00000000201206220832220000000000000000000y
0106213091388TFNYF0200006134592SNFTW     FITX   201207                    00000+07100000             000000000             000000000             0002    00000000201206220832220000000000000000000y
0106213091389TFNYF0200006134592BNFTW     FITX   201207                    00000+07100000             000000000             000000000             0002    00000000201206220832220000000000000000000y
0106213091390TFNYF0200006134592SNFTW     FITX   201207                    00000+07100000             000000000             000000000             0002    00000000201206220832230000000000000000000y
0106213091391TFNYF0200006134592BNFTW     FITX   201207                    00000+07100000             000000000             000000000             0002    00000000201206220832230000000000000000000y
0106213091392TFNYF0200006134592SNFTW     FITX   201207                    00000+07100000             000000000             000000000             0002    00000000201206220832230000000000000000000y
0106213091393TFNYF0200006134592BNFTW     FITX   201207                    00000+07101000             000000000             000000000             0002    00000000201206220832230000000000000000000y
0106213091394TFNYF0200006134592SNFTW     FITX   201207                    00000+07100000             000000000             000000000             0002    00000000201206220832230000000000000000000y
0106213091395TFNYF0200006134592BNFTW     FITX   201207                    00000+07100000             000000000             000000000             0002    00000000201206220832230000000000000000000y
0106213091396TFNYF0200006134592SNFTW     FITX   201207                    00000+07100000             000000000             000000000             0002    00000000201206220832230000000000000000000y
0106213091397TFNYF0200006134592BNFTW     FITX   201207                    00000+07100000             000000000             000000000             0002    00000000201206220832230000000000000000000y
0106213094064TFNYF0200006134592BNFTW     FITX   201207                    00000+07160000             000000000             000000000             0002    00000000201206220832230000000000000000000y
0106213094068TFNYF0200006134592SNFTW     FITX   201207                    00000+07148000             000000000             000000000             0002    00000000201206220832230000000000000000000y
0106213094069TFNYF0200006134592BNFTW     FITX   201207                    00000+07148000             000000000             000000000             0002    00000000201206220832230000000000000000000y
0106213094070TFNYF0200006134592SNFTW     FITX   201207                    00000+07148000             000000000             000000000             0002    00000000201206220832240000000000000000000y
0106213094071TFNYF0200006134592BNFTW     FITX   201207                    00000+07148000             000000000             000000000             0002    00000000201206220832240000000000000000000y
0106213094072TFNYF0200006134592SNFTW     FITX   201207                    00000+07147000             000000000             000000000             0002    00000000201206220832240000000000000000000y
0106213094073TFNYF0200006134592BNFTW     FITX   201207                    00000+07147000             000000000             000000000             0002    00000000201206220832240000000000000000000y
0106213094074TFNYF0200006134592SNFTW     FITX   201207                    00000+07147000             000000000             000000000             0002    00000000201206220832240000000000000000000y
0106213094075TFNYF0200006134592BNFTW     FITX   201207                    00000+07147000             000000000             000000000             0002    00000000201206220832240000000000000000000y
0106213094076TFNYF0200006134592SNFTW     FITX   201207                    00000+07148000             000000000             000000000             0002    00000000201206220832240000000000000000000y
0106213094077TFNYF0200006134592BNFTW     FITX   201207                    00000+07148000             000000000             000000000             0002    00000000201206220832240000000000000000000y
0106213094078TFNYF0200006134592SNFTW     FITX   201207                    00000+07148000             000000000             000000000             0002    00000000201206220832240000000000000000000y
0106213094079TFNYF0200006134592BNFTW     FITX   201207                    00000+07148000             000000000             000000000             0002    00000000201206220832240000000000000000000y
0106213094080TFNYF0200006134592SNFTW     FITX   201207                    00000+07148000             000000000             000000000             0002    00000000201206220832240000000000000000000y
0106213094081TFNYF0200006134592BNFTW     FITX   201207                    00000+07148000             000000000             000000000             0002    00000000201206220832240000000000000000000y
0106213094082TFNYF0200006134592SNFTW     FITX   201207                    00000+07148000             000000000             000000000             0002    00000000201206220832250000000000000000000y
0106213094083TFNYF0200006134592BNFTW     FITX   201207                    00000+07148000             000000000             000000000             0002    00000000201206220832250000000000000000000y
0106213094084TFNYF0200006134592SNFTW     FITX   201207                    00000+07147000             000000000             000000000             0002    00000000201206220832250000000000000000000y
0106213094085TFNYF0200006134592BNFTW     FITX   201207                    00000+07147000             000000000             000000000             0002    00000000201206220832250000000000000000000y
0106213094087TFNYF0200006134592SNFTW     FITX   201207                    00000+07148000             000000000             000000000             0002    00000000201206220832250000000000000000000y
0106213094088TFNYF0200006134592BNFTW     FITX   201207                    00000+07148000             000000000             000000000             0002    00000000201206220832250000000000000000000y
0106213094089TFNYF0200006134592SNFTW     FITX   201207                    00000+07147000             000000000             000000000             0002    00000000201206220832250000000000000000000y
0106213094090TFNYF0200006134592BNFTW     FITX   201207                    00000+07147000             000000000             000000000             0002    00000000201206220832250000000000000000000y
0106213094091TFNYF0200006134592SNFTW     FITX   201207                    00000+07147000             000000000             000000000             0002    00000000201206220832250000000000000000000y
0106213094092TFNYF0200006134592BNFTW     FITX   201207                    00000+07147000             000000000             000000000             0002    00000000201206220832250000000000000000000y
0106213091120TFNYF0200006134592BNFTW     FITX   201207                    00000+07148000             000000000             000000000             0001    00000000201206220832250000000000000000000y
0106213091134TFNYF0200006134592SNFTW     FITX   201207                    00000+07134000             000000000             000000000             0001    00000000201206220832250000000000000000000y
0106213091135TFNYF0200006134592BNFTW     FITX   201207                    00000+07135000             000000000             000000000             0001    00000000201206220832260000000000000000000y
0106213091264TFNYF0200006134592BNFTW     FITX   201207                    00000+07103000             000000000             000000000             0002    00000000201206220832260000000000000000000y
0106213091268TFNYF0200006134592BNFTW     FITX   201207                    00000+07148000             000000000             000000000             0001    00000000201206220832260000000000000000000y
0106213091265TFNYF0200006134592SNFTW     FITX   201207                    00000+07117000             000000000             000000000             0002    00000000201206220832260000000000000000000y
0106213091269TFNYF0200006134592SNFTW     FITX   201207                    00000+07133000             000000000             000000000             0001    00000000201206220832260000000000000000000y
0106213091270TFNYF0200006134592BNFTW     FITX   201207                    00000+07136000             000000000             000000000             0001    00000000201206220832260000000000000000000y
0106213091272TFNYF0200006134592BNFTW     FITX   201207                    00000+07103000             000000000             000000000             0002    00000000201206220832260000000000000000000y
0106213091273TFNYF0200006134592SNFTW     FITX   201207                    00000+07117000             000000000             000000000             0002    00000000201206220832260000000000000000000y
0106213091275TFNYF0200006134592BNFTW     FITX   201207                    00000+07119000             000000000             000000000             0002    00000000201206220832260000000000000000000y
0106213091238TFNYF0200006134592BNFTW     FITX   201207                    00000+07148000             000000000             000000000             0001    00000000201206220832270000000000000000000y
0106213091239TFNYF0200006134592SNFTW     FITX   201207                    00000+07133000             000000000             000000000             0001    00000000201206220832270000000000000000000y
0106213091240TFNYF0200006134592BNFTW     FITX   201207                    00000+07136000             000000000             000000000             0001    00000000201206220832270000000000000000000y
0106213091253TFNYF0200006134592BNFTW     FITX   201207                    00000+07103000             000000000             000000000             0002    00000000201206220832270000000000000000000y
0106213091254TFNYF0200006134592SNFTW     FITX   201207                    00000+07117000             000000000             000000000             0002    00000000201206220832270000000000000000000y
0106213091256TFNYF0200006134592BNFTW     FITX   201207                    00000+07119000             000000000             000000000             0002    00000000201206220832270000000000000000000y
0106223053391TFNYF0200006134592BNFTW     FITX   201207                    00000+07008000             000000000             000000000             0001    00000000201206221054070000000000000000012y
---
---
0106213091357TFNYF0200006134592BNFTW     FITX   201207                    00000+07160000             000000000             000000000             0002    00000000201206220832160000000000000000000y
0106213091358TFNYF0200006134592SNFTW     FITX   201207                    00000+07134000             000000000             000000000             0002    00000000201206220832160000000000000000000y
0106213091359TFNYF0200006134592BNFTW     FITX   201207                    00000+07134000             000000000             000000000             0002    00000000201206220832160000000000000000000y
0106213091360TFNYF0200006134592SNFTW     FITX   201207                    00000+07108000             000000000             000000000             0002    00000000201206220832170000000000000000000y
0106213091361TFNYF0200006134592BNFTW     FITX   201207                    00000+07110000             000000000             000000000             0002    00000000201206220832170000000000000000000y
0106213091362TFNYF0200006134592SNFTW     FITX   201207                    00000+07100000             000000000             000000000             0002    00000000201206220832170000000000000000000y
0106213091363TFNYF0200006134592BNFTW     FITX   201207                    00000+07101000             000000000             000000000             0002    00000000201206220832170000000000000000000y
0106213091364TFNYF0200006134592SNFTW     FITX   201207                    00000+07100000             000000000             000000000             0002    00000000201206220832170000000000000000000y
0106213093654TFNYF0200006134592BNFTW     FITX   201207                    00000+07148000             000000000             000000000             0001    00000000201206220832170000000000000000000y
0106213093655TFNYF0200006134592BNFTW     FITX   201207                    00000+07150000             000000000             000000000             0001    00000000201206220832170000000000000000000y
0106213093656TFNYF0200006134592SNFTW     FITX   201207                    00000+07151000             000000000             000000000             0002    00000000201206220832170000000000000000000y
0106213093657TFNYF0200006134592BNFTW     FITX   201207                    00000+07152000             000000000             000000000             0002    00000000201206220832170000000000000000000y
0106213093658TFNYF0200006134592SNFTW     FITX   201207                    00000+07147000             000000000             000000000             0002    00000000201206220832170000000000000000000y
0106213093659TFNYF0200006134592BNFTW     FITX   201207                    00000+07151000             000000000             000000000             0002    00000000201206220832170000000000000000000y
0106213093660TFNYF0200006134592SNFTW     FITX   201207                    00000+07145000             000000000             000000000             0002    00000000201206220832170000000000000000000y
0106213093661TFNYF0200006134592BNFTW     FITX   201207                    00000+07117000             000000000             000000000             0002    00000000201206220832180000000000000000000y
0106213093662TFNYF0200006134592SNFTW     FITX   201207                    00000+07109000             000000000             000000000             0002    00000000201206220832190000000000000000000y
0106213093663TFNYF0200006134592BNFTW     FITX   201207                    00000+07113000             000000000             000000000             0002    00000000201206220832190000000000000000000y
0106213093664TFNYF0200006134592SNFTW     FITX   201207                    00000+07108000             000000000             000000000             0002    00000000201206220832190000000000000000000y
0106213093665TFNYF0200006134592BNFTW     FITX   201207                    00000+07110000             000000000             000000000             0002    00000000201206220832190000000000000000000y
0106213093666TFNYF0200006134592SNFTW     FITX   201207                    00000+07109000             000000000             000000000             0002    00000000201206220832190000000000000000000y
0106213093667TFNYF0200006134592BNFTW     FITX   201207                    00000+07099000             000000000             000000000             0002    00000000201206220832200000000000000000000y
0106213093668TFNYF0200006134592SNFTW     FITX   201207                    00000+07101000             000000000             000000000             0002    00000000201206220832200000000000000000000y
0106213093669TFNYF0200006134592BNFTW     FITX   201207                    00000+07108000             000000000             000000000             0002    00000000201206220832200000000000000000000y
0106213093670TFNYF0200006134592SNFTW     FITX   201207                    00000+07109000             000000000             000000000             0002    00000000201206220832200000000000000000000y
0106213093671TFNYF0200006134592BNFTW     FITX   201207                    00000+07113000             000000000             000000000             0002    00000000201206220832200000000000000000000y
0106213093672TFNYF0200006134592SNFTW     FITX   201207                    00000+07116000             000000000             000000000             0002    00000000201206220832200000000000000000000y
0106213094093TFNYF0200006134592SNFTW     FITX   201207                    00000+07148000             000000000             000000000             0002    00000000201206220832200000000000000000000y
0106213094094TFNYF0200006134592BNFTW     FITX   201207                    00000+07148000             000000000             000000000             0002    00000000201206220832200000000000000000000y
0106213091149TFNYF0200006134592BNFTW     FITX   201207                    00000+07124000             000000000             000000000             0001    00000000201206220832200000000000000000000y
0106213091154TFNYF0200006134592SNFTW     FITX   201207                    00000+07119000             000000000             000000000             0001    00000000201206220832200000000000000000000y
0106213091365TFNYF0200006134592BNFTW     FITX   201207                    00000+07100000             000000000             000000000             0002    00000000201206220832200000000000000000000y
0106213091369TFNYF0200006134592BNFTW     FITX   201207                    00000+07100000             000000000             000000000             0002    00000000201206220832200000000000000000000y
0106213091370TFNYF0200006134592SNFTW     FITX   201207                    00000+07100000             000000000             000000000             0002    00000000201206220832200000000000000000000y
0106213091371TFNYF0200006134592BNFTW     FITX   201207                    00000+07100000             000000000             000000000             0002    00000000201206220832200000000000000000000y
0106213091372TFNYF0200006134592SNFTW     FITX   201207                    00000+07100000             000000000             000000000             0002    00000000201206220832210000000000000000000y
0106213091366TFNYF0200006134592SNFTW     FITX   201207                    00000+07100000             000000000             000000000             0002    00000000201206220832210000000000000000000y
0106213091373TFNYF0200006134592BNFTW     FITX   201207                    00000+07100000             000000000             000000000             0002    00000000201206220832210000000000000000000y
0106213091374TFNYF0200006134592SNFTW     FITX   201207                    00000+07100000             000000000             000000000             0002    00000000201206220832210000000000000000000y
0106213091367TFNYF0200006134592BNFTW     FITX   201207                    00000+07100000             000000000             000000000             0002    00000000201206220832210000000000000000000y
0106213091375TFNYF0200006134592BNFTW     FITX   201207                    00000+07100000             000000000             000000000             0002    00000000201206220832210000000000000000000y
0106213091376TFNYF0200006134592SNFTW     FITX   201207                    00000+07100000             000000000             000000000             0002    00000000201206220832210000000000000000000y
0106213091377TFNYF0200006134592BNFTW     FITX   201207                    00000+07100000             000000000             000000000             0002    00000000201206220832210000000000000000000y
0106213091378TFNYF0200006134592SNFTW     FITX   201207                    00000+07100000             000000000             000000000             0002    00000000201206220832210000000000000000000y
0106213091379TFNYF0200006134592BNFTW     FITX   201207                    00000+07100000             000000000             000000000             0002    00000000201206220832210000000000000000000y
0106213091380TFNYF0200006134592SNFTW     FITX   201207                    00000+07100000             000000000             000000000             0002    00000000201206220832220000000000000000000y
0106213091381TFNYF0200006134592BNFTW     FITX   201207                    00000+07100000             000000000             000000000             0002    00000000201206220832220000000000000000000y
0106213091382TFNYF0200006134592SNFTW     FITX   201207                    00000+07100000             000000000             000000000             0002    00000000201206220832220000000000000000000y
0106213091383TFNYF0200006134592BNFTW     FITX   201207                    00000+07101000             000000000             000000000             0002    00000000201206220832220000000000000000000y
0106213091384TFNYF0200006134592SNFTW     FITX   201207                    00000+07100000             000000000             000000000             0002    00000000201206220832220000000000000000000y
0106213091368TFNYF0200006134592SNFTW     FITX   201207                    00000+07100000             000000000             000000000             0002    00000000201206220832220000000000000000000y
0106213091385TFNYF0200006134592BNFTW     FITX   201207                    00000+07100000             000000000             000000000             0002    00000000201206220832220000000000000000000y
0106213091386TFNYF0200006134592SNFTW     FITX   201207                    00000+07100000             000000000             000000000             0002    00000000201206220832220000000000000000000y
0106213091387TFNYF0200006134592BNFTW     FITX   201207                    00000+07100000             000000000             000000000             0002    00000000201206220832220000000000000000000y
0106213091388TFNYF0200006134592SNFTW     FITX   201207                    00000+07100000             000000000             000000000             0002    00000000201206220832220000000000000000000y
0106213091389TFNYF0200006134592BNFTW     FITX   201207                    00000+07100000             000000000             000000000             0002    00000000201206220832220000000000000000000y
0106213091390TFNYF0200006134592SNFTW     FITX   201207                    00000+07100000             000000000             000000000             0002    00000000201206220832230000000000000000000y
0106213091391TFNYF0200006134592BNFTW     FITX   201207                    00000+07100000             000000000             000000000             0002    00000000201206220832230000000000000000000y
0106213091392TFNYF0200006134592SNFTW     FITX   201207                    00000+07100000             000000000             000000000             0002    00000000201206220832230000000000000000000y
0106213091393TFNYF0200006134592BNFTW     FITX   201207                    00000+07101000             000000000             000000000             0002    00000000201206220832230000000000000000000y
0106213091394TFNYF0200006134592SNFTW     FITX   201207                    00000+07100000             000000000             000000000             0002    00000000201206220832230000000000000000000y
0106213091395TFNYF0200006134592BNFTW     FITX   201207                    00000+07100000             000000000             000000000             0002    00000000201206220832230000000000000000000y
0106213091396TFNYF0200006134592SNFTW     FITX   201207                    00000+07100000             000000000             000000000             0002    00000000201206220832230000000000000000000y
0106213091397TFNYF0200006134592BNFTW     FITX   201207                    00000+07100000             000000000             000000000             0002    00000000201206220832230000000000000000000y
0106213094064TFNYF0200006134592BNFTW     FITX   201207                    00000+07160000             000000000             000000000             0002    00000000201206220832230000000000000000000y
0106213094068TFNYF0200006134592SNFTW     FITX   201207                    00000+07148000             000000000             000000000             0002    00000000201206220832230000000000000000000y
0106213094069TFNYF0200006134592BNFTW     FITX   201207                    00000+07148000             000000000             000000000             0002    00000000201206220832230000000000000000000y
0106213094070TFNYF0200006134592SNFTW     FITX   201207                    00000+07148000             000000000             000000000             0002    00000000201206220832240000000000000000000y
0106213094071TFNYF0200006134592BNFTW     FITX   201207                    00000+07148000             000000000             000000000             0002    00000000201206220832240000000000000000000y
0106213094072TFNYF0200006134592SNFTW     FITX   201207                    00000+07147000             000000000             000000000             0002    00000000201206220832240000000000000000000y
0106213094073TFNYF0200006134592BNFTW     FITX   201207                    00000+07147000             000000000             000000000             0002    00000000201206220832240000000000000000000y
0106213094074TFNYF0200006134592SNFTW     FITX   201207                    00000+07147000             000000000             000000000             0002    00000000201206220832240000000000000000000y
0106213094075TFNYF0200006134592BNFTW     FITX   201207                    00000+07147000             000000000             000000000             0002    00000000201206220832240000000000000000000y
0106213094076TFNYF0200006134592SNFTW     FITX   201207                    00000+07148000             000000000             000000000             0002    00000000201206220832240000000000000000000y
0106213094077TFNYF0200006134592BNFTW     FITX   201207                    00000+07148000             000000000             000000000             0002    00000000201206220832240000000000000000000y
0106213094078TFNYF0200006134592SNFTW     FITX   201207                    00000+07148000             000000000             000000000             0002    00000000201206220832240000000000000000000y
0106213094079TFNYF0200006134592BNFTW     FITX   201207                    00000+07148000             000000000             000000000             0002    00000000201206220832240000000000000000000y
0106213094080TFNYF0200006134592SNFTW     FITX   201207                    00000+07148000             000000000             000000000             0002    00000000201206220832240000000000000000000y
0106213094081TFNYF0200006134592BNFTW     FITX   201207                    00000+07148000             000000000             000000000             0002    00000000201206220832240000000000000000000y
0106213094082TFNYF0200006134592SNFTW     FITX   201207                    00000+07148000             000000000             000000000             0002    00000000201206220832250000000000000000000y
0106213094083TFNYF0200006134592BNFTW     FITX   201207                    00000+07148000             000000000             000000000             0002    00000000201206220832250000000000000000000y
0106213094084TFNYF0200006134592SNFTW     FITX   201207                    00000+07147000             000000000             000000000             0002    00000000201206220832250000000000000000000y
0106213094085TFNYF0200006134592BNFTW     FITX   201207                    00000+07147000             000000000             000000000             0002    00000000201206220832250000000000000000000y
