---
---
0105223099322TFNYF0200006134592SNFTW     FITX   201206                    00000+07224000             000000000             000000000             0001    00000000201205230832160000000000000000000y
0105223099313TFNYF0200006134592SNFTW     FITX   201206                    00000+07224000             000000000             000000000             0001    00000000201205230832160000000000000000000y
0105223099214TFNYF0200006134592SNFTW     FITX   201206                    00000+07224000             000000000             000000000             0001    00000000201205230832160000000000000000000y
0105223099215TFNYF0200006134592SNFTW     FITX   201206                    00000+07224000             000000000             000000000             0001    00000000201205230832160000000000000000000y
0105223099212TFNYF0200006134592SNFTW     FITX   201206                    00000+07224000             000000000             000000000             0001    00000000201205230832160000000000000000000y
0105223099216TFNYF0200006134592SNFTW     FITX   201206                    00000+07224000             000000000             000000000             0001    00000000201205230832160000000000000000000y
0105223099217TFNYF0200006134592SNFTW     FITX   201206                    00000+07224000             000000000             000000000             0001    00000000201205230832160000000000000000000y
0105223099218TFNYF0200006134592SNFTW     FITX   201206                    00000+07224000             000000000             000000000             0001    00000000201205230832170000000000000000000y
0105223099219TFNYF0200006134592SNFTW     FITX   201206                    00000+07224000             000000000             000000000             0001    00000000201205230832170000000000000000000y
0105223099213TFNYF0200006134592SNFTW     FITX   201206                    00000+07224000             000000000             000000000             0001    00000000201205230832170000000000000000000y
0105223099220TFNYF0200006134592SNFTW     FITX   201206                    00000+07224000             000000000             000000000             0001    00000000201205230832170000000000000000000y
0105223099221TFNYF0200006134592SNFTW     FITX   201206                    00000+07224000             000000000             000000000             0001    00000000201205230832170000000000000000000y
0105223099222TFNYF0200006134592SNFTW     FITX   201206                    00000+07224000             000000000             000000000             0001    00000000201205230832170000000000000000000y
0105223099224TFNYF0200006134592SNFTW     FITX   201206                    00000+07224000             000000000             000000000             0001    00000000201205230832170000000000000000000y
0105223099225TFNYF0200006134592SNFTW     FITX   201206                    00000+07224000             000000000             000000000             0001    00000000201205230832170000000000000000000y
0105223099226TFNYF0200006134592SNFTW     FITX   201206                    00000+07224000             000000000             000000000             0001    00000000201205230832170000000000000000000y
0105223099227TFNYF0200006134592SNFTW     FITX   201206                    00000+07224000             000000000             000000000             0001    00000000201205230832170000000000000000000y
0105223099228TFNYF0200006134592SNFTW     FITX   201206                    00000+07224000             000000000             000000000             0001    00000000201205230832170000000000000000000y
0105223099229TFNYF0200006134592SNFTW     FITX   201206                    00000+07224000             000000000             000000000             0001    00000000201205230832180000000000000000000y
0105223099230TFNYF0200006134592SNFTW     FITX   201206                    00000+07224000             000000000             000000000             0001    00000000201205230832180000000000000000000y
0105223099231TFNYF0200006134592SNFTW     FITX   201206                    00000+07224000             000000000             000000000             0001    00000000201205230832180000000000000000000y
0105223099232TFNYF0200006134592SNFTW     FITX   201206                    00000+07224000             000000000             000000000             0001    00000000201205230832180000000000000000000y
---
---
0105223099322TFNYF0200006134592SNFTW     FITX   201206                    00000+07224000             000000000             000000000             0001    00000000201205230832160000000000000000000y
0105223099313TFNYF0200006134592SNFTW     FITX   201206                    00000+07224000             000000000             000000000             0001    00000000201205230832160000000000000000000y
0105223099214TFNYF0200006134592SNFTW     FITX   201206                    00000+07224000             000000000             000000000             0001    00000000201205230832160000000000000000000y
0105223099215TFNYF0200006134592SNFTW     FITX   201206                    00000+07224000             000000000             000000000             0001    00000000201205230832160000000000000000000y
0105223099212TFNYF0200006134592SNFTW     FITX   201206                    00000+07224000             000000000             000000000             0001    00000000201205230832160000000000000000000y
0105223099216TFNYF0200006134592SNFTW     FITX   201206                    00000+07224000             000000000             000000000             0001    00000000201205230832160000000000000000000y
0105223099217TFNYF0200006134592SNFTW     FITX   201206                    00000+07224000             000000000             000000000             0001    00000000201205230832160000000000000000000y
0105223099218TFNYF0200006134592SNFTW     FITX   201206                    00000+07224000             000000000             000000000             0001    00000000201205230832170000000000000000000y
0105223099219TFNYF0200006134592SNFTW     FITX   201206                    00000+07224000             000000000             000000000             0001    00000000201205230832170000000000000000000y
0105223099213TFNYF0200006134592SNFTW     FITX   201206                    00000+07224000             000000000             000000000             0001    00000000201205230832170000000000000000000y
0105223099220TFNYF0200006134592SNFTW     FITX   201206                    00000+07224000             000000000             000000000             0001    00000000201205230832170000000000000000000y
0105223099221TFNYF0200006134592SNFTW     FITX   201206                    00000+07224000             000000000             000000000             0001    00000000201205230832170000000000000000000y
0105223099222TFNYF0200006134592SNFTW     FITX   201206                    00000+07224000             000000000             000000000             0001    00000000201205230832170000000000000000000y
0105223099224TFNYF0200006134592SNFTW     FITX   201206                    00000+07224000             000000000             000000000             0001    00000000201205230832170000000000000000000y
0105223099225TFNYF0200006134592SNFTW     FITX   201206                    00000+07224000             000000000             000000000             0001    00000000201205230832170000000000000000000y
0105223099226TFNYF0200006134592SNFTW     FITX   201206                    00000+07224000             000000000             000000000             0001    00000000201205230832170000000000000000000y
0105223099227TFNYF0200006134592SNFTW     FITX   201206                    00000+07224000             000000000             000000000             0001    00000000201205230832170000000000000000000y
0105223099228TFNYF0200006134592SNFTW     FITX   201206                    00000+07224000             000000000             000000000             0001    00000000201205230832170000000000000000000y
0105223099229TFNYF0200006134592SNFTW     FITX   201206                    00000+07224000             000000000             000000000             0001    00000000201205230832180000000000000000000y
0105223099230TFNYF0200006134592SNFTW     FITX   201206                    00000+07224000             000000000             000000000             0001    00000000201205230832180000000000000000000y
0105223099231TFNYF0200006134592SNFTW     FITX   201206                    00000+07224000             000000000             000000000             0001    00000000201205230832180000000000000000000y
0105223099232TFNYF0200006134592SNFTW     FITX   201206                    00000+07224000             000000000             000000000             0001    00000000201205230832180000000000000000000y
---
---
0105223099322TFNYF0200006134592SNFTW     FITX   201206                    00000+07224000             000000000             000000000             0001    00000000201205230832160000000000000000000y
0105223099313TFNYF0200006134592SNFTW     FITX   201206                    00000+07224000             000000000             000000000             0001    00000000201205230832160000000000000000000y
0105223099214TFNYF0200006134592SNFTW     FITX   201206                    00000+07224000             000000000             000000000             0001    00000000201205230832160000000000000000000y
0105223099215TFNYF0200006134592SNFTW     FITX   201206                    00000+07224000             000000000             000000000             0001    00000000201205230832160000000000000000000y
0105223099212TFNYF0200006134592SNFTW     FITX   201206                    00000+07224000             000000000             000000000             0001    00000000201205230832160000000000000000000y
0105223099216TFNYF0200006134592SNFTW     FITX   201206                    00000+07224000             000000000             000000000             0001    00000000201205230832160000000000000000000y
0105223099217TFNYF0200006134592SNFTW     FITX   201206                    00000+07224000             000000000             000000000             0001    00000000201205230832160000000000000000000y
0105223099218TFNYF0200006134592SNFTW     FITX   201206                    00000+07224000             000000000             000000000             0001    00000000201205230832170000000000000000000y
0105223099219TFNYF0200006134592SNFTW     FITX   201206                    00000+07224000             000000000             000000000             0001    00000000201205230832170000000000000000000y
0105223099213TFNYF0200006134592SNFTW     FITX   201206                    00000+07224000             000000000             000000000             0001    00000000201205230832170000000000000000000y
0105223099220TFNYF0200006134592SNFTW     FITX   201206                    00000+07224000             000000000             000000000             0001    00000000201205230832170000000000000000000y
0105223099221TFNYF0200006134592SNFTW     FITX   201206                    00000+07224000             000000000             000000000             0001    00000000201205230832170000000000000000000y
0105223099222TFNYF0200006134592SNFTW     FITX   201206                    00000+07224000             000000000             000000000             0001    00000000201205230832170000000000000000000y
0105223099224TFNYF0200006134592SNFTW     FITX   201206                    00000+07224000             000000000             000000000             0001    00000000201205230832170000000000000000000y
0105223099225TFNYF0200006134592SNFTW     FITX   201206                    00000+07224000             000000000             000000000             0001    00000000201205230832170000000000000000000y
0105223099226TFNYF0200006134592SNFTW     FITX   201206                    00000+07224000             000000000             000000000             0001    00000000201205230832170000000000000000000y
0105223099227TFNYF0200006134592SNFTW     FITX   201206                    00000+07224000             000000000             000000000             0001    00000000201205230832170000000000000000000y
0105223099228TFNYF0200006134592SNFTW     FITX   201206                    00000+07224000             000000000             000000000             0001    00000000201205230832170000000000000000000y
0105223099229TFNYF0200006134592SNFTW     FITX   201206                    00000+07224000             000000000             000000000             0001    00000000201205230832180000000000000000000y
0105223099230TFNYF0200006134592SNFTW     FITX   201206                    00000+07224000             000000000             000000000             0001    00000000201205230832180000000000000000000y
0105223099231TFNYF0200006134592SNFTW     FITX   201206                    00000+07224000             000000000             000000000             0001    00000000201205230832180000000000000000000y
0105223099232TFNYF0200006134592SNFTW     FITX   201206                    00000+07224000             000000000             000000000             0001    00000000201205230832180000000000000000000y
---
---
0105223099322TFNYF0200006134592SNFTW     FITX   201206                    00000+07224000             000000000             000000000             0001    00000000201205230832160000000000000000000y
0105223099313TFNYF0200006134592SNFTW     FITX   201206                    00000+07224000             000000000             000000000             0001    00000000201205230832160000000000000000000y
0105223099214TFNYF0200006134592SNFTW     FITX   201206                    00000+07224000             000000000             000000000             0001    00000000201205230832160000000000000000000y
0105223099215TFNYF0200006134592SNFTW     FITX   201206                    00000+07224000             000000000             000000000             0001    00000000201205230832160000000000000000000y
0105223099212TFNYF0200006134592SNFTW     FITX   201206                    00000+07224000             000000000             000000000             0001    00000000201205230832160000000000000000000y
0105223099216TFNYF0200006134592SNFTW     FITX   201206                    00000+07224000             000000000             000000000             0001    00000000201205230832160000000000000000000y
0105223099217TFNYF0200006134592SNFTW     FITX   201206                    00000+07224000             000000000             000000000             0001    00000000201205230832160000000000000000000y
0105223099218TFNYF0200006134592SNFTW     FITX   201206                    00000+07224000             000000000             000000000             0001    00000000201205230832170000000000000000000y
0105223099219TFNYF0200006134592SNFTW     FITX   201206                    00000+07224000             000000000             000000000             0001    00000000201205230832170000000000000000000y
0105223099213TFNYF0200006134592SNFTW     FITX   201206                    00000+07224000             000000000             000000000             0001    00000000201205230832170000000000000000000y
0105223099220TFNYF0200006134592SNFTW     FITX   201206                    00000+07224000             000000000             000000000             0001    00000000201205230832170000000000000000000y
0105223099221TFNYF0200006134592SNFTW     FITX   201206                    00000+07224000             000000000             000000000             0001    00000000201205230832170000000000000000000y
0105223099222TFNYF0200006134592SNFTW     FITX   201206                    00000+07224000             000000000             000000000             0001    00000000201205230832170000000000000000000y
0105223099224TFNYF0200006134592SNFTW     FITX   201206                    00000+07224000             000000000             000000000             0001    00000000201205230832170000000000000000000y
0105223099225TFNYF0200006134592SNFTW     FITX   201206                    00000+07224000             000000000             000000000             0001    00000000201205230832170000000000000000000y
0105223099226TFNYF0200006134592SNFTW     FITX   201206                    00000+07224000             000000000             000000000             0001    00000000201205230832170000000000000000000y
0105223099227TFNYF0200006134592SNFTW     FITX   201206                    00000+07224000             000000000             000000000             0001    00000000201205230832170000000000000000000y
0105223099228TFNYF0200006134592SNFTW     FITX   201206                    00000+07224000             000000000             000000000             0001    00000000201205230832170000000000000000000y
0105223099229TFNYF0200006134592SNFTW     FITX   201206                    00000+07224000             000000000             000000000             0001    00000000201205230832180000000000000000000y
0105223099230TFNYF0200006134592SNFTW     FITX   201206                    00000+07224000             000000000             000000000             0001    00000000201205230832180000000000000000000y
0105223099231TFNYF0200006134592SNFTW     FITX   201206                    00000+07224000             000000000             000000000             0001    00000000201205230832180000000000000000000y
0105223099232TFNYF0200006134592SNFTW     FITX   201206                    00000+07224000             000000000             000000000             0001    00000000201205230832180000000000000000000y
---
---
0105223099322TFNYF0200006134592SNFTW     FITX   201206                    00000+07224000             000000000             000000000             0001    00000000201205230832160000000000000000000y
0105223099313TFNYF0200006134592SNFTW     FITX   201206                    00000+07224000             000000000             000000000             0001    00000000201205230832160000000000000000000y
0105223099214TFNYF0200006134592SNFTW     FITX   201206                    00000+07224000             000000000             000000000             0001    00000000201205230832160000000000000000000y
0105223099215TFNYF0200006134592SNFTW     FITX   201206                    00000+07224000             000000000             000000000             0001    00000000201205230832160000000000000000000y
0105223099212TFNYF0200006134592SNFTW     FITX   201206                    00000+07224000             000000000             000000000             0001    00000000201205230832160000000000000000000y
0105223099216TFNYF0200006134592SNFTW     FITX   201206                    00000+07224000             000000000             000000000             0001    00000000201205230832160000000000000000000y
0105223099217TFNYF0200006134592SNFTW     FITX   201206                    00000+07224000             000000000             000000000             0001    00000000201205230832160000000000000000000y
0105223099218TFNYF0200006134592SNFTW     FITX   201206                    00000+07224000             000000000             000000000             0001    00000000201205230832170000000000000000000y
0105223099219TFNYF0200006134592SNFTW     FITX   201206                    00000+07224000             000000000             000000000             0001    00000000201205230832170000000000000000000y
0105223099213TFNYF0200006134592SNFTW     FITX   201206                    00000+07224000             000000000             000000000             0001    00000000201205230832170000000000000000000y
0105223099220TFNYF0200006134592SNFTW     FITX   201206                    00000+07224000             000000000             000000000             0001    00000000201205230832170000000000000000000y
0105223099221TFNYF0200006134592SNFTW     FITX   201206                    00000+07224000             000000000             000000000             0001    00000000201205230832170000000000000000000y
0105223099222TFNYF0200006134592SNFTW     FITX   201206                    00000+07224000             000000000             000000000             0001    00000000201205230832170000000000000000000y
0105223099224TFNYF0200006134592SNFTW     FITX   201206                    00000+07224000             000000000             000000000             0001    00000000201205230832170000000000000000000y
0105223099225TFNYF0200006134592SNFTW     FITX   201206                    00000+07224000             000000000             000000000             0001    00000000201205230832170000000000000000000y
0105223099226TFNYF0200006134592SNFTW     FITX   201206                    00000+07224000             000000000             000000000             0001    00000000201205230832170000000000000000000y
0105223099227TFNYF0200006134592SNFTW     FITX   201206                    00000+07224000             000000000             000000000             0001    00000000201205230832170000000000000000000y
0105223099228TFNYF0200006134592SNFTW     FITX   201206                    00000+07224000             000000000             000000000             0001    00000000201205230832170000000000000000000y
0105223099229TFNYF0200006134592SNFTW     FITX   201206                    00000+07224000             000000000             000000000             0001    00000000201205230832180000000000000000000y
0105223099230TFNYF0200006134592SNFTW     FITX   201206                    00000+07224000             000000000             000000000             0001    00000000201205230832180000000000000000000y
0105223099231TFNYF0200006134592SNFTW     FITX   201206                    00000+07224000             000000000             000000000             0001    00000000201205230832180000000000000000000y
0105223099232TFNYF0200006134592SNFTW     FITX   201206                    00000+07224000             000000000             000000000             0001    00000000201205230832180000000000000000000y
0105233072507TFNYF0200006134592SNFTW     FITX   201206                    00000+07102000             000000000             000000000             0001    00000000201205231304390000000000000000012y
0105233075997TFNYF0200006134592BNFTW     FITX   201206                    00000+07102000             000000000             000000000             0002    00000000201205231322590000000000000000012y
---
---
0105223099322TFNYF0200006134592SNFTW     FITX   201206                    00000+07224000             000000000             000000000             0001    00000000201205230832160000000000000000000y
0105223099313TFNYF0200006134592SNFTW     FITX   201206                    00000+07224000             000000000             000000000             0001    00000000201205230832160000000000000000000y
0105223099214TFNYF0200006134592SNFTW     FITX   201206                    00000+07224000             000000000             000000000             0001    00000000201205230832160000000000000000000y
0105223099215TFNYF0200006134592SNFTW     FITX   201206                    00000+07224000             000000000             000000000             0001    00000000201205230832160000000000000000000y
0105223099212TFNYF0200006134592SNFTW     FITX   201206                    00000+07224000             000000000             000000000             0001    00000000201205230832160000000000000000000y
0105223099216TFNYF0200006134592SNFTW     FITX   201206                    00000+07224000             000000000             000000000             0001    00000000201205230832160000000000000000000y
0105223099217TFNYF0200006134592SNFTW     FITX   201206                    00000+07224000             000000000             000000000             0001    00000000201205230832160000000000000000000y
0105223099218TFNYF0200006134592SNFTW     FITX   201206                    00000+07224000             000000000             000000000             0001    00000000201205230832170000000000000000000y
0105223099219TFNYF0200006134592SNFTW     FITX   201206                    00000+07224000             000000000             000000000             0001    00000000201205230832170000000000000000000y
0105223099213TFNYF0200006134592SNFTW     FITX   201206                    00000+07224000             000000000             000000000             0001    00000000201205230832170000000000000000000y
0105223099220TFNYF0200006134592SNFTW     FITX   201206                    00000+07224000             000000000             000000000             0001    00000000201205230832170000000000000000000y
0105223099221TFNYF0200006134592SNFTW     FITX   201206                    00000+07224000             000000000             000000000             0001    00000000201205230832170000000000000000000y
0105223099222TFNYF0200006134592SNFTW     FITX   201206                    00000+07224000             000000000             000000000             0001    00000000201205230832170000000000000000000y
0105223099224TFNYF0200006134592SNFTW     FITX   201206                    00000+07224000             000000000             000000000             0001    00000000201205230832170000000000000000000y
0105223099225TFNYF0200006134592SNFTW     FITX   201206                    00000+07224000             000000000             000000000             0001    00000000201205230832170000000000000000000y
0105223099226TFNYF0200006134592SNFTW     FITX   201206                    00000+07224000             000000000             000000000             0001    00000000201205230832170000000000000000000y
0105223099227TFNYF0200006134592SNFTW     FITX   201206                    00000+07224000             000000000             000000000             0001    00000000201205230832170000000000000000000y
0105223099228TFNYF0200006134592SNFTW     FITX   201206                    00000+07224000             000000000             000000000             0001    00000000201205230832170000000000000000000y
0105223099229TFNYF0200006134592SNFTW     FITX   201206                    00000+07224000             000000000             000000000             0001    00000000201205230832180000000000000000000y
0105223099230TFNYF0200006134592SNFTW     FITX   201206                    00000+07224000             000000000             000000000             0001    00000000201205230832180000000000000000000y
0105223099231TFNYF0200006134592SNFTW     FITX   201206                    00000+07224000             000000000             000000000             0001    00000000201205230832180000000000000000000y
0105223099232TFNYF0200006134592SNFTW     FITX   201206                    00000+07224000             000000000             000000000             0001    00000000201205230832180000000000000000000y
0105233072507TFNYF0200006134592SNFTW     FITX   201206                    00000+07102000             000000000             000000000             0001    00000000201205231304390000000000000000012y
0105233075997TFNYF0200006134592BNFTW     FITX   201206                    00000+07102000             000000000             000000000             0002    00000000201205231322590000000000000000012y
---
---
0105223099322TFNYF0200006134592SNFTW     FITX   201206                    00000+07224000             000000000             000000000             0001    00000000201205230832160000000000000000000y
0105223099313TFNYF0200006134592SNFTW     FITX   201206                    00000+07224000             000000000             000000000             0001    00000000201205230832160000000000000000000y
0105223099214TFNYF0200006134592SNFTW     FITX   201206                    00000+07224000             000000000             000000000             0001    00000000201205230832160000000000000000000y
0105223099215TFNYF0200006134592SNFTW     FITX   201206                    00000+07224000             000000000             000000000             0001    00000000201205230832160000000000000000000y
0105223099212TFNYF0200006134592SNFTW     FITX   201206                    00000+07224000             000000000             000000000             0001    00000000201205230832160000000000000000000y
0105223099216TFNYF0200006134592SNFTW     FITX   201206                    00000+07224000             000000000             000000000             0001    00000000201205230832160000000000000000000y
0105223099217TFNYF0200006134592SNFTW     FITX   201206                    00000+07224000             000000000             000000000             0001    00000000201205230832160000000000000000000y
0105223099218TFNYF0200006134592SNFTW     FITX   201206                    00000+07224000             000000000             000000000             0001    00000000201205230832170000000000000000000y
0105223099219TFNYF0200006134592SNFTW     FITX   201206                    00000+07224000             000000000             000000000             0001    00000000201205230832170000000000000000000y
0105223099213TFNYF0200006134592SNFTW     FITX   201206                    00000+07224000             000000000             000000000             0001    00000000201205230832170000000000000000000y
0105223099220TFNYF0200006134592SNFTW     FITX   201206                    00000+07224000             000000000             000000000             0001    00000000201205230832170000000000000000000y
0105223099221TFNYF0200006134592SNFTW     FITX   201206                    00000+07224000             000000000             000000000             0001    00000000201205230832170000000000000000000y
0105223099222TFNYF0200006134592SNFTW     FITX   201206                    00000+07224000             000000000             000000000             0001    00000000201205230832170000000000000000000y
0105223099224TFNYF0200006134592SNFTW     FITX   201206                    00000+07224000             000000000             000000000             0001    00000000201205230832170000000000000000000y
0105223099225TFNYF0200006134592SNFTW     FITX   201206                    00000+07224000             000000000             000000000             0001    00000000201205230832170000000000000000000y
0105223099226TFNYF0200006134592SNFTW     FITX   201206                    00000+07224000             000000000             000000000             0001    00000000201205230832170000000000000000000y
0105223099227TFNYF0200006134592SNFTW     FITX   201206                    00000+07224000             000000000             000000000             0001    00000000201205230832170000000000000000000y
0105223099228TFNYF0200006134592SNFTW     FITX   201206                    00000+07224000             000000000             000000000             0001    00000000201205230832170000000000000000000y
0105223099229TFNYF0200006134592SNFTW     FITX   201206                    00000+07224000             000000000             000000000             0001    00000000201205230832180000000000000000000y
0105223099230TFNYF0200006134592SNFTW     FITX   201206                    00000+07224000             000000000             000000000             0001    00000000201205230832180000000000000000000y
0105223099231TFNYF0200006134592SNFTW     FITX   201206                    00000+07224000             000000000             000000000             0001    00000000201205230832180000000000000000000y
0105223099232TFNYF0200006134592SNFTW     FITX   201206                    00000+07224000             000000000             000000000             0001    00000000201205230832180000000000000000000y
0105233072507TFNYF0200006134592SNFTW     FITX   201206                    00000+07102000             000000000             000000000             0001    00000000201205231304390000000000000000012y
0105233075997TFNYF0200006134592BNFTW     FITX   201206                    00000+07102000             000000000             000000000             0002    00000000201205231322590000000000000000012y
---
---
0105223099322TFNYF0200006134592SNFTW     FITX   201206                    00000+07224000             000000000             000000000             0001    00000000201205230832160000000000000000000y
0105223099313TFNYF0200006134592SNFTW     FITX   201206                    00000+07224000             000000000             000000000             0001    00000000201205230832160000000000000000000y
0105223099214TFNYF0200006134592SNFTW     FITX   201206                    00000+07224000             000000000             000000000             0001    00000000201205230832160000000000000000000y
0105223099215TFNYF0200006134592SNFTW     FITX   201206                    00000+07224000             000000000             000000000             0001    00000000201205230832160000000000000000000y
0105223099212TFNYF0200006134592SNFTW     FITX   201206                    00000+07224000             000000000             000000000             0001    00000000201205230832160000000000000000000y
0105223099216TFNYF0200006134592SNFTW     FITX   201206                    00000+07224000             000000000             000000000             0001    00000000201205230832160000000000000000000y
0105223099217TFNYF0200006134592SNFTW     FITX   201206                    00000+07224000             000000000             000000000             0001    00000000201205230832160000000000000000000y
0105223099218TFNYF0200006134592SNFTW     FITX   201206                    00000+07224000             000000000             000000000             0001    00000000201205230832170000000000000000000y
0105223099219TFNYF0200006134592SNFTW     FITX   201206                    00000+07224000             000000000             000000000             0001    00000000201205230832170000000000000000000y
0105223099213TFNYF0200006134592SNFTW     FITX   201206                    00000+07224000             000000000             000000000             0001    00000000201205230832170000000000000000000y
0105223099220TFNYF0200006134592SNFTW     FITX   201206                    00000+07224000             000000000             000000000             0001    00000000201205230832170000000000000000000y
0105223099221TFNYF0200006134592SNFTW     FITX   201206                    00000+07224000             000000000             000000000             0001    00000000201205230832170000000000000000000y
0105223099222TFNYF0200006134592SNFTW     FITX   201206                    00000+07224000             000000000             000000000             0001    00000000201205230832170000000000000000000y
0105223099224TFNYF0200006134592SNFTW     FITX   201206                    00000+07224000             000000000             000000000             0001    00000000201205230832170000000000000000000y
0105223099225TFNYF0200006134592SNFTW     FITX   201206                    00000+07224000             000000000             000000000             0001    00000000201205230832170000000000000000000y
0105223099226TFNYF0200006134592SNFTW     FITX   201206                    00000+07224000             000000000             000000000             0001    00000000201205230832170000000000000000000y
0105223099227TFNYF0200006134592SNFTW     FITX   201206                    00000+07224000             000000000             000000000             0001    00000000201205230832170000000000000000000y
0105223099228TFNYF0200006134592SNFTW     FITX   201206                    00000+07224000             000000000             000000000             0001    00000000201205230832170000000000000000000y
0105223099229TFNYF0200006134592SNFTW     FITX   201206                    00000+07224000             000000000             000000000             0001    00000000201205230832180000000000000000000y
0105223099230TFNYF0200006134592SNFTW     FITX   201206                    00000+07224000             000000000             000000000             0001    00000000201205230832180000000000000000000y
0105223099231TFNYF0200006134592SNFTW     FITX   201206                    00000+07224000             000000000             000000000             0001    00000000201205230832180000000000000000000y
0105223099232TFNYF0200006134592SNFTW     FITX   201206                    00000+07224000             000000000             000000000             0001    00000000201205230832180000000000000000000y
0105233072507TFNYF0200006134592SNFTW     FITX   201206                    00000+07102000             000000000             000000000             0001    00000000201205231304390000000000000000012y
0105233075997TFNYF0200006134592BNFTW     FITX   201206                    00000+07102000             000000000             000000000             0002    00000000201205231322590000000000000000012y
---
---
0105223099322TFNYF0200006134592SNFTW     FITX   201206                    00000+07224000             000000000             000000000             0001    00000000201205230832160000000000000000000y
0105223099313TFNYF0200006134592SNFTW     FITX   201206                    00000+07224000             000000000             000000000             0001    00000000201205230832160000000000000000000y
0105223099214TFNYF0200006134592SNFTW     FITX   201206                    00000+07224000             000000000             000000000             0001    00000000201205230832160000000000000000000y
0105223099215TFNYF0200006134592SNFTW     FITX   201206                    00000+07224000             000000000             000000000             0001    00000000201205230832160000000000000000000y
0105223099212TFNYF0200006134592SNFTW     FITX   201206                    00000+07224000             000000000             000000000             0001    00000000201205230832160000000000000000000y
0105223099216TFNYF0200006134592SNFTW     FITX   201206                    00000+07224000             000000000             000000000             0001    00000000201205230832160000000000000000000y
0105223099217TFNYF0200006134592SNFTW     FITX   201206                    00000+07224000             000000000             000000000             0001    00000000201205230832160000000000000000000y
0105223099218TFNYF0200006134592SNFTW     FITX   201206                    00000+07224000             000000000             000000000             0001    00000000201205230832170000000000000000000y
0105223099219TFNYF0200006134592SNFTW     FITX   201206                    00000+07224000             000000000             000000000             0001    00000000201205230832170000000000000000000y
0105223099213TFNYF0200006134592SNFTW     FITX   201206                    00000+07224000             000000000             000000000             0001    00000000201205230832170000000000000000000y
0105223099220TFNYF0200006134592SNFTW     FITX   201206                    00000+07224000             000000000             000000000             0001    00000000201205230832170000000000000000000y
0105223099221TFNYF0200006134592SNFTW     FITX   201206                    00000+07224000             000000000             000000000             0001    00000000201205230832170000000000000000000y
0105223099222TFNYF0200006134592SNFTW     FITX   201206                    00000+07224000             000000000             000000000             0001    00000000201205230832170000000000000000000y
0105223099224TFNYF0200006134592SNFTW     FITX   201206                    00000+07224000             000000000             000000000             0001    00000000201205230832170000000000000000000y
0105223099225TFNYF0200006134592SNFTW     FITX   201206                    00000+07224000             000000000             000000000             0001    00000000201205230832170000000000000000000y
0105223099226TFNYF0200006134592SNFTW     FITX   201206                    00000+07224000             000000000             000000000             0001    00000000201205230832170000000000000000000y
0105223099227TFNYF0200006134592SNFTW     FITX   201206                    00000+07224000             000000000             000000000             0001    00000000201205230832170000000000000000000y
0105223099228TFNYF0200006134592SNFTW     FITX   201206                    00000+07224000             000000000             000000000             0001    00000000201205230832170000000000000000000y
0105223099229TFNYF0200006134592SNFTW     FITX   201206                    00000+07224000             000000000             000000000             0001    00000000201205230832180000000000000000000y
0105223099230TFNYF0200006134592SNFTW     FITX   201206                    00000+07224000             000000000             000000000             0001    00000000201205230832180000000000000000000y
0105223099231TFNYF0200006134592SNFTW     FITX   201206                    00000+07224000             000000000             000000000             0001    00000000201205230832180000000000000000000y
0105223099232TFNYF0200006134592SNFTW     FITX   201206                    00000+07224000             000000000             000000000             0001    00000000201205230832180000000000000000000y
0105233072507TFNYF0200006134592SNFTW     FITX   201206                    00000+07102000             000000000             000000000             0001    00000000201205231304390000000000000000012y
0105233075997TFNYF0200006134592BNFTW     FITX   201206                    00000+07102000             000000000             000000000             0002    00000000201205231322590000000000000000012y
---
---
0105223099322TFNYF0200006134592SNFTW     FITX   201206                    00000+07224000             000000000             000000000             0001    00000000201205230832160000000000000000000y
0105223099313TFNYF0200006134592SNFTW     FITX   201206                    00000+07224000             000000000             000000000             0001    00000000201205230832160000000000000000000y
0105223099214TFNYF0200006134592SNFTW     FITX   201206                    00000+07224000             000000000             000000000             0001    00000000201205230832160000000000000000000y
0105223099215TFNYF0200006134592SNFTW     FITX   201206                    00000+07224000             000000000             000000000             0001    00000000201205230832160000000000000000000y
0105223099212TFNYF0200006134592SNFTW     FITX   201206                    00000+07224000             000000000             000000000             0001    00000000201205230832160000000000000000000y
0105223099216TFNYF0200006134592SNFTW     FITX   201206                    00000+07224000             000000000             000000000             0001    00000000201205230832160000000000000000000y
0105223099217TFNYF0200006134592SNFTW     FITX   201206                    00000+07224000             000000000             000000000             0001    00000000201205230832160000000000000000000y
0105223099218TFNYF0200006134592SNFTW     FITX   201206                    00000+07224000             000000000             000000000             0001    00000000201205230832170000000000000000000y
0105223099219TFNYF0200006134592SNFTW     FITX   201206                    00000+07224000             000000000             000000000             0001    00000000201205230832170000000000000000000y
0105223099213TFNYF0200006134592SNFTW     FITX   201206                    00000+07224000             000000000             000000000             0001    00000000201205230832170000000000000000000y
0105223099220TFNYF0200006134592SNFTW     FITX   201206                    00000+07224000             000000000             000000000             0001    00000000201205230832170000000000000000000y
0105223099221TFNYF0200006134592SNFTW     FITX   201206                    00000+07224000             000000000             000000000             0001    00000000201205230832170000000000000000000y
0105223099222TFNYF0200006134592SNFTW     FITX   201206                    00000+07224000             000000000             000000000             0001    00000000201205230832170000000000000000000y
0105223099224TFNYF0200006134592SNFTW     FITX   201206                    00000+07224000             000000000             000000000             0001    00000000201205230832170000000000000000000y
0105223099225TFNYF0200006134592SNFTW     FITX   201206                    00000+07224000             000000000             000000000             0001    00000000201205230832170000000000000000000y
0105223099226TFNYF0200006134592SNFTW     FITX   201206                    00000+07224000             000000000             000000000             0001    00000000201205230832170000000000000000000y
0105223099227TFNYF0200006134592SNFTW     FITX   201206                    00000+07224000             000000000             000000000             0001    00000000201205230832170000000000000000000y
0105223099228TFNYF0200006134592SNFTW     FITX   201206                    00000+07224000             000000000             000000000             0001    00000000201205230832170000000000000000000y
0105223099229TFNYF0200006134592SNFTW     FITX   201206                    00000+07224000             000000000             000000000             0001    00000000201205230832180000000000000000000y
0105223099230TFNYF0200006134592SNFTW     FITX   201206                    00000+07224000             000000000             000000000             0001    00000000201205230832180000000000000000000y
0105223099231TFNYF0200006134592SNFTW     FITX   201206                    00000+07224000             000000000             000000000             0001    00000000201205230832180000000000000000000y
0105223099232TFNYF0200006134592SNFTW     FITX   201206                    00000+07224000             000000000             000000000             0001    00000000201205230832180000000000000000000y
0105233072507TFNYF0200006134592SNFTW     FITX   201206                    00000+07102000             000000000             000000000             0001    00000000201205231304390000000000000000012y
0105233075997TFNYF0200006134592BNFTW     FITX   201206                    00000+07102000             000000000             000000000             0002    00000000201205231322590000000000000000012y
---
---
0105223099322TFNYF0200006134592SNFTW     FITX   201206                    00000+07224000             000000000             000000000             0001    00000000201205230832160000000000000000000y
0105223099313TFNYF0200006134592SNFTW     FITX   201206                    00000+07224000             000000000             000000000             0001    00000000201205230832160000000000000000000y
0105223099214TFNYF0200006134592SNFTW     FITX   201206                    00000+07224000             000000000             000000000             0001    00000000201205230832160000000000000000000y
0105223099215TFNYF0200006134592SNFTW     FITX   201206                    00000+07224000             000000000             000000000             0001    00000000201205230832160000000000000000000y
0105223099212TFNYF0200006134592SNFTW     FITX   201206                    00000+07224000             000000000             000000000             0001    00000000201205230832160000000000000000000y
0105223099216TFNYF0200006134592SNFTW     FITX   201206                    00000+07224000             000000000             000000000             0001    00000000201205230832160000000000000000000y
0105223099217TFNYF0200006134592SNFTW     FITX   201206                    00000+07224000             000000000             000000000             0001    00000000201205230832160000000000000000000y
0105223099218TFNYF0200006134592SNFTW     FITX   201206                    00000+07224000             000000000             000000000             0001    00000000201205230832170000000000000000000y
0105223099219TFNYF0200006134592SNFTW     FITX   201206                    00000+07224000             000000000             000000000             0001    00000000201205230832170000000000000000000y
0105223099213TFNYF0200006134592SNFTW     FITX   201206                    00000+07224000             000000000             000000000             0001    00000000201205230832170000000000000000000y
0105223099220TFNYF0200006134592SNFTW     FITX   201206                    00000+07224000             000000000             000000000             0001    00000000201205230832170000000000000000000y
0105223099221TFNYF0200006134592SNFTW     FITX   201206                    00000+07224000             000000000             000000000             0001    00000000201205230832170000000000000000000y
0105223099222TFNYF0200006134592SNFTW     FITX   201206                    00000+07224000             000000000             000000000             0001    00000000201205230832170000000000000000000y
0105223099224TFNYF0200006134592SNFTW     FITX   201206                    00000+07224000             000000000             000000000             0001    00000000201205230832170000000000000000000y
0105223099225TFNYF0200006134592SNFTW     FITX   201206                    00000+07224000             000000000             000000000             0001    00000000201205230832170000000000000000000y
0105223099226TFNYF0200006134592SNFTW     FITX   201206                    00000+07224000             000000000             000000000             0001    00000000201205230832170000000000000000000y
0105223099227TFNYF0200006134592SNFTW     FITX   201206                    00000+07224000             000000000             000000000             0001    00000000201205230832170000000000000000000y
0105223099228TFNYF0200006134592SNFTW     FITX   201206                    00000+07224000             000000000             000000000             0001    00000000201205230832170000000000000000000y
0105223099229TFNYF0200006134592SNFTW     FITX   201206                    00000+07224000             000000000             000000000             0001    00000000201205230832180000000000000000000y
0105223099230TFNYF0200006134592SNFTW     FITX   201206                    00000+07224000             000000000             000000000             0001    00000000201205230832180000000000000000000y
0105223099231TFNYF0200006134592SNFTW     FITX   201206                    00000+07224000             000000000             000000000             0001    00000000201205230832180000000000000000000y
0105223099232TFNYF0200006134592SNFTW     FITX   201206                    00000+07224000             000000000             000000000             0001    00000000201205230832180000000000000000000y
0105233072507TFNYF0200006134592SNFTW     FITX   201206                    00000+07102000             000000000             000000000             0001    00000000201205231304390000000000000000012y
0105233075997TFNYF0200006134592BNFTW     FITX   201206                    00000+07102000             000000000             000000000             0002    00000000201205231322590000000000000000012y
---
---
0105223099322TFNYF0200006134592SNFTW     FITX   201206                    00000+07224000             000000000             000000000             0001    00000000201205230832160000000000000000000y
0105223099313TFNYF0200006134592SNFTW     FITX   201206                    00000+07224000             000000000             000000000             0001    00000000201205230832160000000000000000000y
0105223099214TFNYF0200006134592SNFTW     FITX   201206                    00000+07224000             000000000             000000000             0001    00000000201205230832160000000000000000000y
0105223099215TFNYF0200006134592SNFTW     FITX   201206                    00000+07224000             000000000             000000000             0001    00000000201205230832160000000000000000000y
0105223099212TFNYF0200006134592SNFTW     FITX   201206                    00000+07224000             000000000             000000000             0001    00000000201205230832160000000000000000000y
0105223099216TFNYF0200006134592SNFTW     FITX   201206                    00000+07224000             000000000             000000000             0001    00000000201205230832160000000000000000000y
0105223099217TFNYF0200006134592SNFTW     FITX   201206                    00000+07224000             000000000             000000000             0001    00000000201205230832160000000000000000000y
0105223099218TFNYF0200006134592SNFTW     FITX   201206                    00000+07224000             000000000             000000000             0001    00000000201205230832170000000000000000000y
0105223099219TFNYF0200006134592SNFTW     FITX   201206                    00000+07224000             000000000             000000000             0001    00000000201205230832170000000000000000000y
0105223099213TFNYF0200006134592SNFTW     FITX   201206                    00000+07224000             000000000             000000000             0001    00000000201205230832170000000000000000000y
0105223099220TFNYF0200006134592SNFTW     FITX   201206                    00000+07224000             000000000             000000000             0001    00000000201205230832170000000000000000000y
0105223099221TFNYF0200006134592SNFTW     FITX   201206                    00000+07224000             000000000             000000000             0001    00000000201205230832170000000000000000000y
0105223099222TFNYF0200006134592SNFTW     FITX   201206                    00000+07224000             000000000             000000000             0001    00000000201205230832170000000000000000000y
0105223099224TFNYF0200006134592SNFTW     FITX   201206                    00000+07224000             000000000             000000000             0001    00000000201205230832170000000000000000000y
0105223099225TFNYF0200006134592SNFTW     FITX   201206                    00000+07224000             000000000             000000000             0001    00000000201205230832170000000000000000000y
0105223099226TFNYF0200006134592SNFTW     FITX   201206                    00000+07224000             000000000             000000000             0001    00000000201205230832170000000000000000000y
0105223099227TFNYF0200006134592SNFTW     FITX   201206                    00000+07224000             000000000             000000000             0001    00000000201205230832170000000000000000000y
0105223099228TFNYF0200006134592SNFTW     FITX   201206                    00000+07224000             000000000             000000000             0001    00000000201205230832170000000000000000000y
0105223099229TFNYF0200006134592SNFTW     FITX   201206                    00000+07224000             000000000             000000000             0001    00000000201205230832180000000000000000000y
0105223099230TFNYF0200006134592SNFTW     FITX   201206                    00000+07224000             000000000             000000000             0001    00000000201205230832180000000000000000000y
0105223099231TFNYF0200006134592SNFTW     FITX   201206                    00000+07224000             000000000             000000000             0001    00000000201205230832180000000000000000000y
0105223099232TFNYF0200006134592SNFTW     FITX   201206                    00000+07224000             000000000             000000000             0001    00000000201205230832180000000000000000000y
0105233072507TFNYF0200006134592SNFTW     FITX   201206                    00000+07102000             000000000             000000000             0001    00000000201205231304390000000000000000012y
0105233075997TFNYF0200006134592BNFTW     FITX   201206                    00000+07102000             000000000             000000000             0002    00000000201205231322590000000000000000012y
---
---
0105223099322TFNYF0200006134592SNFTW     FITX   201206                    00000+07224000             000000000             000000000             0001    00000000201205230832160000000000000000000y
0105223099313TFNYF0200006134592SNFTW     FITX   201206                    00000+07224000             000000000             000000000             0001    00000000201205230832160000000000000000000y
0105223099214TFNYF0200006134592SNFTW     FITX   201206                    00000+07224000             000000000             000000000             0001    00000000201205230832160000000000000000000y
0105223099215TFNYF0200006134592SNFTW     FITX   201206                    00000+07224000             000000000             000000000             0001    00000000201205230832160000000000000000000y
0105223099212TFNYF0200006134592SNFTW     FITX   201206                    00000+07224000             000000000             000000000             0001    00000000201205230832160000000000000000000y
0105223099216TFNYF0200006134592SNFTW     FITX   201206                    00000+07224000             000000000             000000000             0001    00000000201205230832160000000000000000000y
0105223099217TFNYF0200006134592SNFTW     FITX   201206                    00000+07224000             000000000             000000000             0001    00000000201205230832160000000000000000000y
0105223099218TFNYF0200006134592SNFTW     FITX   201206                    00000+07224000             000000000             000000000             0001    00000000201205230832170000000000000000000y
0105223099219TFNYF0200006134592SNFTW     FITX   201206                    00000+07224000             000000000             000000000             0001    00000000201205230832170000000000000000000y
0105223099213TFNYF0200006134592SNFTW     FITX   201206                    00000+07224000             000000000             000000000             0001    00000000201205230832170000000000000000000y
0105223099220TFNYF0200006134592SNFTW     FITX   201206                    00000+07224000             000000000             000000000             0001    00000000201205230832170000000000000000000y
0105223099221TFNYF0200006134592SNFTW     FITX   201206                    00000+07224000             000000000             000000000             0001    00000000201205230832170000000000000000000y
0105223099222TFNYF0200006134592SNFTW     FITX   201206                    00000+07224000             000000000             000000000             0001    00000000201205230832170000000000000000000y
0105223099224TFNYF0200006134592SNFTW     FITX   201206                    00000+07224000             000000000             000000000             0001    00000000201205230832170000000000000000000y
0105223099225TFNYF0200006134592SNFTW     FITX   201206                    00000+07224000             000000000             000000000             0001    00000000201205230832170000000000000000000y
0105223099226TFNYF0200006134592SNFTW     FITX   201206                    00000+07224000             000000000             000000000             0001    00000000201205230832170000000000000000000y
0105223099227TFNYF0200006134592SNFTW     FITX   201206                    00000+07224000             000000000             000000000             0001    00000000201205230832170000000000000000000y
0105223099228TFNYF0200006134592SNFTW     FITX   201206                    00000+07224000             000000000             000000000             0001    00000000201205230832170000000000000000000y
0105223099229TFNYF0200006134592SNFTW     FITX   201206                    00000+07224000             000000000             000000000             0001    00000000201205230832180000000000000000000y
0105223099230TFNYF0200006134592SNFTW     FITX   201206                    00000+07224000             000000000             000000000             0001    00000000201205230832180000000000000000000y
0105223099231TFNYF0200006134592SNFTW     FITX   201206                    00000+07224000             000000000             000000000             0001    00000000201205230832180000000000000000000y
0105223099232TFNYF0200006134592SNFTW     FITX   201206                    00000+07224000             000000000             000000000             0001    00000000201205230832180000000000000000000y
0105233072507TFNYF0200006134592SNFTW     FITX   201206                    00000+07102000             000000000             000000000             0001    00000000201205231304390000000000000000012y
0105233075997TFNYF0200006134592BNFTW     FITX   201206                    00000+07102000             000000000             000000000             0002    00000000201205231322590000000000000000012y
---
---
0105223099322TFNYF0200006134592SNFTW     FITX   201206                    00000+07224000             000000000             000000000             0001    00000000201205230832160000000000000000000y
0105223099313TFNYF0200006134592SNFTW     FITX   201206                    00000+07224000             000000000             000000000             0001    00000000201205230832160000000000000000000y
0105223099214TFNYF0200006134592SNFTW     FITX   201206                    00000+07224000             000000000             000000000             0001    00000000201205230832160000000000000000000y
0105223099215TFNYF0200006134592SNFTW     FITX   201206                    00000+07224000             000000000             000000000             0001    00000000201205230832160000000000000000000y
0105223099212TFNYF0200006134592SNFTW     FITX   201206                    00000+07224000             000000000             000000000             0001    00000000201205230832160000000000000000000y
0105223099216TFNYF0200006134592SNFTW     FITX   201206                    00000+07224000             000000000             000000000             0001    00000000201205230832160000000000000000000y
0105223099217TFNYF0200006134592SNFTW     FITX   201206                    00000+07224000             000000000             000000000             0001    00000000201205230832160000000000000000000y
0105223099218TFNYF0200006134592SNFTW     FITX   201206                    00000+07224000             000000000             000000000             0001    00000000201205230832170000000000000000000y
0105223099219TFNYF0200006134592SNFTW     FITX   201206                    00000+07224000             000000000             000000000             0001    00000000201205230832170000000000000000000y
0105223099213TFNYF0200006134592SNFTW     FITX   201206                    00000+07224000             000000000             000000000             0001    00000000201205230832170000000000000000000y
0105223099220TFNYF0200006134592SNFTW     FITX   201206                    00000+07224000             000000000             000000000             0001    00000000201205230832170000000000000000000y
0105223099221TFNYF0200006134592SNFTW     FITX   201206                    00000+07224000             000000000             000000000             0001    00000000201205230832170000000000000000000y
0105223099222TFNYF0200006134592SNFTW     FITX   201206                    00000+07224000             000000000             000000000             0001    00000000201205230832170000000000000000000y
0105223099224TFNYF0200006134592SNFTW     FITX   201206                    00000+07224000             000000000             000000000             0001    00000000201205230832170000000000000000000y
0105223099225TFNYF0200006134592SNFTW     FITX   201206                    00000+07224000             000000000             000000000             0001    00000000201205230832170000000000000000000y
0105223099226TFNYF0200006134592SNFTW     FITX   201206                    00000+07224000             000000000             000000000             0001    00000000201205230832170000000000000000000y
0105223099227TFNYF0200006134592SNFTW     FITX   201206                    00000+07224000             000000000             000000000             0001    00000000201205230832170000000000000000000y
0105223099228TFNYF0200006134592SNFTW     FITX   201206                    00000+07224000             000000000             000000000             0001    00000000201205230832170000000000000000000y
0105223099229TFNYF0200006134592SNFTW     FITX   201206                    00000+07224000             000000000             000000000             0001    00000000201205230832180000000000000000000y
0105223099230TFNYF0200006134592SNFTW     FITX   201206                    00000+07224000             000000000             000000000             0001    00000000201205230832180000000000000000000y
0105223099231TFNYF0200006134592SNFTW     FITX   201206                    00000+07224000             000000000             000000000             0001    00000000201205230832180000000000000000000y
0105223099232TFNYF0200006134592SNFTW     FITX   201206                    00000+07224000             000000000             000000000             0001    00000000201205230832180000000000000000000y
0105233072507TFNYF0200006134592SNFTW     FITX   201206                    00000+07102000             000000000             000000000             0001    00000000201205231304390000000000000000012y
0105233075997TFNYF0200006134592BNFTW     FITX   201206                    00000+07102000             000000000             000000000             0002    00000000201205231322590000000000000000012y
---
---
0105223099322TFNYF0200006134592SNFTW     FITX   201206                    00000+07224000             000000000             000000000             0001    00000000201205230832160000000000000000000y
0105223099313TFNYF0200006134592SNFTW     FITX   201206                    00000+07224000             000000000             000000000             0001    00000000201205230832160000000000000000000y
0105223099214TFNYF0200006134592SNFTW     FITX   201206                    00000+07224000             000000000             000000000             0001    00000000201205230832160000000000000000000y
0105223099215TFNYF0200006134592SNFTW     FITX   201206                    00000+07224000             000000000             000000000             0001    00000000201205230832160000000000000000000y
0105223099212TFNYF0200006134592SNFTW     FITX   201206                    00000+07224000             000000000             000000000             0001    00000000201205230832160000000000000000000y
0105223099216TFNYF0200006134592SNFTW     FITX   201206                    00000+07224000             000000000             000000000             0001    00000000201205230832160000000000000000000y
0105223099217TFNYF0200006134592SNFTW     FITX   201206                    00000+07224000             000000000             000000000             0001    00000000201205230832160000000000000000000y
0105223099218TFNYF0200006134592SNFTW     FITX   201206                    00000+07224000             000000000             000000000             0001    00000000201205230832170000000000000000000y
0105223099219TFNYF0200006134592SNFTW     FITX   201206                    00000+07224000             000000000             000000000             0001    00000000201205230832170000000000000000000y
0105223099213TFNYF0200006134592SNFTW     FITX   201206                    00000+07224000             000000000             000000000             0001    00000000201205230832170000000000000000000y
0105223099220TFNYF0200006134592SNFTW     FITX   201206                    00000+07224000             000000000             000000000             0001    00000000201205230832170000000000000000000y
0105223099221TFNYF0200006134592SNFTW     FITX   201206                    00000+07224000             000000000             000000000             0001    00000000201205230832170000000000000000000y
0105223099222TFNYF0200006134592SNFTW     FITX   201206                    00000+07224000             000000000             000000000             0001    00000000201205230832170000000000000000000y
0105223099224TFNYF0200006134592SNFTW     FITX   201206                    00000+07224000             000000000             000000000             0001    00000000201205230832170000000000000000000y
0105223099225TFNYF0200006134592SNFTW     FITX   201206                    00000+07224000             000000000             000000000             0001    00000000201205230832170000000000000000000y
0105223099226TFNYF0200006134592SNFTW     FITX   201206                    00000+07224000             000000000             000000000             0001    00000000201205230832170000000000000000000y
0105223099227TFNYF0200006134592SNFTW     FITX   201206                    00000+07224000             000000000             000000000             0001    00000000201205230832170000000000000000000y
0105223099228TFNYF0200006134592SNFTW     FITX   201206                    00000+07224000             000000000             000000000             0001    00000000201205230832170000000000000000000y
0105223099229TFNYF0200006134592SNFTW     FITX   201206                    00000+07224000             000000000             000000000             0001    00000000201205230832180000000000000000000y
0105223099230TFNYF0200006134592SNFTW     FITX   201206                    00000+07224000             000000000             000000000             0001    00000000201205230832180000000000000000000y
0105223099231TFNYF0200006134592SNFTW     FITX   201206                    00000+07224000             000000000             000000000             0001    00000000201205230832180000000000000000000y
0105223099232TFNYF0200006134592SNFTW     FITX   201206                    00000+07224000             000000000             000000000             0001    00000000201205230832180000000000000000000y
0105233072507TFNYF0200006134592SNFTW     FITX   201206                    00000+07102000             000000000             000000000             0001    00000000201205231304390000000000000000012y
0105233075997TFNYF0200006134592BNFTW     FITX   201206                    00000+07102000             000000000             000000000             0002    00000000201205231322590000000000000000012y
