---
---
0106143094357TFNYF0200006134592BNFTW     FITX   201206                    00000+07053000             000000000             000000000             0001    00000000201206150832170000000000000000000y
0106143094358TFNYF0200006134592SNFTW     FITX   201206                    00000+07041000             000000000             000000000             0002    00000000201206150832170000000000000000000y
0106143094359TFNYF0200006134592BNFTW     FITX   201206                    00000+07051000             000000000             000000000             0002    00000000201206150832170000000000000000000y
0106143094360TFNYF0200006134592SNFTW     FITX   201206                    00000+07060000             000000000             000000000             0002    00000000201206150832170000000000000000000y
0106143094361TFNYF0200006134592BNFTW     FITX   201206                    00000+07052000             000000000             000000000             0002    00000000201206150832170000000000000000000y
0106143094362TFNYF0200006134592SNFTW     FITX   201206                    00000+07052000             000000000             000000000             0002    00000000201206150832170000000000000000000y
0106143094363TFNYF0200006134592BNFTW     FITX   201206                    00000+07065000             000000000             000000000             0002    00000000201206150832170000000000000000000y
0106143094364TFNYF0200006134592SNFTW     FITX   201206                    00000+07091000             000000000             000000000             0002    00000000201206150832170000000000000000000y
0106143094365TFNYF0200006134592BNFTW     FITX   201206                    00000+07095000             000000000             000000000             0002    00000000201206150832170000000000000000000y
0106143094366TFNYF0200006134592SNFTW     FITX   201206                    00000+07088000             000000000             000000000             0002    00000000201206150832170000000000000000000y
0106143094367TFNYF0200006134592BNFTW     FITX   201206                    00000+07094000             000000000             000000000             0002    00000000201206150832170000000000000000000y
0106143094368TFNYF0200006134592SNFTW     FITX   201206                    00000+07085000             000000000             000000000             0002    00000000201206150832180000000000000000000y
0106143094369TFNYF0200006134592BNFTW     FITX   201206                    00000+07064000             000000000             000000000             0002    00000000201206150832180000000000000000000y
0106143094192TFNYF0200006134592BNFTW     FITX   201206                    00000+07061000             000000000             000000000             0001    00000000201206150832190000000000000000000y
0106143094193TFNYF0200006134592SNFTW     FITX   201206                    00000+07035000             000000000             000000000             0002    00000000201206150832190000000000000000000y
0106143094194TFNYF0200006134592BNFTW     FITX   201206                    00000+07061000             000000000             000000000             0002    00000000201206150832190000000000000000000y
0106143094195TFNYF0200006134592SNFTW     FITX   201206                    00000+07043000             000000000             000000000             0002    00000000201206150832190000000000000000000y
0106143094196TFNYF0200006134592BNFTW     FITX   201206                    00000+07069000             000000000             000000000             0002    00000000201206150832190000000000000000000y
0106143094197TFNYF0200006134592SNFTW     FITX   201206                    00000+07071000             000000000             000000000             0002    00000000201206150832190000000000000000000y
0106143094302TFNYF0200006134592BNFTW     FITX   201206                    00000+07061000             000000000             000000000             0001    00000000201206150832200000000000000000000y
0106143094304TFNYF0200006134592SNFTW     FITX   201206                    00000+07035000             000000000             000000000             0002    00000000201206150832200000000000000000000y
0106143094305TFNYF0200006134592BNFTW     FITX   201206                    00000+07061000             000000000             000000000             0002    00000000201206150832200000000000000000000y
0106143094306TFNYF0200006134592SNFTW     FITX   201206                    00000+07043000             000000000             000000000             0002    00000000201206150832200000000000000000000y
0106143094307TFNYF0200006134592BNFTW     FITX   201206                    00000+07069000             000000000             000000000             0002    00000000201206150832200000000000000000000y
0106143094308TFNYF0200006134592SNFTW     FITX   201206                    00000+07071000             000000000             000000000             0002    00000000201206150832200000000000000000000y
0106143094166TFNYF0200006134592BNFTW     FITX   201206                    00000+07061000             000000000             000000000             0001    00000000201206150832200000000000000000000y
0106143094167TFNYF0200006134592SNFTW     FITX   201206                    00000+07035000             000000000             000000000             0002    00000000201206150832200000000000000000000y
0106143094168TFNYF0200006134592BNFTW     FITX   201206                    00000+07061000             000000000             000000000             0002    00000000201206150832200000000000000000000y
0106143094169TFNYF0200006134592SNFTW     FITX   201206                    00000+07043000             000000000             000000000             0002    00000000201206150832200000000000000000000y
0106143094170TFNYF0200006134592BNFTW     FITX   201206                    00000+07069000             000000000             000000000             0002    00000000201206150832200000000000000000000y
0106143094171TFNYF0200006134592SNFTW     FITX   201206                    00000+07071000             000000000             000000000             0002    00000000201206150832200000000000000000000y
0106143094177TFNYF0200006134592BNFTW     FITX   201206                    00000+07061000             000000000             000000000             0002    00000000201206150832210000000000000000000y
0106143094178TFNYF0200006134592SNFTW     FITX   201206                    00000+07035000             000000000             000000000             0002    00000000201206150832210000000000000000000y
0106143094179TFNYF0200006134592BNFTW     FITX   201206                    00000+07061000             000000000             000000000             0002    00000000201206150832210000000000000000000y
0106143094180TFNYF0200006134592SNFTW     FITX   201206                    00000+07043000             000000000             000000000             0002    00000000201206150832210000000000000000000y
0106143094181TFNYF0200006134592BNFTW     FITX   201206                    00000+07069000             000000000             000000000             0002    00000000201206150832210000000000000000000y
0106143094182TFNYF0200006134592SNFTW     FITX   201206                    00000+07071000             000000000             000000000             0002    00000000201206150832210000000000000000000y
0106143094325TFNYF0200006134592BNFTW     FITX   201206                    00000+07061000             000000000             000000000             0001    00000000201206150832210000000000000000000y
0106143094326TFNYF0200006134592SNFTW     FITX   201206                    00000+07035000             000000000             000000000             0002    00000000201206150832210000000000000000000y
0106143094327TFNYF0200006134592BNFTW     FITX   201206                    00000+07061000             000000000             000000000             0002    00000000201206150832210000000000000000000y
0106143094328TFNYF0200006134592SNFTW     FITX   201206                    00000+07043000             000000000             000000000             0002    00000000201206150832210000000000000000000y
0106143094330TFNYF0200006134592BNFTW     FITX   201206                    00000+07069000             000000000             000000000             0002    00000000201206150832210000000000000000000y
0106143094332TFNYF0200006134592SNFTW     FITX   201206                    00000+07071000             000000000             000000000             0002    00000000201206150832220000000000000000000y
0106143094345TFNYF0200006134592BNFTW     FITX   201206                    00000+07061000             000000000             000000000             0001    00000000201206150832220000000000000000000y
0106143094346TFNYF0200006134592SNFTW     FITX   201206                    00000+07035000             000000000             000000000             0002    00000000201206150832220000000000000000000y
0106143094347TFNYF0200006134592BNFTW     FITX   201206                    00000+07061000             000000000             000000000             0002    00000000201206150832220000000000000000000y
0106143094348TFNYF0200006134592SNFTW     FITX   201206                    00000+07043000             000000000             000000000             0002    00000000201206150832220000000000000000000y
0106143094349TFNYF0200006134592BNFTW     FITX   201206                    00000+07069000             000000000             000000000             0002    00000000201206150832220000000000000000000y
0106143094350TFNYF0200006134592SNFTW     FITX   201206                    00000+07071000             000000000             000000000             0002    00000000201206150832220000000000000000000y
0106143094246TFNYF0200006134592BNFTW     FITX   201206                    00000+07061000             000000000             000000000             0001    00000000201206150832220000000000000000000y
0106143094247TFNYF0200006134592SNFTW     FITX   201206                    00000+07035000             000000000             000000000             0002    00000000201206150832220000000000000000000y
0106143094248TFNYF0200006134592BNFTW     FITX   201206                    00000+07061000             000000000             000000000             0002    00000000201206150832230000000000000000000y
0106143094249TFNYF0200006134592SNFTW     FITX   201206                    00000+07043000             000000000             000000000             0002    00000000201206150832230000000000000000000y
0106143094250TFNYF0200006134592BNFTW     FITX   201206                    00000+07069000             000000000             000000000             0002    00000000201206150832230000000000000000000y
0106143094251TFNYF0200006134592SNFTW     FITX   201206                    00000+07071000             000000000             000000000             0002    00000000201206150832230000000000000000000y
0106143093981TFNYF0200006134592BNFTW     FITX   201206                    00000+07061000             000000000             000000000             0001    00000000201206150832230000000000000000000y
0106143093982TFNYF0200006134592SNFTW     FITX   201206                    00000+07035000             000000000             000000000             0002    00000000201206150832230000000000000000000y
0106143093983TFNYF0200006134592BNFTW     FITX   201206                    00000+07061000             000000000             000000000             0002    00000000201206150832230000000000000000000y
0106143093984TFNYF0200006134592SNFTW     FITX   201206                    00000+07043000             000000000             000000000             0002    00000000201206150832230000000000000000000y
0106143093985TFNYF0200006134592BNFTW     FITX   201206                    00000+07069000             000000000             000000000             0002    00000000201206150832230000000000000000000y
0106143093986TFNYF0200006134592SNFTW     FITX   201206                    00000+07071000             000000000             000000000             0002    00000000201206150832230000000000000000000y
0106143093805TFNYF0200006134592BNFTW     FITX   201206                    00000+07061000             000000000             000000000             0001    00000000201206150832230000000000000000000y
0106143093806TFNYF0200006134592SNFTW     FITX   201206                    00000+07035000             000000000             000000000             0002    00000000201206150832230000000000000000000y
0106143093807TFNYF0200006134592BNFTW     FITX   201206                    00000+07061000             000000000             000000000             0002    00000000201206150832240000000000000000000y
0106143093808TFNYF0200006134592SNFTW     FITX   201206                    00000+07043000             000000000             000000000             0002    00000000201206150832240000000000000000000y
0106143093809TFNYF0200006134592BNFTW     FITX   201206                    00000+07069000             000000000             000000000             0002    00000000201206150832240000000000000000000y
0106143093821TFNYF0200006134592SNFTW     FITX   201206                    00000+07071000             000000000             000000000             0002    00000000201206150832240000000000000000000y
0106153035020TFNYF0200006134592SNFTW     FITX   201206                    00000+07114000             000000000             000000000             0001    00000000201206150943090000000000000000012y
0106153035030TFNYF0200006134592BNFTW     FITX   201206                    00000+07114000             000000000             000000000             0001    00000000201206150943100000000000000000012y
000000y
0106143094359TFNYF0200006134592BNFTW     FITX   201206                    00000+07051000             000000000             000000000             0002    00000000201206150832170000000000000000000y
0106143094360TFNYF0200006134592SNFTW     FITX   201206                    00000+07060000             000000000             000000000             0002    00000000201206150832170000000000000000000y
0106143094361TFNYF0200006134592BNFTW     FITX   201206                    00000+07052000             000000000             000000000             0002    00000000201206150832170000000000000000000y
0106143094362TFNYF0200006134592SNFTW     FITX   201206                    00000+07052000             000000000             000000000             0002    00000000201206150832170000000000000000000y
0106143094363TFNYF0200006134592BNFTW     FITX   201206                    00000+07065000             000000000             000000000             0002    00000000201206150832170000000000000000000y
0106143094364TFNYF0200006134592SNFTW     FITX   201206                    00000+07091000             000000000             000000000             0002    00000000201206150832170000000000000000000y
0106143094365TFNYF0200006134592BNFTW     FITX   201206                    00000+07095000             000000000             000000000             0002    00000000201206150832170000000000000000000y
0106143094366TFNYF0200006134592SNFTW     FITX   201206                    00000+07088000             000000000             000000000             0002    00000000201206150832170000000000000000000y
0106143094367TFNYF0200006134592BNFTW     FITX   201206                    00000+07094000             000000000             000000000             0002    00000000201206150832170000000000000000000y
0106143094368TFNYF0200006134592SNFTW     FITX   201206                    00000+07085000             000000000             000000000             0002    00000000201206150832180000000000000000000y
0106143094369TFNYF0200006134592BNFTW     FITX   201206                    00000+07064000             000000000             000000000             0002    00000000201206150832180000000000000000000y
0106143094192TFNYF0200006134592BNFTW     FITX   201206                    00000+07061000             000000000             000000000             0001    00000000201206150832190000000000000000000y
0106143094193TFNYF0200006134592SNFTW     FITX   201206                    00000+07035000             000000000             000000000             0002    00000000201206150832190000000000000000000y
0106143094194TFNYF0200006134592BNFTW     FITX   201206                    00000+07061000             000000000             000000000             0002    00000000201206150832190000000000000000000y
0106143094195TFNYF0200006134592SNFTW     FITX   201206                    00000+07043000             000000000             000000000             0002    00000000201206150832190000000000000000000y
0106143094196TFNYF0200006134592BNFTW     FITX   201206                    00000+07069000             000000000             000000000             0002    00000000201206150832190000000000000000000y
0106143094197TFNYF0200006134592SNFTW     FITX   201206                    00000+07071000             000000000             000000000             0002    00000000201206150832190000000000000000000y
0106143094302TFNYF0200006134592BNFTW     FITX   201206                    00000+07061000             000000000             000000000             0001    00000000201206150832200000000000000000000y
0106143094304TFNYF0200006134592SNFTW     FITX   201206                    00000+07035000             000000000             000000000             0002    00000000201206150832200000000000000000000y
0106143094305TFNYF0200006134592BNFTW     FITX   201206                    00000+07061000             000000000             000000000             0002    00000000201206150832200000000000000000000y
0106143094306TFNYF0200006134592SNFTW     FITX   201206                    00000+07043000             000000000             000000000             0002    00000000201206150832200000000000000000000y
0106143094307TFNYF0200006134592BNFTW     FITX   201206                    00000+07069000             000000000             000000000             0002    00000000201206150832200000000000000000000y
0106143094308TFNYF0200006134592SNFTW     FITX   201206                    00000+07071000             000000000             000000000             0002    00000000201206150832200000000000000000000y
0106143094166TFNYF0200006134592BNFTW     FITX   201206                    00000+07061000             000000000             000000000             0001    00000000201206150832200000000000000000000y
0106143094167TFNYF0200006134592SNFTW     FITX   201206                    00000+07035000             000000000             000000000             0002    00000000201206150832200000000000000000000y
0106143094168TFNYF0200006134592BNFTW     FITX   201206                    00000+07061000             000000000             000000000             0002    00000000201206150832200000000000000000000y
0106143094169TFNYF0200006134592SNFTW     FITX   201206                    00000+07043000             000000000             000000000             0002    00000000201206150832200000000000000000000y
0106143094170TFNYF0200006134592BNFTW     FITX   201206                    00000+07069000             000000000             000000000             0002    00000000201206150832200000000000000000000y
0106143094171TFNYF0200006134592SNFTW     FITX   201206                    00000+07071000             000000000             000000000             0002    00000000201206150832200000000000000000000y
0106143094177TFNYF0200006134592BNFTW     FITX   201206                    00000+07061000             000000000             000000000             0002    00000000201206150832210000000000000000000y
0106143094178TFNYF0200006134592SNFTW     FITX   201206                    00000+07035000             000000000             000000000             0002    00000000201206150832210000000000000000000y
0106143094179TFNYF0200006134592BNFTW     FITX   201206                    00000+07061000             000000000             000000000             0002    00000000201206150832210000000000000000000y
0106143094180TFNYF0200006134592SNFTW     FITX   201206                    00000+07043000             000000000             000000000             0002    00000000201206150832210000000000000000000y
0106143094181TFNYF0200006134592BNFTW     FITX   201206                    00000+07069000             000000000             000000000             0002    00000000201206150832210000000000000000000y
0106143094182TFNYF0200006134592SNFTW     FITX   201206                    00000+07071000             000000000             000000000             0002    00000000201206150832210000000000000000000y
0106143094325TFNYF0200006134592BNFTW     FITX   201206                    00000+07061000             000000000             000000000             0001    00000000201206150832210000000000000000000y
0106143094326TFNYF0200006134592SNFTW     FITX   201206                    00000+07035000             000000000             000000000             0002    00000000201206150832210000000000000000000y
0106143094327TFNYF0200006134592BNFTW     FITX   201206                    00000+07061000             000000000             000000000             0002    00000000201206150832210000000000000000000y
0106143094328TFNYF0200006134592SNFTW     FITX   201206                    00000+07043000             000000000             000000000             0002    00000000201206150832210000000000000000000y
0106143094330TFNYF0200006134592BNFTW     FITX   201206                    00000+07069000             000000000             000000000             0002    00000000201206150832210000000000000000000y
0106143094332TFNYF0200006134592SNFTW     FITX   201206                    00000+07071000             000000000             000000000             0002    00000000201206150832220000000000000000000y
0106143094345TFNYF0200006134592BNFTW     FITX   201206                    00000+07061000             000000000             000000000             0001    00000000201206150832220000000000000000000y
0106143094346TFNYF0200006134592SNFTW     FITX   201206                    00000+07035000             000000000             000000000             0002    00000000201206150832220000000000000000000y
0106143094347TFNYF0200006134592BNFTW     FITX   201206                    00000+07061000             000000000             000000000             0002    00000000201206150832220000000000000000000y
0106143094348TFNYF0200006134592SNFTW     FITX   201206                    00000+07043000             000000000             000000000             0002    00000000201206150832220000000000000000000y
0106143094349TFNYF0200006134592BNFTW     FITX   201206                    00000+07069000             000000000             000000000             0002    00000000201206150832220000000000000000000y
0106143094350TFNYF0200006134592SNFTW     FITX   201206                    00000+07071000             000000000             000000000             0002    00000000201206150832220000000000000000000y
0106143094246TFNYF0200006134592BNFTW     FITX   201206                    00000+07061000             000000000             000000000             0001    00000000201206150832220000000000000000000y
0106143094247TFNYF0200006134592SNFTW     FITX   201206                    00000+07035000             000000000             000000000             0002    00000000201206150832220000000000000000000y
0106143094248TFNYF0200006134592BNFTW     FITX   201206                    00000+07061000             000000000             000000000             0002    00000000201206150832230000000000000000000y
0106143094249TFNYF0200006134592SNFTW     FITX   201206                    00000+07043000             000000000             000000000             0002    00000000201206150832230000000000000000000y
0106143094250TFNYF0200006134592BNFTW     FITX   201206                    00000+07069000             000000000             000000000             0002    00000000201206150832230000000000000000000y
0106143094251TFNYF0200006134592SNFTW     FITX   201206                    00000+07071000             000000000             000000000             0002    00000000201206150832230000000000000000000y
0106143093981TFNYF0200006134592BNFTW     FITX   201206                    00000+07061000             000000000             000000000             0001    00000000201206150832230000000000000000000y
0106143093982TFNYF0200006134592SNFTW     FITX   201206                    00000+07035000             000000000             000000000             0002    00000000201206150832230000000000000000000y
0106143093983TFNYF0200006134592BNFTW     FITX   201206                    00000+07061000             000000000             000000000             0002    00000000201206150832230000000000000000000y
0106143093984TFNYF0200006134592SNFTW     FITX   201206                    00000+07043000             000000000             000000000             0002    00000000201206150832230000000000000000000y
0106143093985TFNYF0200006134592BNFTW     FITX   201206                    00000+07069000             000000000             000000000             0002    00000000201206150832230000000000000000000y
0106143093986TFNYF0200006134592SNFTW     FITX   201206                    00000+07071000             000000000             000000000             0002    00000000201206150832230000000000000000000y
0106143093805TFNYF0200006134592BNFTW     FITX   201206                    00000+07061000             000000000             000000000             0001    00000000201206150832230000000000000000000y
0106143093806TFNYF0200006134592SNFTW     FITX   201206                    00000+07035000             000000000             000000000             0002    00000000201206150832230000000000000000000y
0106143093807TFNYF0200006134592BNFTW     FITX   201206                    00000+07061000             000000000             000000000             0002    00000000201206150832240000000000000000000y
0106143093808TFNYF0200006134592SNFTW     FITX   201206                    00000+07043000             000000000             000000000             0002    00000000201206150832240000000000000000000y
0106143093809TFNYF0200006134592BNFTW     FITX   201206                    00000+07069000             000000000             000000000             0002    00000000201206150832240000000000000000000y
0106143093821TFNYF0200006134592SNFTW     FITX   201206                    00000+07071000             000000000             000000000             0002    00000000201206150832240000000000000000000y
0106153035020TFNYF0200006134592SNFTW     FITX   201206                    00000+07114000             000000000             000000000             0001    00000000201206150943090000000000000000012y
0106153035030TFNYF0200006134592BNFTW     FITX   201206                    00000+07114000             000000000             000000000             0001    00000000201206150943100000000000000000012y
---
---
0106143094357TFNYF0200006134592BNFTW     FITX   201206                    00000+07053000             000000000             000000000             0001    00000000201206150832170000000000000000000y
0106143094358TFNYF0200006134592SNFTW     FITX   201206                    00000+07041000             000000000             000000000             0002    00000000201206150832170000000000000000000y
0106143094359TFNYF0200006134592BNFTW     FITX   201206                    00000+07051000             000000000             000000000             0002    00000000201206150832170000000000000000000y
0106143094360TFNYF0200006134592SNFTW     FITX   201206                    00000+07060000             000000000             000000000             0002    00000000201206150832170000000000000000000y
0106143094361TFNYF0200006134592BNFTW     FITX   201206                    00000+07052000             000000000             000000000             0002    00000000201206150832170000000000000000000y
0106143094362TFNYF0200006134592SNFTW     FITX   201206                    00000+07052000             000000000             000000000             0002    00000000201206150832170000000000000000000y
0106143094363TFNYF0200006134592BNFTW     FITX   201206                    00000+07065000             000000000             000000000             0002    00000000201206150832170000000000000000000y
0106143094364TFNYF0200006134592SNFTW     FITX   201206                    00000+07091000             000000000             000000000             0002    00000000201206150832170000000000000000000y
0106143094365TFNYF0200006134592BNFTW     FITX   201206                    00000+07095000             000000000             000000000             0002    00000000201206150832170000000000000000000y
0106143094366TFNYF0200006134592SNFTW     FITX   201206                    00000+07088000             000000000             000000000             0002    00000000201206150832170000000000000000000y
0106143094367TFNYF0200006134592BNFTW     FITX   201206                    00000+07094000             000000000             000000000             0002    00000000201206150832170000000000000000000y
0106143094368TFNYF0200006134592SNFTW     FITX   201206                    00000+07085000             000000000             000000000             0002    00000000201206150832180000000000000000000y
0106143094369TFNYF0200006134592BNFTW     FITX   201206                    00000+07064000             000000000             000000000             0002    00000000201206150832180000000000000000000y
0106143094192TFNYF0200006134592BNFTW     FITX   201206                    00000+07061000             000000000             000000000             0001    00000000201206150832190000000000000000000y
0106143094193TFNYF0200006134592SNFTW     FITX   201206                    00000+07035000             000000000             000000000             0002    00000000201206150832190000000000000000000y
0106143094194TFNYF0200006134592BNFTW     FITX   201206                    00000+07061000             000000000             000000000             0002    00000000201206150832190000000000000000000y
0106143094195TFNYF0200006134592SNFTW     FITX   201206                    00000+07043000             000000000             000000000             0002    00000000201206150832190000000000000000000y
0106143094196TFNYF0200006134592BNFTW     FITX   201206                    00000+07069000             000000000             000000000             0002    00000000201206150832190000000000000000000y
0106143094197TFNYF0200006134592SNFTW     FITX   201206                    00000+07071000             000000000             000000000             0002    00000000201206150832190000000000000000000y
0106143094302TFNYF0200006134592BNFTW     FITX   201206                    00000+07061000             000000000             000000000             0001    00000000201206150832200000000000000000000y
0106143094304TFNYF0200006134592SNFTW     FITX   201206                    00000+07035000             000000000             000000000             0002    00000000201206150832200000000000000000000y
0106143094305TFNYF0200006134592BNFTW     FITX   201206                    00000+07061000             000000000             000000000             0002    00000000201206150832200000000000000000000y
0106143094306TFNYF0200006134592SNFTW     FITX   201206                    00000+07043000             000000000             000000000             0002    00000000201206150832200000000000000000000y
0106143094307TFNYF0200006134592BNFTW     FITX   201206                    00000+07069000             000000000             000000000             0002    00000000201206150832200000000000000000000y
0106143094308TFNYF0200006134592SNFTW     FITX   201206                    00000+07071000             000000000             000000000             0002    00000000201206150832200000000000000000000y
0106143094166TFNYF0200006134592BNFTW     FITX   201206                    00000+07061000             000000000             000000000             0001    00000000201206150832200000000000000000000y
0106143094167TFNYF0200006134592SNFTW     FITX   201206                    00000+07035000             000000000             000000000             0002    00000000201206150832200000000000000000000y
0106143094168TFNYF0200006134592BNFTW     FITX   201206                    00000+07061000             000000000             000000000             0002    00000000201206150832200000000000000000000y
0106143094169TFNYF0200006134592SNFTW     FITX   201206                    00000+07043000             000000000             000000000             0002    00000000201206150832200000000000000000000y
0106143094170TFNYF0200006134592BNFTW     FITX   201206                    00000+07069000             000000000             000000000             0002    00000000201206150832200000000000000000000y
0106143094171TFNYF0200006134592SNFTW     FITX   201206                    00000+07071000             000000000             000000000             0002    00000000201206150832200000000000000000000y
0106143094177TFNYF0200006134592BNFTW     FITX   201206                    00000+07061000             000000000             000000000             0002    00000000201206150832210000000000000000000y
0106143094178TFNYF0200006134592SNFTW     FITX   201206                    00000+07035000             000000000             000000000             0002    00000000201206150832210000000000000000000y
0106143094179TFNYF0200006134592BNFTW     FITX   201206                    00000+07061000             000000000             000000000             0002    00000000201206150832210000000000000000000y
0106143094180TFNYF0200006134592SNFTW     FITX   201206                    00000+07043000             000000000             000000000             0002    00000000201206150832210000000000000000000y
0106143094181TFNYF0200006134592BNFTW     FITX   201206                    00000+07069000             000000000             000000000             0002    00000000201206150832210000000000000000000y
0106143094182TFNYF0200006134592SNFTW     FITX   201206                    00000+07071000             000000000             000000000             0002    00000000201206150832210000000000000000000y
0106143094325TFNYF0200006134592BNFTW     FITX   201206                    00000+07061000             000000000             000000000             0001    00000000201206150832210000000000000000000y
0106143094326TFNYF0200006134592SNFTW     FITX   201206                    00000+07035000             000000000             000000000             0002    00000000201206150832210000000000000000000y
0106143094327TFNYF0200006134592BNFTW     FITX   201206                    00000+07061000             000000000             000000000             0002    00000000201206150832210000000000000000000y
0106143094328TFNYF0200006134592SNFTW     FITX   201206                    00000+07043000             000000000             000000000             0002    00000000201206150832210000000000000000000y
0106143094330TFNYF0200006134592BNFTW     FITX   201206                    00000+07069000             000000000             000000000             0002    00000000201206150832210000000000000000000y
0106143094332TFNYF0200006134592SNFTW     FITX   201206                    00000+07071000             000000000             000000000             0002    00000000201206150832220000000000000000000y
0106143094345TFNYF0200006134592BNFTW     FITX   201206                    00000+07061000             000000000             000000000             0001    00000000201206150832220000000000000000000y
0106143094346TFNYF0200006134592SNFTW     FITX   201206                    00000+07035000             000000000             000000000             0002    00000000201206150832220000000000000000000y
0106143094347TFNYF0200006134592BNFTW     FITX   201206                    00000+07061000             000000000             000000000             0002    00000000201206150832220000000000000000000y
0106143094348TFNYF0200006134592SNFTW     FITX   201206                    00000+07043000             000000000             000000000             0002    00000000201206150832220000000000000000000y
0106143094349TFNYF0200006134592BNFTW     FITX   201206                    00000+07069000             000000000             000000000             0002    00000000201206150832220000000000000000000y
0106143094350TFNYF0200006134592SNFTW     FITX   201206                    00000+07071000             000000000             000000000             0002    00000000201206150832220000000000000000000y
0106143094246TFNYF0200006134592BNFTW     FITX   201206                    00000+07061000             000000000             000000000             0001    00000000201206150832220000000000000000000y
0106143094247TFNYF0200006134592SNFTW     FITX   201206                    00000+07035000             000000000             000000000             0002    00000000201206150832220000000000000000000y
0106143094248TFNYF0200006134592BNFTW     FITX   201206                    00000+07061000             000000000             000000000             0002    00000000201206150832230000000000000000000y
0106143094249TFNYF0200006134592SNFTW     FITX   201206                    00000+07043000             000000000             000000000             0002    00000000201206150832230000000000000000000y
0106143094250TFNYF0200006134592BNFTW     FITX   201206                    00000+07069000             000000000             000000000             0002    00000000201206150832230000000000000000000y
0106143094251TFNYF0200006134592SNFTW     FITX   201206                    00000+07071000             000000000             000000000             0002    00000000201206150832230000000000000000000y
0106143093981TFNYF0200006134592BNFTW     FITX   201206                    00000+07061000             000000000             000000000             0001    00000000201206150832230000000000000000000y
0106143093982TFNYF0200006134592SNFTW     FITX   201206                    00000+07035000             000000000             000000000             0002    00000000201206150832230000000000000000000y
0106143093983TFNYF0200006134592BNFTW     FITX   201206                    00000+07061000             000000000             000000000             0002    00000000201206150832230000000000000000000y
0106143093984TFNYF0200006134592SNFTW     FITX   201206                    00000+07043000             000000000             000000000             0002    00000000201206150832230000000000000000000y
0106143093985TFNYF0200006134592BNFTW     FITX   201206                    00000+07069000             000000000             000000000             0002    00000000201206150832230000000000000000000y
0106143093986TFNYF0200006134592SNFTW     FITX   201206                    00000+07071000             000000000             000000000             0002    00000000201206150832230000000000000000000y
0106143093805TFNYF0200006134592BNFTW     FITX   201206                    00000+07061000             000000000             000000000             0001    00000000201206150832230000000000000000000y
0106143093806TFNYF0200006134592SNFTW     FITX   201206                    00000+07035000             000000000             000000000             0002    00000000201206150832230000000000000000000y
0106143093807TFNYF0200006134592BNFTW     FITX   201206                    00000+07061000             000000000             000000000             0002    00000000201206150832240000000000000000000y
0106143093808TFNYF0200006134592SNFTW     FITX   201206                    00000+07043000             000000000             000000000             0002    00000000201206150832240000000000000000000y
0106143093809TFNYF0200006134592BNFTW     FITX   201206                    00000+07069000             000000000             000000000             0002    00000000201206150832240000000000000000000y
0106143093821TFNYF0200006134592SNFTW     FITX   201206                    00000+07071000             000000000             000000000             0002    00000000201206150832240000000000000000000y
0106153035020TFNYF0200006134592SNFTW     FITX   201206                    00000+07114000             000000000             000000000             0001    00000000201206150943090000000000000000012y
0106153035030TFNYF0200006134592BNFTW     FITX   201206                    00000+07114000             000000000             000000000             0001    00000000201206150943100000000000000000012y
0106153049221TFNYF0200006134592SNFTW     FITX   201206                    00000+07062000             000000000             000000000             0002    00000000201206151017150000000000000000012y
0106153049227TFNYF0200006134592BNFTW     FITX   201206                    00000+07068000             000000000             000000000             0002    00000000201206151017160000000000000000012y
0106153049230TFNYF0200006134592SNFTW     FITX   201206                    00000+07054000             000000000             000000000             0002    00000000201206151017170000000000000000012y
0106153049233TFNYF0200006134592BNFTW     FITX   201206                    00000+07066000             000000000             000000000             0002    00000000201206151017180000000000000000012y
0106153049236TFNYF0200006134592SNFTW     FITX   201206                    00000+07068000             000000000             000000000             0002    00000000201206151017190000000000000000012y
0106153049238TFNYF0200006134592BNFTW     FITX   201206                    00000+07079000             000000000             000000000             0002    00000000201206151017190000000000000000012y
0106153049244TFNYF0200006134592SNFTW     FITX   201206                    00000+07110000             000000000             000000000             0002    00000000201206151017210000000000000000012y
0106153049245TFNYF0200006134592BNFTW     FITX   201206                    00000+07120000             000000000             000000000             0002    00000000201206151017210000000000000000012y
---
---
0106143094357TFNYF0200006134592BNFTW     FITX   201206                    00000+07053000             000000000             000000000             0001    00000000201206150832170000000000000000000y
0106143094358TFNYF0200006134592SNFTW     FITX   201206                    00000+07041000             000000000             000000000             0002    00000000201206150832170000000000000000000y
0106143094359TFNYF0200006134592BNFTW     FITX   201206                    00000+07051000             000000000             000000000             0002    00000000201206150832170000000000000000000y
0106143094360TFNYF0200006134592SNFTW     FITX   201206                    00000+07060000             000000000             000000000             0002    00000000201206150832170000000000000000000y
0106143094361TFNYF0200006134592BNFTW     FITX   201206                    00000+07052000             000000000             000000000             0002    00000000201206150832170000000000000000000y
0106143094362TFNYF0200006134592SNFTW     FITX   201206                    00000+07052000             000000000             000000000             0002    00000000201206150832170000000000000000000y
0106143094363TFNYF0200006134592BNFTW     FITX   201206                    00000+07065000             000000000             000000000             0002    00000000201206150832170000000000000000000y
0106143094364TFNYF0200006134592SNFTW     FITX   201206                    00000+07091000             000000000             000000000             0002    00000000201206150832170000000000000000000y
0106143094365TFNYF0200006134592BNFTW     FITX   201206                    00000+07095000             000000000             000000000             0002    00000000201206150832170000000000000000000y
0106143094366TFNYF0200006134592SNFTW     FITX   201206                    00000+07088000             000000000             000000000             0002    00000000201206150832170000000000000000000y
0106143094367TFNYF0200006134592BNFTW     FITX   201206                    00000+07094000             000000000             000000000             0002    00000000201206150832170000000000000000000y
0106143094368TFNYF0200006134592SNFTW     FITX   201206                    00000+07085000             000000000             000000000             0002    00000000201206150832180000000000000000000y
0106143094369TFNYF0200006134592BNFTW     FITX   201206                    00000+07064000             000000000             000000000             0002    00000000201206150832180000000000000000000y
0106143094192TFNYF0200006134592BNFTW     FITX   201206                    00000+07061000             000000000             000000000             0001    00000000201206150832190000000000000000000y
0106143094193TFNYF0200006134592SNFTW     FITX   201206                    00000+07035000             000000000             000000000             0002    00000000201206150832190000000000000000000y
0106143094194TFNYF0200006134592BNFTW     FITX   201206                    00000+07061000             000000000             000000000             0002    00000000201206150832190000000000000000000y
0106143094195TFNYF0200006134592SNFTW     FITX   201206                    00000+07043000             000000000             000000000             0002    00000000201206150832190000000000000000000y
0106143094196TFNYF0200006134592BNFTW     FITX   201206                    00000+07069000             000000000             000000000             0002    00000000201206150832190000000000000000000y
0106143094197TFNYF0200006134592SNFTW     FITX   201206                    00000+07071000             000000000             000000000             0002    00000000201206150832190000000000000000000y
0106143094302TFNYF0200006134592BNFTW     FITX   201206                    00000+07061000             000000000             000000000             0001    00000000201206150832200000000000000000000y
0106143094304TFNYF0200006134592SNFTW     FITX   201206                    00000+07035000             000000000             000000000             0002    00000000201206150832200000000000000000000y
0106143094305TFNYF0200006134592BNFTW     FITX   201206                    00000+07061000             000000000             000000000             0002    00000000201206150832200000000000000000000y
0106143094306TFNYF0200006134592SNFTW     FITX   201206                    00000+07043000             000000000             000000000             0002    00000000201206150832200000000000000000000y
0106143094307TFNYF0200006134592BNFTW     FITX   201206                    00000+07069000             000000000             000000000             0002    00000000201206150832200000000000000000000y
0106143094308TFNYF0200006134592SNFTW     FITX   201206                    00000+07071000             000000000             000000000             0002    00000000201206150832200000000000000000000y
0106143094166TFNYF0200006134592BNFTW     FITX   201206                    00000+07061000             000000000             000000000             0001    00000000201206150832200000000000000000000y
0106143094167TFNYF0200006134592SNFTW     FITX   201206                    00000+07035000             000000000             000000000             0002    00000000201206150832200000000000000000000y
0106143094168TFNYF0200006134592BNFTW     FITX   201206                    00000+07061000             000000000             000000000             0002    00000000201206150832200000000000000000000y
0106143094169TFNYF0200006134592SNFTW     FITX   201206                    00000+07043000             000000000             000000000             0002    00000000201206150832200000000000000000000y
0106143094170TFNYF0200006134592BNFTW     FITX   201206                    00000+07069000             000000000             000000000             0002    00000000201206150832200000000000000000000y
0106143094171TFNYF0200006134592SNFTW     FITX   201206                    00000+07071000             000000000             000000000             0002    00000000201206150832200000000000000000000y
0106143094177TFNYF0200006134592BNFTW     FITX   201206                    00000+07061000             000000000             000000000             0002    00000000201206150832210000000000000000000y
0106143094178TFNYF0200006134592SNFTW     FITX   201206                    00000+07035000             000000000             000000000             0002    00000000201206150832210000000000000000000y
0106143094179TFNYF0200006134592BNFTW     FITX   201206                    00000+07061000             000000000             000000000             0002    00000000201206150832210000000000000000000y
0106143094180TFNYF0200006134592SNFTW     FITX   201206                    00000+07043000             000000000             000000000             0002    00000000201206150832210000000000000000000y
0106143094181TFNYF0200006134592BNFTW     FITX   201206                    00000+07069000             000000000             000000000             0002    00000000201206150832210000000000000000000y
0106143094182TFNYF0200006134592SNFTW     FITX   201206                    00000+07071000             000000000             000000000             0002    00000000201206150832210000000000000000000y
0106143094325TFNYF0200006134592BNFTW     FITX   201206                    00000+07061000             000000000             000000000             0001    00000000201206150832210000000000000000000y
0106143094326TFNYF0200006134592SNFTW     FITX   201206                    00000+07035000             000000000             000000000             0002    00000000201206150832210000000000000000000y
0106143094327TFNYF0200006134592BNFTW     FITX   201206                    00000+07061000             000000000             000000000             0002    00000000201206150832210000000000000000000y
0106143094328TFNYF0200006134592SNFTW     FITX   201206                    00000+07043000             000000000             000000000             0002    00000000201206150832210000000000000000000y
0106143094330TFNYF0200006134592BNFTW     FITX   201206                    00000+07069000             000000000             000000000             0002    00000000201206150832210000000000000000000y
0106143094332TFNYF0200006134592SNFTW     FITX   201206                    00000+07071000             000000000             000000000             0002    00000000201206150832220000000000000000000y
0106143094345TFNYF0200006134592BNFTW     FITX   201206                    00000+07061000             000000000             000000000             0001    00000000201206150832220000000000000000000y
0106143094346TFNYF0200006134592SNFTW     FITX   201206                    00000+07035000             000000000             000000000             0002    00000000201206150832220000000000000000000y
0106143094347TFNYF0200006134592BNFTW     FITX   201206                    00000+07061000             000000000             000000000             0002    00000000201206150832220000000000000000000y
0106143094348TFNYF0200006134592SNFTW     FITX   201206                    00000+07043000             000000000             000000000             0002    00000000201206150832220000000000000000000y
0106143094349TFNYF0200006134592BNFTW     FITX   201206                    00000+07069000             000000000             000000000             0002    00000000201206150832220000000000000000000y
0106143094350TFNYF0200006134592SNFTW     FITX   201206                    00000+07071000             000000000             000000000             0002    00000000201206150832220000000000000000000y
0106143094246TFNYF0200006134592BNFTW     FITX   201206                    00000+07061000             000000000             000000000             0001    00000000201206150832220000000000000000000y
0106143094247TFNYF0200006134592SNFTW     FITX   201206                    00000+07035000             000000000             000000000             0002    00000000201206150832220000000000000000000y
0106143094248TFNYF0200006134592BNFTW     FITX   201206                    00000+07061000             000000000             000000000             0002    00000000201206150832230000000000000000000y
0106143094249TFNYF0200006134592SNFTW     FITX   201206                    00000+07043000             000000000             000000000             0002    00000000201206150832230000000000000000000y
0106143094250TFNYF0200006134592BNFTW     FITX   201206                    00000+07069000             000000000             000000000             0002    00000000201206150832230000000000000000000y
0106143094251TFNYF0200006134592SNFTW     FITX   201206                    00000+07071000             000000000             000000000             0002    00000000201206150832230000000000000000000y
0106143093981TFNYF0200006134592BNFTW     FITX   201206                    00000+07061000             000000000             000000000             0001    00000000201206150832230000000000000000000y
0106143093982TFNYF0200006134592SNFTW     FITX   201206                    00000+07035000             000000000             000000000             0002    00000000201206150832230000000000000000000y
0106143093983TFNYF0200006134592BNFTW     FITX   201206                    00000+07061000             000000000             000000000             0002    00000000201206150832230000000000000000000y
0106143093984TFNYF0200006134592SNFTW     FITX   201206                    00000+07043000             000000000             000000000             0002    00000000201206150832230000000000000000000y
0106143093985TFNYF0200006134592BNFTW     FITX   201206                    00000+07069000             000000000             000000000             0002    00000000201206150832230000000000000000000y
0106143093986TFNYF0200006134592SNFTW     FITX   201206                    00000+07071000             000000000             000000000             0002    00000000201206150832230000000000000000000y
0106143093805TFNYF0200006134592BNFTW     FITX   201206                    00000+07061000             000000000             000000000             0001    00000000201206150832230000000000000000000y
0106143093806TFNYF0200006134592SNFTW     FITX   201206                    00000+07035000             000000000             000000000             0002    00000000201206150832230000000000000000000y
0106143093807TFNYF0200006134592BNFTW     FITX   201206                    00000+07061000             000000000             000000000             0002    00000000201206150832240000000000000000000y
0106143093808TFNYF0200006134592SNFTW     FITX   201206                    00000+07043000             000000000             000000000             0002    00000000201206150832240000000000000000000y
0106143093809TFNYF0200006134592BNFTW     FITX   201206                    00000+07069000             000000000             000000000             0002    00000000201206150832240000000000000000000y
0106143093821TFNYF0200006134592SNFTW     FITX   201206                    00000+07071000             000000000             000000000             0002    00000000201206150832240000000000000000000y
0106153035020TFNYF0200006134592SNFTW     FITX   201206                    00000+07114000             000000000             000000000             0001    00000000201206150943090000000000000000012y
0106153035030TFNYF0200006134592BNFTW     FITX   201206                    00000+07114000             000000000             000000000             0001    00000000201206150943100000000000000000012y
0106153049221TFNYF0200006134592SNFTW     FITX   201206                    00000+07062000             000000000             000000000             0002    00000000201206151017150000000000000000012y
0106153049227TFNYF0200006134592BNFTW     FITX   201206                    00000+07068000             000000000             000000000             0002    00000000201206151017160000000000000000012y
0106153049230TFNYF0200006134592SNFTW     FITX   201206                    00000+07054000             000000000             000000000             0002    00000000201206151017170000000000000000012y
0106153049233TFNYF0200006134592BNFTW     FITX   201206                    00000+07066000             000000000             000000000             0002    00000000201206151017180000000000000000012y
0106153049236TFNYF0200006134592SNFTW     FITX   201206                    00000+07068000             000000000             000000000             0002    00000000201206151017190000000000000000012y
0106153049238TFNYF0200006134592BNFTW     FITX   201206                    00000+07079000             000000000             000000000             0002    00000000201206151017190000000000000000012y
0106153049244TFNYF0200006134592SNFTW     FITX   201206                    00000+07110000             000000000             000000000             0002    00000000201206151017210000000000000000012y
0106153049245TFNYF0200006134592BNFTW     FITX   201206                    00000+07120000             000000000             000000000             0002    00000000201206151017210000000000000000012y
0106153049923TFNYF0200006134592SNFTW     FITX   201206                    00000+07062000             000000000             000000000             0002    00000000201206151019410000000000000000012y
0106153049927TFNYF0200006134592BNFTW     FITX   201206                    00000+07068000             000000000             000000000             0002    00000000201206151019410000000000000000012y
0106153049930TFNYF0200006134592SNFTW     FITX   201206                    00000+07054000             000000000             000000000             0002    00000000201206151019420000000000000000012y
0106153049937TFNYF0200006134592BNFTW     FITX   201206                    00000+07066000             000000000             000000000             0002    00000000201206151019430000000000000000012y
0106153049948TFNYF0200006134592SNFTW     FITX   201206                    00000+07068000             000000000             000000000             0002    00000000201206151019440000000000000000012y
0106153049954TFNYF0200006134592BNFTW     FITX   201206                    00000+07079000             000000000             000000000             0002    00000000201206151019440000000000000000012y
0106153049962TFNYF0200006134592SNFTW     FITX   201206                    00000+07110000             000000000             000000000             0002    00000000201206151019460000000000000000012y
0106153049968TFNYF0200006134592BNFTW     FITX   201206                    00000+07120000             000000000             000000000             0002    00000000201206151019460000000000000000012y
0106153055878TFNYF0200006134592SNFTW     FITX   201206                    00000+07130000             000000000             000000000             0002    00000000201206151036540000000000000000012y
0106153060463TFNYF0200006134592BNFTW     FITX   201206                    00000+07130000             000000000             000000000             0002    00000000201206151055140000000000000000012y
0106153062853TFNYF0200006134592SNFTW     FITX   201206                    00000+07125000             000000000             000000000             0002    00000000201206151105060000000000000000012y
0106153063880TFNYF0200006134592BNFTW     FITX   201206                    00000+07131000             000000000             000000000             0002    00000000201206151111240000000000000000012y
0106153072414TFNYF0200006134592SNFTW     FITX   201206                    00000+07133000             000000000             000000000             0002    00000000201206151157340000000000000000012y
0106153075074TFNYF0200006134592BNFTW     FITX   201206                    00000+07125000             000000000             000000000             0002    00000000201206151210070000000000000000012y
---
---
0106143094357TFNYF0200006134592BNFTW     FITX   201206                    00000+07053000             000000000             000000000             0001    00000000201206150832170000000000000000000y
0106143094358TFNYF0200006134592SNFTW     FITX   201206                    00000+07041000             000000000             000000000             0002    00000000201206150832170000000000000000000y
0106143094359TFNYF0200006134592BNFTW     FITX   201206                    00000+07051000             000000000             000000000             0002    00000000201206150832170000000000000000000y
0106143094360TFNYF0200006134592SNFTW     FITX   201206                    00000+07060000             000000000             000000000             0002    00000000201206150832170000000000000000000y
0106143094361TFNYF0200006134592BNFTW     FITX   201206                    00000+07052000             000000000             000000000             0002    00000000201206150832170000000000000000000y
0106143094362TFNYF0200006134592SNFTW     FITX   201206                    00000+07052000             000000000             000000000             0002    00000000201206150832170000000000000000000y
0106143094363TFNYF0200006134592BNFTW     FITX   201206                    00000+07065000             000000000             000000000             0002    00000000201206150832170000000000000000000y
0106143094364TFNYF0200006134592SNFTW     FITX   201206                    00000+07091000             000000000             000000000             0002    00000000201206150832170000000000000000000y
0106143094365TFNYF0200006134592BNFTW     FITX   201206                    00000+07095000             000000000             000000000             0002    00000000201206150832170000000000000000000y
0106143094366TFNYF0200006134592SNFTW     FITX   201206                    00000+07088000             000000000             000000000             0002    00000000201206150832170000000000000000000y
0106143094367TFNYF0200006134592BNFTW     FITX   201206                    00000+07094000             000000000             000000000             0002    00000000201206150832170000000000000000000y
0106143094368TFNYF0200006134592SNFTW     FITX   201206                    00000+07085000             000000000             000000000             0002    00000000201206150832180000000000000000000y
0106143094369TFNYF0200006134592BNFTW     FITX   201206                    00000+07064000             000000000             000000000             0002    00000000201206150832180000000000000000000y
0106143094192TFNYF0200006134592BNFTW     FITX   201206                    00000+07061000             000000000             000000000             0001    00000000201206150832190000000000000000000y
0106143094193TFNYF0200006134592SNFTW     FITX   201206                    00000+07035000             000000000             000000000             0002    00000000201206150832190000000000000000000y
0106143094194TFNYF0200006134592BNFTW     FITX   201206                    00000+07061000             000000000             000000000             0002    00000000201206150832190000000000000000000y
0106143094195TFNYF0200006134592SNFTW     FITX   201206                    00000+07043000             000000000             000000000             0002    00000000201206150832190000000000000000000y
0106143094196TFNYF0200006134592BNFTW     FITX   201206                    00000+07069000             000000000             000000000             0002    00000000201206150832190000000000000000000y
0106143094197TFNYF0200006134592SNFTW     FITX   201206                    00000+07071000             000000000             000000000             0002    00000000201206150832190000000000000000000y
0106143094302TFNYF0200006134592BNFTW     FITX   201206                    00000+07061000             000000000             000000000             0001    00000000201206150832200000000000000000000y
0106143094304TFNYF0200006134592SNFTW     FITX   201206                    00000+07035000             000000000             000000000             0002    00000000201206150832200000000000000000000y
0106143094305TFNYF0200006134592BNFTW     FITX   201206                    00000+07061000             000000000             000000000             0002    00000000201206150832200000000000000000000y
0106143094306TFNYF0200006134592SNFTW     FITX   201206                    00000+07043000             000000000             000000000             0002    00000000201206150832200000000000000000000y
0106143094307TFNYF0200006134592BNFTW     FITX   201206                    00000+07069000             000000000             000000000             0002    00000000201206150832200000000000000000000y
0106143094308TFNYF0200006134592SNFTW     FITX   201206                    00000+07071000             000000000             000000000             0002    00000000201206150832200000000000000000000y
0106143094166TFNYF0200006134592BNFTW     FITX   201206                    00000+07061000             000000000             000000000             0001    00000000201206150832200000000000000000000y
0106143094167TFNYF0200006134592SNFTW     FITX   201206                    00000+07035000             000000000             000000000             0002    00000000201206150832200000000000000000000y
0106143094168TFNYF0200006134592BNFTW     FITX   201206                    00000+07061000             000000000             000000000             0002    00000000201206150832200000000000000000000y
0106143094169TFNYF0200006134592SNFTW     FITX   201206                    00000+07043000             000000000             000000000             0002    00000000201206150832200000000000000000000y
0106143094170TFNYF0200006134592BNFTW     FITX   201206                    00000+07069000             000000000             000000000             0002    00000000201206150832200000000000000000000y
0106143094171TFNYF0200006134592SNFTW     FITX   201206                    00000+07071000             000000000             000000000             0002    00000000201206150832200000000000000000000y
0106143094177TFNYF0200006134592BNFTW     FITX   201206                    00000+07061000             000000000             000000000             0002    00000000201206150832210000000000000000000y
0106143094178TFNYF0200006134592SNFTW     FITX   201206                    00000+07035000             000000000             000000000             0002    00000000201206150832210000000000000000000y
0106143094179TFNYF0200006134592BNFTW     FITX   201206                    00000+07061000             000000000             000000000             0002    00000000201206150832210000000000000000000y
0106143094180TFNYF0200006134592SNFTW     FITX   201206                    00000+07043000             000000000             000000000             0002    00000000201206150832210000000000000000000y
0106143094181TFNYF0200006134592BNFTW     FITX   201206                    00000+07069000             000000000             000000000             0002    00000000201206150832210000000000000000000y
0106143094182TFNYF0200006134592SNFTW     FITX   201206                    00000+07071000             000000000             000000000             0002    00000000201206150832210000000000000000000y
0106143094325TFNYF0200006134592BNFTW     FITX   201206                    00000+07061000             000000000             000000000             0001    00000000201206150832210000000000000000000y
0106143094326TFNYF0200006134592SNFTW     FITX   201206                    00000+07035000             000000000             000000000             0002    00000000201206150832210000000000000000000y
0106143094327TFNYF0200006134592BNFTW     FITX   201206                    00000+07061000             000000000             000000000             0002    00000000201206150832210000000000000000000y
0106143094328TFNYF0200006134592SNFTW     FITX   201206                    00000+07043000             000000000             000000000             0002    00000000201206150832210000000000000000000y
0106143094330TFNYF0200006134592BNFTW     FITX   201206                    00000+07069000             000000000             000000000             0002    00000000201206150832210000000000000000000y
0106143094332TFNYF0200006134592SNFTW     FITX   201206                    00000+07071000             000000000             000000000             0002    00000000201206150832220000000000000000000y
0106143094345TFNYF0200006134592BNFTW     FITX   201206                    00000+07061000             000000000             000000000             0001    00000000201206150832220000000000000000000y
0106143094346TFNYF0200006134592SNFTW     FITX   201206                    00000+07035000             000000000             000000000             0002    00000000201206150832220000000000000000000y
0106143094347TFNYF0200006134592BNFTW     FITX   201206                    00000+07061000             000000000             000000000             0002    00000000201206150832220000000000000000000y
0106143094348TFNYF0200006134592SNFTW     FITX   201206                    00000+07043000             000000000             000000000             0002    00000000201206150832220000000000000000000y
0106143094349TFNYF0200006134592BNFTW     FITX   201206                    00000+07069000             000000000             000000000             0002    00000000201206150832220000000000000000000y
0106143094350TFNYF0200006134592SNFTW     FITX   201206                    00000+07071000             000000000             000000000             0002    00000000201206150832220000000000000000000y
0106143094246TFNYF0200006134592BNFTW     FITX   201206                    00000+07061000             000000000             000000000             0001    00000000201206150832220000000000000000000y
0106143094247TFNYF0200006134592SNFTW     FITX   201206                    00000+07035000             000000000             000000000             0002    00000000201206150832220000000000000000000y
0106143094248TFNYF0200006134592BNFTW     FITX   201206                    00000+07061000             000000000             000000000             0002    00000000201206150832230000000000000000000y
0106143094249TFNYF0200006134592SNFTW     FITX   201206                    00000+07043000             000000000             000000000             0002    00000000201206150832230000000000000000000y
0106143094250TFNYF0200006134592BNFTW     FITX   201206                    00000+07069000             000000000             000000000             0002    00000000201206150832230000000000000000000y
0106143094251TFNYF0200006134592SNFTW     FITX   201206                    00000+07071000             000000000             000000000             0002    00000000201206150832230000000000000000000y
0106143093981TFNYF0200006134592BNFTW     FITX   201206                    00000+07061000             000000000             000000000             0001    00000000201206150832230000000000000000000y
0106143093982TFNYF0200006134592SNFTW     FITX   201206                    00000+07035000             000000000             000000000             0002    00000000201206150832230000000000000000000y
0106143093983TFNYF0200006134592BNFTW     FITX   201206                    00000+07061000             000000000             000000000             0002    00000000201206150832230000000000000000000y
0106143093984TFNYF0200006134592SNFTW     FITX   201206                    00000+07043000             000000000             000000000             0002    00000000201206150832230000000000000000000y
0106143093985TFNYF0200006134592BNFTW     FITX   201206                    00000+07069000             000000000             000000000             0002    00000000201206150832230000000000000000000y
0106143093986TFNYF0200006134592SNFTW     FITX   201206                    00000+07071000             000000000             000000000             0002    00000000201206150832230000000000000000000y
0106143093805TFNYF0200006134592BNFTW     FITX   201206                    00000+07061000             000000000             000000000             0001    00000000201206150832230000000000000000000y
0106143093806TFNYF0200006134592SNFTW     FITX   201206                    00000+07035000             000000000             000000000             0002    00000000201206150832230000000000000000000y
0106143093807TFNYF0200006134592BNFTW     FITX   201206                    00000+07061000             000000000             000000000             0002    00000000201206150832240000000000000000000y
0106143093808TFNYF0200006134592SNFTW     FITX   201206                    00000+07043000             000000000             000000000             0002    00000000201206150832240000000000000000000y
0106143093809TFNYF0200006134592BNFTW     FITX   201206                    00000+07069000             000000000             000000000             0002    00000000201206150832240000000000000000000y
0106143093821TFNYF0200006134592SNFTW     FITX   201206                    00000+07071000             000000000             000000000             0002    00000000201206150832240000000000000000000y
0106153035020TFNYF0200006134592SNFTW     FITX   201206                    00000+07114000             000000000             000000000             0001    00000000201206150943090000000000000000012y
0106153035030TFNYF0200006134592BNFTW     FITX   201206                    00000+07114000             000000000             000000000             0001    00000000201206150943100000000000000000012y
0106153049221TFNYF0200006134592SNFTW     FITX   201206                    00000+07062000             000000000             000000000             0002    00000000201206151017150000000000000000012y
0106153049227TFNYF0200006134592BNFTW     FITX   201206                    00000+07068000             000000000             000000000             0002    00000000201206151017160000000000000000012y
0106153049230TFNYF0200006134592SNFTW     FITX   201206                    00000+07054000             000000000             000000000             0002    00000000201206151017170000000000000000012y
0106153049233TFNYF0200006134592BNFTW     FITX   201206                    00000+07066000             000000000             000000000             0002    00000000201206151017180000000000000000012y
0106153049236TFNYF0200006134592SNFTW     FITX   201206                    00000+07068000             000000000             000000000             0002    00000000201206151017190000000000000000012y
0106153049238TFNYF0200006134592BNFTW     FITX   201206                    00000+07079000             000000000             000000000             0002    00000000201206151017190000000000000000012y
0106153049244TFNYF0200006134592SNFTW     FITX   201206                    00000+07110000             000000000             000000000             0002    00000000201206151017210000000000000000012y
0106153049245TFNYF0200006134592BNFTW     FITX   201206                    00000+07120000             000000000             000000000             0002    00000000201206151017210000000000000000012y
0106153049923TFNYF0200006134592SNFTW     FITX   201206                    00000+07062000             000000000             000000000             0002    00000000201206151019410000000000000000012y
0106153049927TFNYF0200006134592BNFTW     FITX   201206                    00000+07068000             000000000             000000000             0002    00000000201206151019410000000000000000012y
0106153049930TFNYF0200006134592SNFTW     FITX   201206                    00000+07054000             000000000             000000000             0002    00000000201206151019420000000000000000012y
0106153049937TFNYF0200006134592BNFTW     FITX   201206                    00000+07066000             000000000             000000000             0002    00000000201206151019430000000000000000012y
0106153049948TFNYF0200006134592SNFTW     FITX   201206                    00000+07068000             000000000             000000000             0002    00000000201206151019440000000000000000012y
0106153049954TFNYF0200006134592BNFTW     FITX   201206                    00000+07079000             000000000             000000000             0002    00000000201206151019440000000000000000012y
0106153049962TFNYF0200006134592SNFTW     FITX   201206                    00000+07110000             000000000             000000000             0002    00000000201206151019460000000000000000012y
0106153049968TFNYF0200006134592BNFTW     FITX   201206                    00000+07120000             000000000             000000000             0002    00000000201206151019460000000000000000012y
0106153055878TFNYF0200006134592SNFTW     FITX   201206                    00000+07130000             000000000             000000000             0002    00000000201206151036540000000000000000012y
0106153060463TFNYF0200006134592BNFTW     FITX   201206                    00000+07130000             000000000             000000000             0002    00000000201206151055140000000000000000012y
0106153062853TFNYF0200006134592SNFTW     FITX   201206                    00000+07125000             000000000             000000000             0002    00000000201206151105060000000000000000012y
0106153063880TFNYF0200006134592BNFTW     FITX   201206                    00000+07131000             000000000             000000000             0002    00000000201206151111240000000000000000012y
0106153072414TFNYF0200006134592SNFTW     FITX   201206                    00000+07133000             000000000             000000000             0002    00000000201206151157340000000000000000012y
0106153075074TFNYF0200006134592BNFTW     FITX   201206                    00000+07125000             000000000             000000000             0002    00000000201206151210070000000000000000012y
0106153087889TFNYF0200006134592SNFTW     FITX   201206                    00000+07062000             000000000             000000000             0002    00000000201206151310100000000000000000012y
0106153087891TFNYF0200006134592BNFTW     FITX   201206                    00000+07068000             000000000             000000000             0002    00000000201206151310110000000000000000012y
0106153087894TFNYF0200006134592SNFTW     FITX   201206                    00000+07054000             000000000             000000000             0002    00000000201206151310120000000000000000012y
0106153087897TFNYF0200006134592BNFTW     FITX   201206                    00000+07066000             000000000             000000000             0002    00000000201206151310130000000000000000012y
0106153087901TFNYF0200006134592SNFTW     FITX   201206                    00000+07068000             000000000             000000000             0002    00000000201206151310140000000000000000012y
0106153087902TFNYF0200006134592BNFTW     FITX   201206                    00000+07079000             000000000             000000000             0002    00000000201206151310150000000000000000012y
0106153087908TFNYF0200006134592SNFTW     FITX   201206                    00000+07110000             000000000             000000000             0002    00000000201206151310160000000000000000012y
0106153087915TFNYF0200006134592BNFTW     FITX   201206                    00000+07120000             000000000             000000000             0002    00000000201206151310160000000000000000012y
0106153087918TFNYF0200006134592SNFTW     FITX   201206                    00000+07130000             000000000             000000000             0002    00000000201206151310180000000000000000012y
0106153087921TFNYF0200006134592BNFTW     FITX   201206                    00000+07130000             000000000             000000000             0002    00000000201206151310190000000000000000012y
0106153087929TFNYF0200006134592SNFTW     FITX   201206                    00000+07125000             000000000             000000000             0002    00000000201206151310190000000000000000012y
0106153087931TFNYF0200006134592BNFTW     FITX   201206                    00000+07131000             000000000             000000000             0002    00000000201206151310200000000000000000012y
0106153087939TFNYF0200006134592SNFTW     FITX   201206                    00000+07133000             000000000             000000000             0002    00000000201206151310210000000000000000012y
0106153087943TFNYF0200006134592BNFTW     FITX   201206                    00000+07125000             000000000             000000000             0002    00000000201206151310220000000000000000012y
0106153088117TFNYF0200006134592SNFTW     FITX   201206                    00000+07131000             000000000             000000000             0002    00000000201206151311020000000000000000012y
0106153088180TFNYF0200006134592BNFTW     FITX   201206                    00000+07142000             000000000             000000000             0002    00000000201206151311180000000000000000012y
---
---
0106143094357TFNYF0200006134592BNFTW     FITX   201206                    00000+07053000             000000000             000000000             0001    00000000201206150832170000000000000000000y
0106143094358TFNYF0200006134592SNFTW     FITX   201206                    00000+07041000             000000000             000000000             0002    00000000201206150832170000000000000000000y
0106143094359TFNYF0200006134592BNFTW     FITX   201206                    00000+07051000             000000000             000000000             0002    00000000201206150832170000000000000000000y
0106143094360TFNYF0200006134592SNFTW     FITX   201206                    00000+07060000             000000000             000000000             0002    00000000201206150832170000000000000000000y
0106143094361TFNYF0200006134592BNFTW     FITX   201206                    00000+07052000             000000000             000000000             0002    00000000201206150832170000000000000000000y
0106143094362TFNYF0200006134592SNFTW     FITX   201206                    00000+07052000             000000000             000000000             0002    00000000201206150832170000000000000000000y
0106143094363TFNYF0200006134592BNFTW     FITX   201206                    00000+07065000             000000000             000000000             0002    00000000201206150832170000000000000000000y
0106143094364TFNYF0200006134592SNFTW     FITX   201206                    00000+07091000             000000000             000000000             0002    00000000201206150832170000000000000000000y
0106143094365TFNYF0200006134592BNFTW     FITX   201206                    00000+07095000             000000000             000000000             0002    00000000201206150832170000000000000000000y
0106143094366TFNYF0200006134592SNFTW     FITX   201206                    00000+07088000             000000000             000000000             0002    00000000201206150832170000000000000000000y
0106143094367TFNYF0200006134592BNFTW     FITX   201206                    00000+07094000             000000000             000000000             0002    00000000201206150832170000000000000000000y
0106143094368TFNYF0200006134592SNFTW     FITX   201206                    00000+07085000             000000000             000000000             0002    00000000201206150832180000000000000000000y
0106143094369TFNYF0200006134592BNFTW     FITX   201206                    00000+07064000             000000000             000000000             0002    00000000201206150832180000000000000000000y
0106143094192TFNYF0200006134592BNFTW     FITX   201206                    00000+07061000             000000000             000000000             0001    00000000201206150832190000000000000000000y
0106143094193TFNYF0200006134592SNFTW     FITX   201206                    00000+07035000             000000000             000000000             0002    00000000201206150832190000000000000000000y
0106143094194TFNYF0200006134592BNFTW     FITX   201206                    00000+07061000             000000000             000000000             0002    00000000201206150832190000000000000000000y
0106143094195TFNYF0200006134592SNFTW     FITX   201206                    00000+07043000             000000000             000000000             0002    00000000201206150832190000000000000000000y
0106143094196TFNYF0200006134592BNFTW     FITX   201206                    00000+07069000             000000000             000000000             0002    00000000201206150832190000000000000000000y
0106143094197TFNYF0200006134592SNFTW     FITX   201206                    00000+07071000             000000000             000000000             0002    00000000201206150832190000000000000000000y
0106143094302TFNYF0200006134592BNFTW     FITX   201206                    00000+07061000             000000000             000000000             0001    00000000201206150832200000000000000000000y
0106143094304TFNYF0200006134592SNFTW     FITX   201206                    00000+07035000             000000000             000000000             0002    00000000201206150832200000000000000000000y
0106143094305TFNYF0200006134592BNFTW     FITX   201206                    00000+07061000             000000000             000000000             0002    00000000201206150832200000000000000000000y
0106143094306TFNYF0200006134592SNFTW     FITX   201206                    00000+07043000             000000000             000000000             0002    00000000201206150832200000000000000000000y
0106143094307TFNYF0200006134592BNFTW     FITX   201206                    00000+07069000             000000000             000000000             0002    00000000201206150832200000000000000000000y
0106143094308TFNYF0200006134592SNFTW     FITX   201206                    00000+07071000             000000000             000000000             0002    00000000201206150832200000000000000000000y
0106143094166TFNYF0200006134592BNFTW     FITX   201206                    00000+07061000             000000000             000000000             0001    00000000201206150832200000000000000000000y
0106143094167TFNYF0200006134592SNFTW     FITX   201206                    00000+07035000             000000000             000000000             0002    00000000201206150832200000000000000000000y
0106143094168TFNYF0200006134592BNFTW     FITX   201206                    00000+07061000             000000000             000000000             0002    00000000201206150832200000000000000000000y
0106143094169TFNYF0200006134592SNFTW     FITX   201206                    00000+07043000             000000000             000000000             0002    00000000201206150832200000000000000000000y
0106143094170TFNYF0200006134592BNFTW     FITX   201206                    00000+07069000             000000000             000000000             0002    00000000201206150832200000000000000000000y
0106143094171TFNYF0200006134592SNFTW     FITX   201206                    00000+07071000             000000000             000000000             0002    00000000201206150832200000000000000000000y
0106143094177TFNYF0200006134592BNFTW     FITX   201206                    00000+07061000             000000000             000000000             0002    00000000201206150832210000000000000000000y
0106143094178TFNYF0200006134592SNFTW     FITX   201206                    00000+07035000             000000000             000000000             0002    00000000201206150832210000000000000000000y
0106143094179TFNYF0200006134592BNFTW     FITX   201206                    00000+07061000             000000000             000000000             0002    00000000201206150832210000000000000000000y
0106143094180TFNYF0200006134592SNFTW     FITX   201206                    00000+07043000             000000000             000000000             0002    00000000201206150832210000000000000000000y
0106143094181TFNYF0200006134592BNFTW     FITX   201206                    00000+07069000             000000000             000000000             0002    00000000201206150832210000000000000000000y
0106143094182TFNYF0200006134592SNFTW     FITX   201206                    00000+07071000             000000000             000000000             0002    00000000201206150832210000000000000000000y
0106143094325TFNYF0200006134592BNFTW     FITX   201206                    00000+07061000             000000000             000000000             0001    00000000201206150832210000000000000000000y
0106143094326TFNYF0200006134592SNFTW     FITX   201206                    00000+07035000             000000000             000000000             0002    00000000201206150832210000000000000000000y
0106143094327TFNYF0200006134592BNFTW     FITX   201206                    00000+07061000             000000000             000000000             0002    00000000201206150832210000000000000000000y
0106143094328TFNYF0200006134592SNFTW     FITX   201206                    00000+07043000             000000000             000000000             0002    00000000201206150832210000000000000000000y
0106143094330TFNYF0200006134592BNFTW     FITX   201206                    00000+07069000             000000000             000000000             0002    00000000201206150832210000000000000000000y
0106143094332TFNYF0200006134592SNFTW     FITX   201206                    00000+07071000             000000000             000000000             0002    00000000201206150832220000000000000000000y
0106143094345TFNYF0200006134592BNFTW     FITX   201206                    00000+07061000             000000000             000000000             0001    00000000201206150832220000000000000000000y
0106143094346TFNYF0200006134592SNFTW     FITX   201206                    00000+07035000             000000000             000000000             0002    00000000201206150832220000000000000000000y
0106143094347TFNYF0200006134592BNFTW     FITX   201206                    00000+07061000             000000000             000000000             0002    00000000201206150832220000000000000000000y
0106143094348TFNYF0200006134592SNFTW     FITX   201206                    00000+07043000             000000000             000000000             0002    00000000201206150832220000000000000000000y
0106143094349TFNYF0200006134592BNFTW     FITX   201206                    00000+07069000             000000000             000000000             0002    00000000201206150832220000000000000000000y
0106143094350TFNYF0200006134592SNFTW     FITX   201206                    00000+07071000             000000000             000000000             0002    00000000201206150832220000000000000000000y
0106143094246TFNYF0200006134592BNFTW     FITX   201206                    00000+07061000             000000000             000000000             0001    00000000201206150832220000000000000000000y
0106143094247TFNYF0200006134592SNFTW     FITX   201206                    00000+07035000             000000000             000000000             0002    00000000201206150832220000000000000000000y
0106143094248TFNYF0200006134592BNFTW     FITX   201206                    00000+07061000             000000000             000000000             0002    00000000201206150832230000000000000000000y
0106143094249TFNYF0200006134592SNFTW     FITX   201206                    00000+07043000             000000000             000000000             0002    00000000201206150832230000000000000000000y
0106143094250TFNYF0200006134592BNFTW     FITX   201206                    00000+07069000             000000000             000000000             0002    00000000201206150832230000000000000000000y
0106143094251TFNYF0200006134592SNFTW     FITX   201206                    00000+07071000             000000000             000000000             0002    00000000201206150832230000000000000000000y
0106143093981TFNYF0200006134592BNFTW     FITX   201206                    00000+07061000             000000000             000000000             0001    00000000201206150832230000000000000000000y
0106143093982TFNYF0200006134592SNFTW     FITX   201206                    00000+07035000             000000000             000000000             0002    00000000201206150832230000000000000000000y
0106143093983TFNYF0200006134592BNFTW     FITX   201206                    00000+07061000             000000000             000000000             0002    00000000201206150832230000000000000000000y
0106143093984TFNYF0200006134592SNFTW     FITX   201206                    00000+07043000             000000000             000000000             0002    00000000201206150832230000000000000000000y
0106143093985TFNYF0200006134592BNFTW     FITX   201206                    00000+07069000             000000000             000000000             0002    00000000201206150832230000000000000000000y
0106143093986TFNYF0200006134592SNFTW     FITX   201206                    00000+07071000             000000000             000000000             0002    00000000201206150832230000000000000000000y
0106143093805TFNYF0200006134592BNFTW     FITX   201206                    00000+07061000             000000000             000000000             0001    00000000201206150832230000000000000000000y
0106143093806TFNYF0200006134592SNFTW     FITX   201206                    00000+07035000             000000000             000000000             0002    00000000201206150832230000000000000000000y
0106143093807TFNYF0200006134592BNFTW     FITX   201206                    00000+07061000             000000000             000000000             0002    00000000201206150832240000000000000000000y
0106143093808TFNYF0200006134592SNFTW     FITX   201206                    00000+07043000             000000000             000000000             0002    00000000201206150832240000000000000000000y
0106143093809TFNYF0200006134592BNFTW     FITX   201206                    00000+07069000             000000000             000000000             0002    00000000201206150832240000000000000000000y
0106143093821TFNYF0200006134592SNFTW     FITX   201206                    00000+07071000             000000000             000000000             0002    00000000201206150832240000000000000000000y
0106153035020TFNYF0200006134592SNFTW     FITX   201206                    00000+07114000             000000000             000000000             0001    00000000201206150943090000000000000000012y
0106153035030TFNYF0200006134592BNFTW     FITX   201206                    00000+07114000             000000000             000000000             0001    00000000201206150943100000000000000000012y
0106153049221TFNYF0200006134592SNFTW     FITX   201206                    00000+07062000             000000000             000000000             0002    00000000201206151017150000000000000000012y
0106153049227TFNYF0200006134592BNFTW     FITX   201206                    00000+07068000             000000000             000000000             0002    00000000201206151017160000000000000000012y
0106153049230TFNYF0200006134592SNFTW     FITX   201206                    00000+07054000             000000000             000000000             0002    00000000201206151017170000000000000000012y
0106153049233TFNYF0200006134592BNFTW     FITX   201206                    00000+07066000             000000000             000000000             0002    00000000201206151017180000000000000000012y
0106153049236TFNYF0200006134592SNFTW     FITX   201206                    00000+07068000             000000000             000000000             0002    00000000201206151017190000000000000000012y
0106153049238TFNYF0200006134592BNFTW     FITX   201206                    00000+07079000             000000000             000000000             0002    00000000201206151017190000000000000000012y
0106153049244TFNYF0200006134592SNFTW     FITX   201206                    00000+07110000             000000000             000000000             0002    00000000201206151017210000000000000000012y
0106153049245TFNYF0200006134592BNFTW     FITX   201206                    00000+07120000             000000000             000000000             0002    00000000201206151017210000000000000000012y
0106153049923TFNYF0200006134592SNFTW     FITX   201206                    00000+07062000             000000000             000000000             0002    00000000201206151019410000000000000000012y
0106153049927TFNYF0200006134592BNFTW     FITX   201206                    00000+07068000             000000000             000000000             0002    00000000201206151019410000000000000000012y
0106153049930TFNYF0200006134592SNFTW     FITX   201206                    00000+07054000             000000000             000000000             0002    00000000201206151019420000000000000000012y
0106153049937TFNYF0200006134592BNFTW     FITX   201206                    00000+07066000             000000000             000000000             0002    00000000201206151019430000000000000000012y
0106153049948TFNYF0200006134592SNFTW     FITX   201206                    00000+07068000             000000000             000000000             0002    00000000201206151019440000000000000000012y
0106153049954TFNYF0200006134592BNFTW     FITX   201206                    00000+07079000             000000000             000000000             0002    00000000201206151019440000000000000000012y
0106153049962TFNYF0200006134592SNFTW     FITX   201206                    00000+07110000             000000000             000000000             0002    00000000201206151019460000000000000000012y
0106153049968TFNYF0200006134592BNFTW     FITX   201206                    00000+07120000             000000000             000000000             0002    00000000201206151019460000000000000000012y
0106153055878TFNYF0200006134592SNFTW     FITX   201206                    00000+07130000             000000000             000000000             0002    00000000201206151036540000000000000000012y
0106153060463TFNYF0200006134592BNFTW     FITX   201206                    00000+07130000             000000000             000000000             0002    00000000201206151055140000000000000000012y
0106153062853TFNYF0200006134592SNFTW     FITX   201206                    00000+07125000             000000000             000000000             0002    00000000201206151105060000000000000000012y
0106153063880TFNYF0200006134592BNFTW     FITX   201206                    00000+07131000             000000000             000000000             0002    00000000201206151111240000000000000000012y
0106153072414TFNYF0200006134592SNFTW     FITX   201206                    00000+07133000             000000000             000000000             0002    00000000201206151157340000000000000000012y
0106153075074TFNYF0200006134592BNFTW     FITX   201206                    00000+07125000             000000000             000000000             0002    00000000201206151210070000000000000000012y
0106153087889TFNYF0200006134592SNFTW     FITX   201206                    00000+07062000             000000000             000000000             0002    00000000201206151310100000000000000000012y
0106153087891TFNYF0200006134592BNFTW     FITX   201206                    00000+07068000             000000000             000000000             0002    00000000201206151310110000000000000000012y
0106153087894TFNYF0200006134592SNFTW     FITX   201206                    00000+07054000             000000000             000000000             0002    00000000201206151310120000000000000000012y
0106153087897TFNYF0200006134592BNFTW     FITX   201206                    00000+07066000             000000000             000000000             0002    00000000201206151310130000000000000000012y
0106153087901TFNYF0200006134592SNFTW     FITX   201206                    00000+07068000             000000000             000000000             0002    00000000201206151310140000000000000000012y
0106153087902TFNYF0200006134592BNFTW     FITX   201206                    00000+07079000             000000000             000000000             0002    00000000201206151310150000000000000000012y
0106153087908TFNYF0200006134592SNFTW     FITX   201206                    00000+07110000             000000000             000000000             0002    00000000201206151310160000000000000000012y
