---
---
0106283095552TFNYF0200006134592SNFTW     FITX   201207                    00000+06977000             000000000             000000000             0002    00000000201206290832180000000000000000000y
0106283095566TFNYF0200006134592BNFTW     FITX   201207                    00000+06977000             000000000             000000000             0002    00000000201206290832180000000000000000000y
0106283095567TFNYF0200006134592SNFTW     FITX   201207                    00000+06977000             000000000             000000000             0002    00000000201206290832180000000000000000000y
0106283095508TFNYF0200006134592SNFTW     FITX   201207                    00000+06977000             000000000             000000000             0002    00000000201206290832180000000000000000000y
0106283095503TFNYF0200006134592BNFTW     FITX   201207                    00000+06977000             000000000             000000000             0002    00000000201206290832180000000000000000000y
0106283095504TFNYF0200006134592SNFTW     FITX   201207                    00000+06977000             000000000             000000000             0002    00000000201206290832180000000000000000000y
0106283095505TFNYF0200006134592BNFTW     FITX   201207                    00000+06977000             000000000             000000000             0002    00000000201206290832180000000000000000000y
0106283095506TFNYF0200006134592SNFTW     FITX   201207                    00000+06977000             000000000             000000000             0002    00000000201206290832180000000000000000000y
0106283095509TFNYF0200006134592BNFTW     FITX   201207                    00000+06977000             000000000             000000000             0002    00000000201206290832180000000000000000000y
0106283095507TFNYF0200006134592BNFTW     FITX   201207                    00000+06978000             000000000             000000000             0002    00000000201206290832180000000000000000000y
0106283095510TFNYF0200006134592SNFTW     FITX   201207                    00000+06977000             000000000             000000000             0002    00000000201206290832190000000000000000000y
0106283095511TFNYF0200006134592BNFTW     FITX   201207                    00000+06977000             000000000             000000000             0002    00000000201206290832190000000000000000000y
0106283095512TFNYF0200006134592SNFTW     FITX   201207                    00000+06977000             000000000             000000000             0002    00000000201206290832190000000000000000000y
0106283095513TFNYF0200006134592BNFTW     FITX   201207                    00000+06977000             000000000             000000000             0002    00000000201206290832190000000000000000000y
0106283095514TFNYF0200006134592SNFTW     FITX   201207                    00000+06978000             000000000             000000000             0002    00000000201206290832190000000000000000000y
0106283095515TFNYF0200006134592BNFTW     FITX   201207                    00000+06977000             000000000             000000000             0002    00000000201206290832190000000000000000000y
0106283095516TFNYF0200006134592SNFTW     FITX   201207                    00000+06977000             000000000             000000000             0002    00000000201206290832190000000000000000000y
0106283095517TFNYF0200006134592BNFTW     FITX   201207                    00000+06978000             000000000             000000000             0002    00000000201206290832190000000000000000000y
0106283095518TFNYF0200006134592SNFTW     FITX   201207                    00000+06977000             000000000             000000000             0002    00000000201206290832190000000000000000000y
0106283095519TFNYF0200006134592BNFTW     FITX   201207                    00000+06976000             000000000             000000000             0002    00000000201206290832190000000000000000000y
0106283095520TFNYF0200006134592SNFTW     FITX   201207                    00000+06976000             000000000             000000000             0002    00000000201206290832190000000000000000000y
0106283095521TFNYF0200006134592BNFTW     FITX   201207                    00000+06977000             000000000             000000000             0002    00000000201206290832200000000000000000000y
0106283095522TFNYF0200006134592SNFTW     FITX   201207                    00000+06977000             000000000             000000000             0002    00000000201206290832200000000000000000000y
0106283095523TFNYF0200006134592BNFTW     FITX   201207                    00000+06978000             000000000             000000000             0002    00000000201206290832200000000000000000000y
0106283095524TFNYF0200006134592SNFTW     FITX   201207                    00000+06977000             000000000             000000000             0002    00000000201206290832200000000000000000000y
0106283095525TFNYF0200006134592BNFTW     FITX   201207                    00000+06978000             000000000             000000000             0002    00000000201206290832200000000000000000000y
0106283095527TFNYF0200006134592SNFTW     FITX   201207                    00000+06978000             000000000             000000000             0002    00000000201206290832200000000000000000000y
0106283095533TFNYF0200006134592BNFTW     FITX   201207                    00000+06977000             000000000             000000000             0002    00000000201206290832200000000000000000000y
0106283095471TFNYF0200006134592SNFTW     FITX   201207                    00000+06977000             000000000             000000000             0002    00000000201206290832200000000000000000000y
0106283095470TFNYF0200006134592BNFTW     FITX   201207                    00000+06977000             000000000             000000000             0002    00000000201206290832200000000000000000000y
0106283095472TFNYF0200006134592BNFTW     FITX   201207                    00000+06977000             000000000             000000000             0002    00000000201206290832200000000000000000000y
0106283095473TFNYF0200006134592SNFTW     FITX   201207                    00000+06977000             000000000             000000000             0002    00000000201206290832200000000000000000000y
0106283095474TFNYF0200006134592BNFTW     FITX   201207                    00000+06977000             000000000             000000000             0002    00000000201206290832200000000000000000000y
0106283095475TFNYF0200006134592SNFTW     FITX   201207                    00000+06977000             000000000             000000000             0002    00000000201206290832210000000000000000000y
0106283095476TFNYF0200006134592BNFTW     FITX   201207                    00000+06977000             000000000             000000000             0002    00000000201206290832210000000000000000000y
0106283095477TFNYF0200006134592SNFTW     FITX   201207                    00000+06977000             000000000             000000000             0002    00000000201206290832210000000000000000000y
0106283095478TFNYF0200006134592BNFTW     FITX   201207                    00000+06976000             000000000             000000000             0002    00000000201206290832210000000000000000000y
0106283095479TFNYF0200006134592SNFTW     FITX   201207                    00000+06977000             000000000             000000000             0002    00000000201206290832210000000000000000000y
0106283095480TFNYF0200006134592BNFTW     FITX   201207                    00000+06976000             000000000             000000000             0002    00000000201206290832210000000000000000000y
0106283095481TFNYF0200006134592SNFTW     FITX   201207                    00000+06977000             000000000             000000000             0002    00000000201206290832210000000000000000000y
0106283095483TFNYF0200006134592BNFTW     FITX   201207                    00000+06977000             000000000             000000000             0002    00000000201206290832210000000000000000000y
0106283095484TFNYF0200006134592SNFTW     FITX   201207                    00000+06977000             000000000             000000000             0002    00000000201206290832210000000000000000000y
0106283095485TFNYF0200006134592BNFTW     FITX   201207                    00000+06978000             000000000             000000000             0002    00000000201206290832210000000000000000000y
0106283095486TFNYF0200006134592SNFTW     FITX   201207                    00000+06978000             000000000             000000000             0002    00000000201206290832210000000000000000000y
0106283095487TFNYF0200006134592BNFTW     FITX   201207                    00000+06978000             000000000             000000000             0002    00000000201206290832220000000000000000000y
0106283095488TFNYF0200006134592SNFTW     FITX   201207                    00000+06978000             000000000             000000000             0002    00000000201206290832220000000000000000000y
0106283095489TFNYF0200006134592BNFTW     FITX   201207                    00000+06978000             000000000             000000000             0002    00000000201206290832220000000000000000000y
0106283095490TFNYF0200006134592SNFTW     FITX   201207                    00000+06978000             000000000             000000000             0002    00000000201206290832220000000000000000000y
0106283095491TFNYF0200006134592BNFTW     FITX   201207                    00000+06978000             000000000             000000000             0002    00000000201206290832220000000000000000000y
0106283095492TFNYF0200006134592SNFTW     FITX   201207                    00000+06978000             000000000             000000000             0002    00000000201206290832220000000000000000000y
0106283095493TFNYF0200006134592BNFTW     FITX   201207                    00000+06978000             000000000             000000000             0002    00000000201206290832220000000000000000000y
0106283095494TFNYF0200006134592SNFTW     FITX   201207                    00000+06978000             000000000             000000000             0002    00000000201206290832220000000000000000000y
0106283095495TFNYF0200006134592BNFTW     FITX   201207                    00000+06978000             000000000             000000000             0002    00000000201206290832220000000000000000000y
0106283095496TFNYF0200006134592SNFTW     FITX   201207                    00000+06978000             000000000             000000000             0002    00000000201206290832220000000000000000000y
0106283095497TFNYF0200006134592BNFTW     FITX   201207                    00000+06978000             000000000             000000000             0002    00000000201206290832230000000000000000000y
0106283095498TFNYF0200006134592SNFTW     FITX   201207                    00000+06978000             000000000             000000000             0002    00000000201206290832230000000000000000000y
0106283095499TFNYF0200006134592BNFTW     FITX   201207                    00000+06978000             000000000             000000000             0002    00000000201206290832230000000000000000000y
0106283095500TFNYF0200006134592SNFTW     FITX   201207                    00000+06978000             000000000             000000000             0002    00000000201206290832230000000000000000000y
0106283095501TFNYF0200006134592BNFTW     FITX   201207                    00000+06977000             000000000             000000000             0002    00000000201206290832230000000000000000000y
0106283095502TFNYF0200006134592SNFTW     FITX   201207                    00000+06977000             000000000             000000000             0002    00000000201206290832230000000000000000000y
0106283095590TFNYF0200006134592BNFTW     FITX   201207                    00000+06977000             000000000             000000000             0002    00000000201206290832230000000000000000000y
0106283095597TFNYF0200006134592SNFTW     FITX   201207                    00000+06977000             000000000             000000000             0002    00000000201206290832230000000000000000000y
0106283095603TFNYF0200006134592BNFTW     FITX   201207                    00000+06977000             000000000             000000000             0002    00000000201206290832230000000000000000000y
0106283095607TFNYF0200006134592SNFTW     FITX   201207                    00000+06977000             000000000             000000000             0002    00000000201206290832230000000000000000000y
0106283095610TFNYF0200006134592BNFTW     FITX   201207                    00000+06976000             000000000             000000000             0002    00000000201206290832230000000000000000000y
