---
---
0106103000117TFNYF0200006134592BNFTW     FITX   201206                    00000+06985000             000000000             000000000             0001    00000000201206110832170000000000000000000y
0106103000118TFNYF0200006134592BNFTW     FITX   201206                    00000+06985000             000000000             000000000             0001    00000000201206110832170000000000000000000y
0106103000119TFNYF0200006134592SNFTW     FITX   201206                    00000+07017000             000000000             000000000             0002    00000000201206110832180000000000000000000y
0106103000120TFNYF0200006134592BNFTW     FITX   201206                    00000+07003000             000000000             000000000             0002    00000000201206110832180000000000000000000y
0106103000121TFNYF0200006134592SNFTW     FITX   201206                    00000+06987000             000000000             000000000             0002    00000000201206110832180000000000000000000y
0106103000122TFNYF0200006134592BNFTW     FITX   201206                    00000+06997000             000000000             000000000             0002    00000000201206110832180000000000000000000y
0106103000123TFNYF0200006134592SNFTW     FITX   201206                    00000+06982000             000000000             000000000             0002    00000000201206110832180000000000000000000y
0106103000124TFNYF0200006134592BNFTW     FITX   201206                    00000+06974000             000000000             000000000             0002    00000000201206110832180000000000000000000y
0106103000125TFNYF0200006134592SNFTW     FITX   201206                    00000+06964000             000000000             000000000             0002    00000000201206110832180000000000000000000y
0106103000126TFNYF0200006134592BNFTW     FITX   201206                    00000+06975000             000000000             000000000             0002    00000000201206110832180000000000000000000y
0106103000127TFNYF0200006134592SNFTW     FITX   201206                    00000+06965000             000000000             000000000             0002    00000000201206110832180000000000000000000y
0106103000128TFNYF0200006134592BNFTW     FITX   201206                    00000+06970000             000000000             000000000             0002    00000000201206110832180000000000000000000y
0106103000129TFNYF0200006134592SNFTW     FITX   201206                    00000+06973000             000000000             000000000             0002    00000000201206110832180000000000000000000y
0106103000130TFNYF0200006134592BNFTW     FITX   201206                    00000+06979000             000000000             000000000             0002    00000000201206110832190000000000000000000y
0106103000131TFNYF0200006134592SNFTW     FITX   201206                    00000+06973000             000000000             000000000             0002    00000000201206110832190000000000000000000y
0106103000132TFNYF0200006134592BNFTW     FITX   201206                    00000+06974000             000000000             000000000             0002    00000000201206110832190000000000000000000y
0106103000133TFNYF0200006134592SNFTW     FITX   201206                    00000+06973000             000000000             000000000             0002    00000000201206110832190000000000000000000y
0106103000134TFNYF0200006134592BNFTW     FITX   201206                    00000+06973000             000000000             000000000             0002    00000000201206110832190000000000000000000y
0106103000135TFNYF0200006134592SNFTW     FITX   201206                    00000+06965000             000000000             000000000             0002    00000000201206110832190000000000000000000y
0106103000136TFNYF0200006134592BNFTW     FITX   201206                    00000+06968000             000000000             000000000             0002    00000000201206110832190000000000000000000y
0106103000137TFNYF0200006134592SNFTW     FITX   201206                    00000+06960000             000000000             000000000             0002    00000000201206110832190000000000000000000y
0106103000138TFNYF0200006134592BNFTW     FITX   201206                    00000+06958000             000000000             000000000             0002    00000000201206110832190000000000000000000y
0106103000139TFNYF0200006134592SNFTW     FITX   201206                    00000+06951000             000000000             000000000             0002    00000000201206110832190000000000000000000y
0106103000140TFNYF0200006134592BNFTW     FITX   201206                    00000+06960000             000000000             000000000             0002    00000000201206110832200000000000000000000y
0106103000141TFNYF0200006134592SNFTW     FITX   201206                    00000+06955000             000000000             000000000             0002    00000000201206110832200000000000000000000y
0106103000142TFNYF0200006134592BNFTW     FITX   201206                    00000+06960000             000000000             000000000             0002    00000000201206110832210000000000000000000y
0106103000143TFNYF0200006134592SNFTW     FITX   201206                    00000+06954000             000000000             000000000             0002    00000000201206110832210000000000000000000y
0106103000144TFNYF0200006134592BNFTW     FITX   201206                    00000+06962000             000000000             000000000             0002    00000000201206110832210000000000000000000y
0106103000145TFNYF0200006134592SNFTW     FITX   201206                    00000+06955000             000000000             000000000             0002    00000000201206110832210000000000000000000y
0106083090074TFNYF0200006134592BNFTW     FITX   201206                    00000+06967000             000000000             000000000             0002    00000000201206110832210000000000000000000y
0106083090073TFNYF0200006134592SNFTW     FITX   201206                    00000+07000000             000000000             000000000             0002    00000000201206110832210000000000000000000y
0106103000146TFNYF0200006134592BNFTW     FITX   201206                    00000+06996000             000000000             000000000             0001    00000000201206110832220000000000000000000y
0106103000147TFNYF0200006134592SNFTW     FITX   201206                    00000+07000000             000000000             000000000             0002    00000000201206110832220000000000000000000y
0106103000148TFNYF0200006134592SNFTW     FITX   201206                    00000+06950000             000000000             000000000             0001    00000000201206110832220000000000000000000y
0106103000149TFNYF0200006134592SNFTW     FITX   201206                    00000+06967000             000000000             000000000             0001    00000000201206110832220000000000000000000y
0106103000150TFNYF0200006134592SNFTW     FITX   201206                    00000+06967000             000000000             000000000             0001    00000000201206110832220000000000000000000y
0106103000151TFNYF0200006134592SNFTW     FITX   201206                    00000+06967000             000000000             000000000             0001    00000000201206110832220000000000000000000y
0106103000152TFNYF0200006134592SNFTW     FITX   201206                    00000+06967000             000000000             000000000             0001    00000000201206110832220000000000000000000y
0106103000153TFNYF0200006134592SNFTW     FITX   201206                    00000+06967000             000000000             000000000             0001    00000000201206110832220000000000000000000y
0106103000154TFNYF0200006134592SNFTW     FITX   201206                    00000+06967000             000000000             000000000             0001    00000000201206110832220000000000000000000y
0106103000156TFNYF0200006134592BNFTW     FITX   201206                    00000+06996000             000000000             000000000             0001    00000000201206110832220000000000000000000y
0106103000157TFNYF0200006134592SNFTW     FITX   201206                    00000+07000000             000000000             000000000             0002    00000000201206110832220000000000000000000y
0106103000158TFNYF0200006134592SNFTW     FITX   201206                    00000+06950000             000000000             000000000             0001    00000000201206110832220000000000000000000y
0106103000159TFNYF0200006134592SNFTW     FITX   201206                    00000+06967000             000000000             000000000             0001    00000000201206110832220000000000000000000y
0106103000161TFNYF0200006134592BNFTW     FITX   201206                    00000+06996000             000000000             000000000             0001    00000000201206110832230000000000000000000y
0106103000162TFNYF0200006134592SNFTW     FITX   201206                    00000+07000000             000000000             000000000             0002    00000000201206110832230000000000000000000y
0106103000163TFNYF0200006134592SNFTW     FITX   201206                    00000+06950000             000000000             000000000             0001    00000000201206110832230000000000000000000y
0106103000164TFNYF0200006134592SNFTW     FITX   201206                    00000+06967000             000000000             000000000             0001    00000000201206110832230000000000000000000y
0106103000165TFNYF0200006134592SNFTW     FITX   201206                    00000+06967000             000000000             000000000             0001    00000000201206110832230000000000000000000y
0106103000166TFNYF0200006134592SNFTW     FITX   201206                    00000+06967000             000000000             000000000             0001    00000000201206110832230000000000000000000y
0106103000170TFNYF0200006134592BNFTW     FITX   201206                    00000+06996000             000000000             000000000             0001    00000000201206110832230000000000000000000y
0106103000171TFNYF0200006134592SNFTW     FITX   201206                    00000+07000000             000000000             000000000             0002    00000000201206110832230000000000000000000y
0106103000172TFNYF0200006134592SNFTW     FITX   201206                    00000+06950000             000000000             000000000             0001    00000000201206110832230000000000000000000y
0106103000173TFNYF0200006134592BNFTW     FITX   201206                    00000+06996000             000000000             000000000             0001    00000000201206110832230000000000000000000y
0106103000174TFNYF0200006134592SNFTW     FITX   201206                    00000+07000000             000000000             000000000             0002    00000000201206110832230000000000000000000y
0106103000175TFNYF0200006134592BNFTW     FITX   201206                    00000+06950000             000000000             000000000             0001    00000000201206110832240000000000000000000y
0106103000176TFNYF0200006134592BNFTW     FITX   201206                    00000+06996000             000000000             000000000             0001    00000000201206110832240000000000000000000y
0106103000177TFNYF0200006134592SNFTW     FITX   201206                    00000+07000000             000000000             000000000             0002    00000000201206110832240000000000000000000y
0106103000178TFNYF0200006134592BNFTW     FITX   201206                    00000+06950000             000000000             000000000             0001    00000000201206110832240000000000000000000y
0106103000179TFNYF0200006134592BNFTW     FITX   201206                    00000+06967000             000000000             000000000             0001    00000000201206110832240000000000000000000y
0106103000182TFNYF0200006134592BNFTW     FITX   201206                    00000+06996000             000000000             000000000             0001    00000000201206110832240000000000000000000y
0106103000180TFNYF0200006134592BNFTW     FITX   201206                    00000+06996000             000000000             000000000             0001    00000000201206110832240000000000000000000y
0106103000184TFNYF0200006134592SNFTW     FITX   201206                    00000+07000000             000000000             000000000             0002    00000000201206110832240000000000000000000y
0106103000185TFNYF0200006134592BNFTW     FITX   201206                    00000+06950000             000000000             000000000             0001    00000000201206110832240000000000000000000y
0106103000186TFNYF0200006134592BNFTW     FITX   201206                    00000+06996000             000000000             000000000             0001    00000000201206110832240000000000000000000y
0106103000187TFNYF0200006134592SNFTW     FITX   201206                    00000+07000000             000000000             000000000             0002    00000000201206110832240000000000000000000y
0106103000188TFNYF0200006134592BNFTW     FITX   201206                    00000+06950000             000000000             000000000             0001    00000000201206110832240000000000000000000y
0106103000189TFNYF0200006134592BNFTW     FITX   201206                    00000+06967000             000000000             000000000             0001    00000000201206110832250000000000000000000y
0106103000190TFNYF0200006134592BNFTW     FITX   201206                    00000+06996000             000000000             000000000             0001    00000000201206110832250000000000000000000y
0106103000191TFNYF0200006134592SNFTW     FITX   201206                    00000+07000000             000000000             000000000             0002    00000000201206110832250000000000000000000y
0106103000192TFNYF0200006134592BNFTW     FITX   201206                    00000+06950000             000000000             000000000             0001    00000000201206110832250000000000000000000y
0106103000193TFNYF0200006134592BNFTW     FITX   201206                    00000+06967000             000000000             000000000             0001    00000000201206110832250000000000000000000y
0106103000194TFNYF0200006134592BNFTW     FITX   201206                    00000+06996000             000000000             000000000             0001    00000000201206110832250000000000000000000y
0106103000195TFNYF0200006134592SNFTW     FITX   201206                    00000+07000000             000000000             000000000             0002    00000000201206110832250000000000000000000y
0106103000196TFNYF0200006134592BNFTW     FITX   201206                    00000+06950000             000000000             000000000             0001    00000000201206110832250000000000000000000y
0106103000197TFNYF0200006134592BNFTW     FITX   201206                    00000+06967000             000000000             000000000             0001    00000000201206110832250000000000000000000y
0106103000075TFNYF0200006134592SNFTW     FITX   201206                    00000+06967000             000000000             000000000             0001    00000000201206110832250000000000000000000y
0106103000076TFNYF0200006134592SNFTW     FITX   201206                    00000+06967000             000000000             000000000             0001    00000000201206110832250000000000000000000y
0106103000078TFNYF0200006134592BNFTW     FITX   201206                    00000+06985000             000000000             000000000             0001    00000000201206110832250000000000000000000y
0106103000090TFNYF0200006134592BNFTW     FITX   201206                    00000+06985000             000000000             000000000             0001    00000000201206110832250000000000000000000y
0106103000093TFNYF0200006134592BNFTW     FITX   201206                    00000+06996000             000000000             000000000             0001    00000000201206110832260000000000000000000y
0106103000094TFNYF0200006134592SNFTW     FITX   201206                    00000+07000000             000000000             000000000             0002    00000000201206110832260000000000000000000y
0106103000095TFNYF0200006134592SNFTW     FITX   201206                    00000+06950000             000000000             000000000             0001    00000000201206110832260000000000000000000y
0106103000096TFNYF0200006134592SNFTW     FITX   201206                    00000+06967000             000000000             000000000             0001    00000000201206110832260000000000000000000y
0106103000097TFNYF0200006134592SNFTW     FITX   201206                    00000+06967000             000000000             000000000             0001    00000000201206110832260000000000000000000y
0106103000098TFNYF0200006134592SNFTW     FITX   201206                    00000+06967000             000000000             000000000             0001    00000000201206110832260000000000000000000y
0106103000099TFNYF0200006134592SNFTW     FITX   201206                    00000+06967000             000000000             000000000             0001    00000000201206110832260000000000000000000y
0106103000100TFNYF0200006134592SNFTW     FITX   201206                    00000+06967000             000000000             000000000             0001    00000000201206110832260000000000000000000y
0106103000101TFNYF0200006134592SNFTW     FITX   201206                    00000+06967000             000000000             000000000             0001    00000000201206110832270000000000000000000y
0106103000102TFNYF0200006134592BNFTW     FITX   201206                    00000+06985000             000000000             000000000             0001    00000000201206110832270000000000000000000y
0106103000039TFNYF0200006134592BNFTW     FITX   201206                    00000+06985000             000000000             000000000             0001    00000000201206110832270000000000000000000y
0106103000040TFNYF0200006134592BNFTW     FITX   201206                    00000+06985000             000000000             000000000             0001    00000000201206110832270000000000000000000y
0106103000041TFNYF0200006134592BNFTW     FITX   201206                    00000+06986000             000000000             000000000             0001    00000000201206110832270000000000000000000y
0106103000042TFNYF0200006134592BNFTW     FITX   201206                    00000+06984000             000000000             000000000             0001    00000000201206110832270000000000000000000y
0106103000043TFNYF0200006134592BNFTW     FITX   201206                    00000+06986000             000000000             000000000             0001    00000000201206110832270000000000000000000y
0106103000044TFNYF0200006134592BNFTW     FITX   201206                    00000+06985000             000000000             000000000             0001    00000000201206110832270000000000000000000y
0106103000045TFNYF0200006134592BNFTW     FITX   201206                    00000+06985000             000000000             000000000             0001    00000000201206110832270000000000000000000y
0106103000046TFNYF0200006134592BNFTW     FITX   201206                    00000+06986000             000000000             000000000             0001    00000000201206110832270000000000000000000y
0106103000048TFNYF0200006134592BNFTW     FITX   201206                    00000+07036000             000000000             000000000             0024    00000000201206110832270000000000000000000y
0106103000049TFNYF0200006134592BNFTW     FITX   201206                    00000+07036000             000000000             000000000             0001    00000000201206110832270000000000000000000y
0106103000050TFNYF0200006134592BNFTW     FITX   201206                    00000+07034000             000000000             000000000             0001    00000000201206110832270000000000000000000y
0106103000051TFNYF0200006134592BNFTW     FITX   201206                    00000+07035000             000000000             000000000             0001    00000000201206110832280000000000000000000y
0106103000052TFNYF0200006134592BNFTW     FITX   201206                    00000+06985000             000000000             000000000             0001    00000000201206110832280000000000000000000y
0106103000054TFNYF0200006134592BNFTW     FITX   201206                    00000+06985000             000000000             000000000             0001    00000000201206110832280000000000000000000y
0106103000055TFNYF0200006134592BNFTW     FITX   201206                    00000+06985000             000000000             000000000             0001    00000000201206110832280000000000000000000y
0106103000056TFNYF0200006134592BNFTW     FITX   201206                    00000+06996000             000000000             000000000             0001    00000000201206110832280000000000000000000y
0106103000057TFNYF0200006134592SNFTW     FITX   201206                    00000+07000000             000000000             000000000             0002    00000000201206110832280000000000000000000y
0106103000058TFNYF0200006134592SNFTW     FITX   201206                    00000+06950000             000000000             000000000             0001    00000000201206110832280000000000000000000y
0106103000059TFNYF0200006134592SNFTW     FITX   201206                    00000+06967000             000000000             000000000             0001    00000000201206110832280000000000000000000y
0106103000060TFNYF0200006134592SNFTW     FITX   201206                    00000+06967000             000000000             000000000             0001    00000000201206110832280000000000000000000y
0106103000061TFNYF0200006134592SNFTW     FITX   201206                    00000+06967000             000000000             000000000             0001    00000000201206110832280000000000000000000y
0106103000062TFNYF0200006134592SNFTW     FITX   201206                    00000+06967000             000000000             000000000             0001    00000000201206110832290000000000000000000y
0106103000063TFNYF0200006134592SNFTW     FITX   201206                    00000+06967000             000000000             000000000             0001    00000000201206110832290000000000000000000y
0106103000064TFNYF0200006134592SNFTW     FITX   201206                    00000+06967000             000000000             000000000             0001    00000000201206110832290000000000000000000y
0106103000068TFNYF0200006134592BNFTW     FITX   201206                    00000+06996000             000000000             000000000             0001    00000000201206110832290000000000000000000y
0106103000069TFNYF0200006134592SNFTW     FITX   201206                    00000+07000000             000000000             000000000             0002    00000000201206110832290000000000000000000y
0106103000070TFNYF0200006134592SNFTW     FITX   201206                    00000+06950000             000000000             000000000             0001    00000000201206110832290000000000000000000y
0106103000071TFNYF0200006134592SNFTW     FITX   201206                    00000+06967000             000000000             000000000             0001    00000000201206110832290000000000000000000y
0106103000072TFNYF0200006134592SNFTW     FITX   201206                    00000+06967000             000000000             000000000             0001    00000000201206110832290000000000000000000y
0106103000073TFNYF0200006134592SNFTW     FITX   201206                    00000+06967000             000000000             000000000             0001    00000000201206110832290000000000000000000y
0106103000074TFNYF0200006134592SNFTW     FITX   201206                    00000+06967000             000000000             000000000             0001    00000000201206110832290000000000000000000y
0106103000023TFNYF0200006134592BNFTW     FITX   201206                    00000+06985000             000000000             000000000             0001    00000000201206110832290000000000000000000y
0106103000024TFNYF0200006134592BNFTW     FITX   201206                    00000+06985000             000000000             000000000             0001    00000000201206110832290000000000000000000y
0106103000025TFNYF0200006134592BNFTW     FITX   201206                    00000+06984000             000000000             000000000             0001    00000000201206110832290000000000000000000y
0106103000026TFNYF0200006134592BNFTW     FITX   201206                    00000+06984000             000000000             000000000             0001    00000000201206110832300000000000000000000y
0106103000027TFNYF0200006134592BNFTW     FITX   201206                    00000+06985000             000000000             000000000             0001    00000000201206110832300000000000000000000y
0106103000028TFNYF0200006134592BNFTW     FITX   201206                    00000+06985000             000000000             000000000             0001    00000000201206110832300000000000000000000y
0106103000029TFNYF0200006134592BNFTW     FITX   201206                    00000+06984000             000000000             000000000             0001    00000000201206110832300000000000000000000y
0106103000030TFNYF0200006134592BNFTW     FITX   201206                    00000+06984000             000000000             000000000             0001    00000000201206110832300000000000000000000y
0106103000031TFNYF0200006134592BNFTW     FITX   201206                    00000+06984000             000000000             000000000             0001    00000000201206110832300000000000000000000y
0106103000032TFNYF0200006134592BNFTW     FITX   201206                    00000+06985000             000000000             000000000             0001    00000000201206110832300000000000000000000y
0106103000033TFNYF0200006134592BNFTW     FITX   201206                    00000+06985000             000000000             000000000             0001    00000000201206110832300000000000000000000y
0106103000034TFNYF0200006134592BNFTW     FITX   201206                    00000+06985000             000000000             000000000             0001    00000000201206110832300000000000000000000y
0106103000035TFNYF0200006134592BNFTW     FITX   201206                    00000+06985000             000000000             000000000             0001    00000000201206110832300000000000000000000y
0106103000036TFNYF0200006134592BNFTW     FITX   201206                    00000+06985000             000000000             000000000             0001    00000000201206110832300000000000000000000y
0106103000037TFNYF0200006134592BNFTW     FITX   201206                    00000+06984000             000000000             000000000             0001    00000000201206110832310000000000000000000y
0106103000038TFNYF0200006134592BNFTW     FITX   201206                    00000+06985000             000000000             000000000             0001    00000000201206110832310000000000000000000y
0106093000135TFNYF0200006134592SNFTW     FITX   201206                    00000+00000000             000000000             000000000             0001    00000000201206110832310000000000000000000y
0106093000136TFNYF0200006134592BNFTW     FITX   201206                    00000+00000000             000000000             000000000             0001    00000000201206110832310000000000000000000y
0106093000137TFNYF0200006134592SNFTW     FITX   201206                    00000+00000000             000000000             000000000             0001    00000000201206110832310000000000000000000y
0106093000138TFNYF0200006134592SNFTW     FITX   201206                    00000+00000000             000000000             000000000             0001    00000000201206110832310000000000000000000y
0106093000141TFNYF0200006134592BNFTW     FITX   201206                    00000+00000000             000000000             000000000             0001    00000000201206110832310000000000000000000y
---
---
0106103000117TFNYF0200006134592BNFTW     FITX   201206                    00000+06985000             000000000             000000000             0001    00000000201206110832170000000000000000000y
0106103000118TFNYF0200006134592BNFTW     FITX   201206                    00000+06985000             000000000             000000000             0001    00000000201206110832170000000000000000000y
0106103000119TFNYF0200006134592SNFTW     FITX   201206                    00000+07017000             000000000             000000000             0002    00000000201206110832180000000000000000000y
0106103000120TFNYF0200006134592BNFTW     FITX   201206                    00000+07003000             000000000             000000000             0002    00000000201206110832180000000000000000000y
0106103000121TFNYF0200006134592SNFTW     FITX   201206                    00000+06987000             000000000             000000000             0002    00000000201206110832180000000000000000000y
0106103000122TFNYF0200006134592BNFTW     FITX   201206                    00000+06997000             000000000             000000000             0002    00000000201206110832180000000000000000000y
0106103000123TFNYF0200006134592SNFTW     FITX   201206                    00000+06982000             000000000             000000000             0002    00000000201206110832180000000000000000000y
0106103000124TFNYF0200006134592BNFTW     FITX   201206                    00000+06974000             000000000             000000000             0002    00000000201206110832180000000000000000000y
0106103000125TFNYF0200006134592SNFTW     FITX   201206                    00000+06964000             000000000             000000000             0002    00000000201206110832180000000000000000000y
0106103000126TFNYF0200006134592BNFTW     FITX   201206                    00000+06975000             000000000             000000000             0002    00000000201206110832180000000000000000000y
0106103000127TFNYF0200006134592SNFTW     FITX   201206                    00000+06965000             000000000             000000000             0002    00000000201206110832180000000000000000000y
0106103000128TFNYF0200006134592BNFTW     FITX   201206                    00000+06970000             000000000             000000000             0002    00000000201206110832180000000000000000000y
0106103000129TFNYF0200006134592SNFTW     FITX   201206                    00000+06973000             000000000             000000000             0002    00000000201206110832180000000000000000000y
0106103000130TFNYF0200006134592BNFTW     FITX   201206                    00000+06979000             000000000             000000000             0002    00000000201206110832190000000000000000000y
0106103000131TFNYF0200006134592SNFTW     FITX   201206                    00000+06973000             000000000             000000000             0002    00000000201206110832190000000000000000000y
0106103000132TFNYF0200006134592BNFTW     FITX   201206                    00000+06974000             000000000             000000000             0002    00000000201206110832190000000000000000000y
0106103000133TFNYF0200006134592SNFTW     FITX   201206                    00000+06973000             000000000             000000000             0002    00000000201206110832190000000000000000000y
0106103000134TFNYF0200006134592BNFTW     FITX   201206                    00000+06973000             000000000             000000000             0002    00000000201206110832190000000000000000000y
0106103000135TFNYF0200006134592SNFTW     FITX   201206                    00000+06965000             000000000             000000000             0002    00000000201206110832190000000000000000000y
0106103000136TFNYF0200006134592BNFTW     FITX   201206                    00000+06968000             000000000             000000000             0002    00000000201206110832190000000000000000000y
0106103000137TFNYF0200006134592SNFTW     FITX   201206                    00000+06960000             000000000             000000000             0002    00000000201206110832190000000000000000000y
0106103000138TFNYF0200006134592BNFTW     FITX   201206                    00000+06958000             000000000             000000000             0002    00000000201206110832190000000000000000000y
0106103000139TFNYF0200006134592SNFTW     FITX   201206                    00000+06951000             000000000             000000000             0002    00000000201206110832190000000000000000000y
0106103000140TFNYF0200006134592BNFTW     FITX   201206                    00000+06960000             000000000             000000000             0002    00000000201206110832200000000000000000000y
0106103000141TFNYF0200006134592SNFTW     FITX   201206                    00000+06955000             000000000             000000000             0002    00000000201206110832200000000000000000000y
0106103000142TFNYF0200006134592BNFTW     FITX   201206                    00000+06960000             000000000             000000000             0002    00000000201206110832210000000000000000000y
0106103000143TFNYF0200006134592SNFTW     FITX   201206                    00000+06954000             000000000             000000000             0002    00000000201206110832210000000000000000000y
0106103000144TFNYF0200006134592BNFTW     FITX   201206                    00000+06962000             000000000             000000000             0002    00000000201206110832210000000000000000000y
0106103000145TFNYF0200006134592SNFTW     FITX   201206                    00000+06955000             000000000             000000000             0002    00000000201206110832210000000000000000000y
0106083090074TFNYF0200006134592BNFTW     FITX   201206                    00000+06967000             000000000             000000000             0002    00000000201206110832210000000000000000000y
0106083090073TFNYF0200006134592SNFTW     FITX   201206                    00000+07000000             000000000             000000000             0002    00000000201206110832210000000000000000000y
0106103000146TFNYF0200006134592BNFTW     FITX   201206                    00000+06996000             000000000             000000000             0001    00000000201206110832220000000000000000000y
0106103000147TFNYF0200006134592SNFTW     FITX   201206                    00000+07000000             000000000             000000000             0002    00000000201206110832220000000000000000000y
0106103000148TFNYF0200006134592SNFTW     FITX   201206                    00000+06950000             000000000             000000000             0001    00000000201206110832220000000000000000000y
0106103000149TFNYF0200006134592SNFTW     FITX   201206                    00000+06967000             000000000             000000000             0001    00000000201206110832220000000000000000000y
0106103000150TFNYF0200006134592SNFTW     FITX   201206                    00000+06967000             000000000             000000000             0001    00000000201206110832220000000000000000000y
0106103000151TFNYF0200006134592SNFTW     FITX   201206                    00000+06967000             000000000             000000000             0001    00000000201206110832220000000000000000000y
0106103000152TFNYF0200006134592SNFTW     FITX   201206                    00000+06967000             000000000             000000000             0001    00000000201206110832220000000000000000000y
0106103000153TFNYF0200006134592SNFTW     FITX   201206                    00000+06967000             000000000             000000000             0001    00000000201206110832220000000000000000000y
0106103000154TFNYF0200006134592SNFTW     FITX   201206                    00000+06967000             000000000             000000000             0001    00000000201206110832220000000000000000000y
0106103000156TFNYF0200006134592BNFTW     FITX   201206                    00000+06996000             000000000             000000000             0001    00000000201206110832220000000000000000000y
0106103000157TFNYF0200006134592SNFTW     FITX   201206                    00000+07000000             000000000             000000000             0002    00000000201206110832220000000000000000000y
0106103000158TFNYF0200006134592SNFTW     FITX   201206                    00000+06950000             000000000             000000000             0001    00000000201206110832220000000000000000000y
0106103000159TFNYF0200006134592SNFTW     FITX   201206                    00000+06967000             000000000             000000000             0001    00000000201206110832220000000000000000000y
0106103000161TFNYF0200006134592BNFTW     FITX   201206                    00000+06996000             000000000             000000000             0001    00000000201206110832230000000000000000000y
0106103000162TFNYF0200006134592SNFTW     FITX   201206                    00000+07000000             000000000             000000000             0002    00000000201206110832230000000000000000000y
0106103000163TFNYF0200006134592SNFTW     FITX   201206                    00000+06950000             000000000             000000000             0001    00000000201206110832230000000000000000000y
0106103000164TFNYF0200006134592SNFTW     FITX   201206                    00000+06967000             000000000             000000000             0001    00000000201206110832230000000000000000000y
0106103000165TFNYF0200006134592SNFTW     FITX   201206                    00000+06967000             000000000             000000000             0001    00000000201206110832230000000000000000000y
0106103000166TFNYF0200006134592SNFTW     FITX   201206                    00000+06967000             000000000             000000000             0001    00000000201206110832230000000000000000000y
0106103000170TFNYF0200006134592BNFTW     FITX   201206                    00000+06996000             000000000             000000000             0001    00000000201206110832230000000000000000000y
0106103000171TFNYF0200006134592SNFTW     FITX   201206                    00000+07000000             000000000             000000000             0002    00000000201206110832230000000000000000000y
0106103000172TFNYF0200006134592SNFTW     FITX   201206                    00000+06950000             000000000             000000000             0001    00000000201206110832230000000000000000000y
0106103000173TFNYF0200006134592BNFTW     FITX   201206                    00000+06996000             000000000             000000000             0001    00000000201206110832230000000000000000000y
0106103000174TFNYF0200006134592SNFTW     FITX   201206                    00000+07000000             000000000             000000000             0002    00000000201206110832230000000000000000000y
0106103000175TFNYF0200006134592BNFTW     FITX   201206                    00000+06950000             000000000             000000000             0001    00000000201206110832240000000000000000000y
0106103000176TFNYF0200006134592BNFTW     FITX   201206                    00000+06996000             000000000             000000000             0001    00000000201206110832240000000000000000000y
0106103000177TFNYF0200006134592SNFTW     FITX   201206                    00000+07000000             000000000             000000000             0002    00000000201206110832240000000000000000000y
0106103000178TFNYF0200006134592BNFTW     FITX   201206                    00000+06950000             000000000             000000000             0001    00000000201206110832240000000000000000000y
0106103000179TFNYF0200006134592BNFTW     FITX   201206                    00000+06967000             000000000             000000000             0001    00000000201206110832240000000000000000000y
0106103000182TFNYF0200006134592BNFTW     FITX   201206                    00000+06996000             000000000             000000000             0001    00000000201206110832240000000000000000000y
0106103000180TFNYF0200006134592BNFTW     FITX   201206                    00000+06996000             000000000             000000000             0001    00000000201206110832240000000000000000000y
0106103000184TFNYF0200006134592SNFTW     FITX   201206                    00000+07000000             000000000             000000000             0002    00000000201206110832240000000000000000000y
0106103000185TFNYF0200006134592BNFTW     FITX   201206                    00000+06950000             000000000             000000000             0001    00000000201206110832240000000000000000000y
0106103000186TFNYF0200006134592BNFTW     FITX   201206                    00000+06996000             000000000             000000000             0001    00000000201206110832240000000000000000000y
0106103000187TFNYF0200006134592SNFTW     FITX   201206                    00000+07000000             000000000             000000000             0002    00000000201206110832240000000000000000000y
0106103000188TFNYF0200006134592BNFTW     FITX   201206                    00000+06950000             000000000             000000000             0001    00000000201206110832240000000000000000000y
0106103000189TFNYF0200006134592BNFTW     FITX   201206                    00000+06967000             000000000             000000000             0001    00000000201206110832250000000000000000000y
0106103000190TFNYF0200006134592BNFTW     FITX   201206                    00000+06996000             000000000             000000000             0001    00000000201206110832250000000000000000000y
0106103000191TFNYF0200006134592SNFTW     FITX   201206                    00000+07000000             000000000             000000000             0002    00000000201206110832250000000000000000000y
0106103000192TFNYF0200006134592BNFTW     FITX   201206                    00000+06950000             000000000             000000000             0001    00000000201206110832250000000000000000000y
0106103000193TFNYF0200006134592BNFTW     FITX   201206                    00000+06967000             000000000             000000000             0001    00000000201206110832250000000000000000000y
0106103000194TFNYF0200006134592BNFTW     FITX   201206                    00000+06996000             000000000             000000000             0001    00000000201206110832250000000000000000000y
0106103000195TFNYF0200006134592SNFTW     FITX   201206                    00000+07000000             000000000             000000000             0002    00000000201206110832250000000000000000000y
0106103000196TFNYF0200006134592BNFTW     FITX   201206                    00000+06950000             000000000             000000000             0001    00000000201206110832250000000000000000000y
0106103000197TFNYF0200006134592BNFTW     FITX   201206                    00000+06967000             000000000             000000000             0001    00000000201206110832250000000000000000000y
0106103000075TFNYF0200006134592SNFTW     FITX   201206                    00000+06967000             000000000             000000000             0001    00000000201206110832250000000000000000000y
0106103000076TFNYF0200006134592SNFTW     FITX   201206                    00000+06967000             000000000             000000000             0001    00000000201206110832250000000000000000000y
0106103000078TFNYF0200006134592BNFTW     FITX   201206                    00000+06985000             000000000             000000000             0001    00000000201206110832250000000000000000000y
0106103000090TFNYF0200006134592BNFTW     FITX   201206                    00000+06985000             000000000             000000000             0001    00000000201206110832250000000000000000000y
0106103000093TFNYF0200006134592BNFTW     FITX   201206                    00000+06996000             000000000             000000000             0001    00000000201206110832260000000000000000000y
0106103000094TFNYF0200006134592SNFTW     FITX   201206                    00000+07000000             000000000             000000000             0002    00000000201206110832260000000000000000000y
0106103000095TFNYF0200006134592SNFTW     FITX   201206                    00000+06950000             000000000             000000000             0001    00000000201206110832260000000000000000000y
0106103000096TFNYF0200006134592SNFTW     FITX   201206                    00000+06967000             000000000             000000000             0001    00000000201206110832260000000000000000000y
0106103000097TFNYF0200006134592SNFTW     FITX   201206                    00000+06967000             000000000             000000000             0001    00000000201206110832260000000000000000000y
0106103000098TFNYF0200006134592SNFTW     FITX   201206                    00000+06967000             000000000             000000000             0001    00000000201206110832260000000000000000000y
0106103000099TFNYF0200006134592SNFTW     FITX   201206                    00000+06967000             000000000             000000000             0001    00000000201206110832260000000000000000000y
0106103000100TFNYF0200006134592SNFTW     FITX   201206                    00000+06967000             000000000             000000000             0001    00000000201206110832260000000000000000000y
0106103000101TFNYF0200006134592SNFTW     FITX   201206                    00000+06967000             000000000             000000000             0001    00000000201206110832270000000000000000000y
0106103000102TFNYF0200006134592BNFTW     FITX   201206                    00000+06985000             000000000             000000000             0001    00000000201206110832270000000000000000000y
0106103000039TFNYF0200006134592BNFTW     FITX   201206                    00000+06985000             000000000             000000000             0001    00000000201206110832270000000000000000000y
0106103000040TFNYF0200006134592BNFTW     FITX   201206                    00000+06985000             000000000             000000000             0001    00000000201206110832270000000000000000000y
0106103000041TFNYF0200006134592BNFTW     FITX   201206                    00000+06986000             000000000             000000000             0001    00000000201206110832270000000000000000000y
0106103000042TFNYF0200006134592BNFTW     FITX   201206                    00000+06984000             000000000             000000000             0001    00000000201206110832270000000000000000000y
0106103000043TFNYF0200006134592BNFTW     FITX   201206                    00000+06986000             000000000             000000000             0001    00000000201206110832270000000000000000000y
0106103000044TFNYF0200006134592BNFTW     FITX   201206                    00000+06985000             000000000             000000000             0001    00000000201206110832270000000000000000000y
0106103000045TFNYF0200006134592BNFTW     FITX   201206                    00000+06985000             000000000             000000000             0001    00000000201206110832270000000000000000000y
0106103000046TFNYF0200006134592BNFTW     FITX   201206                    00000+06986000             000000000             000000000             0001    00000000201206110832270000000000000000000y
0106103000048TFNYF0200006134592BNFTW     FITX   201206                    00000+07036000             000000000             000000000             0024    00000000201206110832270000000000000000000y
0106103000049TFNYF0200006134592BNFTW     FITX   201206                    00000+07036000             000000000             000000000             0001    00000000201206110832270000000000000000000y
0106103000050TFNYF0200006134592BNFTW     FITX   201206                    00000+07034000             000000000             000000000             0001    00000000201206110832270000000000000000000y
0106103000051TFNYF0200006134592BNFTW     FITX   201206                    00000+07035000             000000000             000000000             0001    00000000201206110832280000000000000000000y
0106103000052TFNYF0200006134592BNFTW     FITX   201206                    00000+06985000             000000000             000000000             0001    00000000201206110832280000000000000000000y
0106103000054TFNYF0200006134592BNFTW     FITX   201206                    00000+06985000             000000000             000000000             0001    00000000201206110832280000000000000000000y
0106103000055TFNYF0200006134592BNFTW     FITX   201206                    00000+06985000             000000000             000000000             0001    00000000201206110832280000000000000000000y
0106103000056TFNYF0200006134592BNFTW     FITX   201206                    00000+06996000             000000000             000000000             0001    00000000201206110832280000000000000000000y
0106103000057TFNYF0200006134592SNFTW     FITX   201206                    00000+07000000             000000000             000000000             0002    00000000201206110832280000000000000000000y
0106103000058TFNYF0200006134592SNFTW     FITX   201206                    00000+06950000             000000000             000000000             0001    00000000201206110832280000000000000000000y
0106103000059TFNYF0200006134592SNFTW     FITX   201206                    00000+06967000             000000000             000000000             0001    00000000201206110832280000000000000000000y
0106103000060TFNYF0200006134592SNFTW     FITX   201206                    00000+06967000             000000000             000000000             0001    00000000201206110832280000000000000000000y
0106103000061TFNYF0200006134592SNFTW     FITX   201206                    00000+06967000             000000000             000000000             0001    00000000201206110832280000000000000000000y
0106103000062TFNYF0200006134592SNFTW     FITX   201206                    00000+06967000             000000000             000000000             0001    00000000201206110832290000000000000000000y
0106103000063TFNYF0200006134592SNFTW     FITX   201206                    00000+06967000             000000000             000000000             0001    00000000201206110832290000000000000000000y
0106103000064TFNYF0200006134592SNFTW     FITX   201206                    00000+06967000             000000000             000000000             0001    00000000201206110832290000000000000000000y
0106103000068TFNYF0200006134592BNFTW     FITX   201206                    00000+06996000             000000000             000000000             0001    00000000201206110832290000000000000000000y
0106103000069TFNYF0200006134592SNFTW     FITX   201206                    00000+07000000             000000000             000000000             0002    00000000201206110832290000000000000000000y
0106103000070TFNYF0200006134592SNFTW     FITX   201206                    00000+06950000             000000000             000000000             0001    00000000201206110832290000000000000000000y
0106103000071TFNYF0200006134592SNFTW     FITX   201206                    00000+06967000             000000000             000000000             0001    00000000201206110832290000000000000000000y
0106103000072TFNYF0200006134592SNFTW     FITX   201206                    00000+06967000             000000000             000000000             0001    00000000201206110832290000000000000000000y
0106103000073TFNYF0200006134592SNFTW     FITX   201206                    00000+06967000             000000000             000000000             0001    00000000201206110832290000000000000000000y
0106103000074TFNYF0200006134592SNFTW     FITX   201206                    00000+06967000             000000000             000000000             0001    00000000201206110832290000000000000000000y
0106103000023TFNYF0200006134592BNFTW     FITX   201206                    00000+06985000             000000000             000000000             0001    00000000201206110832290000000000000000000y
0106103000024TFNYF0200006134592BNFTW     FITX   201206                    00000+06985000             000000000             000000000             0001    00000000201206110832290000000000000000000y
0106103000025TFNYF0200006134592BNFTW     FITX   201206                    00000+06984000             000000000             000000000             0001    00000000201206110832290000000000000000000y
0106103000026TFNYF0200006134592BNFTW     FITX   201206                    00000+06984000             000000000             000000000             0001    00000000201206110832300000000000000000000y
0106103000027TFNYF0200006134592BNFTW     FITX   201206                    00000+06985000             000000000             000000000             0001    00000000201206110832300000000000000000000y
0106103000028TFNYF0200006134592BNFTW     FITX   201206                    00000+06985000             000000000             000000000             0001    00000000201206110832300000000000000000000y
0106103000029TFNYF0200006134592BNFTW     FITX   201206                    00000+06984000             000000000             000000000             0001    00000000201206110832300000000000000000000y
0106103000030TFNYF0200006134592BNFTW     FITX   201206                    00000+06984000             000000000             000000000             0001    00000000201206110832300000000000000000000y
0106103000031TFNYF0200006134592BNFTW     FITX   201206                    00000+06984000             000000000             000000000             0001    00000000201206110832300000000000000000000y
0106103000032TFNYF0200006134592BNFTW     FITX   201206                    00000+06985000             000000000             000000000             0001    00000000201206110832300000000000000000000y
0106103000033TFNYF0200006134592BNFTW     FITX   201206                    00000+06985000             000000000             000000000             0001    00000000201206110832300000000000000000000y
0106103000034TFNYF0200006134592BNFTW     FITX   201206                    00000+06985000             000000000             000000000             0001    00000000201206110832300000000000000000000y
0106103000035TFNYF0200006134592BNFTW     FITX   201206                    00000+06985000             000000000             000000000             0001    00000000201206110832300000000000000000000y
0106103000036TFNYF0200006134592BNFTW     FITX   201206                    00000+06985000             000000000             000000000             0001    00000000201206110832300000000000000000000y
0106103000037TFNYF0200006134592BNFTW     FITX   201206                    00000+06984000             000000000             000000000             0001    00000000201206110832310000000000000000000y
0106103000038TFNYF0200006134592BNFTW     FITX   201206                    00000+06985000             000000000             000000000             0001    00000000201206110832310000000000000000000y
0106093000135TFNYF0200006134592SNFTW     FITX   201206                    00000+00000000             000000000             000000000             0001    00000000201206110832310000000000000000000y
0106093000136TFNYF0200006134592BNFTW     FITX   201206                    00000+00000000             000000000             000000000             0001    00000000201206110832310000000000000000000y
0106093000137TFNYF0200006134592SNFTW     FITX   201206                    00000+00000000             000000000             000000000             0001    00000000201206110832310000000000000000000y
0106093000138TFNYF0200006134592SNFTW     FITX   201206                    00000+00000000             000000000             000000000             0001    00000000201206110832310000000000000000000y
0106093000141TFNYF0200006134592BNFTW     FITX   201206                    00000+00000000             000000000             000000000             0001    00000000201206110832310000000000000000000y
---
---
0106113088772TFNYF0200006134592SNFTW     FITX   201206                    00000+07117000             000000000             000000000             0001    00000000201206120832150000000000000000000y
0106113088773TFNYF0200006134592BNFTW     FITX   201206                    00000+07131000             000000000             000000000             0002    00000000201206120832150000000000000000000y
0106113088774TFNYF0200006134592SNFTW     FITX   201206                    00000+07120000             000000000             000000000             0002    00000000201206120832160000000000000000000y
0106113088775TFNYF0200006134592BNFTW     FITX   201206                    00000+07074000             000000000             000000000             0002    00000000201206120832160000000000000000000y
0106113088776TFNYF0200006134592SNFTW     FITX   201206                    00000+07066000             000000000             000000000             0002    00000000201206120832160000000000000000000y
0106113088777TFNYF0200006134592BNFTW     FITX   201206                    00000+07078000             000000000             000000000             0002    00000000201206120832160000000000000000000y
0106113088778TFNYF0200006134592SNFTW     FITX   201206                    00000+07073000             000000000             000000000             0002    00000000201206120832160000000000000000000y
0106113088779TFNYF0200006134592BNFTW     FITX   201206                    00000+07080000             000000000             000000000             0002    00000000201206120832160000000000000000000y
0106113088780TFNYF0200006134592SNFTW     FITX   201206                    00000+07071000             000000000             000000000             0002    00000000201206120832160000000000000000000y
0106113088781TFNYF0200006134592BNFTW     FITX   201206                    00000+07079000             000000000             000000000             0002    00000000201206120832160000000000000000000y
0106113088782TFNYF0200006134592SNFTW     FITX   201206                    00000+07068000             000000000             000000000             0002    00000000201206120832160000000000000000000y
0106113088783TFNYF0200006134592BNFTW     FITX   201206                    00000+07070000             000000000             000000000             0002    00000000201206120832160000000000000000000y
0106113088784TFNYF0200006134592SNFTW     FITX   201206                    00000+07078000             000000000             000000000             0002    00000000201206120832160000000000000000000y
0106113088785TFNYF0200006134592BNFTW     FITX   201206                    00000+07082000             000000000             000000000             0002    00000000201206120832160000000000000000000y
0106113088786TFNYF0200006134592SNFTW     FITX   201206                    00000+07083000             000000000             000000000             0002    00000000201206120832170000000000000000000y
0106113088787TFNYF0200006134592BNFTW     FITX   201206                    00000+07083000             000000000             000000000             0002    00000000201206120832170000000000000000000y
0106113088789TFNYF0200006134592SNFTW     FITX   201206                    00000+07075000             000000000             000000000             0002    00000000201206120832170000000000000000000y
0106113088790TFNYF0200006134592BNFTW     FITX   201206                    00000+07087000             000000000             000000000             0002    00000000201206120832170000000000000000000y
0106113088791TFNYF0200006134592SNFTW     FITX   201206                    00000+07090000             000000000             000000000             0002    00000000201206120832170000000000000000000y
0106113088792TFNYF0200006134592BNFTW     FITX   201206                    00000+07097000             000000000             000000000             0002    00000000201206120832170000000000000000000y
0106113088737TFNYF0200006134592SNFTW     FITX   201206                    00000+07075000             000000000             000000000             0002    00000000201206120832170000000000000000000y
0106113088738TFNYF0200006134592BNFTW     FITX   201206                    00000+07080000             000000000             000000000             0002    00000000201206120832170000000000000000000y
0106113088739TFNYF0200006134592SNFTW     FITX   201206                    00000+07078000             000000000             000000000             0002    00000000201206120832170000000000000000000y
0106113088740TFNYF0200006134592BNFTW     FITX   201206                    00000+07082000             000000000             000000000             0002    00000000201206120832190000000000000000000y
0106113088741TFNYF0200006134592SNFTW     FITX   201206                    00000+07090000             000000000             000000000             0002    00000000201206120832190000000000000000000y
0106113088742TFNYF0200006134592BNFTW     FITX   201206                    00000+07097000             000000000             000000000             0002    00000000201206120832190000000000000000000y
0106113088751TFNYF0200006134592SNFTW     FITX   201206                    00000+07117000             000000000             000000000             0002    00000000201206120832190000000000000000000y
0106113088752TFNYF0200006134592BNFTW     FITX   201206                    00000+07131000             000000000             000000000             0002    00000000201206120832190000000000000000000y
0106113088753TFNYF0200006134592SNFTW     FITX   201206                    00000+07120000             000000000             000000000             0002    00000000201206120832190000000000000000000y
0106113088754TFNYF0200006134592BNFTW     FITX   201206                    00000+07074000             000000000             000000000             0002    00000000201206120832190000000000000000000y
0106113088755TFNYF0200006134592SNFTW     FITX   201206                    00000+07066000             000000000             000000000             0002    00000000201206120832200000000000000000000y
0106113088756TFNYF0200006134592BNFTW     FITX   201206                    00000+07078000             000000000             000000000             0002    00000000201206120832200000000000000000000y
0106113088757TFNYF0200006134592SNFTW     FITX   201206                    00000+07073000             000000000             000000000             0002    00000000201206120832200000000000000000000y
0106113088758TFNYF0200006134592BNFTW     FITX   201206                    00000+07080000             000000000             000000000             0002    00000000201206120832200000000000000000000y
0106113088759TFNYF0200006134592SNFTW     FITX   201206                    00000+07071000             000000000             000000000             0002    00000000201206120832200000000000000000000y
0106113088760TFNYF0200006134592BNFTW     FITX   201206                    00000+07079000             000000000             000000000             0002    00000000201206120832200000000000000000000y
0106113088713TFNYF0200006134592SNFTW     FITX   201206                    00000+07110000             000000000             000000000             0002    00000000201206120832200000000000000000000y
0106113088714TFNYF0200006134592BNFTW     FITX   201206                    00000+07060000             000000000             000000000             0001    00000000201206120832200000000000000000000y
0106113088715TFNYF0200006134592BNFTW     FITX   201206                    00000+07096000             000000000             000000000             0001    00000000201206120832200000000000000000000y
0106113088721TFNYF0200006134592SNFTW     FITX   201206                    00000+07117000             000000000             000000000             0001    00000000201206120832200000000000000000000y
0106113088722TFNYF0200006134592BNFTW     FITX   201206                    00000+07131000             000000000             000000000             0002    00000000201206120832200000000000000000000y
0106113088723TFNYF0200006134592SNFTW     FITX   201206                    00000+07120000             000000000             000000000             0002    00000000201206120832210000000000000000000y
0106113088724TFNYF0200006134592BNFTW     FITX   201206                    00000+07074000             000000000             000000000             0002    00000000201206120832210000000000000000000y
0106113088725TFNYF0200006134592SNFTW     FITX   201206                    00000+07066000             000000000             000000000             0002    00000000201206120832210000000000000000000y
0106113088726TFNYF0200006134592BNFTW     FITX   201206                    00000+07078000             000000000             000000000             0002    00000000201206120832210000000000000000000y
0106113088727TFNYF0200006134592SNFTW     FITX   201206                    00000+07073000             000000000             000000000             0002    00000000201206120832210000000000000000000y
0106113088728TFNYF0200006134592BNFTW     FITX   201206                    00000+07080000             000000000             000000000             0002    00000000201206120832210000000000000000000y
0106113088729TFNYF0200006134592SNFTW     FITX   201206                    00000+07071000             000000000             000000000             0002    00000000201206120832210000000000000000000y
0106113088730TFNYF0200006134592BNFTW     FITX   201206                    00000+07079000             000000000             000000000             0002    00000000201206120832210000000000000000000y
0106113088731TFNYF0200006134592SNFTW     FITX   201206                    00000+07075000             000000000             000000000             0002    00000000201206120832210000000000000000000y
0106113088732TFNYF0200006134592BNFTW     FITX   201206                    00000+07070000             000000000             000000000             0002    00000000201206120832210000000000000000000y
0106113088733TFNYF0200006134592SNFTW     FITX   201206                    00000+07078000             000000000             000000000             0002    00000000201206120832220000000000000000000y
0106113088734TFNYF0200006134592BNFTW     FITX   201206                    00000+07082000             000000000             000000000             0002    00000000201206120832220000000000000000000y
0106113088735TFNYF0200006134592SNFTW     FITX   201206                    00000+07083000             000000000             000000000             0002    00000000201206120832220000000000000000000y
0106113088736TFNYF0200006134592BNFTW     FITX   201206                    00000+07083000             000000000             000000000             0002    00000000201206120832220000000000000000000y
0106123000015TFNYF0200006134592BNFTW     FITX   201206                    00000+07074000             000000000             000000000             0002    00000000201206120832220000000000000000000y
0106123000016TFNYF0200006134592SNFTW     FITX   201206                    00000+07065000             000000000             000000000             0002    00000000201206120832220000000000000000000y
0106123000017TFNYF0200006134592BNFTW     FITX   201206                    00000+07078000             000000000             000000000             0002    00000000201206120832220000000000000000000y
0106123000018TFNYF0200006134592SNFTW     FITX   201206                    00000+07073000             000000000             000000000             0002    00000000201206120832220000000000000000000y
0106123000019TFNYF0200006134592BNFTW     FITX   201206                    00000+07080000             000000000             000000000             0002    00000000201206120832220000000000000000000y
0106123000020TFNYF0200006134592SNFTW     FITX   201206                    00000+07071000             000000000             000000000             0002    00000000201206120832220000000000000000000y
0106123000021TFNYF0200006134592BNFTW     FITX   201206                    00000+07079000             000000000             000000000             0002    00000000201206120832220000000000000000000y
0106123000022TFNYF0200006134592SNFTW     FITX   201206                    00000+07068000             000000000             000000000             0002    00000000201206120832230000000000000000000y
0106123000023TFNYF0200006134592BNFTW     FITX   201206                    00000+07070000             000000000             000000000             0002    00000000201206120832230000000000000000000y
0106123000024TFNYF0200006134592SNFTW     FITX   201206                    00000+07078000             000000000             000000000             0002    00000000201206120832230000000000000000000y
0106123000025TFNYF0200006134592BNFTW     FITX   201206                    00000+07081000             000000000             000000000             0002    00000000201206120832230000000000000000000y
0106123000026TFNYF0200006134592SNFTW     FITX   201206                    00000+07083000             000000000             000000000             0002    00000000201206120832230000000000000000000y
0106123000027TFNYF0200006134592BNFTW     FITX   201206                    00000+07083000             000000000             000000000             0002    00000000201206120832230000000000000000000y
0106123000028TFNYF0200006134592SNFTW     FITX   201206                    00000+07075000             000000000             000000000             0002    00000000201206120832230000000000000000000y
0106123000029TFNYF0200006134592BNFTW     FITX   201206                    00000+07087000             000000000             000000000             0002    00000000201206120832230000000000000000000y
0106123000030TFNYF0200006134592SNFTW     FITX   201206                    00000+07090000             000000000             000000000             0002    00000000201206120832230000000000000000000y
0106123000031TFNYF0200006134592BNFTW     FITX   201206                    00000+07097000             000000000             000000000             0002    00000000201206120832240000000000000000000y
0106113088650TFNYF0200006134592BNFTW     FITX   201206                    00000+07080000             000000000             000000000             0002    00000000201206120832240000000000000000000y
0106113088653TFNYF0200006134592SNFTW     FITX   201206                    00000+07078000             000000000             000000000             0002    00000000201206120832240000000000000000000y
0106113088654TFNYF0200006134592BNFTW     FITX   201206                    00000+07082000             000000000             000000000             0002    00000000201206120832240000000000000000000y
0106113088659TFNYF0200006134592SNFTW     FITX   201206                    00000+07090000             000000000             000000000             0002    00000000201206120832240000000000000000000y
0106113088646TFNYF0200006134592SNFTW     FITX   201206                    00000+07083000             000000000             000000000             0002    00000000201206120832240000000000000000000y
0106113088663TFNYF0200006134592BNFTW     FITX   201206                    00000+07097000             000000000             000000000             0002    00000000201206120832240000000000000000000y
0106113088647TFNYF0200006134592BNFTW     FITX   201206                    00000+07083000             000000000             000000000             0002    00000000201206120832240000000000000000000y
0106113088648TFNYF0200006134592SNFTW     FITX   201206                    00000+07075000             000000000             000000000             0002    00000000201206120832240000000000000000000y
0106113088627TFNYF0200006134592SNFTW     FITX   201206                    00000+07117000             000000000             000000000             0001    00000000201206120832250000000000000000000y
0106113088628TFNYF0200006134592BNFTW     FITX   201206                    00000+07131000             000000000             000000000             0002    00000000201206120832250000000000000000000y
0106113088630TFNYF0200006134592SNFTW     FITX   201206                    00000+07120000             000000000             000000000             0002    00000000201206120832250000000000000000000y
0106113088631TFNYF0200006134592BNFTW     FITX   201206                    00000+07074000             000000000             000000000             0002    00000000201206120832250000000000000000000y
0106113088632TFNYF0200006134592SNFTW     FITX   201206                    00000+07066000             000000000             000000000             0002    00000000201206120832250000000000000000000y
0106113088633TFNYF0200006134592BNFTW     FITX   201206                    00000+07078000             000000000             000000000             0002    00000000201206120832250000000000000000000y
0106113088634TFNYF0200006134592SNFTW     FITX   201206                    00000+07073000             000000000             000000000             0002    00000000201206120832250000000000000000000y
0106113088635TFNYF0200006134592BNFTW     FITX   201206                    00000+07080000             000000000             000000000             0002    00000000201206120832250000000000000000000y
0106113088636TFNYF0200006134592SNFTW     FITX   201206                    00000+07071000             000000000             000000000             0002    00000000201206120832250000000000000000000y
0106113088637TFNYF0200006134592BNFTW     FITX   201206                    00000+07079000             000000000             000000000             0002    00000000201206120832250000000000000000000y
0106113088638TFNYF0200006134592SNFTW     FITX   201206                    00000+07075000             000000000             000000000             0002    00000000201206120832250000000000000000000y
0106113088641TFNYF0200006134592BNFTW     FITX   201206                    00000+07070000             000000000             000000000             0002    00000000201206120832250000000000000000000y
0106113088643TFNYF0200006134592SNFTW     FITX   201206                    00000+07078000             000000000             000000000             0002    00000000201206120832260000000000000000000y
0106113088644TFNYF0200006134592BNFTW     FITX   201206                    00000+07082000             000000000             000000000             0002    00000000201206120832260000000000000000000y
0106123000012TFNYF0200006134592SNFTW     FITX   201206                    00000+07117000             000000000             000000000             0001    00000000201206120832260000000000000000000y
0106123000013TFNYF0200006134592BNFTW     FITX   201206                    00000+07131000             000000000             000000000             0002    00000000201206120832260000000000000000000y
0106123000014TFNYF0200006134592SNFTW     FITX   201206                    00000+07120000             000000000             000000000             0002    00000000201206120832260000000000000000000y
---
---
---
---
---
---
