---
---
0107253080798TFNYF0200006134592SNFTW     FITX   201208                    00000+06882000             000000000             000000000             0001    00000000201207260832150000000000000000000y
0107253080799TFNYF0200006134592BNFTW     FITX   201208                    00000+06887000             000000000             000000000             0001    00000000201207260832160000000000000000000y
0107253080806TFNYF0200006134592SNFTW     FITX   201208                    00000+06881000             000000000             000000000             0002    00000000201207260832160000000000000000000y
0107253080808TFNYF0200006134592BNFTW     FITX   201208                    00000+06848000             000000000             000000000             0002    00000000201207260832160000000000000000000y
0107253080813TFNYF0200006134592BNFTW     FITX   201208                    00000+06791000             000000000             000000000             0001    00000000201207260832160000000000000000000y
0107253080814TFNYF0200006134592BNFTW     FITX   201208                    00000+06802000             000000000             000000000             0001    00000000201207260832160000000000000000000y
0107253080815TFNYF0200006134592SNFTW     FITX   201208                    00000+06882000             000000000             000000000             0001    00000000201207260832160000000000000000000y
0107253080816TFNYF0200006134592BNFTW     FITX   201208                    00000+06887000             000000000             000000000             0001    00000000201207260832160000000000000000000y
0107253080817TFNYF0200006134592SNFTW     FITX   201208                    00000+06881000             000000000             000000000             0002    00000000201207260832160000000000000000000y
0107253080818TFNYF0200006134592BNFTW     FITX   201208                    00000+06848000             000000000             000000000             0002    00000000201207260832160000000000000000000y
0107253080825TFNYF0200006134592BNFTW     FITX   201208                    00000+06791000             000000000             000000000             0001    00000000201207260832160000000000000000000y
0107253080826TFNYF0200006134592BNFTW     FITX   201208                    00000+06802000             000000000             000000000             0001    00000000201207260832160000000000000000000y
0107253080827TFNYF0200006134592SNFTW     FITX   201208                    00000+06882000             000000000             000000000             0001    00000000201207260832160000000000000000000y
0107253080828TFNYF0200006134592BNFTW     FITX   201208                    00000+06887000             000000000             000000000             0001    00000000201207260832160000000000000000000y
0107253080829TFNYF0200006134592SNFTW     FITX   201208                    00000+06881000             000000000             000000000             0002    00000000201207260832170000000000000000000y
0107253080793TFNYF0200006134592BNFTW     FITX   201208                    00000+06791000             000000000             000000000             0001    00000000201207260832170000000000000000000y
0107253080794TFNYF0200006134592BNFTW     FITX   201208                    00000+06802000             000000000             000000000             0001    00000000201207260832170000000000000000000y
0107253080831TFNYF0200006134592BNFTW     FITX   201208                    00000+06848000             000000000             000000000             0002    00000000201207260832170000000000000000000y
0107253080835TFNYF0200006134592BNFTW     FITX   201208                    00000+06791000             000000000             000000000             0001    00000000201207260832170000000000000000000y
0107253080836TFNYF0200006134592BNFTW     FITX   201208                    00000+06802000             000000000             000000000             0001    00000000201207260832170000000000000000000y
0107253080837TFNYF0200006134592SNFTW     FITX   201208                    00000+06882000             000000000             000000000             0001    00000000201207260832170000000000000000000y
0107253080838TFNYF0200006134592BNFTW     FITX   201208                    00000+06887000             000000000             000000000             0001    00000000201207260832170000000000000000000y
0107253080839TFNYF0200006134592SNFTW     FITX   201208                    00000+06881000             000000000             000000000             0002    00000000201207260832170000000000000000000y
0107253080853TFNYF0200006134592BNFTW     FITX   201208                    00000+06791000             000000000             000000000             0001    00000000201207260832170000000000000000000y
0107253080854TFNYF0200006134592BNFTW     FITX   201208                    00000+06802000             000000000             000000000             0001    00000000201207260832170000000000000000000y
0107253080855TFNYF0200006134592SNFTW     FITX   201208                    00000+06882000             000000000             000000000             0001    00000000201207260832170000000000000000000y
0107253080856TFNYF0200006134592BNFTW     FITX   201208                    00000+06887000             000000000             000000000             0001    00000000201207260832180000000000000000000y
0107253080857TFNYF0200006134592SNFTW     FITX   201208                    00000+06881000             000000000             000000000             0002    00000000201207260832180000000000000000000y
0107253080858TFNYF0200006134592BNFTW     FITX   201208                    00000+06848000             000000000             000000000             0002    00000000201207260832180000000000000000000y
---
---
0107253080798TFNYF0200006134592SNFTW     FITX   201208                    00000+06882000             000000000             000000000             0001    00000000201207260832150000000000000000000y
0107253080799TFNYF0200006134592BNFTW     FITX   201208                    00000+06887000             000000000             000000000             0001    00000000201207260832160000000000000000000y
0107253080806TFNYF0200006134592SNFTW     FITX   201208                    00000+06881000             000000000             000000000             0002    00000000201207260832160000000000000000000y
0107253080808TFNYF0200006134592BNFTW     FITX   201208                    00000+06848000             000000000             000000000             0002    00000000201207260832160000000000000000000y
0107253080813TFNYF0200006134592BNFTW     FITX   201208                    00000+06791000             000000000             000000000             0001    00000000201207260832160000000000000000000y
0107253080814TFNYF0200006134592BNFTW     FITX   201208                    00000+06802000             000000000             000000000             0001    00000000201207260832160000000000000000000y
0107253080815TFNYF0200006134592SNFTW     FITX   201208                    00000+06882000             000000000             000000000             0001    00000000201207260832160000000000000000000y
0107253080816TFNYF0200006134592BNFTW     FITX   201208                    00000+06887000             000000000             000000000             0001    00000000201207260832160000000000000000000y
0107253080817TFNYF0200006134592SNFTW     FITX   201208                    00000+06881000             000000000             000000000             0002    00000000201207260832160000000000000000000y
0107253080818TFNYF0200006134592BNFTW     FITX   201208                    00000+06848000             000000000             000000000             0002    00000000201207260832160000000000000000000y
0107253080825TFNYF0200006134592BNFTW     FITX   201208                    00000+06791000             000000000             000000000             0001    00000000201207260832160000000000000000000y
0107253080826TFNYF0200006134592BNFTW     FITX   201208                    00000+06802000             000000000             000000000             0001    00000000201207260832160000000000000000000y
0107253080827TFNYF0200006134592SNFTW     FITX   201208                    00000+06882000             000000000             000000000             0001    00000000201207260832160000000000000000000y
0107253080828TFNYF0200006134592BNFTW     FITX   201208                    00000+06887000             000000000             000000000             0001    00000000201207260832160000000000000000000y
0107253080829TFNYF0200006134592SNFTW     FITX   201208                    00000+06881000             000000000             000000000             0002    00000000201207260832170000000000000000000y
0107253080793TFNYF0200006134592BNFTW     FITX   201208                    00000+06791000             000000000             000000000             0001    00000000201207260832170000000000000000000y
0107253080794TFNYF0200006134592BNFTW     FITX   201208                    00000+06802000             000000000             000000000             0001    00000000201207260832170000000000000000000y
0107253080831TFNYF0200006134592BNFTW     FITX   201208                    00000+06848000             000000000             000000000             0002    00000000201207260832170000000000000000000y
0107253080835TFNYF0200006134592BNFTW     FITX   201208                    00000+06791000             000000000             000000000             0001    00000000201207260832170000000000000000000y
0107253080836TFNYF0200006134592BNFTW     FITX   201208                    00000+06802000             000000000             000000000             0001    00000000201207260832170000000000000000000y
0107253080837TFNYF0200006134592SNFTW     FITX   201208                    00000+06882000             000000000             000000000             0001    00000000201207260832170000000000000000000y
0107253080838TFNYF0200006134592BNFTW     FITX   201208                    00000+06887000             000000000             000000000             0001    00000000201207260832170000000000000000000y
0107253080839TFNYF0200006134592SNFTW     FITX   201208                    00000+06881000             000000000             000000000             0002    00000000201207260832170000000000000000000y
0107253080853TFNYF0200006134592BNFTW     FITX   201208                    00000+06791000             000000000             000000000             0001    00000000201207260832170000000000000000000y
0107253080854TFNYF0200006134592BNFTW     FITX   201208                    00000+06802000             000000000             000000000             0001    00000000201207260832170000000000000000000y
0107253080855TFNYF0200006134592SNFTW     FITX   201208                    00000+06882000             000000000             000000000             0001    00000000201207260832170000000000000000000y
0107253080856TFNYF0200006134592BNFTW     FITX   201208                    00000+06887000             000000000             000000000             0001    00000000201207260832180000000000000000000y
0107253080857TFNYF0200006134592SNFTW     FITX   201208                    00000+06881000             000000000             000000000             0002    00000000201207260832180000000000000000000y
0107253080858TFNYF0200006134592BNFTW     FITX   201208                    00000+06848000             000000000             000000000             0002    00000000201207260832180000000000000000000y
---
---
0107253080798TFNYF0200006134592SNFTW     FITX   201208                    00000+06882000             000000000             000000000             0001    00000000201207260832150000000000000000000y
0107253080799TFNYF0200006134592BNFTW     FITX   201208                    00000+06887000             000000000             000000000             0001    00000000201207260832160000000000000000000y
0107253080806TFNYF0200006134592SNFTW     FITX   201208                    00000+06881000             000000000             000000000             0002    00000000201207260832160000000000000000000y
0107253080808TFNYF0200006134592BNFTW     FITX   201208                    00000+06848000             000000000             000000000             0002    00000000201207260832160000000000000000000y
0107253080813TFNYF0200006134592BNFTW     FITX   201208                    00000+06791000             000000000             000000000             0001    00000000201207260832160000000000000000000y
0107253080814TFNYF0200006134592BNFTW     FITX   201208                    00000+06802000             000000000             000000000             0001    00000000201207260832160000000000000000000y
0107253080815TFNYF0200006134592SNFTW     FITX   201208                    00000+06882000             000000000             000000000             0001    00000000201207260832160000000000000000000y
0107253080816TFNYF0200006134592BNFTW     FITX   201208                    00000+06887000             000000000             000000000             0001    00000000201207260832160000000000000000000y
0107253080817TFNYF0200006134592SNFTW     FITX   201208                    00000+06881000             000000000             000000000             0002    00000000201207260832160000000000000000000y
0107253080818TFNYF0200006134592BNFTW     FITX   201208                    00000+06848000             000000000             000000000             0002    00000000201207260832160000000000000000000y
0107253080825TFNYF0200006134592BNFTW     FITX   201208                    00000+06791000             000000000             000000000             0001    00000000201207260832160000000000000000000y
0107253080826TFNYF0200006134592BNFTW     FITX   201208                    00000+06802000             000000000             000000000             0001    00000000201207260832160000000000000000000y
0107253080827TFNYF0200006134592SNFTW     FITX   201208                    00000+06882000             000000000             000000000             0001    00000000201207260832160000000000000000000y
0107253080828TFNYF0200006134592BNFTW     FITX   201208                    00000+06887000             000000000             000000000             0001    00000000201207260832160000000000000000000y
0107253080829TFNYF0200006134592SNFTW     FITX   201208                    00000+06881000             000000000             000000000             0002    00000000201207260832170000000000000000000y
0107253080793TFNYF0200006134592BNFTW     FITX   201208                    00000+06791000             000000000             000000000             0001    00000000201207260832170000000000000000000y
0107253080794TFNYF0200006134592BNFTW     FITX   201208                    00000+06802000             000000000             000000000             0001    00000000201207260832170000000000000000000y
0107253080831TFNYF0200006134592BNFTW     FITX   201208                    00000+06848000             000000000             000000000             0002    00000000201207260832170000000000000000000y
0107253080835TFNYF0200006134592BNFTW     FITX   201208                    00000+06791000             000000000             000000000             0001    00000000201207260832170000000000000000000y
0107253080836TFNYF0200006134592BNFTW     FITX   201208                    00000+06802000             000000000             000000000             0001    00000000201207260832170000000000000000000y
0107253080837TFNYF0200006134592SNFTW     FITX   201208                    00000+06882000             000000000             000000000             0001    00000000201207260832170000000000000000000y
0107253080838TFNYF0200006134592BNFTW     FITX   201208                    00000+06887000             000000000             000000000             0001    00000000201207260832170000000000000000000y
0107253080839TFNYF0200006134592SNFTW     FITX   201208                    00000+06881000             000000000             000000000             0002    00000000201207260832170000000000000000000y
0107253080853TFNYF0200006134592BNFTW     FITX   201208                    00000+06791000             000000000             000000000             0001    00000000201207260832170000000000000000000y
0107253080854TFNYF0200006134592BNFTW     FITX   201208                    00000+06802000             000000000             000000000             0001    00000000201207260832170000000000000000000y
0107253080855TFNYF0200006134592SNFTW     FITX   201208                    00000+06882000             000000000             000000000             0001    00000000201207260832170000000000000000000y
0107253080856TFNYF0200006134592BNFTW     FITX   201208                    00000+06887000             000000000             000000000             0001    00000000201207260832180000000000000000000y
0107253080857TFNYF0200006134592SNFTW     FITX   201208                    00000+06881000             000000000             000000000             0002    00000000201207260832180000000000000000000y
0107253080858TFNYF0200006134592BNFTW     FITX   201208                    00000+06848000             000000000             000000000             0002    00000000201207260832180000000000000000000y
---
---
0107253080798TFNYF0200006134592SNFTW     FITX   201208                    00000+06882000             000000000             000000000             0001    00000000201207260832150000000000000000000y
0107253080799TFNYF0200006134592BNFTW     FITX   201208                    00000+06887000             000000000             000000000             0001    00000000201207260832160000000000000000000y
0107253080806TFNYF0200006134592SNFTW     FITX   201208                    00000+06881000             000000000             000000000             0002    00000000201207260832160000000000000000000y
0107253080808TFNYF0200006134592BNFTW     FITX   201208                    00000+06848000             000000000             000000000             0002    00000000201207260832160000000000000000000y
0107253080813TFNYF0200006134592BNFTW     FITX   201208                    00000+06791000             000000000             000000000             0001    00000000201207260832160000000000000000000y
---
---
0107253080798TFNYF0200006134592SNFTW     FITX   201208                    00000+06882000             000000000             000000000             0001    00000000201207260832150000000000000000000y
0107253080799TFNYF0200006134592BNFTW     FITX   201208                    00000+06887000             000000000             000000000             0001    00000000201207260832160000000000000000000y
0107253080806TFNYF0200006134592SNFTW     FITX   201208                    00000+06881000             000000000             000000000             0002    00000000201207260832160000000000000000000y
0107253080808TFNYF0200006134592BNFTW     FITX   201208                    00000+06848000             000000000             000000000             0002    00000000201207260832160000000000000000000y
0107253080813TFNYF0200006134592BNFTW     FITX   201208                    00000+06791000             000000000             000000000             0001    00000000201207260832160000000000000000000y
0107253080814TFNYF0200006134592BNFTW     FITX   201208                    00000+06802000             000000000             000000000             0001    00000000201207260832160000000000000000000y
0107253080815TFNYF0200006134592SNFTW     FITX   201208                    00000+06882000             000000000             000000000             0001    00000000201207260832160000000000000000000y
0107253080816TFNYF0200006134592BNFTW     FITX   201208                    00000+06887000             000000000             000000000             0001    00000000201207260832160000000000000000000y
0107253080817TFNYF0200006134592SNFTW     FITX   201208                    00000+06881000             000000000             000000000             0002    00000000201207260832160000000000000000000y
0107253080818TFNYF0200006134592BNFTW     FITX   201208                    00000+06848000             000000000             000000000             0002    00000000201207260832160000000000000000000y
0107253080825TFNYF0200006134592BNFTW     FITX   201208                    00000+06791000             000000000             000000000             0001    00000000201207260832160000000000000000000y
0107253080826TFNYF0200006134592BNFTW     FITX   201208                    00000+06802000             000000000             000000000             0001    00000000201207260832160000000000000000000y
0107253080827TFNYF0200006134592SNFTW     FITX   201208                    00000+06882000             000000000             000000000             0001    00000000201207260832160000000000000000000y
0107253080828TFNYF0200006134592BNFTW     FITX   201208                    00000+06887000             000000000             000000000             0001    00000000201207260832160000000000000000000y
0107253080829TFNYF0200006134592SNFTW     FITX   201208                    00000+06881000             000000000             000000000             0002    00000000201207260832170000000000000000000y
0107253080793TFNYF0200006134592BNFTW     FITX   201208                    00000+06791000             000000000             000000000             0001    00000000201207260832170000000000000000000y
0107253080794TFNYF0200006134592BNFTW     FITX   201208                    00000+06802000             000000000             000000000             0001    00000000201207260832170000000000000000000y
0107253080831TFNYF0200006134592BNFTW     FITX   201208                    00000+06848000             000000000             000000000             0002    00000000201207260832170000000000000000000y
0107253080835TFNYF0200006134592BNFTW     FITX   201208                    00000+06791000             000000000             000000000             0001    00000000201207260832170000000000000000000y
0107253080836TFNYF0200006134592BNFTW     FITX   201208                    00000+06802000             000000000             000000000             0001    00000000201207260832170000000000000000000y
0107253080837TFNYF0200006134592SNFTW     FITX   201208                    00000+06882000             000000000             000000000             0001    00000000201207260832170000000000000000000y
0107253080838TFNYF0200006134592BNFTW     FITX   201208                    00000+06887000             000000000             000000000             0001    00000000201207260832170000000000000000000y
0107253080839TFNYF0200006134592SNFTW     FITX   201208                    00000+06881000             000000000             000000000             0002    00000000201207260832170000000000000000000y
0107253080853TFNYF0200006134592BNFTW     FITX   201208                    00000+06791000             000000000             000000000             0001    00000000201207260832170000000000000000000y
0107253080854TFNYF0200006134592BNFTW     FITX   201208                    00000+06802000             000000000             000000000             0001    00000000201207260832170000000000000000000y
0107253080855TFNYF0200006134592SNFTW     FITX   201208                    00000+06882000             000000000             000000000             0001    00000000201207260832170000000000000000000y
0107253080856TFNYF0200006134592BNFTW     FITX   201208                    00000+06887000             000000000             000000000             0001    00000000201207260832180000000000000000000y
0107253080857TFNYF0200006134592SNFTW     FITX   201208                    00000+06881000             000000000             000000000             0002    00000000201207260832180000000000000000000y
0107253080858TFNYF0200006134592BNFTW     FITX   201208                    00000+06848000             000000000             000000000             0002    00000000201207260832180000000000000000000y
---
---
0107253080798TFNYF0200006134592SNFTW     FITX   201208                    00000+06882000             000000000             000000000             0001    00000000201207260832150000000000000000000y
0107253080799TFNYF0200006134592BNFTW     FITX   201208                    00000+06887000             000000000             000000000             0001    00000000201207260832160000000000000000000y
0107253080806TFNYF0200006134592SNFTW     FITX   201208                    00000+06881000             000000000             000000000             0002    00000000201207260832160000000000000000000y
0107253080808TFNYF0200006134592BNFTW     FITX   201208                    00000+06848000             000000000             000000000             0002    00000000201207260832160000000000000000000y
0107253080813TFNYF0200006134592BNFTW     FITX   201208                    00000+06791000             000000000             000000000             0001    00000000201207260832160000000000000000000y
0107253080814TFNYF0200006134592BNFTW     FITX   201208                    00000+06802000             000000000             000000000             0001    00000000201207260832160000000000000000000y
0107253080815TFNYF0200006134592SNFTW     FITX   201208                    00000+06882000             000000000             000000000             0001    00000000201207260832160000000000000000000y
0107253080816TFNYF0200006134592BNFTW     FITX   201208                    00000+06887000             000000000             000000000             0001    00000000201207260832160000000000000000000y
0107253080817TFNYF0200006134592SNFTW     FITX   201208                    00000+06881000             000000000             000000000             0002    00000000201207260832160000000000000000000y
0107253080818TFNYF0200006134592BNFTW     FITX   201208                    00000+06848000             000000000             000000000             0002    00000000201207260832160000000000000000000y
0107253080825TFNYF0200006134592BNFTW     FITX   201208                    00000+06791000             000000000             000000000             0001    00000000201207260832160000000000000000000y
0107253080826TFNYF0200006134592BNFTW     FITX   201208                    00000+06802000             000000000             000000000             0001    00000000201207260832160000000000000000000y
0107253080827TFNYF0200006134592SNFTW     FITX   201208                    00000+06882000             000000000             000000000             0001    00000000201207260832160000000000000000000y
0107253080828TFNYF0200006134592BNFTW     FITX   201208                    00000+06887000             000000000             000000000             0001    00000000201207260832160000000000000000000y
0107253080829TFNYF0200006134592SNFTW     FITX   201208                    00000+06881000             000000000             000000000             0002    00000000201207260832170000000000000000000y
0107253080793TFNYF0200006134592BNFTW     FITX   201208                    00000+06791000             000000000             000000000             0001    00000000201207260832170000000000000000000y
0107253080794TFNYF0200006134592BNFTW     FITX   201208                    00000+06802000             000000000             000000000             0001    00000000201207260832170000000000000000000y
0107253080831TFNYF0200006134592BNFTW     FITX   201208                    00000+06848000             000000000             000000000             0002    00000000201207260832170000000000000000000y
0107253080835TFNYF0200006134592BNFTW     FITX   201208                    00000+06791000             000000000             000000000             0001    00000000201207260832170000000000000000000y
0107253080836TFNYF0200006134592BNFTW     FITX   201208                    00000+06802000             000000000             000000000             0001    00000000201207260832170000000000000000000y
0107253080837TFNYF0200006134592SNFTW     FITX   201208                    00000+06882000             000000000             000000000             0001    00000000201207260832170000000000000000000y
0107253080838TFNYF0200006134592BNFTW     FITX   201208                    00000+06887000             000000000             000000000             0001    00000000201207260832170000000000000000000y
0107253080839TFNYF0200006134592SNFTW     FITX   201208                    00000+06881000             000000000             000000000             0002    00000000201207260832170000000000000000000y
0107253080853TFNYF0200006134592BNFTW     FITX   201208                    00000+06791000             000000000             000000000             0001    00000000201207260832170000000000000000000y
0107253080854TFNYF0200006134592BNFTW     FITX   201208                    00000+06802000             000000000             000000000             0001    00000000201207260832170000000000000000000y
0107253080855TFNYF0200006134592SNFTW     FITX   201208                    00000+06882000             000000000             000000000             0001    00000000201207260832170000000000000000000y
0107253080856TFNYF0200006134592BNFTW     FITX   201208                    00000+06887000             000000000             000000000             0001    00000000201207260832180000000000000000000y
0107253080857TFNYF0200006134592SNFTW     FITX   201208                    00000+06881000             000000000             000000000             0002    00000000201207260832180000000000000000000y
0107253080858TFNYF0200006134592BNFTW     FITX   201208                    00000+06848000             000000000             000000000             0002    00000000201207260832180000000000000000000y
---
---
0107253080798TFNYF0200006134592SNFTW     FITX   201208                    00000+06882000             000000000             000000000             0001    00000000201207260832150000000000000000000y
0107253080799TFNYF0200006134592BNFTW     FITX   201208                    00000+06887000             000000000             000000000             0001    00000000201207260832160000000000000000000y
0107253080806TFNYF0200006134592SNFTW     FITX   201208                    00000+06881000             000000000             000000000             0002    00000000201207260832160000000000000000000y
0107253080808TFNYF0200006134592BNFTW     FITX   201208                    00000+06848000             000000000             000000000             0002    00000000201207260832160000000000000000000y
0107253080813TFNYF0200006134592BNFTW     FITX   201208                    00000+06791000             000000000             000000000             0001    00000000201207260832160000000000000000000y
0107253080814TFNYF0200006134592BNFTW     FITX   201208                    00000+06802000             000000000             000000000             0001    00000000201207260832160000000000000000000y
0107253080815TFNYF0200006134592SNFTW     FITX   201208                    00000+06882000             000000000             000000000             0001    00000000201207260832160000000000000000000y
0107253080816TFNYF0200006134592BNFTW     FITX   201208                    00000+06887000             000000000             000000000             0001    00000000201207260832160000000000000000000y
0107253080817TFNYF0200006134592SNFTW     FITX   201208                    00000+06881000             000000000             000000000             0002    00000000201207260832160000000000000000000y
0107253080818TFNYF0200006134592BNFTW     FITX   201208                    00000+06848000             000000000             000000000             0002    00000000201207260832160000000000000000000y
0107253080825TFNYF0200006134592BNFTW     FITX   201208                    00000+06791000             000000000             000000000             0001    00000000201207260832160000000000000000000y
0107253080826TFNYF0200006134592BNFTW     FITX   201208                    00000+06802000             000000000             000000000             0001    00000000201207260832160000000000000000000y
0107253080827TFNYF0200006134592SNFTW     FITX   201208                    00000+06882000             000000000             000000000             0001    00000000201207260832160000000000000000000y
0107253080828TFNYF0200006134592BNFTW     FITX   201208                    00000+06887000             000000000             000000000             0001    00000000201207260832160000000000000000000y
0107253080829TFNYF0200006134592SNFTW     FITX   201208                    00000+06881000             000000000             000000000             0002    00000000201207260832170000000000000000000y
0107253080793TFNYF0200006134592BNFTW     FITX   201208                    00000+06791000             000000000             000000000             0001    00000000201207260832170000000000000000000y
0107253080794TFNYF0200006134592BNFTW     FITX   201208                    00000+06802000             000000000             000000000             0001    00000000201207260832170000000000000000000y
0107253080831TFNYF0200006134592BNFTW     FITX   201208                    00000+06848000             000000000             000000000             0002    00000000201207260832170000000000000000000y
0107253080835TFNYF0200006134592BNFTW     FITX   201208                    00000+06791000             000000000             000000000             0001    00000000201207260832170000000000000000000y
0107253080836TFNYF0200006134592BNFTW     FITX   201208                    00000+06802000             000000000             000000000             0001    00000000201207260832170000000000000000000y
0107253080837TFNYF0200006134592SNFTW     FITX   201208                    00000+06882000             000000000             000000000             0001    00000000201207260832170000000000000000000y
0107253080838TFNYF0200006134592BNFTW     FITX   201208                    00000+06887000             000000000             000000000             0001    00000000201207260832170000000000000000000y
0107253080839TFNYF0200006134592SNFTW     FITX   201208                    00000+06881000             000000000             000000000             0002    00000000201207260832170000000000000000000y
0107253080853TFNYF0200006134592BNFTW     FITX   201208                    00000+06791000             000000000             000000000             0001    00000000201207260832170000000000000000000y
0107253080854TFNYF0200006134592BNFTW     FITX   201208                    00000+06802000             000000000             000000000             0001    00000000201207260832170000000000000000000y
0107253080855TFNYF0200006134592SNFTW     FITX   201208                    00000+06882000             000000000             000000000             0001    00000000201207260832170000000000000000000y
0107253080856TFNYF0200006134592BNFTW     FITX   201208                    00000+06887000             000000000             000000000             0001    00000000201207260832180000000000000000000y
0107253080857TFNYF0200006134592SNFTW     FITX   201208                    00000+06881000             000000000             000000000             0002    00000000201207260832180000000000000000000y
0107253080858TFNYF0200006134592BNFTW     FITX   201208                    00000+06848000             000000000             000000000             0002    00000000201207260832180000000000000000000y
---
---
0107253080798TFNYF0200006134592SNFTW     FITX   201208                    00000+06882000             000000000             000000000             0001    00000000201207260832150000000000000000000y
0107253080799TFNYF0200006134592BNFTW     FITX   201208                    00000+06887000             000000000             000000000             0001    00000000201207260832160000000000000000000y
0107253080806TFNYF0200006134592SNFTW     FITX   201208                    00000+06881000             000000000             000000000             0002    00000000201207260832160000000000000000000y
0107253080808TFNYF0200006134592BNFTW     FITX   201208                    00000+06848000             000000000             000000000             0002    00000000201207260832160000000000000000000y
0107253080813TFNYF0200006134592BNFTW     FITX   201208                    00000+06791000             000000000             000000000             0001    00000000201207260832160000000000000000000y
0107253080814TFNYF0200006134592BNFTW     FITX   201208                    00000+06802000             000000000             000000000             0001    00000000201207260832160000000000000000000y
0107253080815TFNYF0200006134592SNFTW     FITX   201208                    00000+06882000             000000000             000000000             0001    00000000201207260832160000000000000000000y
0107253080816TFNYF0200006134592BNFTW     FITX   201208                    00000+06887000             000000000             000000000             0001    00000000201207260832160000000000000000000y
0107253080817TFNYF0200006134592SNFTW     FITX   201208                    00000+06881000             000000000             000000000             0002    00000000201207260832160000000000000000000y
0107253080818TFNYF0200006134592BNFTW     FITX   201208                    00000+06848000             000000000             000000000             0002    00000000201207260832160000000000000000000y
0107253080825TFNYF0200006134592BNFTW     FITX   201208                    00000+06791000             000000000             000000000             0001    00000000201207260832160000000000000000000y
0107253080826TFNYF0200006134592BNFTW     FITX   201208                    00000+06802000             000000000             000000000             0001    00000000201207260832160000000000000000000y
0107253080827TFNYF0200006134592SNFTW     FITX   201208                    00000+06882000             000000000             000000000             0001    00000000201207260832160000000000000000000y
0107253080828TFNYF0200006134592BNFTW     FITX   201208                    00000+06887000             000000000             000000000             0001    00000000201207260832160000000000000000000y
0107253080829TFNYF0200006134592SNFTW     FITX   201208                    00000+06881000             000000000             000000000             0002    00000000201207260832170000000000000000000y
0107253080793TFNYF0200006134592BNFTW     FITX   201208                    00000+06791000             000000000             000000000             0001    00000000201207260832170000000000000000000y
0107253080794TFNYF0200006134592BNFTW     FITX   201208                    00000+06802000             000000000             000000000             0001    00000000201207260832170000000000000000000y
0107253080831TFNYF0200006134592BNFTW     FITX   201208                    00000+06848000             000000000             000000000             0002    00000000201207260832170000000000000000000y
0107253080835TFNYF0200006134592BNFTW     FITX   201208                    00000+06791000             000000000             000000000             0001    00000000201207260832170000000000000000000y
0107253080836TFNYF0200006134592BNFTW     FITX   201208                    00000+06802000             000000000             000000000             0001    00000000201207260832170000000000000000000y
0107253080837TFNYF0200006134592SNFTW     FITX   201208                    00000+06882000             000000000             000000000             0001    00000000201207260832170000000000000000000y
0107253080838TFNYF0200006134592BNFTW     FITX   201208                    00000+06887000             000000000             000000000             0001    00000000201207260832170000000000000000000y
0107253080839TFNYF0200006134592SNFTW     FITX   201208                    00000+06881000             000000000             000000000             0002    00000000201207260832170000000000000000000y
0107253080853TFNYF0200006134592BNFTW     FITX   201208                    00000+06791000             000000000             000000000             0001    00000000201207260832170000000000000000000y
0107253080854TFNYF0200006134592BNFTW     FITX   201208                    00000+06802000             000000000             000000000             0001    00000000201207260832170000000000000000000y
0107253080855TFNYF0200006134592SNFTW     FITX   201208                    00000+06882000             000000000             000000000             0001    00000000201207260832170000000000000000000y
0107253080856TFNYF0200006134592BNFTW     FITX   201208                    00000+06887000             000000000             000000000             0001    00000000201207260832180000000000000000000y
0107253080857TFNYF0200006134592SNFTW     FITX   201208                    00000+06881000             000000000             000000000             0002    00000000201207260832180000000000000000000y
0107253080858TFNYF0200006134592BNFTW     FITX   201208                    00000+06848000             000000000             000000000             0002    00000000201207260832180000000000000000000y
---
---
0107253080798TFNYF0200006134592SNFTW     FITX   201208                    00000+06882000             000000000             000000000             0001    00000000201207260832150000000000000000000y
0107253080799TFNYF0200006134592BNFTW     FITX   201208                    00000+06887000             000000000             000000000             0001    00000000201207260832160000000000000000000y
0107253080806TFNYF0200006134592SNFTW     FITX   201208                    00000+06881000             000000000             000000000             0002    00000000201207260832160000000000000000000y
0107253080808TFNYF0200006134592BNFTW     FITX   201208                    00000+06848000             000000000             000000000             0002    00000000201207260832160000000000000000000y
0107253080813TFNYF0200006134592BNFTW     FITX   201208                    00000+06791000             000000000             000000000             0001    00000000201207260832160000000000000000000y
0107253080814TFNYF0200006134592BNFTW     FITX   201208                    00000+06802000             000000000             000000000             0001    00000000201207260832160000000000000000000y
0107253080815TFNYF0200006134592SNFTW     FITX   201208                    00000+06882000             000000000             000000000             0001    00000000201207260832160000000000000000000y
0107253080816TFNYF0200006134592BNFTW     FITX   201208                    00000+06887000             000000000             000000000             0001    00000000201207260832160000000000000000000y
0107253080817TFNYF0200006134592SNFTW     FITX   201208                    00000+06881000             000000000             000000000             0002    00000000201207260832160000000000000000000y
0107253080818TFNYF0200006134592BNFTW     FITX   201208                    00000+06848000             000000000             000000000             0002    00000000201207260832160000000000000000000y
0107253080825TFNYF0200006134592BNFTW     FITX   201208                    00000+06791000             000000000             000000000             0001    00000000201207260832160000000000000000000y
0107253080826TFNYF0200006134592BNFTW     FITX   201208                    00000+06802000             000000000             000000000             0001    00000000201207260832160000000000000000000y
0107253080827TFNYF0200006134592SNFTW     FITX   201208                    00000+06882000             000000000             000000000             0001    00000000201207260832160000000000000000000y
0107253080828TFNYF0200006134592BNFTW     FITX   201208                    00000+06887000             000000000             000000000             0001    00000000201207260832160000000000000000000y
0107253080829TFNYF0200006134592SNFTW     FITX   201208                    00000+06881000             000000000             000000000             0002    00000000201207260832170000000000000000000y
0107253080793TFNYF0200006134592BNFTW     FITX   201208                    00000+06791000             000000000             000000000             0001    00000000201207260832170000000000000000000y
0107253080794TFNYF0200006134592BNFTW     FITX   201208                    00000+06802000             000000000             000000000             0001    00000000201207260832170000000000000000000y
0107253080831TFNYF0200006134592BNFTW     FITX   201208                    00000+06848000             000000000             000000000             0002    00000000201207260832170000000000000000000y
0107253080835TFNYF0200006134592BNFTW     FITX   201208                    00000+06791000             000000000             000000000             0001    00000000201207260832170000000000000000000y
0107253080836TFNYF0200006134592BNFTW     FITX   201208                    00000+06802000             000000000             000000000             0001    00000000201207260832170000000000000000000y
0107253080837TFNYF0200006134592SNFTW     FITX   201208                    00000+06882000             000000000             000000000             0001    00000000201207260832170000000000000000000y
0107253080838TFNYF0200006134592BNFTW     FITX   201208                    00000+06887000             000000000             000000000             0001    00000000201207260832170000000000000000000y
0107253080839TFNYF0200006134592SNFTW     FITX   201208                    00000+06881000             000000000             000000000             0002    00000000201207260832170000000000000000000y
0107253080853TFNYF0200006134592BNFTW     FITX   201208                    00000+06791000             000000000             000000000             0001    00000000201207260832170000000000000000000y
0107253080854TFNYF0200006134592BNFTW     FITX   201208                    00000+06802000             000000000             000000000             0001    00000000201207260832170000000000000000000y
0107253080855TFNYF0200006134592SNFTW     FITX   201208                    00000+06882000             000000000             000000000             0001    00000000201207260832170000000000000000000y
0107253080856TFNYF0200006134592BNFTW     FITX   201208                    00000+06887000             000000000             000000000             0001    00000000201207260832180000000000000000000y
0107253080857TFNYF0200006134592SNFTW     FITX   201208                    00000+06881000             000000000             000000000             0002    00000000201207260832180000000000000000000y
0107253080858TFNYF0200006134592BNFTW     FITX   201208                    00000+06848000             000000000             000000000             0002    00000000201207260832180000000000000000000y
