---
---
0106203091837TFNYF0200006134592BNFTW     FITX   201207                    00000+07293000             000000000             000000000             0001    00000000201206210832190000000000000000000y
0106203091838TFNYF0200006134592SNFTW     FITX   201207                    00000+07289000             000000000             000000000             0002    00000000201206210832190000000000000000000y
0106203091841TFNYF0200006134592BNFTW     FITX   201207                    00000+07316000             000000000             000000000             0002    00000000201206210832190000000000000000000y
0106203091843TFNYF0200006134592SNFTW     FITX   201207                    00000+07303000             000000000             000000000             0002    00000000201206210832190000000000000000000y
0106203091849TFNYF0200006134592BNFTW     FITX   201207                    00000+07301000             000000000             000000000             0002    00000000201206210832190000000000000000000y
0106203091851TFNYF0200006134592SNFTW     FITX   201207                    00000+07296000             000000000             000000000             0002    00000000201206210832190000000000000000000y
0106203091852TFNYF0200006134592BNFTW     FITX   201207                    00000+07292000             000000000             000000000             0002    00000000201206210832190000000000000000000y
0106203091853TFNYF0200006134592SNFTW     FITX   201207                    00000+07286000             000000000             000000000             0002    00000000201206210832190000000000000000000y
0106203091854TFNYF0200006134592BNFTW     FITX   201207                    00000+07290000             000000000             000000000             0002    00000000201206210832200000000000000000000y
0106203091855TFNYF0200006134592SNFTW     FITX   201207                    00000+07294000             000000000             000000000             0002    00000000201206210832200000000000000000000y
0106203091897TFNYF0200006134592BNFTW     FITX   201207                    00000+07301000             000000000             000000000             0002    00000000201206210832200000000000000000000y
0106203091898TFNYF0200006134592SNFTW     FITX   201207                    00000+07296000             000000000             000000000             0002    00000000201206210832200000000000000000000y
0106203091896TFNYF0200006134592SNFTW     FITX   201207                    00000+07303000             000000000             000000000             0002    00000000201206210832200000000000000000000y
0106203091899TFNYF0200006134592BNFTW     FITX   201207                    00000+07292000             000000000             000000000             0002    00000000201206210832210000000000000000000y
0106203091900TFNYF0200006134592SNFTW     FITX   201207                    00000+07286000             000000000             000000000             0002    00000000201206210832210000000000000000000y
0106203091901TFNYF0200006134592BNFTW     FITX   201207                    00000+07290000             000000000             000000000             0002    00000000201206210832220000000000000000000y
0106203091902TFNYF0200006134592SNFTW     FITX   201207                    00000+07294000             000000000             000000000             0002    00000000201206210832220000000000000000000y
0106203091890TFNYF0200006134592BNFTW     FITX   201207                    00000+07298000             000000000             000000000             0001    00000000201206210832220000000000000000000y
0106203091891TFNYF0200006134592SNFTW     FITX   201207                    00000+07288000             000000000             000000000             0002    00000000201206210832220000000000000000000y
0106203091893TFNYF0200006134592BNFTW     FITX   201207                    00000+07293000             000000000             000000000             0001    00000000201206210832220000000000000000000y
0106203091894TFNYF0200006134592SNFTW     FITX   201207                    00000+07289000             000000000             000000000             0002    00000000201206210832220000000000000000000y
0106203091895TFNYF0200006134592BNFTW     FITX   201207                    00000+07316000             000000000             000000000             0002    00000000201206210832220000000000000000000y
---
---
0106203091837TFNYF0200006134592BNFTW     FITX   201207                    00000+07293000             000000000             000000000             0001    00000000201206210832190000000000000000000y
0106203091838TFNYF0200006134592SNFTW     FITX   201207                    00000+07289000             000000000             000000000             0002    00000000201206210832190000000000000000000y
0106203091841TFNYF0200006134592BNFTW     FITX   201207                    00000+07316000             000000000             000000000             0002    00000000201206210832190000000000000000000y
0106203091843TFNYF0200006134592SNFTW     FITX   201207                    00000+07303000             000000000             000000000             0002    00000000201206210832190000000000000000000y
0106203091849TFNYF0200006134592BNFTW     FITX   201207                    00000+07301000             000000000             000000000             0002    00000000201206210832190000000000000000000y
0106203091851TFNYF0200006134592SNFTW     FITX   201207                    00000+07296000             000000000             000000000             0002    00000000201206210832190000000000000000000y
0106203091852TFNYF0200006134592BNFTW     FITX   201207                    00000+07292000             000000000             000000000             0002    00000000201206210832190000000000000000000y
0106203091853TFNYF0200006134592SNFTW     FITX   201207                    00000+07286000             000000000             000000000             0002    00000000201206210832190000000000000000000y
0106203091854TFNYF0200006134592BNFTW     FITX   201207                    00000+07290000             000000000             000000000             0002    00000000201206210832200000000000000000000y
0106203091855TFNYF0200006134592SNFTW     FITX   201207                    00000+07294000             000000000             000000000             0002    00000000201206210832200000000000000000000y
0106203091897TFNYF0200006134592BNFTW     FITX   201207                    00000+07301000             000000000             000000000             0002    00000000201206210832200000000000000000000y
0106203091898TFNYF0200006134592SNFTW     FITX   201207                    00000+07296000             000000000             000000000             0002    00000000201206210832200000000000000000000y
0106203091896TFNYF0200006134592SNFTW     FITX   201207                    00000+07303000             000000000             000000000             0002    00000000201206210832200000000000000000000y
0106203091899TFNYF0200006134592BNFTW     FITX   201207                    00000+07292000             000000000             000000000             0002    00000000201206210832210000000000000000000y
0106203091900TFNYF0200006134592SNFTW     FITX   201207                    00000+07286000             000000000             000000000             0002    00000000201206210832210000000000000000000y
0106203091901TFNYF0200006134592BNFTW     FITX   201207                    00000+07290000             000000000             000000000             0002    00000000201206210832220000000000000000000y
0106203091902TFNYF0200006134592SNFTW     FITX   201207                    00000+07294000             000000000             000000000             0002    00000000201206210832220000000000000000000y
0106203091890TFNYF0200006134592BNFTW     FITX   201207                    00000+07298000             000000000             000000000             0001    00000000201206210832220000000000000000000y
0106203091891TFNYF0200006134592SNFTW     FITX   201207                    00000+07288000             000000000             000000000             0002    00000000201206210832220000000000000000000y
0106203091893TFNYF0200006134592BNFTW     FITX   201207                    00000+07293000             000000000             000000000             0001    00000000201206210832220000000000000000000y
0106203091894TFNYF0200006134592SNFTW     FITX   201207                    00000+07289000             000000000             000000000             0002    00000000201206210832220000000000000000000y
0106203091895TFNYF0200006134592BNFTW     FITX   201207                    00000+07316000             000000000             000000000             0002    00000000201206210832220000000000000000000y
---
---
0106203091837TFNYF0200006134592BNFTW     FITX   201207                    00000+07293000             000000000             000000000             0001    00000000201206210832190000000000000000000y
0106203091838TFNYF0200006134592SNFTW     FITX   201207                    00000+07289000             000000000             000000000             0002    00000000201206210832190000000000000000000y
0106203091841TFNYF0200006134592BNFTW     FITX   201207                    00000+07316000             000000000             000000000             0002    00000000201206210832190000000000000000000y
0106203091843TFNYF0200006134592SNFTW     FITX   201207                    00000+07303000             000000000             000000000             0002    00000000201206210832190000000000000000000y
0106203091849TFNYF0200006134592BNFTW     FITX   201207                    00000+07301000             000000000             000000000             0002    00000000201206210832190000000000000000000y
0106203091851TFNYF0200006134592SNFTW     FITX   201207                    00000+07296000             000000000             000000000             0002    00000000201206210832190000000000000000000y
0106203091852TFNYF0200006134592BNFTW     FITX   201207                    00000+07292000             000000000             000000000             0002    00000000201206210832190000000000000000000y
0106203091853TFNYF0200006134592SNFTW     FITX   201207                    00000+07286000             000000000             000000000             0002    00000000201206210832190000000000000000000y
0106203091854TFNYF0200006134592BNFTW     FITX   201207                    00000+07290000             000000000             000000000             0002    00000000201206210832200000000000000000000y
0106203091855TFNYF0200006134592SNFTW     FITX   201207                    00000+07294000             000000000             000000000             0002    00000000201206210832200000000000000000000y
0106203091897TFNYF0200006134592BNFTW     FITX   201207                    00000+07301000             000000000             000000000             0002    00000000201206210832200000000000000000000y
0106203091898TFNYF0200006134592SNFTW     FITX   201207                    00000+07296000             000000000             000000000             0002    00000000201206210832200000000000000000000y
0106203091896TFNYF0200006134592SNFTW     FITX   201207                    00000+07303000             000000000             000000000             0002    00000000201206210832200000000000000000000y
0106203091899TFNYF0200006134592BNFTW     FITX   201207                    00000+07292000             000000000             000000000             0002    00000000201206210832210000000000000000000y
0106203091900TFNYF0200006134592SNFTW     FITX   201207                    00000+07286000             000000000             000000000             0002    00000000201206210832210000000000000000000y
0106203091901TFNYF0200006134592BNFTW     FITX   201207                    00000+07290000             000000000             000000000             0002    00000000201206210832220000000000000000000y
0106203091902TFNYF0200006134592SNFTW     FITX   201207                    00000+07294000             000000000             000000000             0002    00000000201206210832220000000000000000000y
0106203091890TFNYF0200006134592BNFTW     FITX   201207                    00000+07298000             000000000             000000000             0001    00000000201206210832220000000000000000000y
0106203091891TFNYF0200006134592SNFTW     FITX   201207                    00000+07288000             000000000             000000000             0002    00000000201206210832220000000000000000000y
0106203091893TFNYF0200006134592BNFTW     FITX   201207                    00000+07293000             000000000             000000000             0001    00000000201206210832220000000000000000000y
0106203091894TFNYF0200006134592SNFTW     FITX   201207                    00000+07289000             000000000             000000000             0002    00000000201206210832220000000000000000000y
0106203091895TFNYF0200006134592BNFTW     FITX   201207                    00000+07316000             000000000             000000000             0002    00000000201206210832220000000000000000000y
---
---
0106203091837TFNYF0200006134592BNFTW     FITX   201207                    00000+07293000             000000000             000000000             0001    00000000201206210832190000000000000000000y
0106203091838TFNYF0200006134592SNFTW     FITX   201207                    00000+07289000             000000000             000000000             0002    00000000201206210832190000000000000000000y
0106203091841TFNYF0200006134592BNFTW     FITX   201207                    00000+07316000             000000000             000000000             0002    00000000201206210832190000000000000000000y
0106203091843TFNYF0200006134592SNFTW     FITX   201207                    00000+07303000             000000000             000000000             0002    00000000201206210832190000000000000000000y
0106203091849TFNYF0200006134592BNFTW     FITX   201207                    00000+07301000             000000000             000000000             0002    00000000201206210832190000000000000000000y
0106203091851TFNYF0200006134592SNFTW     FITX   201207                    00000+07296000             000000000             000000000             0002    00000000201206210832190000000000000000000y
0106203091852TFNYF0200006134592BNFTW     FITX   201207                    00000+07292000             000000000             000000000             0002    00000000201206210832190000000000000000000y
0106203091853TFNYF0200006134592SNFTW     FITX   201207                    00000+07286000             000000000             000000000             0002    00000000201206210832190000000000000000000y
0106203091854TFNYF0200006134592BNFTW     FITX   201207                    00000+07290000             000000000             000000000             0002    00000000201206210832200000000000000000000y
0106203091855TFNYF0200006134592SNFTW     FITX   201207                    00000+07294000             000000000             000000000             0002    00000000201206210832200000000000000000000y
0106203091897TFNYF0200006134592BNFTW     FITX   201207                    00000+07301000             000000000             000000000             0002    00000000201206210832200000000000000000000y
0106203091898TFNYF0200006134592SNFTW     FITX   201207                    00000+07296000             000000000             000000000             0002    00000000201206210832200000000000000000000y
0106203091896TFNYF0200006134592SNFTW     FITX   201207                    00000+07303000             000000000             000000000             0002    00000000201206210832200000000000000000000y
0106203091899TFNYF0200006134592BNFTW     FITX   201207                    00000+07292000             000000000             000000000             0002    00000000201206210832210000000000000000000y
0106203091900TFNYF0200006134592SNFTW     FITX   201207                    00000+07286000             000000000             000000000             0002    00000000201206210832210000000000000000000y
0106203091901TFNYF0200006134592BNFTW     FITX   201207                    00000+07290000             000000000             000000000             0002    00000000201206210832220000000000000000000y
0106203091902TFNYF0200006134592SNFTW     FITX   201207                    00000+07294000             000000000             000000000             0002    00000000201206210832220000000000000000000y
0106203091890TFNYF0200006134592BNFTW     FITX   201207                    00000+07298000             000000000             000000000             0001    00000000201206210832220000000000000000000y
0106203091891TFNYF0200006134592SNFTW     FITX   201207                    00000+07288000             000000000             000000000             0002    00000000201206210832220000000000000000000y
0106203091893TFNYF0200006134592BNFTW     FITX   201207                    00000+07293000             000000000             000000000             0001    00000000201206210832220000000000000000000y
0106203091894TFNYF0200006134592SNFTW     FITX   201207                    00000+07289000             000000000             000000000             0002    00000000201206210832220000000000000000000y
0106203091895TFNYF0200006134592BNFTW     FITX   201207                    00000+07316000             000000000             000000000             0002    00000000201206210832220000000000000000000y
---
---
0106203091837TFNYF0200006134592BNFTW     FITX   201207                    00000+07293000             000000000             000000000             0001    00000000201206210832190000000000000000000y
0106203091838TFNYF0200006134592SNFTW     FITX   201207                    00000+07289000             000000000             000000000             0002    00000000201206210832190000000000000000000y
0106203091841TFNYF0200006134592BNFTW     FITX   201207                    00000+07316000             000000000             000000000             0002    00000000201206210832190000000000000000000y
0106203091843TFNYF0200006134592SNFTW     FITX   201207                    00000+07303000             000000000             000000000             0002    00000000201206210832190000000000000000000y
0106203091849TFNYF0200006134592BNFTW     FITX   201207                    00000+07301000             000000000             000000000             0002    00000000201206210832190000000000000000000y
0106203091851TFNYF0200006134592SNFTW     FITX   201207                    00000+07296000             000000000             000000000             0002    00000000201206210832190000000000000000000y
0106203091852TFNYF0200006134592BNFTW     FITX   201207                    00000+07292000             000000000             000000000             0002    00000000201206210832190000000000000000000y
0106203091853TFNYF0200006134592SNFTW     FITX   201207                    00000+07286000             000000000             000000000             0002    00000000201206210832190000000000000000000y
0106203091854TFNYF0200006134592BNFTW     FITX   201207                    00000+07290000             000000000             000000000             0002    00000000201206210832200000000000000000000y
0106203091855TFNYF0200006134592SNFTW     FITX   201207                    00000+07294000             000000000             000000000             0002    00000000201206210832200000000000000000000y
0106203091897TFNYF0200006134592BNFTW     FITX   201207                    00000+07301000             000000000             000000000             0002    00000000201206210832200000000000000000000y
0106203091898TFNYF0200006134592SNFTW     FITX   201207                    00000+07296000             000000000             000000000             0002    00000000201206210832200000000000000000000y
0106203091896TFNYF0200006134592SNFTW     FITX   201207                    00000+07303000             000000000             000000000             0002    00000000201206210832200000000000000000000y
0106203091899TFNYF0200006134592BNFTW     FITX   201207                    00000+07292000             000000000             000000000             0002    00000000201206210832210000000000000000000y
0106203091900TFNYF0200006134592SNFTW     FITX   201207                    00000+07286000             000000000             000000000             0002    00000000201206210832210000000000000000000y
0106203091901TFNYF0200006134592BNFTW     FITX   201207                    00000+07290000             000000000             000000000             0002    00000000201206210832220000000000000000000y
0106203091902TFNYF0200006134592SNFTW     FITX   201207                    00000+07294000             000000000             000000000             0002    00000000201206210832220000000000000000000y
0106203091890TFNYF0200006134592BNFTW     FITX   201207                    00000+07298000             000000000             000000000             0001    00000000201206210832220000000000000000000y
0106203091891TFNYF0200006134592SNFTW     FITX   201207                    00000+07288000             000000000             000000000             0002    00000000201206210832220000000000000000000y
0106203091893TFNYF0200006134592BNFTW     FITX   201207                    00000+07293000             000000000             000000000             0001    00000000201206210832220000000000000000000y
0106203091894TFNYF0200006134592SNFTW     FITX   201207                    00000+07289000             000000000             000000000             0002    00000000201206210832220000000000000000000y
0106203091895TFNYF0200006134592BNFTW     FITX   201207                    00000+07316000             000000000             000000000             0002    00000000201206210832220000000000000000000y
---
---
0106203091837TFNYF0200006134592BNFTW     FITX   201207                    00000+07293000             000000000             000000000             0001    00000000201206210832190000000000000000000y
0106203091838TFNYF0200006134592SNFTW     FITX   201207                    00000+07289000             000000000             000000000             0002    00000000201206210832190000000000000000000y
0106203091841TFNYF0200006134592BNFTW     FITX   201207                    00000+07316000             000000000             000000000             0002    00000000201206210832190000000000000000000y
0106203091843TFNYF0200006134592SNFTW     FITX   201207                    00000+07303000             000000000             000000000             0002    00000000201206210832190000000000000000000y
0106203091849TFNYF0200006134592BNFTW     FITX   201207                    00000+07301000             000000000             000000000             0002    00000000201206210832190000000000000000000y
0106203091851TFNYF0200006134592SNFTW     FITX   201207                    00000+07296000             000000000             000000000             0002    00000000201206210832190000000000000000000y
0106203091852TFNYF0200006134592BNFTW     FITX   201207                    00000+07292000             000000000             000000000             0002    00000000201206210832190000000000000000000y
0106203091853TFNYF0200006134592SNFTW     FITX   201207                    00000+07286000             000000000             000000000             0002    00000000201206210832190000000000000000000y
0106203091854TFNYF0200006134592BNFTW     FITX   201207                    00000+07290000             000000000             000000000             0002    00000000201206210832200000000000000000000y
0106203091855TFNYF0200006134592SNFTW     FITX   201207                    00000+07294000             000000000             000000000             0002    00000000201206210832200000000000000000000y
0106203091897TFNYF0200006134592BNFTW     FITX   201207                    00000+07301000             000000000             000000000             0002    00000000201206210832200000000000000000000y
0106203091898TFNYF0200006134592SNFTW     FITX   201207                    00000+07296000             000000000             000000000             0002    00000000201206210832200000000000000000000y
0106203091896TFNYF0200006134592SNFTW     FITX   201207                    00000+07303000             000000000             000000000             0002    00000000201206210832200000000000000000000y
0106203091899TFNYF0200006134592BNFTW     FITX   201207                    00000+07292000             000000000             000000000             0002    00000000201206210832210000000000000000000y
0106203091900TFNYF0200006134592SNFTW     FITX   201207                    00000+07286000             000000000             000000000             0002    00000000201206210832210000000000000000000y
0106203091901TFNYF0200006134592BNFTW     FITX   201207                    00000+07290000             000000000             000000000             0002    00000000201206210832220000000000000000000y
0106203091902TFNYF0200006134592SNFTW     FITX   201207                    00000+07294000             000000000             000000000             0002    00000000201206210832220000000000000000000y
0106203091890TFNYF0200006134592BNFTW     FITX   201207                    00000+07298000             000000000             000000000             0001    00000000201206210832220000000000000000000y
0106203091891TFNYF0200006134592SNFTW     FITX   201207                    00000+07288000             000000000             000000000             0002    00000000201206210832220000000000000000000y
0106203091893TFNYF0200006134592BNFTW     FITX   201207                    00000+07293000             000000000             000000000             0001    00000000201206210832220000000000000000000y
0106203091894TFNYF0200006134592SNFTW     FITX   201207                    00000+07289000             000000000             000000000             0002    00000000201206210832220000000000000000000y
0106203091895TFNYF0200006134592BNFTW     FITX   201207                    00000+07316000             000000000             000000000             0002    00000000201206210832220000000000000000000y
---
---
0106203091837TFNYF0200006134592BNFTW     FITX   201207                    00000+07293000             000000000             000000000             0001    00000000201206210832190000000000000000000y
0106203091838TFNYF0200006134592SNFTW     FITX   201207                    00000+07289000             000000000             000000000             0002    00000000201206210832190000000000000000000y
0106203091841TFNYF0200006134592BNFTW     FITX   201207                    00000+07316000             000000000             000000000             0002    00000000201206210832190000000000000000000y
0106203091843TFNYF0200006134592SNFTW     FITX   201207                    00000+07303000             000000000             000000000             0002    00000000201206210832190000000000000000000y
0106203091849TFNYF0200006134592BNFTW     FITX   201207                    00000+07301000             000000000             000000000             0002    00000000201206210832190000000000000000000y
0106203091851TFNYF0200006134592SNFTW     FITX   201207                    00000+07296000             000000000             000000000             0002    00000000201206210832190000000000000000000y
0106203091852TFNYF0200006134592BNFTW     FITX   201207                    00000+07292000             000000000             000000000             0002    00000000201206210832190000000000000000000y
0106203091853TFNYF0200006134592SNFTW     FITX   201207                    00000+07286000             000000000             000000000             0002    00000000201206210832190000000000000000000y
0106203091854TFNYF0200006134592BNFTW     FITX   201207                    00000+07290000             000000000             000000000             0002    00000000201206210832200000000000000000000y
0106203091855TFNYF0200006134592SNFTW     FITX   201207                    00000+07294000             000000000             000000000             0002    00000000201206210832200000000000000000000y
0106203091897TFNYF0200006134592BNFTW     FITX   201207                    00000+07301000             000000000             000000000             0002    00000000201206210832200000000000000000000y
0106203091898TFNYF0200006134592SNFTW     FITX   201207                    00000+07296000             000000000             000000000             0002    00000000201206210832200000000000000000000y
0106203091896TFNYF0200006134592SNFTW     FITX   201207                    00000+07303000             000000000             000000000             0002    00000000201206210832200000000000000000000y
0106203091899TFNYF0200006134592BNFTW     FITX   201207                    00000+07292000             000000000             000000000             0002    00000000201206210832210000000000000000000y
0106203091900TFNYF0200006134592SNFTW     FITX   201207                    00000+07286000             000000000             000000000             0002    00000000201206210832210000000000000000000y
0106203091901TFNYF0200006134592BNFTW     FITX   201207                    00000+07290000             000000000             000000000             0002    00000000201206210832220000000000000000000y
0106203091902TFNYF0200006134592SNFTW     FITX   201207                    00000+07294000             000000000             000000000             0002    00000000201206210832220000000000000000000y
0106203091890TFNYF0200006134592BNFTW     FITX   201207                    00000+07298000             000000000             000000000             0001    00000000201206210832220000000000000000000y
0106203091891TFNYF0200006134592SNFTW     FITX   201207                    00000+07288000             000000000             000000000             0002    00000000201206210832220000000000000000000y
0106203091893TFNYF0200006134592BNFTW     FITX   201207                    00000+07293000             000000000             000000000             0001    00000000201206210832220000000000000000000y
0106203091894TFNYF0200006134592SNFTW     FITX   201207                    00000+07289000             000000000             000000000             0002    00000000201206210832220000000000000000000y
0106203091895TFNYF0200006134592BNFTW     FITX   201207                    00000+07316000             000000000             000000000             0002    00000000201206210832220000000000000000000y
---
---
0106203091837TFNYF0200006134592BNFTW     FITX   201207                    00000+07293000             000000000             000000000             0001    00000000201206210832190000000000000000000y
0106203091838TFNYF0200006134592SNFTW     FITX   201207                    00000+07289000             000000000             000000000             0002    00000000201206210832190000000000000000000y
0106203091841TFNYF0200006134592BNFTW     FITX   201207                    00000+07316000             000000000             000000000             0002    00000000201206210832190000000000000000000y
0106203091843TFNYF0200006134592SNFTW     FITX   201207                    00000+07303000             000000000             000000000             0002    00000000201206210832190000000000000000000y
0106203091849TFNYF0200006134592BNFTW     FITX   201207                    00000+07301000             000000000             000000000             0002    00000000201206210832190000000000000000000y
0106203091851TFNYF0200006134592SNFTW     FITX   201207                    00000+07296000             000000000             000000000             0002    00000000201206210832190000000000000000000y
0106203091852TFNYF0200006134592BNFTW     FITX   201207                    00000+07292000             000000000             000000000             0002    00000000201206210832190000000000000000000y
0106203091853TFNYF0200006134592SNFTW     FITX   201207                    00000+07286000             000000000             000000000             0002    00000000201206210832190000000000000000000y
0106203091854TFNYF0200006134592BNFTW     FITX   201207                    00000+07290000             000000000             000000000             0002    00000000201206210832200000000000000000000y
0106203091855TFNYF0200006134592SNFTW     FITX   201207                    00000+07294000             000000000             000000000             0002    00000000201206210832200000000000000000000y
0106203091897TFNYF0200006134592BNFTW     FITX   201207                    00000+07301000             000000000             000000000             0002    00000000201206210832200000000000000000000y
0106203091898TFNYF0200006134592SNFTW     FITX   201207                    00000+07296000             000000000             000000000             0002    00000000201206210832200000000000000000000y
0106203091896TFNYF0200006134592SNFTW     FITX   201207                    00000+07303000             000000000             000000000             0002    00000000201206210832200000000000000000000y
0106203091899TFNYF0200006134592BNFTW     FITX   201207                    00000+07292000             000000000             000000000             0002    00000000201206210832210000000000000000000y
0106203091900TFNYF0200006134592SNFTW     FITX   201207                    00000+07286000             000000000             000000000             0002    00000000201206210832210000000000000000000y
0106203091901TFNYF0200006134592BNFTW     FITX   201207                    00000+07290000             000000000             000000000             0002    00000000201206210832220000000000000000000y
0106203091902TFNYF0200006134592SNFTW     FITX   201207                    00000+07294000             000000000             000000000             0002    00000000201206210832220000000000000000000y
0106203091890TFNYF0200006134592BNFTW     FITX   201207                    00000+07298000             000000000             000000000             0001    00000000201206210832220000000000000000000y
0106203091891TFNYF0200006134592SNFTW     FITX   201207                    00000+07288000             000000000             000000000             0002    00000000201206210832220000000000000000000y
0106203091893TFNYF0200006134592BNFTW     FITX   201207                    00000+07293000             000000000             000000000             0001    00000000201206210832220000000000000000000y
0106203091894TFNYF0200006134592SNFTW     FITX   201207                    00000+07289000             000000000             000000000             0002    00000000201206210832220000000000000000000y
0106203091895TFNYF0200006134592BNFTW     FITX   201207                    00000+07316000             000000000             000000000             0002    00000000201206210832220000000000000000000y
---
---
0106203091837TFNYF0200006134592BNFTW     FITX   201207                    00000+07293000             000000000             000000000             0001    00000000201206210832190000000000000000000y
0106203091838TFNYF0200006134592SNFTW     FITX   201207                    00000+07289000             000000000             000000000             0002    00000000201206210832190000000000000000000y
0106203091841TFNYF0200006134592BNFTW     FITX   201207                    00000+07316000             000000000             000000000             0002    00000000201206210832190000000000000000000y
0106203091843TFNYF0200006134592SNFTW     FITX   201207                    00000+07303000             000000000             000000000             0002    00000000201206210832190000000000000000000y
0106203091849TFNYF0200006134592BNFTW     FITX   201207                    00000+07301000             000000000             000000000             0002    00000000201206210832190000000000000000000y
0106203091851TFNYF0200006134592SNFTW     FITX   201207                    00000+07296000             000000000             000000000             0002    00000000201206210832190000000000000000000y
0106203091852TFNYF0200006134592BNFTW     FITX   201207                    00000+07292000             000000000             000000000             0002    00000000201206210832190000000000000000000y
0106203091853TFNYF0200006134592SNFTW     FITX   201207                    00000+07286000             000000000             000000000             0002    00000000201206210832190000000000000000000y
0106203091854TFNYF0200006134592BNFTW     FITX   201207                    00000+07290000             000000000             000000000             0002    00000000201206210832200000000000000000000y
0106203091855TFNYF0200006134592SNFTW     FITX   201207                    00000+07294000             000000000             000000000             0002    00000000201206210832200000000000000000000y
0106203091897TFNYF0200006134592BNFTW     FITX   201207                    00000+07301000             000000000             000000000             0002    00000000201206210832200000000000000000000y
0106203091898TFNYF0200006134592SNFTW     FITX   201207                    00000+07296000             000000000             000000000             0002    00000000201206210832200000000000000000000y
0106203091896TFNYF0200006134592SNFTW     FITX   201207                    00000+07303000             000000000             000000000             0002    00000000201206210832200000000000000000000y
0106203091899TFNYF0200006134592BNFTW     FITX   201207                    00000+07292000             000000000             000000000             0002    00000000201206210832210000000000000000000y
0106203091900TFNYF0200006134592SNFTW     FITX   201207                    00000+07286000             000000000             000000000             0002    00000000201206210832210000000000000000000y
0106203091901TFNYF0200006134592BNFTW     FITX   201207                    00000+07290000             000000000             000000000             0002    00000000201206210832220000000000000000000y
0106203091902TFNYF0200006134592SNFTW     FITX   201207                    00000+07294000             000000000             000000000             0002    00000000201206210832220000000000000000000y
0106203091890TFNYF0200006134592BNFTW     FITX   201207                    00000+07298000             000000000             000000000             0001    00000000201206210832220000000000000000000y
0106203091891TFNYF0200006134592SNFTW     FITX   201207                    00000+07288000             000000000             000000000             0002    00000000201206210832220000000000000000000y
0106203091893TFNYF0200006134592BNFTW     FITX   201207                    00000+07293000             000000000             000000000             0001    00000000201206210832220000000000000000000y
0106203091894TFNYF0200006134592SNFTW     FITX   201207                    00000+07289000             000000000             000000000             0002    00000000201206210832220000000000000000000y
0106203091895TFNYF0200006134592BNFTW     FITX   201207                    00000+07316000             000000000             000000000             0002    00000000201206210832220000000000000000000y
---
---
0106203091837TFNYF0200006134592BNFTW     FITX   201207                    00000+07293000             000000000             000000000             0001    00000000201206210832190000000000000000000y
0106203091838TFNYF0200006134592SNFTW     FITX   201207                    00000+07289000             000000000             000000000             0002    00000000201206210832190000000000000000000y
0106203091841TFNYF0200006134592BNFTW     FITX   201207                    00000+07316000             000000000             000000000             0002    00000000201206210832190000000000000000000y
0106203091843TFNYF0200006134592SNFTW     FITX   201207                    00000+07303000             000000000             000000000             0002    00000000201206210832190000000000000000000y
0106203091849TFNYF0200006134592BNFTW     FITX   201207                    00000+07301000             000000000             000000000             0002    00000000201206210832190000000000000000000y
0106203091851TFNYF0200006134592SNFTW     FITX   201207                    00000+07296000             000000000             000000000             0002    00000000201206210832190000000000000000000y
0106203091852TFNYF0200006134592BNFTW     FITX   201207                    00000+07292000             000000000             000000000             0002    00000000201206210832190000000000000000000y
0106203091853TFNYF0200006134592SNFTW     FITX   201207                    00000+07286000             000000000             000000000             0002    00000000201206210832190000000000000000000y
0106203091854TFNYF0200006134592BNFTW     FITX   201207                    00000+07290000             000000000             000000000             0002    00000000201206210832200000000000000000000y
0106203091855TFNYF0200006134592SNFTW     FITX   201207                    00000+07294000             000000000             000000000             0002    00000000201206210832200000000000000000000y
0106203091897TFNYF0200006134592BNFTW     FITX   201207                    00000+07301000             000000000             000000000             0002    00000000201206210832200000000000000000000y
0106203091898TFNYF0200006134592SNFTW     FITX   201207                    00000+07296000             000000000             000000000             0002    00000000201206210832200000000000000000000y
0106203091896TFNYF0200006134592SNFTW     FITX   201207                    00000+07303000             000000000             000000000             0002    00000000201206210832200000000000000000000y
0106203091899TFNYF0200006134592BNFTW     FITX   201207                    00000+07292000             000000000             000000000             0002    00000000201206210832210000000000000000000y
0106203091900TFNYF0200006134592SNFTW     FITX   201207                    00000+07286000             000000000             000000000             0002    00000000201206210832210000000000000000000y
0106203091901TFNYF0200006134592BNFTW     FITX   201207                    00000+07290000             000000000             000000000             0002    00000000201206210832220000000000000000000y
0106203091902TFNYF0200006134592SNFTW     FITX   201207                    00000+07294000             000000000             000000000             0002    00000000201206210832220000000000000000000y
0106203091890TFNYF0200006134592BNFTW     FITX   201207                    00000+07298000             000000000             000000000             0001    00000000201206210832220000000000000000000y
0106203091891TFNYF0200006134592SNFTW     FITX   201207                    00000+07288000             000000000             000000000             0002    00000000201206210832220000000000000000000y
0106203091893TFNYF0200006134592BNFTW     FITX   201207                    00000+07293000             000000000             000000000             0001    00000000201206210832220000000000000000000y
0106203091894TFNYF0200006134592SNFTW     FITX   201207                    00000+07289000             000000000             000000000             0002    00000000201206210832220000000000000000000y
0106203091895TFNYF0200006134592BNFTW     FITX   201207                    00000+07316000             000000000             000000000             0002    00000000201206210832220000000000000000000y
---
---
0106203091837TFNYF0200006134592BNFTW     FITX   201207                    00000+07293000             000000000             000000000             0001    00000000201206210832190000000000000000000y
0106203091838TFNYF0200006134592SNFTW     FITX   201207                    00000+07289000             000000000             000000000             0002    00000000201206210832190000000000000000000y
0106203091841TFNYF0200006134592BNFTW     FITX   201207                    00000+07316000             000000000             000000000             0002    00000000201206210832190000000000000000000y
0106203091843TFNYF0200006134592SNFTW     FITX   201207                    00000+07303000             000000000             000000000             0002    00000000201206210832190000000000000000000y
0106203091849TFNYF0200006134592BNFTW     FITX   201207                    00000+07301000             000000000             000000000             0002    00000000201206210832190000000000000000000y
0106203091851TFNYF0200006134592SNFTW     FITX   201207                    00000+07296000             000000000             000000000             0002    00000000201206210832190000000000000000000y
0106203091852TFNYF0200006134592BNFTW     FITX   201207                    00000+07292000             000000000             000000000             0002    00000000201206210832190000000000000000000y
0106203091853TFNYF0200006134592SNFTW     FITX   201207                    00000+07286000             000000000             000000000             0002    00000000201206210832190000000000000000000y
0106203091854TFNYF0200006134592BNFTW     FITX   201207                    00000+07290000             000000000             000000000             0002    00000000201206210832200000000000000000000y
0106203091855TFNYF0200006134592SNFTW     FITX   201207                    00000+07294000             000000000             000000000             0002    00000000201206210832200000000000000000000y
0106203091897TFNYF0200006134592BNFTW     FITX   201207                    00000+07301000             000000000             000000000             0002    00000000201206210832200000000000000000000y
0106203091898TFNYF0200006134592SNFTW     FITX   201207                    00000+07296000             000000000             000000000             0002    00000000201206210832200000000000000000000y
0106203091896TFNYF0200006134592SNFTW     FITX   201207                    00000+07303000             000000000             000000000             0002    00000000201206210832200000000000000000000y
0106203091899TFNYF0200006134592BNFTW     FITX   201207                    00000+07292000             000000000             000000000             0002    00000000201206210832210000000000000000000y
0106203091900TFNYF0200006134592SNFTW     FITX   201207                    00000+07286000             000000000             000000000             0002    00000000201206210832210000000000000000000y
0106203091901TFNYF0200006134592BNFTW     FITX   201207                    00000+07290000             000000000             000000000             0002    00000000201206210832220000000000000000000y
0106203091902TFNYF0200006134592SNFTW     FITX   201207                    00000+07294000             000000000             000000000             0002    00000000201206210832220000000000000000000y
0106203091890TFNYF0200006134592BNFTW     FITX   201207                    00000+07298000             000000000             000000000             0001    00000000201206210832220000000000000000000y
0106203091891TFNYF0200006134592SNFTW     FITX   201207                    00000+07288000             000000000             000000000             0002    00000000201206210832220000000000000000000y
0106203091893TFNYF0200006134592BNFTW     FITX   201207                    00000+07293000             000000000             000000000             0001    00000000201206210832220000000000000000000y
0106203091894TFNYF0200006134592SNFTW     FITX   201207                    00000+07289000             000000000             000000000             0002    00000000201206210832220000000000000000000y
0106203091895TFNYF0200006134592BNFTW     FITX   201207                    00000+07316000             000000000             000000000             0002    00000000201206210832220000000000000000000y
---
---
0106203091837TFNYF0200006134592BNFTW     FITX   201207                    00000+07293000             000000000             000000000             0001    00000000201206210832190000000000000000000y
0106203091838TFNYF0200006134592SNFTW     FITX   201207                    00000+07289000             000000000             000000000             0002    00000000201206210832190000000000000000000y
0106203091841TFNYF0200006134592BNFTW     FITX   201207                    00000+07316000             000000000             000000000             0002    00000000201206210832190000000000000000000y
0106203091843TFNYF0200006134592SNFTW     FITX   201207                    00000+07303000             000000000             000000000             0002    00000000201206210832190000000000000000000y
0106203091849TFNYF0200006134592BNFTW     FITX   201207                    00000+07301000             000000000             000000000             0002    00000000201206210832190000000000000000000y
0106203091851TFNYF0200006134592SNFTW     FITX   201207                    00000+07296000             000000000             000000000             0002    00000000201206210832190000000000000000000y
0106203091852TFNYF0200006134592BNFTW     FITX   201207                    00000+07292000             000000000             000000000             0002    00000000201206210832190000000000000000000y
0106203091853TFNYF0200006134592SNFTW     FITX   201207                    00000+07286000             000000000             000000000             0002    00000000201206210832190000000000000000000y
0106203091854TFNYF0200006134592BNFTW     FITX   201207                    00000+07290000             000000000             000000000             0002    00000000201206210832200000000000000000000y
0106203091855TFNYF0200006134592SNFTW     FITX   201207                    00000+07294000             000000000             000000000             0002    00000000201206210832200000000000000000000y
0106203091897TFNYF0200006134592BNFTW     FITX   201207                    00000+07301000             000000000             000000000             0002    00000000201206210832200000000000000000000y
0106203091898TFNYF0200006134592SNFTW     FITX   201207                    00000+07296000             000000000             000000000             0002    00000000201206210832200000000000000000000y
0106203091896TFNYF0200006134592SNFTW     FITX   201207                    00000+07303000             000000000             000000000             0002    00000000201206210832200000000000000000000y
0106203091899TFNYF0200006134592BNFTW     FITX   201207                    00000+07292000             000000000             000000000             0002    00000000201206210832210000000000000000000y
0106203091900TFNYF0200006134592SNFTW     FITX   201207                    00000+07286000             000000000             000000000             0002    00000000201206210832210000000000000000000y
0106203091901TFNYF0200006134592BNFTW     FITX   201207                    00000+07290000             000000000             000000000             0002    00000000201206210832220000000000000000000y
0106203091902TFNYF0200006134592SNFTW     FITX   201207                    00000+07294000             000000000             000000000             0002    00000000201206210832220000000000000000000y
0106203091890TFNYF0200006134592BNFTW     FITX   201207                    00000+07298000             000000000             000000000             0001    00000000201206210832220000000000000000000y
0106203091891TFNYF0200006134592SNFTW     FITX   201207                    00000+07288000             000000000             000000000             0002    00000000201206210832220000000000000000000y
0106203091893TFNYF0200006134592BNFTW     FITX   201207                    00000+07293000             000000000             000000000             0001    00000000201206210832220000000000000000000y
0106203091894TFNYF0200006134592SNFTW     FITX   201207                    00000+07289000             000000000             000000000             0002    00000000201206210832220000000000000000000y
0106203091895TFNYF0200006134592BNFTW     FITX   201207                    00000+07316000             000000000             000000000             0002    00000000201206210832220000000000000000000y
---
---
0106203091837TFNYF0200006134592BNFTW     FITX   201207                    00000+07293000             000000000             000000000             0001    00000000201206210832190000000000000000000y
0106203091838TFNYF0200006134592SNFTW     FITX   201207                    00000+07289000             000000000             000000000             0002    00000000201206210832190000000000000000000y
0106203091841TFNYF0200006134592BNFTW     FITX   201207                    00000+07316000             000000000             000000000             0002    00000000201206210832190000000000000000000y
0106203091843TFNYF0200006134592SNFTW     FITX   201207                    00000+07303000             000000000             000000000             0002    00000000201206210832190000000000000000000y
0106203091849TFNYF0200006134592BNFTW     FITX   201207                    00000+07301000             000000000             000000000             0002    00000000201206210832190000000000000000000y
0106203091851TFNYF0200006134592SNFTW     FITX   201207                    00000+07296000             000000000             000000000             0002    00000000201206210832190000000000000000000y
0106203091852TFNYF0200006134592BNFTW     FITX   201207                    00000+07292000             000000000             000000000             0002    00000000201206210832190000000000000000000y
0106203091853TFNYF0200006134592SNFTW     FITX   201207                    00000+07286000             000000000             000000000             0002    00000000201206210832190000000000000000000y
0106203091854TFNYF0200006134592BNFTW     FITX   201207                    00000+07290000             000000000             000000000             0002    00000000201206210832200000000000000000000y
0106203091855TFNYF0200006134592SNFTW     FITX   201207                    00000+07294000             000000000             000000000             0002    00000000201206210832200000000000000000000y
0106203091897TFNYF0200006134592BNFTW     FITX   201207                    00000+07301000             000000000             000000000             0002    00000000201206210832200000000000000000000y
0106203091898TFNYF0200006134592SNFTW     FITX   201207                    00000+07296000             000000000             000000000             0002    00000000201206210832200000000000000000000y
0106203091896TFNYF0200006134592SNFTW     FITX   201207                    00000+07303000             000000000             000000000             0002    00000000201206210832200000000000000000000y
0106203091899TFNYF0200006134592BNFTW     FITX   201207                    00000+07292000             000000000             000000000             0002    00000000201206210832210000000000000000000y
0106203091900TFNYF0200006134592SNFTW     FITX   201207                    00000+07286000             000000000             000000000             0002    00000000201206210832210000000000000000000y
0106203091901TFNYF0200006134592BNFTW     FITX   201207                    00000+07290000             000000000             000000000             0002    00000000201206210832220000000000000000000y
0106203091902TFNYF0200006134592SNFTW     FITX   201207                    00000+07294000             000000000             000000000             0002    00000000201206210832220000000000000000000y
0106203091890TFNYF0200006134592BNFTW     FITX   201207                    00000+07298000             000000000             000000000             0001    00000000201206210832220000000000000000000y
0106203091891TFNYF0200006134592SNFTW     FITX   201207                    00000+07288000             000000000             000000000             0002    00000000201206210832220000000000000000000y
0106203091893TFNYF0200006134592BNFTW     FITX   201207                    00000+07293000             000000000             000000000             0001    00000000201206210832220000000000000000000y
0106203091894TFNYF0200006134592SNFTW     FITX   201207                    00000+07289000             000000000             000000000             0002    00000000201206210832220000000000000000000y
0106203091895TFNYF0200006134592BNFTW     FITX   201207                    00000+07316000             000000000             000000000             0002    00000000201206210832220000000000000000000y
---
---
0106203091837TFNYF0200006134592BNFTW     FITX   201207                    00000+07293000             000000000             000000000             0001    00000000201206210832190000000000000000000y
0106203091838TFNYF0200006134592SNFTW     FITX   201207                    00000+07289000             000000000             000000000             0002    00000000201206210832190000000000000000000y
0106203091841TFNYF0200006134592BNFTW     FITX   201207                    00000+07316000             000000000             000000000             0002    00000000201206210832190000000000000000000y
0106203091843TFNYF0200006134592SNFTW     FITX   201207                    00000+07303000             000000000             000000000             0002    00000000201206210832190000000000000000000y
0106203091849TFNYF0200006134592BNFTW     FITX   201207                    00000+07301000             000000000             000000000             0002    00000000201206210832190000000000000000000y
0106203091851TFNYF0200006134592SNFTW     FITX   201207                    00000+07296000             000000000             000000000             0002    00000000201206210832190000000000000000000y
0106203091852TFNYF0200006134592BNFTW     FITX   201207                    00000+07292000             000000000             000000000             0002    00000000201206210832190000000000000000000y
0106203091853TFNYF0200006134592SNFTW     FITX   201207                    00000+07286000             000000000             000000000             0002    00000000201206210832190000000000000000000y
0106203091854TFNYF0200006134592BNFTW     FITX   201207                    00000+07290000             000000000             000000000             0002    00000000201206210832200000000000000000000y
0106203091855TFNYF0200006134592SNFTW     FITX   201207                    00000+07294000             000000000             000000000             0002    00000000201206210832200000000000000000000y
0106203091897TFNYF0200006134592BNFTW     FITX   201207                    00000+07301000             000000000             000000000             0002    00000000201206210832200000000000000000000y
0106203091898TFNYF0200006134592SNFTW     FITX   201207                    00000+07296000             000000000             000000000             0002    00000000201206210832200000000000000000000y
0106203091896TFNYF0200006134592SNFTW     FITX   201207                    00000+07303000             000000000             000000000             0002    00000000201206210832200000000000000000000y
0106203091899TFNYF0200006134592BNFTW     FITX   201207                    00000+07292000             000000000             000000000             0002    00000000201206210832210000000000000000000y
0106203091900TFNYF0200006134592SNFTW     FITX   201207                    00000+07286000             000000000             000000000             0002    00000000201206210832210000000000000000000y
0106203091901TFNYF0200006134592BNFTW     FITX   201207                    00000+07290000             000000000             000000000             0002    00000000201206210832220000000000000000000y
0106203091902TFNYF0200006134592SNFTW     FITX   201207                    00000+07294000             000000000             000000000             0002    00000000201206210832220000000000000000000y
0106203091890TFNYF0200006134592BNFTW     FITX   201207                    00000+07298000             000000000             000000000             0001    00000000201206210832220000000000000000000y
0106203091891TFNYF0200006134592SNFTW     FITX   201207                    00000+07288000             000000000             000000000             0002    00000000201206210832220000000000000000000y
0106203091893TFNYF0200006134592BNFTW     FITX   201207                    00000+07293000             000000000             000000000             0001    00000000201206210832220000000000000000000y
0106203091894TFNYF0200006134592SNFTW     FITX   201207                    00000+07289000             000000000             000000000             0002    00000000201206210832220000000000000000000y
0106203091895TFNYF0200006134592BNFTW     FITX   201207                    00000+07316000             000000000             000000000             0002    00000000201206210832220000000000000000000y
---
---
0106203091837TFNYF0200006134592BNFTW     FITX   201207                    00000+07293000             000000000             000000000             0001    00000000201206210832190000000000000000000y
0106203091838TFNYF0200006134592SNFTW     FITX   201207                    00000+07289000             000000000             000000000             0002    00000000201206210832190000000000000000000y
0106203091841TFNYF0200006134592BNFTW     FITX   201207                    00000+07316000             000000000             000000000             0002    00000000201206210832190000000000000000000y
0106203091843TFNYF0200006134592SNFTW     FITX   201207                    00000+07303000             000000000             000000000             0002    00000000201206210832190000000000000000000y
0106203091849TFNYF0200006134592BNFTW     FITX   201207                    00000+07301000             000000000             000000000             0002    00000000201206210832190000000000000000000y
0106203091851TFNYF0200006134592SNFTW     FITX   201207                    00000+07296000             000000000             000000000             0002    00000000201206210832190000000000000000000y
0106203091852TFNYF0200006134592BNFTW     FITX   201207                    00000+07292000             000000000             000000000             0002    00000000201206210832190000000000000000000y
0106203091853TFNYF0200006134592SNFTW     FITX   201207                    00000+07286000             000000000             000000000             0002    00000000201206210832190000000000000000000y
0106203091854TFNYF0200006134592BNFTW     FITX   201207                    00000+07290000             000000000             000000000             0002    00000000201206210832200000000000000000000y
0106203091855TFNYF0200006134592SNFTW     FITX   201207                    00000+07294000             000000000             000000000             0002    00000000201206210832200000000000000000000y
0106203091897TFNYF0200006134592BNFTW     FITX   201207                    00000+07301000             000000000             000000000             0002    00000000201206210832200000000000000000000y
0106203091898TFNYF0200006134592SNFTW     FITX   201207                    00000+07296000             000000000             000000000             0002    00000000201206210832200000000000000000000y
0106203091896TFNYF0200006134592SNFTW     FITX   201207                    00000+07303000             000000000             000000000             0002    00000000201206210832200000000000000000000y
0106203091899TFNYF0200006134592BNFTW     FITX   201207                    00000+07292000             000000000             000000000             0002    00000000201206210832210000000000000000000y
0106203091900TFNYF0200006134592SNFTW     FITX   201207                    00000+07286000             000000000             000000000             0002    00000000201206210832210000000000000000000y
0106203091901TFNYF0200006134592BNFTW     FITX   201207                    00000+07290000             000000000             000000000             0002    00000000201206210832220000000000000000000y
0106203091902TFNYF0200006134592SNFTW     FITX   201207                    00000+07294000             000000000             000000000             0002    00000000201206210832220000000000000000000y
0106203091890TFNYF0200006134592BNFTW     FITX   201207                    00000+07298000             000000000             000000000             0001    00000000201206210832220000000000000000000y
0106203091891TFNYF0200006134592SNFTW     FITX   201207                    00000+07288000             000000000             000000000             0002    00000000201206210832220000000000000000000y
0106203091893TFNYF0200006134592BNFTW     FITX   201207                    00000+07293000             000000000             000000000             0001    00000000201206210832220000000000000000000y
0106203091894TFNYF0200006134592SNFTW     FITX   201207                    00000+07289000             000000000             000000000             0002    00000000201206210832220000000000000000000y
0106203091895TFNYF0200006134592BNFTW     FITX   201207                    00000+07316000             000000000             000000000             0002    00000000201206210832220000000000000000000y
---
---
0106203091837TFNYF0200006134592BNFTW     FITX   201207                    00000+07293000             000000000             000000000             0001    00000000201206210832190000000000000000000y
0106203091838TFNYF0200006134592SNFTW     FITX   201207                    00000+07289000             000000000             000000000             0002    00000000201206210832190000000000000000000y
0106203091841TFNYF0200006134592BNFTW     FITX   201207                    00000+07316000             000000000             000000000             0002    00000000201206210832190000000000000000000y
0106203091843TFNYF0200006134592SNFTW     FITX   201207                    00000+07303000             000000000             000000000             0002    00000000201206210832190000000000000000000y
0106203091849TFNYF0200006134592BNFTW     FITX   201207                    00000+07301000             000000000             000000000             0002    00000000201206210832190000000000000000000y
0106203091851TFNYF0200006134592SNFTW     FITX   201207                    00000+07296000             000000000             000000000             0002    00000000201206210832190000000000000000000y
0106203091852TFNYF0200006134592BNFTW     FITX   201207                    00000+07292000             000000000             000000000             0002    00000000201206210832190000000000000000000y
0106203091853TFNYF0200006134592SNFTW     FITX   201207                    00000+07286000             000000000             000000000             0002    00000000201206210832190000000000000000000y
0106203091854TFNYF0200006134592BNFTW     FITX   201207                    00000+07290000             000000000             000000000             0002    00000000201206210832200000000000000000000y
0106203091855TFNYF0200006134592SNFTW     FITX   201207                    00000+07294000             000000000             000000000             0002    00000000201206210832200000000000000000000y
0106203091897TFNYF0200006134592BNFTW     FITX   201207                    00000+07301000             000000000             000000000             0002    00000000201206210832200000000000000000000y
0106203091898TFNYF0200006134592SNFTW     FITX   201207                    00000+07296000             000000000             000000000             0002    00000000201206210832200000000000000000000y
0106203091896TFNYF0200006134592SNFTW     FITX   201207                    00000+07303000             000000000             000000000             0002    00000000201206210832200000000000000000000y
0106203091899TFNYF0200006134592BNFTW     FITX   201207                    00000+07292000             000000000             000000000             0002    00000000201206210832210000000000000000000y
0106203091900TFNYF0200006134592SNFTW     FITX   201207                    00000+07286000             000000000             000000000             0002    00000000201206210832210000000000000000000y
0106203091901TFNYF0200006134592BNFTW     FITX   201207                    00000+07290000             000000000             000000000             0002    00000000201206210832220000000000000000000y
0106203091902TFNYF0200006134592SNFTW     FITX   201207                    00000+07294000             000000000             000000000             0002    00000000201206210832220000000000000000000y
0106203091890TFNYF0200006134592BNFTW     FITX   201207                    00000+07298000             000000000             000000000             0001    00000000201206210832220000000000000000000y
0106203091891TFNYF0200006134592SNFTW     FITX   201207                    00000+07288000             000000000             000000000             0002    00000000201206210832220000000000000000000y
0106203091893TFNYF0200006134592BNFTW     FITX   201207                    00000+07293000             000000000             000000000             0001    00000000201206210832220000000000000000000y
0106203091894TFNYF0200006134592SNFTW     FITX   201207                    00000+07289000             000000000             000000000             0002    00000000201206210832220000000000000000000y
0106203091895TFNYF0200006134592BNFTW     FITX   201207                    00000+07316000             000000000             000000000             0002    00000000201206210832220000000000000000000y
---
---
0106203091837TFNYF0200006134592BNFTW     FITX   201207                    00000+07293000             000000000             000000000             0001    00000000201206210832190000000000000000000y
0106203091838TFNYF0200006134592SNFTW     FITX   201207                    00000+07289000             000000000             000000000             0002    00000000201206210832190000000000000000000y
0106203091841TFNYF0200006134592BNFTW     FITX   201207                    00000+07316000             000000000             000000000             0002    00000000201206210832190000000000000000000y
0106203091843TFNYF0200006134592SNFTW     FITX   201207                    00000+07303000             000000000             000000000             0002    00000000201206210832190000000000000000000y
0106203091849TFNYF0200006134592BNFTW     FITX   201207                    00000+07301000             000000000             000000000             0002    00000000201206210832190000000000000000000y
0106203091851TFNYF0200006134592SNFTW     FITX   201207                    00000+07296000             000000000             000000000             0002    00000000201206210832190000000000000000000y
0106203091852TFNYF0200006134592BNFTW     FITX   201207                    00000+07292000             000000000             000000000             0002    00000000201206210832190000000000000000000y
0106203091853TFNYF0200006134592SNFTW     FITX   201207                    00000+07286000             000000000             000000000             0002    00000000201206210832190000000000000000000y
0106203091854TFNYF0200006134592BNFTW     FITX   201207                    00000+07290000             000000000             000000000             0002    00000000201206210832200000000000000000000y
0106203091855TFNYF0200006134592SNFTW     FITX   201207                    00000+07294000             000000000             000000000             0002    00000000201206210832200000000000000000000y
0106203091897TFNYF0200006134592BNFTW     FITX   201207                    00000+07301000             000000000             000000000             0002    00000000201206210832200000000000000000000y
0106203091898TFNYF0200006134592SNFTW     FITX   201207                    00000+07296000             000000000             000000000             0002    00000000201206210832200000000000000000000y
0106203091896TFNYF0200006134592SNFTW     FITX   201207                    00000+07303000             000000000             000000000             0002    00000000201206210832200000000000000000000y
0106203091899TFNYF0200006134592BNFTW     FITX   201207                    00000+07292000             000000000             000000000             0002    00000000201206210832210000000000000000000y
0106203091900TFNYF0200006134592SNFTW     FITX   201207                    00000+07286000             000000000             000000000             0002    00000000201206210832210000000000000000000y
0106203091901TFNYF0200006134592BNFTW     FITX   201207                    00000+07290000             000000000             000000000             0002    00000000201206210832220000000000000000000y
0106203091902TFNYF0200006134592SNFTW     FITX   201207                    00000+07294000             000000000             000000000             0002    00000000201206210832220000000000000000000y
0106203091890TFNYF0200006134592BNFTW     FITX   201207                    00000+07298000             000000000             000000000             0001    00000000201206210832220000000000000000000y
0106203091891TFNYF0200006134592SNFTW     FITX   201207                    00000+07288000             000000000             000000000             0002    00000000201206210832220000000000000000000y
0106203091893TFNYF0200006134592BNFTW     FITX   201207                    00000+07293000             000000000             000000000             0001    00000000201206210832220000000000000000000y
0106203091894TFNYF0200006134592SNFTW     FITX   201207                    00000+07289000             000000000             000000000             0002    00000000201206210832220000000000000000000y
0106203091895TFNYF0200006134592BNFTW     FITX   201207                    00000+07316000             000000000             000000000             0002    00000000201206210832220000000000000000000y
---
---
0106203091837TFNYF0200006134592BNFTW     FITX   201207                    00000+07293000             000000000             000000000             0001    00000000201206210832190000000000000000000y
0106203091838TFNYF0200006134592SNFTW     FITX   201207                    00000+07289000             000000000             000000000             0002    00000000201206210832190000000000000000000y
0106203091841TFNYF0200006134592BNFTW     FITX   201207                    00000+07316000             000000000             000000000             0002    00000000201206210832190000000000000000000y
0106203091843TFNYF0200006134592SNFTW     FITX   201207                    00000+07303000             000000000             000000000             0002    00000000201206210832190000000000000000000y
0106203091849TFNYF0200006134592BNFTW     FITX   201207                    00000+07301000             000000000             000000000             0002    00000000201206210832190000000000000000000y
0106203091851TFNYF0200006134592SNFTW     FITX   201207                    00000+07296000             000000000             000000000             0002    00000000201206210832190000000000000000000y
0106203091852TFNYF0200006134592BNFTW     FITX   201207                    00000+07292000             000000000             000000000             0002    00000000201206210832190000000000000000000y
0106203091853TFNYF0200006134592SNFTW     FITX   201207                    00000+07286000             000000000             000000000             0002    00000000201206210832190000000000000000000y
0106203091854TFNYF0200006134592BNFTW     FITX   201207                    00000+07290000             000000000             000000000             0002    00000000201206210832200000000000000000000y
0106203091855TFNYF0200006134592SNFTW     FITX   201207                    00000+07294000             000000000             000000000             0002    00000000201206210832200000000000000000000y
0106203091897TFNYF0200006134592BNFTW     FITX   201207                    00000+07301000             000000000             000000000             0002    00000000201206210832200000000000000000000y
0106203091898TFNYF0200006134592SNFTW     FITX   201207                    00000+07296000             000000000             000000000             0002    00000000201206210832200000000000000000000y
0106203091896TFNYF0200006134592SNFTW     FITX   201207                    00000+07303000             000000000             000000000             0002    00000000201206210832200000000000000000000y
0106203091899TFNYF0200006134592BNFTW     FITX   201207                    00000+07292000             000000000             000000000             0002    00000000201206210832210000000000000000000y
0106203091900TFNYF0200006134592SNFTW     FITX   201207                    00000+07286000             000000000             000000000             0002    00000000201206210832210000000000000000000y
0106203091901TFNYF0200006134592BNFTW     FITX   201207                    00000+07290000             000000000             000000000             0002    00000000201206210832220000000000000000000y
0106203091902TFNYF0200006134592SNFTW     FITX   201207                    00000+07294000             000000000             000000000             0002    00000000201206210832220000000000000000000y
0106203091890TFNYF0200006134592BNFTW     FITX   201207                    00000+07298000             000000000             000000000             0001    00000000201206210832220000000000000000000y
0106203091891TFNYF0200006134592SNFTW     FITX   201207                    00000+07288000             000000000             000000000             0002    00000000201206210832220000000000000000000y
0106203091893TFNYF0200006134592BNFTW     FITX   201207                    00000+07293000             000000000             000000000             0001    00000000201206210832220000000000000000000y
0106203091894TFNYF0200006134592SNFTW     FITX   201207                    00000+07289000             000000000             000000000             0002    00000000201206210832220000000000000000000y
0106203091895TFNYF0200006134592BNFTW     FITX   201207                    00000+07316000             000000000             000000000             0002    00000000201206210832220000000000000000000y
---
---
0106203091837TFNYF0200006134592BNFTW     FITX   201207                    00000+07293000             000000000             000000000             0001    00000000201206210832190000000000000000000y
0106203091838TFNYF0200006134592SNFTW     FITX   201207                    00000+07289000             000000000             000000000             0002    00000000201206210832190000000000000000000y
0106203091841TFNYF0200006134592BNFTW     FITX   201207                    00000+07316000             000000000             000000000             0002    00000000201206210832190000000000000000000y
0106203091843TFNYF0200006134592SNFTW     FITX   201207                    00000+07303000             000000000             000000000             0002    00000000201206210832190000000000000000000y
0106203091849TFNYF0200006134592BNFTW     FITX   201207                    00000+07301000             000000000             000000000             0002    00000000201206210832190000000000000000000y
0106203091851TFNYF0200006134592SNFTW     FITX   201207                    00000+07296000             000000000             000000000             0002    00000000201206210832190000000000000000000y
0106203091852TFNYF0200006134592BNFTW     FITX   201207                    00000+07292000             000000000             000000000             0002    00000000201206210832190000000000000000000y
0106203091853TFNYF0200006134592SNFTW     FITX   201207                    00000+07286000             000000000             000000000             0002    00000000201206210832190000000000000000000y
0106203091854TFNYF0200006134592BNFTW     FITX   201207                    00000+07290000             000000000             000000000             0002    00000000201206210832200000000000000000000y
0106203091855TFNYF0200006134592SNFTW     FITX   201207                    00000+07294000             000000000             000000000             0002    00000000201206210832200000000000000000000y
0106203091897TFNYF0200006134592BNFTW     FITX   201207                    00000+07301000             000000000             000000000             0002    00000000201206210832200000000000000000000y
0106203091898TFNYF0200006134592SNFTW     FITX   201207                    00000+07296000             000000000             000000000             0002    00000000201206210832200000000000000000000y
0106203091896TFNYF0200006134592SNFTW     FITX   201207                    00000+07303000             000000000             000000000             0002    00000000201206210832200000000000000000000y
0106203091899TFNYF0200006134592BNFTW     FITX   201207                    00000+07292000             000000000             000000000             0002    00000000201206210832210000000000000000000y
0106203091900TFNYF0200006134592SNFTW     FITX   201207                    00000+07286000             000000000             000000000             0002    00000000201206210832210000000000000000000y
0106203091901TFNYF0200006134592BNFTW     FITX   201207                    00000+07290000             000000000             000000000             0002    00000000201206210832220000000000000000000y
0106203091902TFNYF0200006134592SNFTW     FITX   201207                    00000+07294000             000000000             000000000             0002    00000000201206210832220000000000000000000y
0106203091890TFNYF0200006134592BNFTW     FITX   201207                    00000+07298000             000000000             000000000             0001    00000000201206210832220000000000000000000y
0106203091891TFNYF0200006134592SNFTW     FITX   201207                    00000+07288000             000000000             000000000             0002    00000000201206210832220000000000000000000y
0106203091893TFNYF0200006134592BNFTW     FITX   201207                    00000+07293000             000000000             000000000             0001    00000000201206210832220000000000000000000y
0106203091894TFNYF0200006134592SNFTW     FITX   201207                    00000+07289000             000000000             000000000             0002    00000000201206210832220000000000000000000y
0106203091895TFNYF0200006134592BNFTW     FITX   201207                    00000+07316000             000000000             000000000             0002    00000000201206210832220000000000000000000y
---
---
0106203091837TFNYF0200006134592BNFTW     FITX   201207                    00000+07293000             000000000             000000000             0001    00000000201206210832190000000000000000000y
0106203091838TFNYF0200006134592SNFTW     FITX   201207                    00000+07289000             000000000             000000000             0002    00000000201206210832190000000000000000000y
0106203091841TFNYF0200006134592BNFTW     FITX   201207                    00000+07316000             000000000             000000000             0002    00000000201206210832190000000000000000000y
0106203091843TFNYF0200006134592SNFTW     FITX   201207                    00000+07303000             000000000             000000000             0002    00000000201206210832190000000000000000000y
0106203091849TFNYF0200006134592BNFTW     FITX   201207                    00000+07301000             000000000             000000000             0002    00000000201206210832190000000000000000000y
0106203091851TFNYF0200006134592SNFTW     FITX   201207                    00000+07296000             000000000             000000000             0002    00000000201206210832190000000000000000000y
0106203091852TFNYF0200006134592BNFTW     FITX   201207                    00000+07292000             000000000             000000000             0002    00000000201206210832190000000000000000000y
0106203091853TFNYF0200006134592SNFTW     FITX   201207                    00000+07286000             000000000             000000000             0002    00000000201206210832190000000000000000000y
0106203091854TFNYF0200006134592BNFTW     FITX   201207                    00000+07290000             000000000             000000000             0002    00000000201206210832200000000000000000000y
0106203091855TFNYF0200006134592SNFTW     FITX   201207                    00000+07294000             000000000             000000000             0002    00000000201206210832200000000000000000000y
0106203091897TFNYF0200006134592BNFTW     FITX   201207                    00000+07301000             000000000             000000000             0002    00000000201206210832200000000000000000000y
0106203091898TFNYF0200006134592SNFTW     FITX   201207                    00000+07296000             000000000             000000000             0002    00000000201206210832200000000000000000000y
0106203091896TFNYF0200006134592SNFTW     FITX   201207                    00000+07303000             000000000             000000000             0002    00000000201206210832200000000000000000000y
0106203091899TFNYF0200006134592BNFTW     FITX   201207                    00000+07292000             000000000             000000000             0002    00000000201206210832210000000000000000000y
0106203091900TFNYF0200006134592SNFTW     FITX   201207                    00000+07286000             000000000             000000000             0002    00000000201206210832210000000000000000000y
0106203091901TFNYF0200006134592BNFTW     FITX   201207                    00000+07290000             000000000             000000000             0002    00000000201206210832220000000000000000000y
0106203091902TFNYF0200006134592SNFTW     FITX   201207                    00000+07294000             000000000             000000000             0002    00000000201206210832220000000000000000000y
0106203091890TFNYF0200006134592BNFTW     FITX   201207                    00000+07298000             000000000             000000000             0001    00000000201206210832220000000000000000000y
0106203091891TFNYF0200006134592SNFTW     FITX   201207                    00000+07288000             000000000             000000000             0002    00000000201206210832220000000000000000000y
0106203091893TFNYF0200006134592BNFTW     FITX   201207                    00000+07293000             000000000             000000000             0001    00000000201206210832220000000000000000000y
0106203091894TFNYF0200006134592SNFTW     FITX   201207                    00000+07289000             000000000             000000000             0002    00000000201206210832220000000000000000000y
0106203091895TFNYF0200006134592BNFTW     FITX   201207                    00000+07316000             000000000             000000000             0002    00000000201206210832220000000000000000000y
---
---
0106203091837TFNYF0200006134592BNFTW     FITX   201207                    00000+07293000             000000000             000000000             0001    00000000201206210832190000000000000000000y
0106203091838TFNYF0200006134592SNFTW     FITX   201207                    00000+07289000             000000000             000000000             0002    00000000201206210832190000000000000000000y
0106203091841TFNYF0200006134592BNFTW     FITX   201207                    00000+07316000             000000000             000000000             0002    00000000201206210832190000000000000000000y
0106203091843TFNYF0200006134592SNFTW     FITX   201207                    00000+07303000             000000000             000000000             0002    00000000201206210832190000000000000000000y
0106203091849TFNYF0200006134592BNFTW     FITX   201207                    00000+07301000             000000000             000000000             0002    00000000201206210832190000000000000000000y
0106203091851TFNYF0200006134592SNFTW     FITX   201207                    00000+07296000             000000000             000000000             0002    00000000201206210832190000000000000000000y
0106203091852TFNYF0200006134592BNFTW     FITX   201207                    00000+07292000             000000000             000000000             0002    00000000201206210832190000000000000000000y
0106203091853TFNYF0200006134592SNFTW     FITX   201207                    00000+07286000             000000000             000000000             0002    00000000201206210832190000000000000000000y
0106203091854TFNYF0200006134592BNFTW     FITX   201207                    00000+07290000             000000000             000000000             0002    00000000201206210832200000000000000000000y
0106203091855TFNYF0200006134592SNFTW     FITX   201207                    00000+07294000             000000000             000000000             0002    00000000201206210832200000000000000000000y
0106203091897TFNYF0200006134592BNFTW     FITX   201207                    00000+07301000             000000000             000000000             0002    00000000201206210832200000000000000000000y
0106203091898TFNYF0200006134592SNFTW     FITX   201207                    00000+07296000             000000000             000000000             0002    00000000201206210832200000000000000000000y
0106203091896TFNYF0200006134592SNFTW     FITX   201207                    00000+07303000             000000000             000000000             0002    00000000201206210832200000000000000000000y
0106203091899TFNYF0200006134592BNFTW     FITX   201207                    00000+07292000             000000000             000000000             0002    00000000201206210832210000000000000000000y
0106203091900TFNYF0200006134592SNFTW     FITX   201207                    00000+07286000             000000000             000000000             0002    00000000201206210832210000000000000000000y
0106203091901TFNYF0200006134592BNFTW     FITX   201207                    00000+07290000             000000000             000000000             0002    00000000201206210832220000000000000000000y
0106203091902TFNYF0200006134592SNFTW     FITX   201207                    00000+07294000             000000000             000000000             0002    00000000201206210832220000000000000000000y
0106203091890TFNYF0200006134592BNFTW     FITX   201207                    00000+07298000             000000000             000000000             0001    00000000201206210832220000000000000000000y
0106203091891TFNYF0200006134592SNFTW     FITX   201207                    00000+07288000             000000000             000000000             0002    00000000201206210832220000000000000000000y
0106203091893TFNYF0200006134592BNFTW     FITX   201207                    00000+07293000             000000000             000000000             0001    00000000201206210832220000000000000000000y
0106203091894TFNYF0200006134592SNFTW     FITX   201207                    00000+07289000             000000000             000000000             0002    00000000201206210832220000000000000000000y
0106203091895TFNYF0200006134592BNFTW     FITX   201207                    00000+07316000             000000000             000000000             0002    00000000201206210832220000000000000000000y
---
---
0106203091837TFNYF0200006134592BNFTW     FITX   201207                    00000+07293000             000000000             000000000             0001    00000000201206210832190000000000000000000y
0106203091838TFNYF0200006134592SNFTW     FITX   201207                    00000+07289000             000000000             000000000             0002    00000000201206210832190000000000000000000y
0106203091841TFNYF0200006134592BNFTW     FITX   201207                    00000+07316000             000000000             000000000             0002    00000000201206210832190000000000000000000y
0106203091843TFNYF0200006134592SNFTW     FITX   201207                    00000+07303000             000000000             000000000             0002    00000000201206210832190000000000000000000y
0106203091849TFNYF0200006134592BNFTW     FITX   201207                    00000+07301000             000000000             000000000             0002    00000000201206210832190000000000000000000y
0106203091851TFNYF0200006134592SNFTW     FITX   201207                    00000+07296000             000000000             000000000             0002    00000000201206210832190000000000000000000y
0106203091852TFNYF0200006134592BNFTW     FITX   201207                    00000+07292000             000000000             000000000             0002    00000000201206210832190000000000000000000y
0106203091853TFNYF0200006134592SNFTW     FITX   201207                    00000+07286000             000000000             000000000             0002    00000000201206210832190000000000000000000y
0106203091854TFNYF0200006134592BNFTW     FITX   201207                    00000+07290000             000000000             000000000             0002    00000000201206210832200000000000000000000y
0106203091855TFNYF0200006134592SNFTW     FITX   201207                    00000+07294000             000000000             000000000             0002    00000000201206210832200000000000000000000y
0106203091897TFNYF0200006134592BNFTW     FITX   201207                    00000+07301000             000000000             000000000             0002    00000000201206210832200000000000000000000y
0106203091898TFNYF0200006134592SNFTW     FITX   201207                    00000+07296000             000000000             000000000             0002    00000000201206210832200000000000000000000y
0106203091896TFNYF0200006134592SNFTW     FITX   201207                    00000+07303000             000000000             000000000             0002    00000000201206210832200000000000000000000y
0106203091899TFNYF0200006134592BNFTW     FITX   201207                    00000+07292000             000000000             000000000             0002    00000000201206210832210000000000000000000y
0106203091900TFNYF0200006134592SNFTW     FITX   201207                    00000+07286000             000000000             000000000             0002    00000000201206210832210000000000000000000y
0106203091901TFNYF0200006134592BNFTW     FITX   201207                    00000+07290000             000000000             000000000             0002    00000000201206210832220000000000000000000y
0106203091902TFNYF0200006134592SNFTW     FITX   201207                    00000+07294000             000000000             000000000             0002    00000000201206210832220000000000000000000y
0106203091890TFNYF0200006134592BNFTW     FITX   201207                    00000+07298000             000000000             000000000             0001    00000000201206210832220000000000000000000y
0106203091891TFNYF0200006134592SNFTW     FITX   201207                    00000+07288000             000000000             000000000             0002    00000000201206210832220000000000000000000y
0106203091893TFNYF0200006134592BNFTW     FITX   201207                    00000+07293000             000000000             000000000             0001    00000000201206210832220000000000000000000y
0106203091894TFNYF0200006134592SNFTW     FITX   201207                    00000+07289000             000000000             000000000             0002    00000000201206210832220000000000000000000y
0106203091895TFNYF0200006134592BNFTW     FITX   201207                    00000+07316000             000000000             000000000             0002    00000000201206210832220000000000000000000y
---
---
0106203091837TFNYF0200006134592BNFTW     FITX   201207                    00000+07293000             000000000             000000000             0001    00000000201206210832190000000000000000000y
0106203091838TFNYF0200006134592SNFTW     FITX   201207                    00000+07289000             000000000             000000000             0002    00000000201206210832190000000000000000000y
0106203091841TFNYF0200006134592BNFTW     FITX   201207                    00000+07316000             000000000             000000000             0002    00000000201206210832190000000000000000000y
0106203091843TFNYF0200006134592SNFTW     FITX   201207                    00000+07303000             000000000             000000000             0002    00000000201206210832190000000000000000000y
0106203091849TFNYF0200006134592BNFTW     FITX   201207                    00000+07301000             000000000             000000000             0002    00000000201206210832190000000000000000000y
0106203091851TFNYF0200006134592SNFTW     FITX   201207                    00000+07296000             000000000             000000000             0002    00000000201206210832190000000000000000000y
0106203091852TFNYF0200006134592BNFTW     FITX   201207                    00000+07292000             000000000             000000000             0002    00000000201206210832190000000000000000000y
0106203091853TFNYF0200006134592SNFTW     FITX   201207                    00000+07286000             000000000             000000000             0002    00000000201206210832190000000000000000000y
0106203091854TFNYF0200006134592BNFTW     FITX   201207                    00000+07290000             000000000             000000000             0002    00000000201206210832200000000000000000000y
0106203091855TFNYF0200006134592SNFTW     FITX   201207                    00000+07294000             000000000             000000000             0002    00000000201206210832200000000000000000000y
0106203091897TFNYF0200006134592BNFTW     FITX   201207                    00000+07301000             000000000             000000000             0002    00000000201206210832200000000000000000000y
0106203091898TFNYF0200006134592SNFTW     FITX   201207                    00000+07296000             000000000             000000000             0002    00000000201206210832200000000000000000000y
0106203091896TFNYF0200006134592SNFTW     FITX   201207                    00000+07303000             000000000             000000000             0002    00000000201206210832200000000000000000000y
0106203091899TFNYF0200006134592BNFTW     FITX   201207                    00000+07292000             000000000             000000000             0002    00000000201206210832210000000000000000000y
0106203091900TFNYF0200006134592SNFTW     FITX   201207                    00000+07286000             000000000             000000000             0002    00000000201206210832210000000000000000000y
0106203091901TFNYF0200006134592BNFTW     FITX   201207                    00000+07290000             000000000             000000000             0002    00000000201206210832220000000000000000000y
0106203091902TFNYF0200006134592SNFTW     FITX   201207                    00000+07294000             000000000             000000000             0002    00000000201206210832220000000000000000000y
0106203091890TFNYF0200006134592BNFTW     FITX   201207                    00000+07298000             000000000             000000000             0001    00000000201206210832220000000000000000000y
0106203091891TFNYF0200006134592SNFTW     FITX   201207                    00000+07288000             000000000             000000000             0002    00000000201206210832220000000000000000000y
0106203091893TFNYF0200006134592BNFTW     FITX   201207                    00000+07293000             000000000             000000000             0001    00000000201206210832220000000000000000000y
0106203091894TFNYF0200006134592SNFTW     FITX   201207                    00000+07289000             000000000             000000000             0002    00000000201206210832220000000000000000000y
0106203091895TFNYF0200006134592BNFTW     FITX   201207                    00000+07316000             000000000             000000000             0002    00000000201206210832220000000000000000000y
---
---
0106203091837TFNYF0200006134592BNFTW     FITX   201207                    00000+07293000             000000000             000000000             0001    00000000201206210832190000000000000000000y
0106203091838TFNYF0200006134592SNFTW     FITX   201207                    00000+07289000             000000000             000000000             0002    00000000201206210832190000000000000000000y
0106203091841TFNYF0200006134592BNFTW     FITX   201207                    00000+07316000             000000000             000000000             0002    00000000201206210832190000000000000000000y
