---
---
0108053000215TFNYF0200006134592BNFTW     FITX   201208                    00000+07132000             000000000             000000000             0004    00000000201208060832200000000000000000000y
0108053000216TFNYF0200006134592SNFTW     FITX   201208                    00000+07141000             000000000             000000000             0004    00000000201208060832200000000000000000000y
0108053000185TFNYF0200006134592SNFTW     FITX   201208                    00000+07141000             000000000             000000000             0026    00000000201208060832210000000000000000000y
0108053000186TFNYF0200006134592SNFTW     FITX   201208                    00000+07141000             000000000             000000000             0026    00000000201208060832220000000000000000000y
0108053000187TFNYF0200006134592BNFTW     FITX   201208                    00000+07141000             000000000             000000000             0078    00000000201208060832220000000000000000000y
0108053000188TFNYF0200006134592SNFTW     FITX   201208                    00000+07141000             000000000             000000000             0004    00000000201208060832220000000000000000000y
0108053000189TFNYF0200006134592BNFTW     FITX   201208                    00000+07151000             000000000             000000000             0004    00000000201208060832220000000000000000000y
0108053000190TFNYF0200006134592SNFTW     FITX   201208                    00000+07144000             000000000             000000000             0004    00000000201208060832220000000000000000000y
0108053000191TFNYF0200006134592BNFTW     FITX   201208                    00000+07141000             000000000             000000000             0078    00000000201208060832230000000000000000000y
0108053000192TFNYF0200006134592SNFTW     FITX   201208                    00000+07141000             000000000             000000000             0004    00000000201208060832230000000000000000000y
0108053000193TFNYF0200006134592BNFTW     FITX   201208                    00000+07152000             000000000             000000000             0004    00000000201208060832230000000000000000000y
0108053000194TFNYF0200006134592SNFTW     FITX   201208                    00000+07143000             000000000             000000000             0004    00000000201208060832230000000000000000000y
0108053000195TFNYF0200006134592BNFTW     FITX   201208                    00000+07151000             000000000             000000000             0004    00000000201208060832230000000000000000000y
0108053000196TFNYF0200006134592BNFTW     FITX   201208                    00000+07151000             000000000             000000000             0004    00000000201208060832230000000000000000000y
0108053000197TFNYF0200006134592SNFTW     FITX   201208                    00000+07149000             000000000             000000000             0004    00000000201208060832230000000000000000000y
0108053000198TFNYF0200006134592SNFTW     FITX   201208                    00000+07144000             000000000             000000000             0004    00000000201208060832230000000000000000000y
0108053000199TFNYF0200006134592BNFTW     FITX   201208                    00000+07152000             000000000             000000000             0004    00000000201208060832230000000000000000000y
0108053000200TFNYF0200006134592SNFTW     FITX   201208                    00000+07143000             000000000             000000000             0004    00000000201208060832230000000000000000000y
0108053000201TFNYF0200006134592BNFTW     FITX   201208                    00000+07151000             000000000             000000000             0004    00000000201208060832240000000000000000000y
0108053000202TFNYF0200006134592SNFTW     FITX   201208                    00000+07149000             000000000             000000000             0004    00000000201208060832240000000000000000000y
0108053000203TFNYF0200006134592BNFTW     FITX   201208                    00000+07128000             000000000             000000000             0004    00000000201208060832240000000000000000000y
0108053000204TFNYF0200006134592SNFTW     FITX   201208                    00000+07135000             000000000             000000000             0004    00000000201208060832240000000000000000000y
0108053000205TFNYF0200006134592BNFTW     FITX   201208                    00000+07139000             000000000             000000000             0004    00000000201208060832240000000000000000000y
0108053000206TFNYF0200006134592SNFTW     FITX   201208                    00000+07130000             000000000             000000000             0004    00000000201208060832240000000000000000000y
0108053000207TFNYF0200006134592BNFTW     FITX   201208                    00000+07128000             000000000             000000000             0004    00000000201208060832240000000000000000000y
0108053000209TFNYF0200006134592BNFTW     FITX   201208                    00000+07132000             000000000             000000000             0004    00000000201208060832240000000000000000000y
0108053000211TFNYF0200006134592SNFTW     FITX   201208                    00000+07135000             000000000             000000000             0004    00000000201208060832250000000000000000000y
0108053000212TFNYF0200006134592BNFTW     FITX   201208                    00000+07139000             000000000             000000000             0004    00000000201208060832250000000000000000000y
0108053000213TFNYF0200006134592SNFTW     FITX   201208                    00000+07130000             000000000             000000000             0004    00000000201208060832250000000000000000000y
0108053000214TFNYF0200006134592SNFTW     FITX   201208                    00000+07141000             000000000             000000000             0004    00000000201208060832250000000000000000000y
0108063012070TFNYF0200006134592SNFTW     FITX   201208                    00000+07145000             000000000             000000000             0026    00000000201208060845030000000000000000012y
0108063012084TFNYF0200006134592BNFTW     FITX   201208                    00000+07151000             000000000             000000000             0002    00000000201208060845040000000000000000012y
0108063012104TFNYF0200006134592SNFTW     FITX   201208                    00000+07143000             000000000             000000000             0002    00000000201208060845060000000000000000012y
0108063012122TFNYF0200006134592BNFTW     FITX   201208                    00000+07152000             000000000             000000000             0002    00000000201208060845080000000000000000012y
0108063012128TFNYF0200006134592SNFTW     FITX   201208                    00000+07143000             000000000             000000000             0002    00000000201208060845090000000000000000012y
0108063012137TFNYF0200006134592BNFTW     FITX   201208                    00000+07151000             000000000             000000000             0002    00000000201208060845090000000000000000012y
0108063012152TFNYF0200006134592SNFTW     FITX   201208                    00000+07149000             000000000             000000000             0002    00000000201208060845100000000000000000012y
0108063012165TFNYF0200006134592BNFTW     FITX   201208                    00000+07153000             000000000             000000000             0002    00000000201208060845110000000000000000012y
0108063012177TFNYF0200006134592SNFTW     FITX   201208                    00000+07144000             000000000             000000000             0002    00000000201208060845120000000000000000012y
0108063012194TFNYF0200006134592BNFTW     FITX   201208                    00000+07128000             000000000             000000000             0002    00000000201208060845130000000000000000012y
---
---
---
---
---
0108053000215TFNYF0200006134592BNFTW     FITX   201208                    00000+07132000             000000000             000000000             0004    00000000201208060832200000000000000000000y
0108053000216TFNYF0200006134592SNFTW     FITX   201208                    00000+07141000             000000000             000000000             0004    00000000201208060832200000000000000000000y
0108053000185TFNYF0200006134592SNFTW     FITX   201208                    00000+07141000             000000000             000000000             0026    00000000201208060832210000000000000000000y
0108053000186TFNYF0200006134592SNFTW     FITX   201208                    00000+07141000             000000000             000000000             0026    00000000201208060832220000000000000000000y
0108053000187TFNYF0200006134592BNFTW     FITX   201208                    00000+07141000             000000000             000000000             0078    00000000201208060832220000000000000000000y
0108053000188TFNYF0200006134592SNFTW     FITX   201208                    00000+07141000             000000000             000000000             0004    00000000201208060832220000000000000000000y
0108053000189TFNYF0200006134592BNFTW     FITX   201208                    00000+07151000             000000000             000000000             0004    00000000201208060832220000000000000000000y
0108053000190TFNYF0200006134592SNFTW     FITX   201208                    00000+07144000             000000000             000000000             0004    00000000201208060832220000000000000000000y
0108053000191TFNYF0200006134592BNFTW     FITX   201208                    00000+07141000             000000000             000000000             0078    00000000201208060832230000000000000000000y
0108053000192TFNYF0200006134592SNFTW     FITX   201208                    00000+07141000             000000000             000000000             0004    00000000201208060832230000000000000000000y
0108053000193TFNYF0200006134592BNFTW     FITX   201208                    00000+07152000             000000000             000000000             0004    00000000201208060832230000000000000000000y
0108053000194TFNYF0200006134592SNFTW     FITX   201208                    00000+07143000             000000000             000000000             0004    00000000201208060832230000000000000000000y
0108053000195TFNYF0200006134592BNFTW     FITX   201208                    00000+07151000             000000000             000000000             0004    00000000201208060832230000000000000000000y
0108053000196TFNYF0200006134592BNFTW     FITX   201208                    00000+07151000             000000000             000000000             0004    00000000201208060832230000000000000000000y
0108053000197TFNYF0200006134592SNFTW     FITX   201208                    00000+07149000             000000000             000000000             0004    00000000201208060832230000000000000000000y
0108053000198TFNYF0200006134592SNFTW     FITX   201208                    00000+07144000             000000000             000000000             0004    00000000201208060832230000000000000000000y
0108053000199TFNYF0200006134592BNFTW     FITX   201208                    00000+07152000             000000000             000000000             0004    00000000201208060832230000000000000000000y
0108053000200TFNYF0200006134592SNFTW     FITX   201208                    00000+07143000             000000000             000000000             0004    00000000201208060832230000000000000000000y
0108053000201TFNYF0200006134592BNFTW     FITX   201208                    00000+07151000             000000000             000000000             0004    00000000201208060832240000000000000000000y
0108053000202TFNYF0200006134592SNFTW     FITX   201208                    00000+07149000             000000000             000000000             0004    00000000201208060832240000000000000000000y
0108053000203TFNYF0200006134592BNFTW     FITX   201208                    00000+07128000             000000000             000000000             0004    00000000201208060832240000000000000000000y
0108053000204TFNYF0200006134592SNFTW     FITX   201208                    00000+07135000             000000000             000000000             0004    00000000201208060832240000000000000000000y
0108053000205TFNYF0200006134592BNFTW     FITX   201208                    00000+07139000             000000000             000000000             0004    00000000201208060832240000000000000000000y
0108053000206TFNYF0200006134592SNFTW     FITX   201208                    00000+07130000             000000000             000000000             0004    00000000201208060832240000000000000000000y
0108053000207TFNYF0200006134592BNFTW     FITX   201208                    00000+07128000             000000000             000000000             0004    00000000201208060832240000000000000000000y
0108053000209TFNYF0200006134592BNFTW     FITX   201208                    00000+07132000             000000000             000000000             0004    00000000201208060832240000000000000000000y
0108053000211TFNYF0200006134592SNFTW     FITX   201208                    00000+07135000             000000000             000000000             0004    00000000201208060832250000000000000000000y
0108053000212TFNYF0200006134592BNFTW     FITX   201208                    00000+07139000             000000000             000000000             0004    00000000201208060832250000000000000000000y
0108053000213TFNYF0200006134592SNFTW     FITX   201208                    00000+07130000             000000000             000000000             0004    00000000201208060832250000000000000000000y
0108053000214TFNYF0200006134592SNFTW     FITX   201208                    00000+07141000             000000000             000000000             0004    00000000201208060832250000000000000000000y
0108063012070TFNYF0200006134592SNFTW     FITX   201208                    00000+07145000             000000000             000000000             0026    00000000201208060845030000000000000000012y
0108063012084TFNYF0200006134592BNFTW     FITX   201208                    00000+07151000             000000000             000000000             0002    00000000201208060845040000000000000000012y
0108063012104TFNYF0200006134592SNFTW     FITX   201208                    00000+07143000             000000000             000000000             0002    00000000201208060845060000000000000000012y
0108063012122TFNYF0200006134592BNFTW     FITX   201208                    00000+07152000             000000000             000000000             0002    00000000201208060845080000000000000000012y
0108063012128TFNYF0200006134592SNFTW     FITX   201208                    00000+07143000             000000000             000000000             0002    00000000201208060845090000000000000000012y
0108063012137TFNYF0200006134592BNFTW     FITX   201208                    00000+07151000             000000000             000000000             0002    00000000201208060845090000000000000000012y
0108063012152TFNYF0200006134592SNFTW     FITX   201208                    00000+07149000             000000000             000000000             0002    00000000201208060845100000000000000000012y
0108063012165TFNYF0200006134592BNFTW     FITX   201208                    00000+07153000             000000000             000000000             0002    00000000201208060845110000000000000000012y
0108063012177TFNYF0200006134592SNFTW     FITX   201208                    00000+07144000             000000000             000000000             0002    00000000201208060845120000000000000000012y
0108063012194TFNYF0200006134592BNFTW     FITX   201208                    00000+07128000             000000000             000000000             0002    00000000201208060845130000000000000000012y
0108063012225TFNYF0200006134592SNFTW     FITX   201208                    00000+07135000             000000000             000000000             0002    00000000201208060845160000000000000000012y
0108063012237TFNYF0200006134592BNFTW     FITX   201208                    00000+07138000             000000000             000000000             0002    00000000201208060845170000000000000000012y
0108063012249TFNYF0200006134592SNFTW     FITX   201208                    00000+07128000             000000000             000000000             0002    00000000201208060845170000000000000000012y
0108063012254TFNYF0200006134592BNFTW     FITX   201208                    00000+07138000             000000000             000000000             0002    00000000201208060845180000000000000000012y
0108063012264TFNYF0200006134592SNFTW     FITX   201208                    00000+07127000             000000000             000000000             0002    00000000201208060845190000000000000000012y
0108063012288TFNYF0200006134592BNFTW     FITX   201208                    00000+07136000             000000000             000000000             0002    00000000201208060845210000000000000000012y
0108063012313TFNYF0200006134592SNFTW     FITX   201208                    00000+07129000             000000000             000000000             0002    00000000201208060845220000000000000000012y
0108063012322TFNYF0200006134592BNFTW     FITX   201208                    00000+07138000             000000000             000000000             0002    00000000201208060845230000000000000000012y
0108063012330TFNYF0200006134592SNFTW     FITX   201208                    00000+07128000             000000000             000000000             0002    00000000201208060845240000000000000000012y
0108063012344TFNYF0200006134592BNFTW     FITX   201208                    00000+07133000             000000000             000000000             0002    00000000201208060845250000000000000000012y
0108063012356TFNYF0200006134592SNFTW     FITX   201208                    00000+07135000             000000000             000000000             0002    00000000201208060845260000000000000000012y
0108063012373TFNYF0200006134592BNFTW     FITX   201208                    00000+07138000             000000000             000000000             0002    00000000201208060845280000000000000000012y
0108063012383TFNYF0200006134592SNFTW     FITX   201208                    00000+07128000             000000000             000000000             0002    00000000201208060845290000000000000000012y
0108063012400TFNYF0200006134592BNFTW     FITX   201208                    00000+07144000             000000000             000000000             0002    00000000201208060845300000000000000000012y
0108063012472TFNYF0200006134592SNFTW     FITX   201208                    00000+07140000             000000000             000000000             0074    00000000201208060845370000000000000000012y
0108063012489TFNYF0200006134592BNFTW     FITX   201208                    00000+07151000             000000000             000000000             0002    00000000201208060845380000000000000000012y
0108063012498TFNYF0200006134592SNFTW     FITX   201208                    00000+07143000             000000000             000000000             0002    00000000201208060845390000000000000000012y
0108063012504TFNYF0200006134592BNFTW     FITX   201208                    00000+07152000             000000000             000000000             0002    00000000201208060845400000000000000000012y
0108063012514TFNYF0200006134592SNFTW     FITX   201208                    00000+07143000             000000000             000000000             0002    00000000201208060845400000000000000000012y
0108063012522TFNYF0200006134592BNFTW     FITX   201208                    00000+07151000             000000000             000000000             0002    00000000201208060845410000000000000000012y
0108063012539TFNYF0200006134592SNFTW     FITX   201208                    00000+07149000             000000000             000000000             0002    00000000201208060845420000000000000000012y
0108063012563TFNYF0200006134592BNFTW     FITX   201208                    00000+07153000             000000000             000000000             0002    00000000201208060845430000000000000000012y
0108063012576TFNYF0200006134592SNFTW     FITX   201208                    00000+07144000             000000000             000000000             0002    00000000201208060845440000000000000000012y
0108063012583TFNYF0200006134592BNFTW     FITX   201208                    00000+07128000             000000000             000000000             0002    00000000201208060845450000000000000000012y
0108063012600TFNYF0200006134592SNFTW     FITX   201208                    00000+07135000             000000000             000000000             0002    00000000201208060845460000000000000000012y
0108063012612TFNYF0200006134592BNFTW     FITX   201208                    00000+07138000             000000000             000000000             0002    00000000201208060845470000000000000000012y
0108063012622TFNYF0200006134592SNFTW     FITX   201208                    00000+07128000             000000000             000000000             0002    00000000201208060845470000000000000000012y
0108063012623TFNYF0200006134592BNFTW     FITX   201208                    00000+07138000             000000000             000000000             0002    00000000201208060845480000000000000000012y
0108063012632TFNYF0200006134592SNFTW     FITX   201208                    00000+07127000             000000000             000000000             0002    00000000201208060845490000000000000000012y
0108063012648TFNYF0200006134592BNFTW     FITX   201208                    00000+07136000             000000000             000000000             0002    00000000201208060845500000000000000000012y
0108063012660TFNYF0200006134592SNFTW     FITX   201208                    00000+07129000             000000000             000000000             0002    00000000201208060845510000000000000000012y
0108063012667TFNYF0200006134592BNFTW     FITX   201208                    00000+07138000             000000000             000000000             0002    00000000201208060845510000000000000000012y
0108063012676TFNYF0200006134592SNFTW     FITX   201208                    00000+07128000             000000000             000000000             0002    00000000201208060845520000000000000000012y
0108063012684TFNYF0200006134592BNFTW     FITX   201208                    00000+07133000             000000000             000000000             0002    00000000201208060845530000000000000000012y
0108063012695TFNYF0200006134592SNFTW     FITX   201208                    00000+07135000             000000000             000000000             0002    00000000201208060845540000000000000000012y
0108063012701TFNYF0200006134592BNFTW     FITX   201208                    00000+07138000             000000000             000000000             0002    00000000201208060845550000000000000000012y
---
---
0108053000215TFNYF0200006134592BNFTW     FITX   201208                    00000+07132000             000000000             000000000             0004    00000000201208060832200000000000000000000y
0108053000216TFNYF0200006134592SNFTW     FITX   201208                    00000+07141000             000000000             000000000             0004    00000000201208060832200000000000000000000y
0108053000185TFNYF0200006134592SNFTW     FITX   201208                    00000+07141000             000000000             000000000             0026    00000000201208060832210000000000000000000y
0108053000186TFNYF0200006134592SNFTW     FITX   201208                    00000+07141000             000000000             000000000             0026    00000000201208060832220000000000000000000y
0108053000187TFNYF0200006134592BNFTW     FITX   201208                    00000+07141000             000000000             000000000             0078    00000000201208060832220000000000000000000y
0108053000188TFNYF0200006134592SNFTW     FITX   201208                    00000+07141000             000000000             000000000             0004    00000000201208060832220000000000000000000y
0108053000189TFNYF0200006134592BNFTW     FITX   201208                    00000+07151000             000000000             000000000             0004    00000000201208060832220000000000000000000y
0108053000190TFNYF0200006134592SNFTW     FITX   201208                    00000+07144000             000000000             000000000             0004    00000000201208060832220000000000000000000y
0108053000191TFNYF0200006134592BNFTW     FITX   201208                    00000+07141000             000000000             000000000             0078    00000000201208060832230000000000000000000y
0108053000192TFNYF0200006134592SNFTW     FITX   201208                    00000+07141000             000000000             000000000             0004    00000000201208060832230000000000000000000y
0108053000193TFNYF0200006134592BNFTW     FITX   201208                    00000+07152000             000000000             000000000             0004    00000000201208060832230000000000000000000y
0108053000194TFNYF0200006134592SNFTW     FITX   201208                    00000+07143000             000000000             000000000             0004    00000000201208060832230000000000000000000y
0108053000195TFNYF0200006134592BNFTW     FITX   201208                    00000+07151000             000000000             000000000             0004    00000000201208060832230000000000000000000y
0108053000196TFNYF0200006134592BNFTW     FITX   201208                    00000+07151000             000000000             000000000             0004    00000000201208060832230000000000000000000y
0108053000197TFNYF0200006134592SNFTW     FITX   201208                    00000+07149000             000000000             000000000             0004    00000000201208060832230000000000000000000y
0108053000198TFNYF0200006134592SNFTW     FITX   201208                    00000+07144000             000000000             000000000             0004    00000000201208060832230000000000000000000y
0108053000199TFNYF0200006134592BNFTW     FITX   201208                    00000+07152000             000000000             000000000             0004    00000000201208060832230000000000000000000y
0108053000200TFNYF0200006134592SNFTW     FITX   201208                    00000+07143000             000000000             000000000             0004    00000000201208060832230000000000000000000y
0108053000201TFNYF0200006134592BNFTW     FITX   201208                    00000+07151000             000000000             000000000             0004    00000000201208060832240000000000000000000y
0108053000202TFNYF0200006134592SNFTW     FITX   201208                    00000+07149000             000000000             000000000             0004    00000000201208060832240000000000000000000y
0108053000203TFNYF0200006134592BNFTW     FITX   201208                    00000+07128000             000000000             000000000             0004    00000000201208060832240000000000000000000y
0108053000204TFNYF0200006134592SNFTW     FITX   201208                    00000+07135000             000000000             000000000             0004    00000000201208060832240000000000000000000y
0108053000205TFNYF0200006134592BNFTW     FITX   201208                    00000+07139000             000000000             000000000             0004    00000000201208060832240000000000000000000y
0108053000206TFNYF0200006134592SNFTW     FITX   201208                    00000+07130000             000000000             000000000             0004    00000000201208060832240000000000000000000y
0108053000207TFNYF0200006134592BNFTW     FITX   201208                    00000+07128000             000000000             000000000             0004    00000000201208060832240000000000000000000y
0108053000209TFNYF0200006134592BNFTW     FITX   201208                    00000+07132000             000000000             000000000             0004    00000000201208060832240000000000000000000y
0108053000211TFNYF0200006134592SNFTW     FITX   201208                    00000+07135000             000000000             000000000             0004    00000000201208060832250000000000000000000y
0108053000212TFNYF0200006134592BNFTW     FITX   201208                    00000+07139000             000000000             000000000             0004    00000000201208060832250000000000000000000y
0108053000213TFNYF0200006134592SNFTW     FITX   201208                    00000+07130000             000000000             000000000             0004    00000000201208060832250000000000000000000y
0108053000214TFNYF0200006134592SNFTW     FITX   201208                    00000+07141000             000000000             000000000             0004    00000000201208060832250000000000000000000y
0108063012070TFNYF0200006134592SNFTW     FITX   201208                    00000+07145000             000000000             000000000             0026    00000000201208060845030000000000000000012y
0108063012084TFNYF0200006134592BNFTW     FITX   201208                    00000+07151000             000000000             000000000             0002    00000000201208060845040000000000000000012y
0108063012104TFNYF0200006134592SNFTW     FITX   201208                    00000+07143000             000000000             000000000             0002    00000000201208060845060000000000000000012y
0108063012122TFNYF0200006134592BNFTW     FITX   201208                    00000+07152000             000000000             000000000             0002    00000000201208060845080000000000000000012y
0108063012128TFNYF0200006134592SNFTW     FITX   201208                    00000+07143000             000000000             000000000             0002    00000000201208060845090000000000000000012y
0108063012137TFNYF0200006134592BNFTW     FITX   201208                    00000+07151000             000000000             000000000             0002    00000000201208060845090000000000000000012y
0108063012152TFNYF0200006134592SNFTW     FITX   201208                    00000+07149000             000000000             000000000             0002    00000000201208060845100000000000000000012y
0108063012165TFNYF0200006134592BNFTW     FITX   201208                    00000+07153000             000000000             000000000             0002    00000000201208060845110000000000000000012y
0108063012177TFNYF0200006134592SNFTW     FITX   201208                    00000+07144000             000000000             000000000             0002    00000000201208060845120000000000000000012y
0108063012194TFNYF0200006134592BNFTW     FITX   201208                    00000+07128000             000000000             000000000             0002    00000000201208060845130000000000000000012y
0108063012225TFNYF0200006134592SNFTW     FITX   201208                    00000+07135000             000000000             000000000             0002    00000000201208060845160000000000000000012y
0108063012237TFNYF0200006134592BNFTW     FITX   201208                    00000+07138000             000000000             000000000             0002    00000000201208060845170000000000000000012y
0108063012249TFNYF0200006134592SNFTW     FITX   201208                    00000+07128000             000000000             000000000             0002    00000000201208060845170000000000000000012y
0108063012254TFNYF0200006134592BNFTW     FITX   201208                    00000+07138000             000000000             000000000             0002    00000000201208060845180000000000000000012y
0108063012264TFNYF0200006134592SNFTW     FITX   201208                    00000+07127000             000000000             000000000             0002    00000000201208060845190000000000000000012y
0108063012288TFNYF0200006134592BNFTW     FITX   201208                    00000+07136000             000000000             000000000             0002    00000000201208060845210000000000000000012y
0108063012313TFNYF0200006134592SNFTW     FITX   201208                    00000+07129000             000000000             000000000             0002    00000000201208060845220000000000000000012y
0108063012322TFNYF0200006134592BNFTW     FITX   201208                    00000+07138000             000000000             000000000             0002    00000000201208060845230000000000000000012y
0108063012330TFNYF0200006134592SNFTW     FITX   201208                    00000+07128000             000000000             000000000             0002    00000000201208060845240000000000000000012y
0108063012344TFNYF0200006134592BNFTW     FITX   201208                    00000+07133000             000000000             000000000             0002    00000000201208060845250000000000000000012y
0108063012356TFNYF0200006134592SNFTW     FITX   201208                    00000+07135000             000000000             000000000             0002    00000000201208060845260000000000000000012y
0108063012373TFNYF0200006134592BNFTW     FITX   201208                    00000+07138000             000000000             000000000             0002    00000000201208060845280000000000000000012y
0108063012383TFNYF0200006134592SNFTW     FITX   201208                    00000+07128000             000000000             000000000             0002    00000000201208060845290000000000000000012y
0108063012400TFNYF0200006134592BNFTW     FITX   201208                    00000+07144000             000000000             000000000             0002    00000000201208060845300000000000000000012y
0108063012472TFNYF0200006134592SNFTW     FITX   201208                    00000+07140000             000000000             000000000             0074    00000000201208060845370000000000000000012y
0108063012489TFNYF0200006134592BNFTW     FITX   201208                    00000+07151000             000000000             000000000             0002    00000000201208060845380000000000000000012y
0108063012498TFNYF0200006134592SNFTW     FITX   201208                    00000+07143000             000000000             000000000             0002    00000000201208060845390000000000000000012y
0108063012504TFNYF0200006134592BNFTW     FITX   201208                    00000+07152000             000000000             000000000             0002    00000000201208060845400000000000000000012y
0108063012514TFNYF0200006134592SNFTW     FITX   201208                    00000+07143000             000000000             000000000             0002    00000000201208060845400000000000000000012y
0108063012522TFNYF0200006134592BNFTW     FITX   201208                    00000+07151000             000000000             000000000             0002    00000000201208060845410000000000000000012y
0108063012539TFNYF0200006134592SNFTW     FITX   201208                    00000+07149000             000000000             000000000             0002    00000000201208060845420000000000000000012y
0108063012563TFNYF0200006134592BNFTW     FITX   201208                    00000+07153000             000000000             000000000             0002    00000000201208060845430000000000000000012y
0108063012576TFNYF0200006134592SNFTW     FITX   201208                    00000+07144000             000000000             000000000             0002    00000000201208060845440000000000000000012y
0108063012583TFNYF0200006134592BNFTW     FITX   201208                    00000+07128000             000000000             000000000             0002    00000000201208060845450000000000000000012y
0108063012600TFNYF0200006134592SNFTW     FITX   201208                    00000+07135000             000000000             000000000             0002    00000000201208060845460000000000000000012y
0108063012612TFNYF0200006134592BNFTW     FITX   201208                    00000+07138000             000000000             000000000             0002    00000000201208060845470000000000000000012y
0108063012622TFNYF0200006134592SNFTW     FITX   201208                    00000+07128000             000000000             000000000             0002    00000000201208060845470000000000000000012y
0108063012623TFNYF0200006134592BNFTW     FITX   201208                    00000+07138000             000000000             000000000             0002    00000000201208060845480000000000000000012y
0108063012632TFNYF0200006134592SNFTW     FITX   201208                    00000+07127000             000000000             000000000             0002    00000000201208060845490000000000000000012y
0108063012648TFNYF0200006134592BNFTW     FITX   201208                    00000+07136000             000000000             000000000             0002    00000000201208060845500000000000000000012y
0108063012660TFNYF0200006134592SNFTW     FITX   201208                    00000+07129000             000000000             000000000             0002    00000000201208060845510000000000000000012y
0108063012667TFNYF0200006134592BNFTW     FITX   201208                    00000+07138000             000000000             000000000             0002    00000000201208060845510000000000000000012y
0108063012676TFNYF0200006134592SNFTW     FITX   201208                    00000+07128000             000000000             000000000             0002    00000000201208060845520000000000000000012y
0108063012684TFNYF0200006134592BNFTW     FITX   201208                    00000+07133000             000000000             000000000             0002    00000000201208060845530000000000000000012y
0108063012695TFNYF0200006134592SNFTW     FITX   201208                    00000+07135000             000000000             000000000             0002    00000000201208060845540000000000000000012y
0108063012701TFNYF0200006134592BNFTW     FITX   201208                    00000+07138000             000000000             000000000             0002    00000000201208060845550000000000000000012y
---
---
0108053000210108053000215TFNYF0200006134592BNFTW     FITX   201208                    00000+07132000             000000000             000000000             0004    00000000201208060832200000000000000000000y
0108053000216TFNYF0200006134592SNFTW     FITX   201208                    00000+07141000             000000000             000000000             0004    00000000201208060832200000000000000000000y
0108053000185TFNYF0200006134592SNFTW     FITX   201208                    00000+07141000             000000000             000000000             0026    00000000201208060832210000000000000000000y
0108053000186TFNYF0200006134592SNFTW     FITX   201208                    00000+07141000             000000000             000000000             0026    00000000201208060832220000000000000000000y
0108053000187TFNYF0200006134592BNFTW     FITX   201208                    00000+07141000             000000000             000000000             0078    00000000201208060832220000000000000000000y
0108053000188TFNYF0200006134592SNFTW     FITX   201208                    00000+07141000             000000000             000000000             0004    00000000201208060832220000000000000000000y
0108053000189TFNYF0200006134592BNFTW     FITX   201208                    00000+07151000             000000000             000000000             0004    00000000201208060832220000000000000000000y
0108053000190TFNYF0200006134592SNFTW     FITX   201208                    00000+07144000             000000000             000000000             0004    00000000201208060832220000000000000000000y
0108053000191TFNYF0200006134592BNFTW     FITX   201208                    00000+07141000             000000000             000000000             0078    00000000201208060832230000000000000000000y
0108053000192TFNYF0200006134592SNFTW     FITX   201208                    00000+07141000             000000000             000000000             0004    00000000201208060832230000000000000000000y
0108053000193TFNYF0200006134592BNFTW     FITX   201208                    00000+07152000             000000000             000000000             0004    00000000201208060832230000000000000000000y
0108053000194TFNYF0200006134592SNFTW     FITX   201208                    00000+07143000             000000000             000000000             0004    00000000201208060832230000000000000000000y
0108053000195TFNYF0200006134592BNFTW     FITX   201208                    00000+07151000             000000000             000000000             0004    00000000201208060832230000000000000000000y
0108053000196TFNYF0200006134592BNFTW     FITX   201208                    00000+07151000             000000000             000000000             0004    00000000201208060832230000000000000000000y
0108053000197TFNYF0200006134592SNFTW     FITX   201208                    00000+07149000             000000000             000000000             0004    00000000201208060832230000000000000000000y
0108053000198TFNYF0200006134592SNFTW     FITX   201208                    00000+07144000             000000000             000000000             0004    00000000201208060832230000000000000000000y
0108053000199TFNYF0200006134592BNFTW     FITX   201208                    00000+07152000             000000000             000000000             0004    00000000201208060832230000000000000000000y
0108053000200TFNYF0200006134592SNFTW     FITX   201208                    00000+07143000             000000000             000000000             0004    00000000201208060832230000000000000000000y
0108053000201TFNYF0200006134592BNFTW     FITX   201208                    00000+07151000             000000000             000000000             0004    00000000201208060832240000000000000000000y
0108053000202TFNYF0200006134592SNFTW     FITX   201208                    00000+07149000             000000000             000000000             0004    00000000201208060832240000000000000000000y
0108053000203TFNYF0200006134592BNFTW     FITX   201208                    00000+07128000             000000000             000000000             0004    00000000201208060832240000000000000000000y
0108053000204TFNYF0200006134592SNFTW     FITX   201208                    00000+07135000             000000000             000000000             0004    00000000201208060832240000000000000000000y
0108053000205TFNYF0200006134592BNFTW     FITX   201208                    00000+07139000             000000000             000000000             0004    00000000201208060832240000000000000000000y
0108053000206TFNYF0200006134592SNFTW     FITX   201208                    00000+07130000             000000000             000000000             0004    00000000201208060832240000000000000000000y
0108053000207TFNYF0200006134592BNFTW     FITX   201208                    00000+07128000             000000000             000000000             0004    00000000201208060832240000000000000000000y
0108053000209TFNYF0200006134592BNFTW     FITX   201208                    00000+07132000             000000000             000000000             0004    00000000201208060832240000000000000000000y
0108053000211TFNYF0200006134592SNFTW     FITX   201208                    00000+07135000             000000000             000000000             0004    00000000201208060832250000000000000000000y
0108053000212TFNYF0200006134592BNFTW     FITX   201208                    00000+07139000             000000000             000000000             0004    00000000201208060832250000000000000000000y
0108053000213TFNYF0200006134592SNFTW     FITX   201208                    00000+07130000             000000000             000000000             0004    00000000201208060832250000000000000000000y
0108053000214TFNYF0200006134592SNFTW     FITX   201208                    00000+07141000             000000000             000000000             0004    00000000201208060832250000000000000000000y
0108063012070TFNYF0200006134592SNFTW     FITX   201208                    00000+07145000             000000000             000000000             0026    00000000201208060845030000000000000000012y
0108063012084TFNYF0200006134592BNFTW     FITX   201208                    00000+07151000             000000000             000000000             0002    00000000201208060845040000000000000000012y
0108063012104TFNYF0200006134592SNFTW     FITX   201208                    00000+07143000             000000000             000000000             0002    00000000201208060845060000000000000000012y
0108063012122TFNYF0200006134592BNFTW     FITX   201208                    00000+07152000             000000000             000000000             0002    00000000201208060845080000000000000000012y
0108063012128TFNYF0200006134592SNFTW     FITX   201208                    00000+07143000             000000000             000000000             0002    00000000201208060845090000000000000000012y
0108063012137TFNYF0200006134592BNFTW     FITX   201208                    00000+07151000             000000000             000000000             0002    00000000201208060845090000000000000000012y
0108063012152TFNYF0200006134592SNFTW     FITX   201208                    00000+07149000             000000000             000000000             0002    00000000201208060845100000000000000000012y
0108063012165TFNYF0200006134592BNFTW     FITX   201208                    00000+07153000             000000000             000000000             0002    00000000201208060845110000000000000000012y
0108063012177TFNYF0200006134592SNFTW     FITX   201208                    00000+07144000             000000000             000000000             0002    00000000201208060845120000000000000000012y
0108063012194TFNYF0200006134592BNFTW     FITX   201208                    00000+07128000             000000000             000000000             0002    00000000201208060845130000000000000000012y
0108063012225TFNYF0200006134592SNFTW     FITX   201208                    00000+07135000             000000000             000000000             0002    00000000201208060845160000000000000000012y
0108063012237TFNYF0200006134592BNFTW     FITX   201208                    00000+07138000             000000000             000000000             0002    00000000201208060845170000000000000000012y
0108063012249TFNYF0200006134592SNFTW     FITX   201208                    00000+07128000             000000000             000000000             0002    00000000201208060845170000000000000000012y
0108063012254TFNYF0200006134592BNFTW     FITX   201208                    00000+07138000             000000000             000000000             0002    00000000201208060845180000000000000000012y
0108063012264TFNYF0200006134592SNFTW     FITX   201208                    00000+07127000             000000000             000000000             0002    00000000201208060845190000000000000000012y
0108063012288TFNYF0200006134592BNFTW     FITX   201208                    00000+07136000             000000000             000000000             0002    00000000201208060845210000000000000000012y
0108063012313TFNYF0200006134592SNFTW     FITX   201208                    00000+07129000             000000000             000000000             0002    00000000201208060845220000000000000000012y
0108063012322TFNYF0200006134592BNFTW     FITX   201208                    00000+07138000             000000000             000000000             0002    00000000201208060845230000000000000000012y
0108063012330TFNYF0200006134592SNFTW     FITX   201208                    00000+07128000             000000000             000000000             0002    00000000201208060845240000000000000000012y
0108063012344TFNYF0200006134592BNFTW     FITX   201208                    00000+07133000             000000000             000000000             0002    00000000201208060845250000000000000000012y
0108063012356TFNYF0200006134592SNFTW     FITX   201208                    00000+07135000             000000000             000000000             0002    00000000201208060845260000000000000000012y
0108063012373TFNYF0200006134592BNFTW     FITX   201208                    00000+07138000             000000000             000000000             0002    00000000201208060845280000000000000000012y
0108063012383TFNYF0200006134592SNFTW     FITX   201208                    00000+07128000             000000000             000000000             0002    00000000201208060845290000000000000000012y
0108063012400TFNYF0200006134592BNFTW     FITX   201208                    00000+07144000             000000000             000000000             0002    00000000201208060845300000000000000000012y
0108063012472TFNYF0200006134592SNFTW     FITX   201208                    00000+07140000             000000000             000000000             0074    00000000201208060845370000000000000000012y
0108063012489TFNYF0200006134592BNFTW     FITX   201208                    00000+07151000             000000000             000000000             0002    00000000201208060845380000000000000000012y
0108063012498TFNYF0200006134592SNFTW     FITX   201208                    00000+07143000             000000000             000000000             0002    00000000201208060845390000000000000000012y
0108063012504TFNYF0200006134592BNFTW     FITX   201208                    00000+07152000             000000000             000000000             0002    00000000201208060845400000000000000000012y
0108063012514TFNYF0200006134592SNFTW     FITX   201208                    00000+07143000             000000000             000000000             0002    00000000201208060845400000000000000000012y
0108063012522TFNYF0200006134592BNFTW     FITX   201208                    00000+07151000             000000000             000000000             0002    00000000201208060845410000000000000000012y
0108063012539TFNYF0200006134592SNFTW     FITX   201208                    00000+07149000             000000000             000000000             0002    00000000201208060845420000000000000000012y
0108063012563TFNYF0200006134592BNFTW     FITX   201208                    00000+07153000             000000000             000000000             0002    00000000201208060845430000000000000000012y
0108063012576TFNYF0200006134592SNFTW     FITX   201208                    00000+07144000             000000000             000000000             0002    00000000201208060845440000000000000000012y
0108063012583TFNYF0200006134592BNFTW     FITX   201208                    00000+07128000             000000000             000000000             0002    00000000201208060845450000000000000000012y
0108063012600TFNYF0200006134592SNFTW     FITX   201208                    00000+07135000             000000000             000000000             0002    00000000201208060845460000000000000000012y
0108063012612TFNYF0200006134592BNFTW     FITX   201208                    00000+07138000             000000000             000000000             0002    00000000201208060845470000000000000000012y
0108063012622TFNYF0200006134592SNFTW     FITX   201208                    00000+07128000             000000000             000000000             0002    00000000201208060845470000000000000000012y
0108063012623TFNYF0200006134592BNFTW     FITX   201208                    00000+07138000             000000000             000000000             0002    00000000201208060845480000000000000000012y
0108063012632TFNYF0200006134592SNFTW     FITX   201208                    00000+07127000             000000000             000000000             0002    00000000201208060845490000000000000000012y
0108063012648TFNYF0200006134592BNFTW     FITX   201208                    00000+07136000             000000000             000000000             0002    00000000201208060845500000000000000000012y
0108063012660TFNYF0200006134592SNFTW     FITX   201208                    00000+07129000             000000000             000000000             0002    00000000201208060845510000000000000000012y
0108063012667TFNYF0200006134592BNFTW     FITX   201208                    00000+07138000             000000000             000000000             0002    00000000201208060845510000000000000000012y
0108063012676TFNYF0200006134592SNFTW     FITX   201208                    00000+07128000             000000000             000000000             0002    00000000201208060845520000000000000000012y
0108063012684TFNYF0200006134592BNFTW     FITX   201208                    00000+07133000             000000000             000000000             0002    00000000201208060845530000000000000000012y
0108063012695TFNYF0200006134592SNFTW     FITX   201208                    00000+07135000             000000000             000000000             0002    00000000201208060845540000000000000000012y
0108063012701TFNYF0200006134592BNFTW     FITX   201208                    00000+07138000             000000000             000000000             0002    00000000201208060845550000000000000000012y
