---
---
0106243002739TFNYF0200006134592SNFTW     FITX   201207                    00000+07030000             000000000             000000000             0002    00000000201206250832170000000000000000000y
0106243002740TFNYF0200006134592BNFTW     FITX   201207                    00000+07035000             000000000             000000000             0002    00000000201206250832170000000000000000000y
0106243002742TFNYF0200006134592BNFTW     FITX   201207                    00000+07014000             000000000             000000000             0002    00000000201206250832170000000000000000000y
0106243002744TFNYF0200006134592BNFTW     FITX   201207                    00000+07014000             000000000             000000000             0002    00000000201206250832190000000000000000000y
0106243002745TFNYF0200006134592SNFTW     FITX   201207                    00000+06999000             000000000             000000000             0002    00000000201206250832190000000000000000000y
0106243002746TFNYF0200006134592BNFTW     FITX   201207                    00000+07013000             000000000             000000000             0002    00000000201206250832190000000000000000000y
0106243002747TFNYF0200006134592SNFTW     FITX   201207                    00000+07024000             000000000             000000000             0002    00000000201206250832190000000000000000000y
0106243002748TFNYF0200006134592BNFTW     FITX   201207                    00000+07028000             000000000             000000000             0002    00000000201206250832190000000000000000000y
0106243002749TFNYF0200006134592SNFTW     FITX   201207                    00000+07026000             000000000             000000000             0002    00000000201206250832190000000000000000000y
0106243002750TFNYF0200006134592BNFTW     FITX   201207                    00000+07030000             000000000             000000000             0002    00000000201206250832190000000000000000000y
0106243002751TFNYF0200006134592SNFTW     FITX   201207                    00000+07037000             000000000             000000000             0002    00000000201206250832190000000000000000000y
0106243002752TFNYF0200006134592BNFTW     FITX   201207                    00000+07031000             000000000             000000000             0002    00000000201206250832190000000000000000000y
0106243002753TFNYF0200006134592SNFTW     FITX   201207                    00000+07034000             000000000             000000000             0002    00000000201206250832190000000000000000000y
0106243002754TFNYF0200006134592BNFTW     FITX   201207                    00000+07036000             000000000             000000000             0002    00000000201206250832200000000000000000000y
0106243002755TFNYF0200006134592SNFTW     FITX   201207                    00000+07031000             000000000             000000000             0002    00000000201206250832200000000000000000000y
0106243002756TFNYF0200006134592BNFTW     FITX   201207                    00000+07037000             000000000             000000000             0002    00000000201206250832200000000000000000000y
0106243002757TFNYF0200006134592SNFTW     FITX   201207                    00000+07038000             000000000             000000000             0002    00000000201206250832200000000000000000000y
0106243002758TFNYF0200006134592BNFTW     FITX   201207                    00000+07043000             000000000             000000000             0002    00000000201206250832200000000000000000000y
0106243002759TFNYF0200006134592SNFTW     FITX   201207                    00000+07040000             000000000             000000000             0002    00000000201206250832200000000000000000000y
0106243002760TFNYF0200006134592BNFTW     FITX   201207                    00000+07031000             000000000             000000000             0002    00000000201206250832200000000000000000000y
0106243002761TFNYF0200006134592SNFTW     FITX   201207                    00000+07026000             000000000             000000000             0002    00000000201206250832200000000000000000000y
0106243002762TFNYF0200006134592BNFTW     FITX   201207                    00000+07034000             000000000             000000000             0002    00000000201206250832200000000000000000000y
0106243002763TFNYF0200006134592SNFTW     FITX   201207                    00000+07030000             000000000             000000000             0002    00000000201206250832200000000000000000000y
0106243002764TFNYF0200006134592BNFTW     FITX   201207                    00000+07035000             000000000             000000000             0002    00000000201206250832200000000000000000000y
0106243002768TFNYF0200006134592BNFTW     FITX   201207                    00000+07014000             000000000             000000000             0002    00000000201206250832200000000000000000000y
0106243002772TFNYF0200006134592BNFTW     FITX   201207                    00000+07014000             000000000             000000000             0002    00000000201206250832210000000000000000000y
0106243002950TFNYF0200006134592SNFTW     FITX   201207                    00000+06999000             000000000             000000000             0002    00000000201206250832210000000000000000000y
0106243002951TFNYF0200006134592BNFTW     FITX   201207                    00000+07013000             000000000             000000000             0002    00000000201206250832210000000000000000000y
0106243002952TFNYF0200006134592SNFTW     FITX   201207                    00000+07024000             000000000             000000000             0002    00000000201206250832210000000000000000000y
0106243002953TFNYF0200006134592BNFTW     FITX   201207                    00000+07028000             000000000             000000000             0002    00000000201206250832210000000000000000000y
0106243002954TFNYF0200006134592SNFTW     FITX   201207                    00000+07026000             000000000             000000000             0002    00000000201206250832210000000000000000000y
0106243002955TFNYF0200006134592BNFTW     FITX   201207                    00000+07030000             000000000             000000000             0002    00000000201206250832210000000000000000000y
0106243002956TFNYF0200006134592SNFTW     FITX   201207                    00000+07037000             000000000             000000000             0002    00000000201206250832210000000000000000000y
0106243002957TFNYF0200006134592BNFTW     FITX   201207                    00000+07031000             000000000             000000000             0002    00000000201206250832210000000000000000000y
0106243002958TFNYF0200006134592SNFTW     FITX   201207                    00000+07034000             000000000             000000000             0002    00000000201206250832210000000000000000000y
0106243002959TFNYF0200006134592BNFTW     FITX   201207                    00000+07036000             000000000             000000000             0002    00000000201206250832210000000000000000000y
0106243002960TFNYF0200006134592SNFTW     FITX   201207                    00000+07031000             000000000             000000000             0002    00000000201206250832220000000000000000000y
0106243002961TFNYF0200006134592BNFTW     FITX   201207                    00000+07037000             000000000             000000000             0002    00000000201206250832220000000000000000000y
0106243002962TFNYF0200006134592SNFTW     FITX   201207                    00000+07038000             000000000             000000000             0002    00000000201206250832220000000000000000000y
0106243002963TFNYF0200006134592BNFTW     FITX   201207                    00000+07043000             000000000             000000000             0002    00000000201206250832220000000000000000000y
0106243002964TFNYF0200006134592SNFTW     FITX   201207                    00000+07040000             000000000             000000000             0002    00000000201206250832220000000000000000000y
0106243002965TFNYF0200006134592BNFTW     FITX   201207                    00000+07031000             000000000             000000000             0002    00000000201206250832220000000000000000000y
0106243002966TFNYF0200006134592SNFTW     FITX   201207                    00000+07026000             000000000             000000000             0002    00000000201206250832220000000000000000000y
0106243002967TFNYF0200006134592BNFTW     FITX   201207                    00000+07034000             000000000             000000000             0002    00000000201206250832220000000000000000000y
0106243002968TFNYF0200006134592SNFTW     FITX   201207                    00000+07030000             000000000             000000000             0002    00000000201206250832220000000000000000000y
0106243002969TFNYF0200006134592BNFTW     FITX   201207                    00000+07035000             000000000             000000000             0002    00000000201206250832220000000000000000000y
0106243002972TFNYF0200006134592BNFTW     FITX   201207                    00000+07008000             000000000             000000000             0001    00000000201206250832220000000000000000000y
0106243002973TFNYF0200006134592BNFTW     FITX   201207                    00000+07013000             000000000             000000000             0001    00000000201206250832230000000000000000000y
0106243002974TFNYF0200006134592SNFTW     FITX   201207                    00000+07024000             000000000             000000000             0002    00000000201206250832230000000000000000000y
0106243002975TFNYF0200006134592BNFTW     FITX   201207                    00000+07028000             000000000             000000000             0002    00000000201206250832230000000000000000000y
0106243002977TFNYF0200006134592SNFTW     FITX   201207                    00000+07026000             000000000             000000000             0002    00000000201206250832230000000000000000000y
0106243002978TFNYF0200006134592BNFTW     FITX   201207                    00000+07030000             000000000             000000000             0002    00000000201206250832230000000000000000000y
0106243002981TFNYF0200006134592SNFTW     FITX   201207                    00000+07037000             000000000             000000000             0002    00000000201206250832230000000000000000000y
0106243002982TFNYF0200006134592BNFTW     FITX   201207                    00000+07031000             000000000             000000000             0002    00000000201206250832230000000000000000000y
0106243002983TFNYF0200006134592SNFTW     FITX   201207                    00000+07034000             000000000             000000000             0002    00000000201206250832230000000000000000000y
0106243002984TFNYF0200006134592BNFTW     FITX   201207                    00000+07036000             000000000             000000000             0002    00000000201206250832230000000000000000000y
0106243002849TFNYF0200006134592BNFTW     FITX   201207                    00000+07014000             000000000             000000000             0002    00000000201206250832230000000000000000000y
0106243002850TFNYF0200006134592SNFTW     FITX   201207                    00000+06999000             000000000             000000000             0002    00000000201206250832230000000000000000000y
0106243002851TFNYF0200006134592BNFTW     FITX   201207                    00000+07013000             000000000             000000000             0002    00000000201206250832230000000000000000000y
0106243002852TFNYF0200006134592SNFTW     FITX   201207                    00000+07024000             000000000             000000000             0002    00000000201206250832240000000000000000000y
0106243002853TFNYF0200006134592BNFTW     FITX   201207                    00000+07028000             000000000             000000000             0002    00000000201206250832240000000000000000000y
0106243002854TFNYF0200006134592SNFTW     FITX   201207                    00000+07026000             000000000             000000000             0002    00000000201206250832240000000000000000000y
0106243002855TFNYF0200006134592BNFTW     FITX   201207                    00000+07030000             000000000             000000000             0002    00000000201206250832240000000000000000000y
0106243002856TFNYF0200006134592SNFTW     FITX   201207                    00000+07037000             000000000             000000000             0002    00000000201206250832240000000000000000000y
0106243002857TFNYF0200006134592BNFTW     FITX   201207                    00000+07031000             000000000             000000000             0002    00000000201206250832240000000000000000000y
0106243002858TFNYF0200006134592SNFTW     FITX   201207                    00000+07034000             000000000             000000000             0002    00000000201206250832240000000000000000000y
0106243002859TFNYF0200006134592BNFTW     FITX   201207                    00000+07036000             000000000             000000000             0002    00000000201206250832240000000000000000000y
0106243002860TFNYF0200006134592SNFTW     FITX   201207                    00000+07031000             000000000             000000000             0002    00000000201206250832240000000000000000000y
0106243002861TFNYF0200006134592BNFTW     FITX   201207                    00000+07037000             000000000             000000000             0002    00000000201206250832240000000000000000000y
0106243002862TFNYF0200006134592SNFTW     FITX   201207                    00000+07038000             000000000             000000000             0002    00000000201206250832250000000000000000000y
0106243002863TFNYF0200006134592BNFTW     FITX   201207                    00000+07043000             000000000             000000000             0002    00000000201206250832250000000000000000000y
0106243002864TFNYF0200006134592SNFTW     FITX   201207                    00000+07040000             000000000             000000000             0002    00000000201206250832250000000000000000000y
0106243002865TFNYF0200006134592BNFTW     FITX   201207                    00000+07031000             000000000             000000000             0002    00000000201206250832250000000000000000000y
0106243002866TFNYF0200006134592SNFTW     FITX   201207                    00000+07026000             000000000             000000000             0002    00000000201206250832250000000000000000000y
0106243002867TFNYF0200006134592BNFTW     FITX   201207                    00000+07034000             000000000             000000000             0002    00000000201206250832250000000000000000000y
0106243002868TFNYF0200006134592SNFTW     FITX   201207                    00000+07030000             000000000             000000000             0002    00000000201206250832250000000000000000000y
0106243002869TFNYF0200006134592BNFTW     FITX   201207                    00000+07035000             000000000             000000000             0002    00000000201206250832250000000000000000000y
0106243002876TFNYF0200006134592BNFTW     FITX   201207                    00000+07008000             000000000             000000000             0001    00000000201206250832250000000000000000000y
0106243002877TFNYF0200006134592BNFTW     FITX   201207                    00000+07013000             000000000             000000000             0001    00000000201206250832250000000000000000000y
0106243002878TFNYF0200006134592SNFTW     FITX   201207                    00000+07024000             000000000             000000000             0002    00000000201206250832250000000000000000000y
0106243002879TFNYF0200006134592BNFTW     FITX   201207                    00000+07028000             000000000             000000000             0002    00000000201206250832250000000000000000000y
0106243003021TFNYF0200006134592SNFTW     FITX   201207                    00000+07036000             000000000             000000000             0002    00000000201206250832260000000000000000000y
0106243003022TFNYF0200006134592BNFTW     FITX   201207                    00000+07040000             000000000             000000000             0002    00000000201206250832260000000000000000000y
0106243003023TFNYF0200006134592SNFTW     FITX   201207                    00000+07033000             000000000             000000000             0002    00000000201206250832260000000000000000000y
0106243003024TFNYF0200006134592BNFTW     FITX   201207                    00000+07039000             000000000             000000000             0002    00000000201206250832260000000000000000000y
0106243003025TFNYF0200006134592SNFTW     FITX   201207                    00000+07033000             000000000             000000000             0002    00000000201206250832260000000000000000000y
0106243003026TFNYF0200006134592BNFTW     FITX   201207                    00000+07030000             000000000             000000000             0002    00000000201206250832260000000000000000000y
0106243003027TFNYF0200006134592SNFTW     FITX   201207                    00000+07031000             000000000             000000000             0002    00000000201206250832260000000000000000000y
0106243003028TFNYF0200006134592BNFTW     FITX   201207                    00000+07037000             000000000             000000000             0002    00000000201206250832260000000000000000000y
0106243003044TFNYF0200006134592BNFTW     FITX   201207                    00000+07008000             000000000             000000000             0001    00000000201206250832260000000000000000000y
0106243003045TFNYF0200006134592BNFTW     FITX   201207                    00000+07019000             000000000             000000000             0001    00000000201206250832260000000000000000000y
0106243003046TFNYF0200006134592SNFTW     FITX   201207                    00000+07026000             000000000             000000000             0002    00000000201206250832260000000000000000000y
0106243003047TFNYF0200006134592BNFTW     FITX   201207                    00000+07026000             000000000             000000000             0001    00000000201206250832260000000000000000000y
0106243003048TFNYF0200006134592BNFTW     FITX   201207                    00000+07042000             000000000             000000000             0001    00000000201206250832270000000000000000000y
0106243003049TFNYF0200006134592SNFTW     FITX   201207                    00000+07035000             000000000             000000000             0001    00000000201206250832270000000000000000000y
0106243003054TFNYF0200006134592BNFTW     FITX   201207                    00000+07008000             000000000             000000000             0001    00000000201206250832270000000000000000000y
0106243003055TFNYF0200006134592BNFTW     FITX   201207                    00000+07019000             000000000             000000000             0001    00000000201206250832270000000000000000000y
0106243002985TFNYF0200006134592SNFTW     FITX   201207                    00000+07031000             000000000             000000000             0002    00000000201206250832270000000000000000000y
0106243002986TFNYF0200006134592BNFTW     FITX   201207                    00000+07037000             000000000             000000000             0002    00000000201206250832270000000000000000000y
0106243002987TFNYF0200006134592SNFTW     FITX   201207                    00000+07038000             000000000             000000000             0002    00000000201206250832270000000000000000000y
0106243002988TFNYF0200006134592BNFTW     FITX   201207                    00000+07043000             000000000             000000000             0002    00000000201206250832270000000000000000000y
0106243002989TFNYF0200006134592SNFTW     FITX   201207                    00000+07040000             000000000             000000000             0002    00000000201206250832270000000000000000000y
0106243002990TFNYF0200006134592BNFTW     FITX   201207                    00000+07031000             000000000             000000000             0002    00000000201206250832280000000000000000000y
0106243002991TFNYF0200006134592SNFTW     FITX   201207                    00000+07026000             000000000             000000000             0002    00000000201206250832280000000000000000000y
0106243002992TFNYF0200006134592BNFTW     FITX   201207                    00000+07034000             000000000             000000000             0002    00000000201206250832280000000000000000000y
0106243002993TFNYF0200006134592SNFTW     FITX   201207                    00000+07030000             000000000             000000000             0002    00000000201206250832280000000000000000000y
0106243002994TFNYF0200006134592BNFTW     FITX   201207                    00000+07035000             000000000             000000000             0002    00000000201206250832280000000000000000000y
0106243002997TFNYF0200006134592BNFTW     FITX   201207                    00000+07008000             000000000             000000000             0001    00000000201206250832280000000000000000000y
0106243002998TFNYF0200006134592BNFTW     FITX   201207                    00000+07013000             000000000             000000000             0001    00000000201206250832280000000000000000000y
0106243002999TFNYF0200006134592SNFTW     FITX   201207                    00000+07024000             000000000             000000000             0002    00000000201206250832280000000000000000000y
0106243003000TFNYF0200006134592BNFTW     FITX   201207                    00000+07028000             000000000             000000000             0002    00000000201206250832280000000000000000000y
0106243003002TFNYF0200006134592SNFTW     FITX   201207                    00000+07026000             000000000             000000000             0002    00000000201206250832280000000000000000000y
0106243003003TFNYF0200006134592BNFTW     FITX   201207                    00000+07030000             000000000             000000000             0002    00000000201206250832280000000000000000000y
0106243003004TFNYF0200006134592SNFTW     FITX   201207                    00000+07037000             000000000             000000000             0002    00000000201206250832280000000000000000000y
0106243003005TFNYF0200006134592BNFTW     FITX   201207                    00000+07031000             000000000             000000000             0002    00000000201206250832280000000000000000000y
0106243003006TFNYF0200006134592SNFTW     FITX   201207                    00000+07034000             000000000             000000000             0002    00000000201206250832280000000000000000000y
0106243003007TFNYF0200006134592BNFTW     FITX   201207                    00000+07036000             000000000             000000000             0002    00000000201206250832290000000000000000000y
0106243003008TFNYF0200006134592SNFTW     FITX   201207                    00000+07031000             000000000             000000000             0002    00000000201206250832290000000000000000000y
0106243003009TFNYF0200006134592BNFTW     FITX   201207                    00000+07037000             000000000             000000000             0002    00000000201206250832290000000000000000000y
0106243003010TFNYF0200006134592SNFTW     FITX   201207                    00000+07038000             000000000             000000000             0002    00000000201206250832290000000000000000000y
0106243003011TFNYF0200006134592BNFTW     FITX   201207                    00000+07043000             000000000             000000000             0002    00000000201206250832290000000000000000000y
0106243003012TFNYF0200006134592SNFTW     FITX   201207                    00000+07040000             000000000             000000000             0002    00000000201206250832290000000000000000000y
0106243003013TFNYF0200006134592BNFTW     FITX   201207                    00000+07031000             000000000             000000000             0002    00000000201206250832290000000000000000000y
0106243003014TFNYF0200006134592SNFTW     FITX   201207                    00000+07026000             000000000             000000000             0002    00000000201206250832290000000000000000000y
0106243003015TFNYF0200006134592BNFTW     FITX   201207                    00000+07034000             000000000             000000000             0002    00000000201206250832290000000000000000000y
0106243003016TFNYF0200006134592SNFTW     FITX   201207                    00000+07030000             000000000             000000000             0002    00000000201206250832290000000000000000000y
0106243003017TFNYF0200006134592BNFTW     FITX   201207                    00000+07035000             000000000             000000000             0002    00000000201206250832290000000000000000000y
0106243003019TFNYF0200006134592BNFTW     FITX   201207                    00000+07008000             000000000             000000000             0001    00000000201206250832290000000000000000000y
0106243003020TFNYF0200006134592BNFTW     FITX   201207                    00000+07026000             000000000             000000000             0001    00000000201206250832300000000000000000000y
0106233000245TFNYF0200006134592BNFTW     FITX   201207                    00000+07008000             000000000             000000000             0001    00000000201206250832300000000000000000000y
0106233000246TFNYF0200006134592BNFTW     FITX   201207                    00000+07008000             000000000             000000000             0001    00000000201206250832300000000000000000000y
0106233000247TFNYF0200006134592BNFTW     FITX   201207                    00000+07008000             000000000             000000000             0001    00000000201206250832300000000000000000000y
0106233000248TFNYF0200006134592BNFTW     FITX   201207                    00000+07019000             000000000             000000000             0001    00000000201206250832300000000000000000000y
0106233000249TFNYF0200006134592SNFTW     FITX   201207                    00000+07026000             000000000             000000000             0002    00000000201206250832300000000000000000000y
0106233000250TFNYF0200006134592BNFTW     FITX   201207                    00000+07026000             000000000             000000000             0001    00000000201206250832300000000000000000000y
0106233000251TFNYF0200006134592BNFTW     FITX   201207                    00000+07042000             000000000             000000000             0001    00000000201206250832300000000000000000000y
0106233000252TFNYF0200006134592SNFTW     FITX   201207                    00000+07035000             000000000             000000000             0001    00000000201206250832300000000000000000000y
0106233000253TFNYF0200006134592BNFTW     FITX   201207                    00000+07008000             000000000             000000000             0001    00000000201206250832300000000000000000000y
0106233000254TFNYF0200006134592BNFTW     FITX   201207                    00000+07008000             000000000             000000000             0001    00000000201206250832300000000000000000000y
0106233000255TFNYF0200006134592BNFTW     FITX   201207                    00000+07008000             000000000             000000000             0001    00000000201206250832300000000000000000000y
0106233000256TFNYF0200006134592BNFTW     FITX   201207                    00000+07019000             000000000             000000000             0001    00000000201206250832310000000000000000000y
0106233000257TFNYF0200006134592SNFTW     FITX   201207                    00000+07035000             000000000             000000000             0001    00000000201206250832310000000000000000000y
0106233000258TFNYF0200006134592BNFTW     FITX   201207                    00000+07008000             000000000             000000000             0001    00000000201206250832310000000000000000000y
0106233000259TFNYF0200006134592BNFTW     FITX   201207                    00000+07019000             000000000             000000000             0001    00000000201206250832310000000000000000000y
0106233000260TFNYF0200006134592SNFTW     FITX   201207                    00000+07035000             000000000             000000000             0001    00000000201206250832310000000000000000000y
0106223086733TFNYF0200006134592BNFTW     FITX   201207                    00000+07008000             000000000             000000000             0001    00000000201206250832310000000000000000000y
0106223086735TFNYF0200006134592BNFTW     FITX   201207                    00000+07008000             000000000             000000000             0001    00000000201206250832310000000000000000000y
0106243003234TFNYF0200006134592BNFTW     FITX   201207                    00000+07008000             000000000             000000000             0001    00000000201206250832310000000000000000000y
0106243003237TFNYF0200006134592BNFTW     FITX   201207                    00000+07019000             000000000             000000000             0001    00000000201206250832310000000000000000000y
0106243003240TFNYF0200006134592SNFTW     FITX   201207                    00000+07026000             000000000             000000000             0002    00000000201206250832310000000000000000000y
0106243003242TFNYF0200006134592BNFTW     FITX   201207                    00000+07042000             000000000             000000000             0002    00000000201206250832310000000000000000000y
0106243003248TFNYF0200006134592SNFTW     FITX   201207                    00000+07035000             000000000             000000000             0001    00000000201206250832320000000000000000000y
0106243003120TFNYF0200006134592BNFTW     FITX   201207                    00000+07019000             000000000             000000000             0001    00000000201206250832320000000000000000000y
0106243003121TFNYF0200006134592SNFTW     FITX   201207                    00000+07026000             000000000             000000000             0002    00000000201206250832320000000000000000000y
0106243003122TFNYF0200006134592BNFTW     FITX   201207                    00000+07026000             000000000             000000000             0001    00000000201206250832320000000000000000000y
0106243003123TFNYF0200006134592BNFTW     FITX   201207                    00000+07042000             000000000             000000000             0001    00000000201206250832320000000000000000000y
0106243003124TFNYF0200006134592SNFTW     FITX   201207                    00000+07035000             000000000             000000000             0001    00000000201206250832320000000000000000000y
0106243003127TFNYF0200006134592BNFTW     FITX   201207                    00000+07008000             000000000             000000000             0001    00000000201206250832320000000000000000000y
0106243003128TFNYF0200006134592BNFTW     FITX   201207                    00000+07019000             000000000             000000000             0001    00000000201206250832320000000000000000000y
0106243003129TFNYF0200006134592SNFTW     FITX   201207                    00000+07026000             000000000             000000000             0002    00000000201206250832320000000000000000000y
0106243003132TFNYF0200006134592BNFTW     FITX   201207                    00000+07026000             000000000             000000000             0001    00000000201206250832320000000000000000000y
0106243003133TFNYF0200006134592BNFTW     FITX   201207                    00000+07042000             000000000             000000000             0001    00000000201206250832320000000000000000000y
0106243003134TFNYF0200006134592SNFTW     FITX   201207                    00000+07035000             000000000             000000000             0001    00000000201206250832320000000000000000000y
0106243003153TFNYF0200006134592BNFTW     FITX   201207                    00000+07008000             000000000             000000000             0001    00000000201206250832320000000000000000000y
0106243003154TFNYF0200006134592BNFTW     FITX   201207                    00000+07019000             000000000             000000000             0001    00000000201206250832330000000000000000000y
0106243003155TFNYF0200006134592SNFTW     FITX   201207                    00000+07026000             000000000             000000000             0002    00000000201206250832330000000000000000000y
0106243002700TFNYF0200006134592BNFTW     FITX   201207                    00000+07014000             000000000             000000000             0002    00000000201206250832330000000000000000000y
0106243002596TFNYF0200006134592BNFTW     FITX   201207                    00000+07008000             000000000             000000000             0001    00000000201206250832330000000000000000000y
0106243002597TFNYF0200006134592BNFTW     FITX   201207                    00000+07019000             000000000             000000000             0001    00000000201206250832330000000000000000000y
0106243002598TFNYF0200006134592SNFTW     FITX   201207                    00000+07035000             000000000             000000000             0001    00000000201206250832330000000000000000000y
0106243003092TFNYF0200006134592SNFTW     FITX   201207                    00000+07035000             000000000             000000000             0001    00000000201206250832330000000000000000000y
0106243003119TFNYF0200006134592BNFTW     FITX   201207                    00000+07008000             000000000             000000000             0001    00000000201206250832330000000000000000000y
0106243002880TFNYF0200006134592SNFTW     FITX   201207                    00000+07026000             000000000             000000000             0002    00000000201206250832330000000000000000000y
0106243002881TFNYF0200006134592BNFTW     FITX   201207                    00000+07030000             000000000             000000000             0002    00000000201206250832330000000000000000000y
0106243002882TFNYF0200006134592SNFTW     FITX   201207                    00000+07037000             000000000             000000000             0002    00000000201206250832330000000000000000000y
0106243002883TFNYF0200006134592BNFTW     FITX   201207                    00000+07031000             000000000             000000000             0002    00000000201206250832340000000000000000000y
0106243002884TFNYF0200006134592SNFTW     FITX   201207                    00000+07034000             000000000             000000000             0002    00000000201206250832340000000000000000000y
0106243002885TFNYF0200006134592BNFTW     FITX   201207                    00000+07036000             000000000             000000000             0002    00000000201206250832340000000000000000000y
0106243002886TFNYF0200006134592SNFTW     FITX   201207                    00000+07031000             000000000             000000000             0002    00000000201206250832340000000000000000000y
0106243002887TFNYF0200006134592BNFTW     FITX   201207                    00000+07037000             000000000             000000000             0002    00000000201206250832340000000000000000000y
0106243002888TFNYF0200006134592SNFTW     FITX   201207                    00000+07038000             000000000             000000000             0002    00000000201206250832340000000000000000000y
0106243002889TFNYF0200006134592BNFTW     FITX   201207                    00000+07043000             000000000             000000000             0002    00000000201206250832340000000000000000000y
0106243002890TFNYF0200006134592SNFTW     FITX   201207                    00000+07040000             000000000             000000000             0002    00000000201206250832340000000000000000000y
0106243002891TFNYF0200006134592BNFTW     FITX   201207                    00000+07031000             000000000             000000000             0002    00000000201206250832340000000000000000000y
0106243002892TFNYF0200006134592SNFTW     FITX   201207                    00000+07026000             000000000             000000000             0002    00000000201206250832340000000000000000000y
0106243002893TFNYF0200006134592BNFTW     FITX   201207                    00000+07034000             000000000             000000000             0002    00000000201206250832350000000000000000000y
0106243002894TFNYF0200006134592SNFTW     FITX   201207                    00000+07030000             000000000             000000000             0002    00000000201206250832350000000000000000000y
0106243002895TFNYF0200006134592BNFTW     FITX   201207                    00000+07035000             000000000             000000000             0002    00000000201206250832350000000000000000000y
0106243002900TFNYF0200006134592BNFTW     FITX   201207                    00000+07008000             000000000             000000000             0001    00000000201206250832350000000000000000000y
0106243002902TFNYF0200006134592BNFTW     FITX   201207                    00000+07013000             000000000             000000000             0001    00000000201206250832350000000000000000000y
0106243002903TFNYF0200006134592SNFTW     FITX   201207                    00000+07024000             000000000             000000000             0002    00000000201206250832350000000000000000000y
0106243002904TFNYF0200006134592BNFTW     FITX   201207                    00000+07028000             000000000             000000000             0002    00000000201206250832350000000000000000000y
0106243002905TFNYF0200006134592SNFTW     FITX   201207                    00000+07026000             000000000             000000000             0002    00000000201206250832350000000000000000000y
0106243002906TFNYF0200006134592BNFTW     FITX   201207                    00000+07030000             000000000             000000000             0002    00000000201206250832350000000000000000000y
0106243002907TFNYF0200006134592SNFTW     FITX   201207                    00000+07037000             000000000             000000000             0002    00000000201206250832350000000000000000000y
0106243002908TFNYF0200006134592BNFTW     FITX   201207                    00000+07031000             000000000             000000000             0002    00000000201206250832350000000000000000000y
0106243002909TFNYF0200006134592SNFTW     FITX   201207                    00000+07034000             000000000             000000000             0002    00000000201206250832350000000000000000000y
0106243002910TFNYF0200006134592BNFTW     FITX   201207                    00000+07036000             000000000             000000000             0002    00000000201206250832360000000000000000000y
0106243002911TFNYF0200006134592SNFTW     FITX   201207                    00000+07031000             000000000             000000000             0002    00000000201206250832360000000000000000000y
0106243002912TFNYF0200006134592BNFTW     FITX   201207                    00000+07037000             000000000             000000000             0002    00000000201206250832360000000000000000000y
0106243002913TFNYF0200006134592SNFTW     FITX   201207                    00000+07038000             000000000             000000000             0002    00000000201206250832360000000000000000000y
0106243002701TFNYF0200006134592SNFTW     FITX   201207                    00000+06999000             000000000             000000000             0002    00000000201206250832360000000000000000000y
0106243002702TFNYF0200006134592BNFTW     FITX   201207                    00000+07013000             000000000             000000000             0002    00000000201206250832360000000000000000000y
0106243002703TFNYF0200006134592SNFTW     FITX   201207                    00000+07024000             000000000             000000000             0002    00000000201206250832360000000000000000000y
0106243002704TFNYF0200006134592BNFTW     FITX   201207                    00000+07028000             000000000             000000000             0002    00000000201206250832360000000000000000000y
0106243002705TFNYF0200006134592SNFTW     FITX   201207                    00000+07026000             000000000             000000000             0002    00000000201206250832360000000000000000000y
0106243002706TFNYF0200006134592BNFTW     FITX   201207                    00000+07030000             000000000             000000000             0002    00000000201206250832360000000000000000000y
0106243002707TFNYF0200006134592SNFTW     FITX   201207                    00000+07037000             000000000             000000000             0002    00000000201206250832360000000000000000000y
0106243002708TFNYF0200006134592BNFTW     FITX   201207                    00000+07031000             000000000             000000000             0002    00000000201206250832360000000000000000000y
0106243002709TFNYF0200006134592SNFTW     FITX   201207                    00000+07034000             000000000             000000000             0002    00000000201206250832370000000000000000000y
0106243002710TFNYF0200006134592BNFTW     FITX   201207                    00000+07036000             000000000             000000000             0002    00000000201206250832370000000000000000000y
0106243002711TFNYF0200006134592SNFTW     FITX   201207                    00000+07031000             000000000             000000000             0002    00000000201206250832370000000000000000000y
0106243002712TFNYF0200006134592BNFTW     FITX   201207                    00000+07037000             000000000             000000000             0002    00000000201206250832370000000000000000000y
0106243002713TFNYF0200006134592SNFTW     FITX   201207                    00000+07038000             000000000             000000000             0002    00000000201206250832370000000000000000000y
0106243002714TFNYF0200006134592BNFTW     FITX   201207                    00000+07043000             000000000             000000000             0002    00000000201206250832370000000000000000000y
0106243002715TFNYF0200006134592SNFTW     FITX   201207                    00000+07040000             000000000             000000000             0002    00000000201206250832370000000000000000000y
0106243002716TFNYF0200006134592BNFTW     FITX   201207                    00000+07031000             000000000             000000000             0002    00000000201206250832370000000000000000000y
0106243002735TFNYF0200006134592SNFTW     FITX   201207                    00000+07026000             000000000             000000000             0002    00000000201206250832370000000000000000000y
0106243002736TFNYF0200006134592BNFTW     FITX   201207                    00000+07034000             000000000             000000000             0002    00000000201206250832380000000000000000000y
0106243002916TFNYF0200006134592BNFTW     FITX   201207                    00000+07031000             000000000             000000000             0002    00000000201206250832380000000000000000000y
0106243002917TFNYF0200006134592SNFTW     FITX   201207                    00000+07026000             000000000             000000000             0002    00000000201206250832380000000000000000000y
0106243002918TFNYF0200006134592BNFTW     FITX   201207                    00000+07034000             000000000             000000000             0002    00000000201206250832380000000000000000000y
0106243002919TFNYF0200006134592SNFTW     FITX   201207                    00000+07030000             000000000             000000000             0002    00000000201206250832380000000000000000000y
0106243002920TFNYF0200006134592BNFTW     FITX   201207                    00000+07035000             000000000             000000000             0002    00000000201206250832380000000000000000000y
0106243002922TFNYF0200006134592BNFTW     FITX   201207                    00000+07008000             000000000             000000000             0001    00000000201206250832380000000000000000000y
0106243002914TFNYF0200006134592BNFTW     FITX   201207                    00000+07043000             000000000             000000000             0002    00000000201206250832380000000000000000000y
0106243002915TFNYF0200006134592SNFTW     FITX   201207                    00000+07040000             000000000             000000000             0002    00000000201206250832380000000000000000000y
0106243002923TFNYF0200006134592BNFTW     FITX   201207                    00000+07013000             000000000             000000000             0001    00000000201206250832390000000000000000000y
0106243002924TFNYF0200006134592SNFTW     FITX   201207                    00000+07024000             000000000             000000000             0002    00000000201206250832390000000000000000000y
0106243002925TFNYF0200006134592BNFTW     FITX   201207                    00000+07028000             000000000             000000000             0002    00000000201206250832390000000000000000000y
0106243002926TFNYF0200006134592SNFTW     FITX   201207                    00000+07026000             000000000             000000000             0002    00000000201206250832390000000000000000000y
0106243002927TFNYF0200006134592BNFTW     FITX   201207                    00000+07030000             000000000             000000000             0002    00000000201206250832390000000000000000000y
0106243002928TFNYF0200006134592SNFTW     FITX   201207                    00000+07037000             000000000             000000000             0002    00000000201206250832390000000000000000000y
0106243002929TFNYF0200006134592BNFTW     FITX   201207                    00000+07031000             000000000             000000000             0002    00000000201206250832390000000000000000000y
0106243002930TFNYF0200006134592SNFTW     FITX   201207                    00000+07034000             000000000             000000000             0002    00000000201206250832390000000000000000000y
0106243002931TFNYF0200006134592BNFTW     FITX   201207                    00000+07036000             000000000             000000000             0002    00000000201206250832390000000000000000000y
0106243002932TFNYF0200006134592SNFTW     FITX   201207                    00000+07031000             000000000             000000000             0002    00000000201206250832390000000000000000000y
0106243002933TFNYF0200006134592BNFTW     FITX   201207                    00000+07037000             000000000             000000000             0002    00000000201206250832390000000000000000000y
0106243002934TFNYF0200006134592SNFTW     FITX   201207                    00000+07038000             000000000             000000000             0002    00000000201206250832390000000000000000000y
0106243002935TFNYF0200006134592BNFTW     FITX   201207                    00000+07043000             000000000             000000000             0002    00000000201206250832400000000000000000000y
0106243002937TFNYF0200006134592SNFTW     FITX   201207                    00000+07040000             000000000             000000000             0002    00000000201206250832400000000000000000000y
0106243002938TFNYF0200006134592BNFTW     FITX   201207                    00000+07031000             000000000             000000000             0002    00000000201206250832400000000000000000000y
0106243002939TFNYF0200006134592SNFTW     FITX   201207                    00000+07026000             000000000             000000000             0002    00000000201206250832400000000000000000000y
0106243002940TFNYF0200006134592BNFTW     FITX   201207                    00000+07034000             000000000             000000000             0002    00000000201206250832400000000000000000000y
0106243002941TFNYF0200006134592SNFTW     FITX   201207                    00000+07030000             000000000             000000000             0002    00000000201206250832400000000000000000000y
0106243002942TFNYF0200006134592BNFTW     FITX   201207                    00000+07035000             000000000             000000000             0002    00000000201206250832400000000000000000000y
0106243002949TFNYF0200006134592BNFTW     FITX   201207                    00000+07014000             000000000             000000000             0002    00000000201206250832400000000000000000000y
0106243003056TFNYF0200006134592SNFTW     FITX   201207                    00000+07026000             000000000             000000000             0002    00000000201206250832400000000000000000000y
0106243003057TFNYF0200006134592BNFTW     FITX   201207                    00000+07026000             000000000             000000000             0001    00000000201206250832400000000000000000000y
0106243003058TFNYF0200006134592BNFTW     FITX   201207                    00000+07042000             000000000             000000000             0001    00000000201206250832400000000000000000000y
0106243003064TFNYF0200006134592BNFTW     FITX   201207                    00000+07008000             000000000             000000000             0001    00000000201206250832410000000000000000000y
0106243003065TFNYF0200006134592BNFTW     FITX   201207                    00000+07019000             000000000             000000000             0001    00000000201206250832410000000000000000000y
0106243003066TFNYF0200006134592SNFTW     FITX   201207                    00000+07026000             000000000             000000000             0002    00000000201206250832410000000000000000000y
0106243003067TFNYF0200006134592BNFTW     FITX   201207                    00000+07026000             000000000             000000000             0001    00000000201206250832410000000000000000000y
0106243003068TFNYF0200006134592BNFTW     FITX   201207                    00000+07042000             000000000             000000000             0001    00000000201206250832410000000000000000000y
0106243003085TFNYF0200006134592BNFTW     FITX   201207                    00000+07008000             000000000             000000000             0001    00000000201206250832410000000000000000000y
0106243003086TFNYF0200006134592BNFTW     FITX   201207                    00000+07019000             000000000             000000000             0001    00000000201206250832410000000000000000000y
0106243003087TFNYF0200006134592SNFTW     FITX   201207                    00000+07026000             000000000             000000000             0002    00000000201206250832410000000000000000000y
0106243003088TFNYF0200006134592BNFTW     FITX   201207                    00000+07026000             000000000             000000000             0001    00000000201206250832410000000000000000000y
0106243003089TFNYF0200006134592BNFTW     FITX   201207                    00000+07042000             000000000             000000000             0001    00000000201206250832410000000000000000000y
---
---
0106243002739TFNYF0200006134592SNFTW     FITX   201207                    00000+07030000             000000000             000000000             0002    00000000201206250832170000000000000000000y
0106243002740TFNYF0200006134592BNFTW     FITX   201207                    00000+07035000             000000000             000000000             0002    00000000201206250832170000000000000000000y
0106243002742TFNYF0200006134592BNFTW     FITX   201207                    00000+07014000             000000000             000000000             0002    00000000201206250832170000000000000000000y
0106243002744TFNYF0200006134592BNFTW     FITX   201207                    00000+07014000             000000000             000000000             0002    00000000201206250832190000000000000000000y
0106243002745TFNYF0200006134592SNFTW     FITX   201207                    00000+06999000             000000000             000000000             0002    00000000201206250832190000000000000000000y
0106243002746TFNYF0200006134592BNFTW     FITX   201207                    00000+07013000             000000000             000000000             0002    00000000201206250832190000000000000000000y
0106243002747TFNYF0200006134592SNFTW     FITX   201207                    00000+07024000             000000000             000000000             0002    00000000201206250832190000000000000000000y
0106243002748TFNYF0200006134592BNFTW     FITX   201207                    00000+07028000             000000000             000000000             0002    00000000201206250832190000000000000000000y
0106243002749TFNYF0200006134592SNFTW     FITX   201207                    00000+07026000             000000000             000000000             0002    00000000201206250832190000000000000000000y
0106243002750TFNYF0200006134592BNFTW     FITX   201207                    00000+07030000             000000000             000000000             0002    00000000201206250832190000000000000000000y
0106243002751TFNYF0200006134592SNFTW     FITX   201207                    00000+07037000             000000000             000000000             0002    00000000201206250832190000000000000000000y
0106243002752TFNYF0200006134592BNFTW     FITX   201207                    00000+07031000             000000000             000000000             0002    00000000201206250832190000000000000000000y
0106243002753TFNYF0200006134592SNFTW     FITX   201207                    00000+07034000             000000000             000000000             0002    00000000201206250832190000000000000000000y
0106243002754TFNYF0200006134592BNFTW     FITX   201207                    00000+07036000             000000000             000000000             0002    00000000201206250832200000000000000000000y
0106243002755TFNYF0200006134592SNFTW     FITX   201207                    00000+07031000             000000000             000000000             0002    00000000201206250832200000000000000000000y
0106243002756TFNYF0200006134592BNFTW     FITX   201207                    00000+07037000             000000000             000000000             0002    00000000201206250832200000000000000000000y
0106243002757TFNYF0200006134592SNFTW     FITX   201207                    00000+07038000             000000000             000000000             0002    00000000201206250832200000000000000000000y
0106243002758TFNYF0200006134592BNFTW     FITX   201207                    00000+07043000             000000000             000000000             0002    00000000201206250832200000000000000000000y
0106243002759TFNYF0200006134592SNFTW     FITX   201207                    00000+07040000             000000000             000000000             0002    00000000201206250832200000000000000000000y
0106243002760TFNYF0200006134592BNFTW     FITX   201207                    00000+07031000             000000000             000000000             0002    00000000201206250832200000000000000000000y
0106243002761TFNYF0200006134592SNFTW     FITX   201207                    00000+07026000             000000000             000000000             0002    00000000201206250832200000000000000000000y
0106243002762TFNYF0200006134592BNFTW     FITX   201207                    00000+07034000             000000000             000000000             0002    00000000201206250832200000000000000000000y
0106243002763TFNYF0200006134592SNFTW     FITX   201207                    00000+07030000             000000000             000000000             0002    00000000201206250832200000000000000000000y
0106243002764TFNYF0200006134592BNFTW     FITX   201207                    00000+07035000             000000000             000000000             0002    00000000201206250832200000000000000000000y
0106243002768TFNYF0200006134592BNFTW     FITX   201207                    00000+07014000             000000000             000000000             0002    00000000201206250832200000000000000000000y
0106243002772TFNYF0200006134592BNFTW     FITX   201207                    00000+07014000             000000000             000000000             0002    00000000201206250832210000000000000000000y
0106243002950TFNYF0200006134592SNFTW     FITX   201207                    00000+06999000             000000000             000000000             0002    00000000201206250832210000000000000000000y
0106243002951TFNYF0200006134592BNFTW     FITX   201207                    00000+07013000             000000000             000000000             0002    00000000201206250832210000000000000000000y
0106243002952TFNYF0200006134592SNFTW     FITX   201207                    00000+07024000             000000000             000000000             0002    00000000201206250832210000000000000000000y
0106243002953TFNYF0200006134592BNFTW     FITX   201207                    00000+07028000             000000000             000000000             0002    00000000201206250832210000000000000000000y
0106243002954TFNYF0200006134592SNFTW     FITX   201207                    00000+07026000             000000000             000000000             0002    00000000201206250832210000000000000000000y
0106243002955TFNYF0200006134592BNFTW     FITX   201207                    00000+07030000             000000000             000000000             0002    00000000201206250832210000000000000000000y
0106243002956TFNYF0200006134592SNFTW     FITX   201207                    00000+07037000             000000000             000000000             0002    00000000201206250832210000000000000000000y
0106243002957TFNYF0200006134592BNFTW     FITX   201207                    00000+07031000             000000000             000000000             0002    00000000201206250832210000000000000000000y
0106243002958TFNYF0200006134592SNFTW     FITX   201207                    00000+07034000             000000000             000000000             0002    00000000201206250832210000000000000000000y
0106243002959TFNYF0200006134592BNFTW     FITX   201207                    00000+07036000             000000000             000000000             0002    00000000201206250832210000000000000000000y
0106243002960TFNYF0200006134592SNFTW     FITX   201207                    00000+07031000             000000000             000000000             0002    00000000201206250832220000000000000000000y
0106243002961TFNYF0200006134592BNFTW     FITX   201207                    00000+07037000             000000000             000000000             0002    00000000201206250832220000000000000000000y
0106243002962TFNYF0200006134592SNFTW     FITX   201207                    00000+07038000             000000000             000000000             0002    00000000201206250832220000000000000000000y
0106243002963TFNYF0200006134592BNFTW     FITX   201207                    00000+07043000             000000000             000000000             0002    00000000201206250832220000000000000000000y
0106243002964TFNYF0200006134592SNFTW     FITX   201207                    00000+07040000             000000000             000000000             0002    00000000201206250832220000000000000000000y
0106243002965TFNYF0200006134592BNFTW     FITX   201207                    00000+07031000             000000000             000000000             0002    00000000201206250832220000000000000000000y
0106243002966TFNYF0200006134592SNFTW     FITX   201207                    00000+07026000             000000000             000000000             0002    00000000201206250832220000000000000000000y
0106243002967TFNYF0200006134592BNFTW     FITX   201207                    00000+07034000             000000000             000000000             0002    00000000201206250832220000000000000000000y
0106243002968TFNYF0200006134592SNFTW     FITX   201207                    00000+07030000             000000000             000000000             0002    00000000201206250832220000000000000000000y
0106243002969TFNYF0200006134592BNFTW     FITX   201207                    00000+07035000             000000000             000000000             0002    00000000201206250832220000000000000000000y
0106243002972TFNYF0200006134592BNFTW     FITX   201207                    00000+07008000             000000000             000000000             0001    00000000201206250832220000000000000000000y
0106243002973TFNYF0200006134592BNFTW     FITX   201207                    00000+07013000             000000000             000000000             0001    00000000201206250832230000000000000000000y
0106243002974TFNYF0200006134592SNFTW     FITX   201207                    00000+07024000             000000000             000000000             0002    00000000201206250832230000000000000000000y
0106243002975TFNYF0200006134592BNFTW     FITX   201207                    00000+07028000             000000000             000000000             0002    00000000201206250832230000000000000000000y
0106243002977TFNYF0200006134592SNFTW     FITX   201207                    00000+07026000             000000000             000000000             0002    00000000201206250832230000000000000000000y
0106243002978TFNYF0200006134592BNFTW     FITX   201207                    00000+07030000             000000000             000000000             0002    00000000201206250832230000000000000000000y
0106243002981TFNYF0200006134592SNFTW     FITX   201207                    00000+07037000             000000000             000000000             0002    00000000201206250832230000000000000000000y
0106243002982TFNYF0200006134592BNFTW     FITX   201207                    00000+07031000             000000000             000000000             0002    00000000201206250832230000000000000000000y
0106243002983TFNYF0200006134592SNFTW     FITX   201207                    00000+07034000             000000000             000000000             0002    00000000201206250832230000000000000000000y
0106243002984TFNYF0200006134592BNFTW     FITX   201207                    00000+07036000             000000000             000000000             0002    00000000201206250832230000000000000000000y
0106243002849TFNYF0200006134592BNFTW     FITX   201207                    00000+07014000             000000000             000000000             0002    00000000201206250832230000000000000000000y
0106243002850TFNYF0200006134592SNFTW     FITX   201207                    00000+06999000             000000000             000000000             0002    00000000201206250832230000000000000000000y
0106243002851TFNYF0200006134592BNFTW     FITX   201207                    00000+07013000             000000000             000000000             0002    00000000201206250832230000000000000000000y
0106243002852TFNYF0200006134592SNFTW     FITX   201207                    00000+07024000             000000000             000000000             0002    00000000201206250832240000000000000000000y
0106243002853TFNYF0200006134592BNFTW     FITX   201207                    00000+07028000             000000000             000000000             0002    00000000201206250832240000000000000000000y
0106243002854TFNYF0200006134592SNFTW     FITX   201207                    00000+07026000             000000000             000000000             0002    00000000201206250832240000000000000000000y
0106243002855TFNYF0200006134592BNFTW     FITX   201207                    00000+07030000             000000000             000000000             0002    00000000201206250832240000000000000000000y
0106243002856TFNYF0200006134592SNFTW     FITX   201207                    00000+07037000             000000000             000000000             0002    00000000201206250832240000000000000000000y
0106243002857TFNYF0200006134592BNFTW     FITX   201207                    00000+07031000             000000000             000000000             0002    00000000201206250832240000000000000000000y
0106243002858TFNYF0200006134592SNFTW     FITX   201207                    00000+07034000             000000000             000000000             0002    00000000201206250832240000000000000000000y
0106243002859TFNYF0200006134592BNFTW     FITX   201207                    00000+07036000             000000000             000000000             0002    00000000201206250832240000000000000000000y
0106243002860TFNYF0200006134592SNFTW     FITX   201207                    00000+07031000             000000000             000000000             0002    00000000201206250832240000000000000000000y
0106243002861TFNYF0200006134592BNFTW     FITX   201207                    00000+07037000             000000000             000000000             0002    00000000201206250832240000000000000000000y
0106243002862TFNYF0200006134592SNFTW     FITX   201207                    00000+07038000             000000000             000000000             0002    00000000201206250832250000000000000000000y
0106243002863TFNYF0200006134592BNFTW     FITX   201207                    00000+07043000             000000000             000000000             0002    00000000201206250832250000000000000000000y
0106243002864TFNYF0200006134592SNFTW     FITX   201207                    00000+07040000             000000000             000000000             0002    00000000201206250832250000000000000000000y
0106243002865TFNYF0200006134592BNFTW     FITX   201207                    00000+07031000             000000000             000000000             0002    00000000201206250832250000000000000000000y
0106243002866TFNYF0200006134592SNFTW     FITX   201207                    00000+07026000             000000000             000000000             0002    00000000201206250832250000000000000000000y
0106243002867TFNYF0200006134592BNFTW     FITX   201207                    00000+07034000             000000000             000000000             0002    00000000201206250832250000000000000000000y
0106243002868TFNYF0200006134592SNFTW     FITX   201207                    00000+07030000             000000000             000000000             0002    00000000201206250832250000000000000000000y
0106243002869TFNYF0200006134592BNFTW     FITX   201207                    00000+07035000             000000000             000000000             0002    00000000201206250832250000000000000000000y
0106243002876TFNYF0200006134592BNFTW     FITX   201207                    00000+07008000             000000000             000000000             0001    00000000201206250832250000000000000000000y
0106243002877TFNYF0200006134592BNFTW     FITX   201207                    00000+07013000             000000000             000000000             0001    00000000201206250832250000000000000000000y
0106243002878TFNYF0200006134592SNFTW     FITX   201207                    00000+07024000             000000000             000000000             0002    00000000201206250832250000000000000000000y
0106243002879TFNYF0200006134592BNFTW     FITX   201207                    00000+07028000             000000000             000000000             0002    00000000201206250832250000000000000000000y
0106243003021TFNYF0200006134592SNFTW     FITX   201207                    00000+07036000             000000000             000000000             0002    00000000201206250832260000000000000000000y
0106243003022TFNYF0200006134592BNFTW     FITX   201207                    00000+07040000             000000000             000000000             0002    00000000201206250832260000000000000000000y
0106243003023TFNYF0200006134592SNFTW     FITX   201207                    00000+07033000             000000000             000000000             0002    00000000201206250832260000000000000000000y
0106243003024TFNYF0200006134592BNFTW     FITX   201207                    00000+07039000             000000000             000000000             0002    00000000201206250832260000000000000000000y
0106243003025TFNYF0200006134592SNFTW     FITX   201207                    00000+07033000             000000000             000000000             0002    00000000201206250832260000000000000000000y
0106243003026TFNYF0200006134592BNFTW     FITX   201207                    00000+07030000             000000000             000000000             0002    00000000201206250832260000000000000000000y
0106243003027TFNYF0200006134592SNFTW     FITX   201207                    00000+07031000             000000000             000000000             0002    00000000201206250832260000000000000000000y
0106243003028TFNYF0200006134592BNFTW     FITX   201207                    00000+07037000             000000000             000000000             0002    00000000201206250832260000000000000000000y
0106243003044TFNYF0200006134592BNFTW     FITX   201207                    00000+07008000             000000000             000000000             0001    00000000201206250832260000000000000000000y
0106243003045TFNYF0200006134592BNFTW     FITX   201207                    00000+07019000             000000000             000000000             0001    00000000201206250832260000000000000000000y
0106243003046TFNYF0200006134592SNFTW     FITX   201207                    00000+07026000             000000000             000000000             0002    00000000201206250832260000000000000000000y
0106243003047TFNYF0200006134592BNFTW     FITX   201207                    00000+07026000             000000000             000000000             0001    00000000201206250832260000000000000000000y
0106243003048TFNYF0200006134592BNFTW     FITX   201207                    00000+07042000             000000000             000000000             0001    00000000201206250832270000000000000000000y
0106243003049TFNYF0200006134592SNFTW     FITX   201207                    00000+07035000             000000000             000000000             0001    00000000201206250832270000000000000000000y
0106243003054TFNYF0200006134592BNFTW     FITX   201207                    00000+07008000             000000000             000000000             0001    00000000201206250832270000000000000000000y
0106243003055TFNYF0200006134592BNFTW     FITX   201207                    00000+07019000             000000000             000000000             0001    00000000201206250832270000000000000000000y
0106243002985TFNYF0200006134592SNFTW     FITX   201207                    00000+07031000             000000000             000000000             0002    00000000201206250832270000000000000000000y
0106243002986TFNYF0200006134592BNFTW     FITX   201207                    00000+07037000             000000000             000000000             0002    00000000201206250832270000000000000000000y
0106243002987TFNYF0200006134592SNFTW     FITX   201207                    00000+07038000             000000000             000000000             0002    00000000201206250832270000000000000000000y
0106243002988TFNYF0200006134592BNFTW     FITX   201207                    00000+07043000             000000000             000000000             0002    00000000201206250832270000000000000000000y
0106243002989TFNYF0200006134592SNFTW     FITX   201207                    00000+07040000             000000000             000000000             0002    00000000201206250832270000000000000000000y
0106243002990TFNYF0200006134592BNFTW     FITX   201207                    00000+07031000             000000000             000000000             0002    00000000201206250832280000000000000000000y
0106243002991TFNYF0200006134592SNFTW     FITX   201207                    00000+07026000             000000000             000000000             0002    00000000201206250832280000000000000000000y
0106243002992TFNYF0200006134592BNFTW     FITX   201207                    00000+07034000             000000000             000000000             0002    00000000201206250832280000000000000000000y
0106243002993TFNYF0200006134592SNFTW     FITX   201207                    00000+07030000             000000000             000000000             0002    00000000201206250832280000000000000000000y
0106243002994TFNYF0200006134592BNFTW     FITX   201207                    00000+07035000             000000000             000000000             0002    00000000201206250832280000000000000000000y
0106243002997TFNYF0200006134592BNFTW     FITX   201207                    00000+07008000             000000000             000000000             0001    00000000201206250832280000000000000000000y
0106243002998TFNYF0200006134592BNFTW     FITX   201207                    00000+07013000             000000000             000000000             0001    00000000201206250832280000000000000000000y
0106243002999TFNYF0200006134592SNFTW     FITX   201207                    00000+07024000             000000000             000000000             0002    00000000201206250832280000000000000000000y
0106243003000TFNYF0200006134592BNFTW     FITX   201207                    00000+07028000             000000000             000000000             0002    00000000201206250832280000000000000000000y
0106243003002TFNYF0200006134592SNFTW     FITX   201207                    00000+07026000             000000000             000000000             0002    00000000201206250832280000000000000000000y
0106243003003TFNYF0200006134592BNFTW     FITX   201207                    00000+07030000             000000000             000000000             0002    00000000201206250832280000000000000000000y
0106243003004TFNYF0200006134592SNFTW     FITX   201207                    00000+07037000             000000000             000000000             0002    00000000201206250832280000000000000000000y
0106243003005TFNYF0200006134592BNFTW     FITX   201207                    00000+07031000             000000000             000000000             0002    00000000201206250832280000000000000000000y
0106243003006TFNYF0200006134592SNFTW     FITX   201207                    00000+07034000             000000000             000000000             0002    00000000201206250832280000000000000000000y
0106243003007TFNYF0200006134592BNFTW     FITX   201207                    00000+07036000             000000000             000000000             0002    00000000201206250832290000000000000000000y
0106243003008TFNYF0200006134592SNFTW     FITX   201207                    00000+07031000             000000000             000000000             0002    00000000201206250832290000000000000000000y
0106243003009TFNYF0200006134592BNFTW     FITX   201207                    00000+07037000             000000000             000000000             0002    00000000201206250832290000000000000000000y
0106243003010TFNYF0200006134592SNFTW     FITX   201207                    00000+07038000             000000000             000000000             0002    00000000201206250832290000000000000000000y
0106243003011TFNYF0200006134592BNFTW     FITX   201207                    00000+07043000             000000000             000000000             0002    00000000201206250832290000000000000000000y
0106243003012TFNYF0200006134592SNFTW     FITX   201207                    00000+07040000             000000000             000000000             0002    00000000201206250832290000000000000000000y
0106243003013TFNYF0200006134592BNFTW     FITX   201207                    00000+07031000             000000000             000000000             0002    00000000201206250832290000000000000000000y
0106243003014TFNYF0200006134592SNFTW     FITX   201207                    00000+07026000             000000000             000000000             0002    00000000201206250832290000000000000000000y
0106243003015TFNYF0200006134592BNFTW     FITX   201207                    00000+07034000             000000000             000000000             0002    00000000201206250832290000000000000000000y
0106243003016TFNYF0200006134592SNFTW     FITX   201207                    00000+07030000             000000000             000000000             0002    00000000201206250832290000000000000000000y
0106243003017TFNYF0200006134592BNFTW     FITX   201207                    00000+07035000             000000000             000000000             0002    00000000201206250832290000000000000000000y
0106243003019TFNYF0200006134592BNFTW     FITX   201207                    00000+07008000             000000000             000000000             0001    00000000201206250832290000000000000000000y
0106243003020TFNYF0200006134592BNFTW     FITX   201207                    00000+07026000             000000000             000000000             0001    00000000201206250832300000000000000000000y
0106233000245TFNYF0200006134592BNFTW     FITX   201207                    00000+07008000             000000000             000000000             0001    00000000201206250832300000000000000000000y
0106233000246TFNYF0200006134592BNFTW     FITX   201207                    00000+07008000             000000000             000000000             0001    00000000201206250832300000000000000000000y
0106233000247TFNYF0200006134592BNFTW     FITX   201207                    00000+07008000             000000000             000000000             0001    00000000201206250832300000000000000000000y
0106233000248TFNYF0200006134592BNFTW     FITX   201207                    00000+07019000             000000000             000000000             0001    00000000201206250832300000000000000000000y
0106233000249TFNYF0200006134592SNFTW     FITX   201207                    00000+07026000             000000000             000000000             0002    00000000201206250832300000000000000000000y
0106233000250TFNYF0200006134592BNFTW     FITX   201207                    00000+07026000             000000000             000000000             0001    00000000201206250832300000000000000000000y
0106233000251TFNYF0200006134592BNFTW     FITX   201207                    00000+07042000             000000000             000000000             0001    00000000201206250832300000000000000000000y
0106233000252TFNYF0200006134592SNFTW     FITX   201207                    00000+07035000             000000000             000000000             0001    00000000201206250832300000000000000000000y
0106233000253TFNYF0200006134592BNFTW     FITX   201207                    00000+07008000             000000000             000000000             0001    00000000201206250832300000000000000000000y
0106233000254TFNYF0200006134592BNFTW     FITX   201207                    00000+07008000             000000000             000000000             0001    00000000201206250832300000000000000000000y
0106233000255TFNYF0200006134592BNFTW     FITX   201207                    00000+07008000             000000000             000000000             0001    00000000201206250832300000000000000000000y
0106233000256TFNYF0200006134592BNFTW     FITX   201207                    00000+07019000             000000000             000000000             0001    00000000201206250832310000000000000000000y
0106233000257TFNYF0200006134592SNFTW     FITX   201207                    00000+07035000             000000000             000000000             0001    00000000201206250832310000000000000000000y
0106233000258TFNYF0200006134592BNFTW     FITX   201207                    00000+07008000             000000000             000000000             0001    00000000201206250832310000000000000000000y
0106233000259TFNYF0200006134592BNFTW     FITX   201207                    00000+07019000             000000000             000000000             0001    00000000201206250832310000000000000000000y
0106233000260TFNYF0200006134592SNFTW     FITX   201207                    00000+07035000             000000000             000000000             0001    00000000201206250832310000000000000000000y
0106223086733TFNYF0200006134592BNFTW     FITX   201207                    00000+07008000             000000000             000000000             0001    00000000201206250832310000000000000000000y
0106223086735TFNYF0200006134592BNFTW     FITX   201207                    00000+07008000             000000000             000000000             0001    00000000201206250832310000000000000000000y
0106243003234TFNYF0200006134592BNFTW     FITX   201207                    00000+07008000             000000000             000000000             0001    00000000201206250832310000000000000000000y
0106243003237TFNYF0200006134592BNFTW     FITX   201207                    00000+07019000             000000000             000000000             0001    00000000201206250832310000000000000000000y
0106243003240TFNYF0200006134592SNFTW     FITX   201207                    00000+07026000             000000000             000000000             0002    00000000201206250832310000000000000000000y
0106243003242TFNYF0200006134592BNFTW     FITX   201207                    00000+07042000             000000000             000000000             0002    00000000201206250832310000000000000000000y
0106243003248TFNYF0200006134592SNFTW     FITX   201207                    00000+07035000             000000000             000000000             0001    00000000201206250832320000000000000000000y
0106243003120TFNYF0200006134592BNFTW     FITX   201207                    00000+07019000             000000000             000000000             0001    00000000201206250832320000000000000000000y
0106243003121TFNYF0200006134592SNFTW     FITX   201207                    00000+07026000             000000000             000000000             0002    00000000201206250832320000000000000000000y
0106243003122TFNYF0200006134592BNFTW     FITX   201207                    00000+07026000             000000000             000000000             0001    00000000201206250832320000000000000000000y
0106243003123TFNYF0200006134592BNFTW     FITX   201207                    00000+07042000             000000000             000000000             0001    00000000201206250832320000000000000000000y
0106243003124TFNYF0200006134592SNFTW     FITX   201207                    00000+07035000             000000000             000000000             0001    00000000201206250832320000000000000000000y
0106243003127TFNYF0200006134592BNFTW     FITX   201207                    00000+07008000             000000000             000000000             0001    00000000201206250832320000000000000000000y
0106243003128TFNYF0200006134592BNFTW     FITX   201207                    00000+07019000             000000000             000000000             0001    00000000201206250832320000000000000000000y
0106243003129TFNYF0200006134592SNFTW     FITX   201207                    00000+07026000             000000000             000000000             0002    00000000201206250832320000000000000000000y
0106243003132TFNYF0200006134592BNFTW     FITX   201207                    00000+07026000             000000000             000000000             0001    00000000201206250832320000000000000000000y
0106243003133TFNYF0200006134592BNFTW     FITX   201207                    00000+07042000             000000000             000000000             0001    00000000201206250832320000000000000000000y
0106243003134TFNYF0200006134592SNFTW     FITX   201207                    00000+07035000             000000000             000000000             0001    00000000201206250832320000000000000000000y
0106243003153TFNYF0200006134592BNFTW     FITX   201207                    00000+07008000             000000000             000000000             0001    00000000201206250832320000000000000000000y
0106243003154TFNYF0200006134592BNFTW     FITX   201207                    00000+07019000             000000000             000000000             0001    00000000201206250832330000000000000000000y
0106243003155TFNYF0200006134592SNFTW     FITX   201207                    00000+07026000             000000000             000000000             0002    00000000201206250832330000000000000000000y
0106243002700TFNYF0200006134592BNFTW     FITX   201207                    00000+07014000             000000000             000000000             0002    00000000201206250832330000000000000000000y
0106243002596TFNYF0200006134592BNFTW     FITX   201207                    00000+07008000             000000000             000000000             0001    00000000201206250832330000000000000000000y
0106243002597TFNYF0200006134592BNFTW     FITX   201207                    00000+07019000             000000000             000000000             0001    00000000201206250832330000000000000000000y
0106243002598TFNYF0200006134592SNFTW     FITX   201207                    00000+07035000             000000000             000000000             0001    00000000201206250832330000000000000000000y
0106243003092TFNYF0200006134592SNFTW     FITX   201207                    00000+07035000             000000000             000000000             0001    00000000201206250832330000000000000000000y
0106243003119TFNYF0200006134592BNFTW     FITX   201207                    00000+07008000             000000000             000000000             0001    00000000201206250832330000000000000000000y
0106243002880TFNYF0200006134592SNFTW     FITX   201207                    00000+07026000             000000000             000000000             0002    00000000201206250832330000000000000000000y
0106243002881TFNYF0200006134592BNFTW     FITX   201207                    00000+07030000             000000000             000000000             0002    00000000201206250832330000000000000000000y
0106243002882TFNYF0200006134592SNFTW     FITX   201207                    00000+07037000             000000000             000000000             0002    00000000201206250832330000000000000000000y
0106243002883TFNYF0200006134592BNFTW     FITX   201207                    00000+07031000             000000000             000000000             0002    00000000201206250832340000000000000000000y
0106243002884TFNYF0200006134592SNFTW     FITX   201207                    00000+07034000             000000000             000000000             0002    00000000201206250832340000000000000000000y
0106243002885TFNYF0200006134592BNFTW     FITX   201207                    00000+07036000             000000000             000000000             0002    00000000201206250832340000000000000000000y
0106243002886TFNYF0200006134592SNFTW     FITX   201207                    00000+07031000             000000000             000000000             0002    00000000201206250832340000000000000000000y
0106243002887TFNYF0200006134592BNFTW     FITX   201207                    00000+07037000             000000000             000000000             0002    00000000201206250832340000000000000000000y
0106243002888TFNYF0200006134592SNFTW     FITX   201207                    00000+07038000             000000000             000000000             0002    00000000201206250832340000000000000000000y
0106243002889TFNYF0200006134592BNFTW     FITX   201207                    00000+07043000             000000000             000000000             0002    00000000201206250832340000000000000000000y
0106243002890TFNYF0200006134592SNFTW     FITX   201207                    00000+07040000             000000000             000000000             0002    00000000201206250832340000000000000000000y
0106243002891TFNYF0200006134592BNFTW     FITX   201207                    00000+07031000             000000000             000000000             0002    00000000201206250832340000000000000000000y
0106243002892TFNYF0200006134592SNFTW     FITX   201207                    00000+07026000             000000000             000000000             0002    00000000201206250832340000000000000000000y
0106243002893TFNYF0200006134592BNFTW     FITX   201207                    00000+07034000             000000000             000000000             0002    00000000201206250832350000000000000000000y
0106243002894TFNYF0200006134592SNFTW     FITX   201207                    00000+07030000             000000000             000000000             0002    00000000201206250832350000000000000000000y
0106243002895TFNYF0200006134592BNFTW     FITX   201207                    00000+07035000             000000000             000000000             0002    00000000201206250832350000000000000000000y
0106243002900TFNYF0200006134592BNFTW     FITX   201207                    00000+07008000             000000000             000000000             0001    00000000201206250832350000000000000000000y
0106243002902TFNYF0200006134592BNFTW     FITX   201207                    00000+07013000             000000000             000000000             0001    00000000201206250832350000000000000000000y
0106243002903TFNYF0200006134592SNFTW     FITX   201207                    00000+07024000             000000000             000000000             0002    00000000201206250832350000000000000000000y
0106243002904TFNYF0200006134592BNFTW     FITX   201207                    00000+07028000             000000000             000000000             0002    00000000201206250832350000000000000000000y
0106243002905TFNYF0200006134592SNFTW     FITX   201207                    00000+07026000             000000000             000000000             0002    00000000201206250832350000000000000000000y
0106243002906TFNYF0200006134592BNFTW     FITX   201207                    00000+07030000             000000000             000000000             0002    00000000201206250832350000000000000000000y
0106243002907TFNYF0200006134592SNFTW     FITX   201207                    00000+07037000             000000000             000000000             0002    00000000201206250832350000000000000000000y
0106243002908TFNYF0200006134592BNFTW     FITX   201207                    00000+07031000             000000000             000000000             0002    00000000201206250832350000000000000000000y
0106243002909TFNYF0200006134592SNFTW     FITX   201207                    00000+07034000             000000000             000000000             0002    00000000201206250832350000000000000000000y
0106243002910TFNYF0200006134592BNFTW     FITX   201207                    00000+07036000             000000000             000000000             0002    00000000201206250832360000000000000000000y
0106243002911TFNYF0200006134592SNFTW     FITX   201207                    00000+07031000             000000000             000000000             0002    00000000201206250832360000000000000000000y
0106243002912TFNYF0200006134592BNFTW     FITX   201207                    00000+07037000             000000000             000000000             0002    00000000201206250832360000000000000000000y
0106243002913TFNYF0200006134592SNFTW     FITX   201207                    00000+07038000             000000000             000000000             0002    00000000201206250832360000000000000000000y
0106243002701TFNYF0200006134592SNFTW     FITX   201207                    00000+06999000             000000000             000000000             0002    00000000201206250832360000000000000000000y
0106243002702TFNYF0200006134592BNFTW     FITX   201207                    00000+07013000             000000000             000000000             0002    00000000201206250832360000000000000000000y
0106243002703TFNYF0200006134592SNFTW     FITX   201207                    00000+07024000             000000000             000000000             0002    00000000201206250832360000000000000000000y
0106243002704TFNYF0200006134592BNFTW     FITX   201207                    00000+07028000             000000000             000000000             0002    00000000201206250832360000000000000000000y
0106243002705TFNYF0200006134592SNFTW     FITX   201207                    00000+07026000             000000000             000000000             0002    00000000201206250832360000000000000000000y
0106243002706TFNYF0200006134592BNFTW     FITX   201207                    00000+07030000             000000000             000000000             0002    00000000201206250832360000000000000000000y
0106243002707TFNYF0200006134592SNFTW     FITX   201207                    00000+07037000             000000000             000000000             0002    00000000201206250832360000000000000000000y
0106243002708TFNYF0200006134592BNFTW     FITX   201207                    00000+07031000             000000000             000000000             0002    00000000201206250832360000000000000000000y
0106243002709TFNYF0200006134592SNFTW     FITX   201207                    00000+07034000             000000000             000000000             0002    00000000201206250832370000000000000000000y
0106243002710TFNYF0200006134592BNFTW     FITX   201207                    00000+07036000             000000000             000000000             0002    00000000201206250832370000000000000000000y
0106243002711TFNYF0200006134592SNFTW     FITX   201207                    00000+07031000             000000000             000000000             0002    00000000201206250832370000000000000000000y
0106243002712TFNYF0200006134592BNFTW     FITX   201207                    00000+07037000             000000000             000000000             0002    00000000201206250832370000000000000000000y
0106243002713TFNYF0200006134592SNFTW     FITX   201207                    00000+07038000             000000000             000000000             0002    00000000201206250832370000000000000000000y
0106243002714TFNYF0200006134592BNFTW     FITX   201207                    00000+07043000             000000000             000000000             0002    00000000201206250832370000000000000000000y
0106243002715TFNYF0200006134592SNFTW     FITX   201207                    00000+07040000             000000000             000000000             0002    00000000201206250832370000000000000000000y
0106243002716TFNYF0200006134592BNFTW     FITX   201207                    00000+07031000             000000000             000000000             0002    00000000201206250832370000000000000000000y
0106243002735TFNYF0200006134592SNFTW     FITX   201207                    00000+07026000             000000000             000000000             0002    00000000201206250832370000000000000000000y
0106243002736TFNYF0200006134592BNFTW     FITX   201207                    00000+07034000             000000000             000000000             0002    00000000201206250832380000000000000000000y
0106243002916TFNYF0200006134592BNFTW     FITX   201207                    00000+07031000             000000000             000000000             0002    00000000201206250832380000000000000000000y
0106243002917TFNYF0200006134592SNFTW     FITX   201207                    00000+07026000             000000000             000000000             0002    00000000201206250832380000000000000000000y
0106243002918TFNYF0200006134592BNFTW     FITX   201207                    00000+07034000             000000000             000000000             0002    00000000201206250832380000000000000000000y
0106243002919TFNYF0200006134592SNFTW     FITX   201207                    00000+07030000             000000000             000000000             0002    00000000201206250832380000000000000000000y
0106243002920TFNYF0200006134592BNFTW     FITX   201207                    00000+07035000             000000000             000000000             0002    00000000201206250832380000000000000000000y
0106243002922TFNYF0200006134592BNFTW     FITX   201207                    00000+07008000             000000000             000000000             0001    00000000201206250832380000000000000000000y
0106243002914TFNYF0200006134592BNFTW     FITX   201207                    00000+07043000             000000000             000000000             0002    00000000201206250832380000000000000000000y
0106243002915TFNYF0200006134592SNFTW     FITX   201207                    00000+07040000             000000000             000000000             0002    00000000201206250832380000000000000000000y
0106243002923TFNYF0200006134592BNFTW     FITX   201207                    00000+07013000             000000000             000000000             0001    00000000201206250832390000000000000000000y
0106243002924TFNYF0200006134592SNFTW     FITX   201207                    00000+07024000             000000000             000000000             0002    00000000201206250832390000000000000000000y
0106243002925TFNYF0200006134592BNFTW     FITX   201207                    00000+07028000             000000000             000000000             0002    00000000201206250832390000000000000000000y
0106243002926TFNYF0200006134592SNFTW     FITX   201207                    00000+07026000             000000000             000000000             0002    00000000201206250832390000000000000000000y
0106243002927TFNYF0200006134592BNFTW     FITX   201207                    00000+07030000             000000000             000000000             0002    00000000201206250832390000000000000000000y
0106243002928TFNYF0200006134592SNFTW     FITX   201207                    00000+07037000             000000000             000000000             0002    00000000201206250832390000000000000000000y
0106243002929TFNYF0200006134592BNFTW     FITX   201207                    00000+07031000             000000000             000000000             0002    00000000201206250832390000000000000000000y
0106243002930TFNYF0200006134592SNFTW     FITX   201207                    00000+07034000             000000000             000000000             0002    00000000201206250832390000000000000000000y
0106243002931TFNYF0200006134592BNFTW     FITX   201207                    00000+07036000             000000000             000000000             0002    00000000201206250832390000000000000000000y
0106243002932TFNYF0200006134592SNFTW     FITX   201207                    00000+07031000             000000000             000000000             0002    00000000201206250832390000000000000000000y
0106243002933TFNYF0200006134592BNFTW     FITX   201207                    00000+07037000             000000000             000000000             0002    00000000201206250832390000000000000000000y
0106243002934TFNYF0200006134592SNFTW     FITX   201207                    00000+07038000             000000000             000000000             0002    00000000201206250832390000000000000000000y
0106243002935TFNYF0200006134592BNFTW     FITX   201207                    00000+07043000             000000000             000000000             0002    00000000201206250832400000000000000000000y
0106243002937TFNYF0200006134592SNFTW     FITX   201207                    00000+07040000             000000000             000000000             0002    00000000201206250832400000000000000000000y
0106243002938TFNYF0200006134592BNFTW     FITX   201207                    00000+07031000             000000000             000000000             0002    00000000201206250832400000000000000000000y
0106243002939TFNYF0200006134592SNFTW     FITX   201207                    00000+07026000             000000000             000000000             0002    00000000201206250832400000000000000000000y
0106243002940TFNYF0200006134592BNFTW     FITX   201207                    00000+07034000             000000000             000000000             0002    00000000201206250832400000000000000000000y
0106243002941TFNYF0200006134592SNFTW     FITX   201207                    00000+07030000             000000000             000000000             0002    00000000201206250832400000000000000000000y
0106243002942TFNYF0200006134592BNFTW     FITX   201207                    00000+07035000             000000000             000000000             0002    00000000201206250832400000000000000000000y
0106243002949TFNYF0200006134592BNFTW     FITX   201207                    00000+07014000             000000000             000000000             0002    00000000201206250832400000000000000000000y
0106243003056TFNYF0200006134592SNFTW     FITX   201207                    00000+07026000             000000000             000000000             0002    00000000201206250832400000000000000000000y
0106243003057TFNYF0200006134592BNFTW     FITX   201207                    00000+07026000             000000000             000000000             0001    00000000201206250832400000000000000000000y
0106243003058TFNYF0200006134592BNFTW     FITX   201207                    00000+07042000             000000000             000000000             0001    00000000201206250832400000000000000000000y
