---
---
0107213000312TFNYF0200006134592BNFTW     FITX   201208                    00000+07012000             000000000             000000000             0002    00000000201207230832190000000000000000000y
0107213000313TFNYF0200006134592SNFTW     FITX   201208                    00000+07009000             000000000             000000000             0002    00000000201207230832190000000000000000000y
0107213000314TFNYF0200006134592BNFTW     FITX   201208                    00000+07008000             000000000             000000000             0002    00000000201207230832190000000000000000000y
0107213000315TFNYF0200006134592SNFTW     FITX   201208                    00000+07013000             000000000             000000000             0002    00000000201207230832190000000000000000000y
0107213000316TFNYF0200006134592BNFTW     FITX   201208                    00000+07015000             000000000             000000000             0002    00000000201207230832190000000000000000000y
0107213000317TFNYF0200006134592SNFTW     FITX   201208                    00000+07013000             000000000             000000000             0002    00000000201207230832190000000000000000000y
0107213000318TFNYF0200006134592BNFTW     FITX   201208                    00000+07019000             000000000             000000000             0002    00000000201207230832190000000000000000000y
0107213000319TFNYF0200006134592SNFTW     FITX   201208                    00000+07012000             000000000             000000000             0002    00000000201207230832190000000000000000000y
0107213000320TFNYF0200006134592BNFTW     FITX   201208                    00000+07015000             000000000             000000000             0002    00000000201207230832190000000000000000000y
0107213000321TFNYF0200006134592SNFTW     FITX   201208                    00000+07013000             000000000             000000000             0002    00000000201207230832200000000000000000000y
0107213000322TFNYF0200006134592BNFTW     FITX   201208                    00000+07019000             000000000             000000000             0002    00000000201207230832200000000000000000000y
0107213000323TFNYF0200006134592SNFTW     FITX   201208                    00000+07012000             000000000             000000000             0002    00000000201207230832200000000000000000000y
0107213000310TFNYF0200006134592BNFTW     FITX   201208                    00000+07006000             000000000             000000000             0002    00000000201207230832200000000000000000000y
0107213000324TFNYF0200006134592BNFTW     FITX   201208                    00000+07015000             000000000             000000000             0002    00000000201207230832200000000000000000000y
0107213000311TFNYF0200006134592SNFTW     FITX   201208                    00000+07010000             000000000             000000000             0002    00000000201207230832200000000000000000000y
0107213000325TFNYF0200006134592SNFTW     FITX   201208                    00000+07008000             000000000             000000000             0002    00000000201207230832200000000000000000000y
0107213000326TFNYF0200006134592BNFTW     FITX   201208                    00000+07019000             000000000             000000000             0002    00000000201207230832200000000000000000000y
0107213000327TFNYF0200006134592SNFTW     FITX   201208                    00000+07028000             000000000             000000000             0002    00000000201207230832200000000000000000000y
0107213000328TFNYF0200006134592BNFTW     FITX   201208                    00000+07003000             000000000             000000000             0002    00000000201207230832200000000000000000000y
0107213000329TFNYF0200006134592SNFTW     FITX   201208                    00000+07003000             000000000             000000000             0002    00000000201207230832200000000000000000000y
0107213000330TFNYF0200006134592BNFTW     FITX   201208                    00000+07014000             000000000             000000000             0002    00000000201207230832210000000000000000000y
0107213000331TFNYF0200006134592SNFTW     FITX   201208                    00000+07013000             000000000             000000000             0002    00000000201207230832210000000000000000000y
0107213000332TFNYF0200006134592BNFTW     FITX   201208                    00000+07019000             000000000             000000000             0002    00000000201207230832210000000000000000000y
0107213000333TFNYF0200006134592SNFTW     FITX   201208                    00000+07012000             000000000             000000000             0002    00000000201207230832210000000000000000000y
0107213000334TFNYF0200006134592BNFTW     FITX   201208                    00000+07015000             000000000             000000000             0002    00000000201207230832210000000000000000000y
0107213000335TFNYF0200006134592SNFTW     FITX   201208                    00000+07008000             000000000             000000000             0002    00000000201207230832210000000000000000000y
0107213000336TFNYF0200006134592BNFTW     FITX   201208                    00000+07019000             000000000             000000000             0002    00000000201207230832210000000000000000000y
0107213000337TFNYF0200006134592SNFTW     FITX   201208                    00000+07028000             000000000             000000000             0002    00000000201207230832210000000000000000000y
0107213000338TFNYF0200006134592BNFTW     FITX   201208                    00000+07003000             000000000             000000000             0002    00000000201207230832210000000000000000000y
0107213000339TFNYF0200006134592SNFTW     FITX   201208                    00000+07003000             000000000             000000000             0002    00000000201207230832210000000000000000000y
0107213000340TFNYF0200006134592BNFTW     FITX   201208                    00000+07014000             000000000             000000000             0002    00000000201207230832210000000000000000000y
0107213000341TFNYF0200006134592SNFTW     FITX   201208                    00000+07013000             000000000             000000000             0002    00000000201207230832210000000000000000000y
0107213000342TFNYF0200006134592BNFTW     FITX   201208                    00000+07019000             000000000             000000000             0002    00000000201207230832220000000000000000000y
0107213000343TFNYF0200006134592SNFTW     FITX   201208                    00000+07012000             000000000             000000000             0002    00000000201207230832220000000000000000000y
0107213000344TFNYF0200006134592BNFTW     FITX   201208                    00000+07015000             000000000             000000000             0002    00000000201207230832220000000000000000000y
0107213000345TFNYF0200006134592SNFTW     FITX   201208                    00000+07013000             000000000             000000000             0002    00000000201207230832220000000000000000000y
0107213000248TFNYF0200006134592SNFTW     FITX   201208                    00000+07013000             000000000             000000000             0002    00000000201207230832220000000000000000000y
0107213000247TFNYF0200006134592BNFTW     FITX   201208                    00000+07015000             000000000             000000000             0002    00000000201207230832220000000000000000000y
0107213000249TFNYF0200006134592BNFTW     FITX   201208                    00000+07019000             000000000             000000000             0002    00000000201207230832220000000000000000000y
0107213000250TFNYF0200006134592SNFTW     FITX   201208                    00000+07012000             000000000             000000000             0002    00000000201207230832220000000000000000000y
0107213000251TFNYF0200006134592BNFTW     FITX   201208                    00000+07015000             000000000             000000000             0002    00000000201207230832220000000000000000000y
0107213000252TFNYF0200006134592SNFTW     FITX   201208                    00000+07007000             000000000             000000000             0002    00000000201207230832230000000000000000000y
0107213000253TFNYF0200006134592BNFTW     FITX   201208                    00000+07020000             000000000             000000000             0002    00000000201207230832230000000000000000000y
0107213000254TFNYF0200006134592SNFTW     FITX   201208                    00000+07020000             000000000             000000000             0002    00000000201207230832230000000000000000000y
0107213000255TFNYF0200006134592BNFTW     FITX   201208                    00000+07013000             000000000             000000000             0002    00000000201207230832230000000000000000000y
0107213000256TFNYF0200006134592SNFTW     FITX   201208                    00000+07001000             000000000             000000000             0002    00000000201207230832230000000000000000000y
0107213000257TFNYF0200006134592BNFTW     FITX   201208                    00000+07015000             000000000             000000000             0002    00000000201207230832230000000000000000000y
0107213000263TFNYF0200006134592SNFTW     FITX   201208                    00000+07013000             000000000             000000000             0002    00000000201207230832230000000000000000000y
0107213000264TFNYF0200006134592BNFTW     FITX   201208                    00000+07019000             000000000             000000000             0002    00000000201207230832230000000000000000000y
0107213000265TFNYF0200006134592SNFTW     FITX   201208                    00000+07012000             000000000             000000000             0002    00000000201207230832230000000000000000000y
0107213000266TFNYF0200006134592BNFTW     FITX   201208                    00000+07015000             000000000             000000000             0002    00000000201207230832230000000000000000000y
0107213000267TFNYF0200006134592SNFTW     FITX   201208                    00000+07013000             000000000             000000000             0002    00000000201207230832230000000000000000000y
0107213000268TFNYF0200006134592BNFTW     FITX   201208                    00000+07019000             000000000             000000000             0002    00000000201207230832230000000000000000000y
0107213000269TFNYF0200006134592SNFTW     FITX   201208                    00000+07012000             000000000             000000000             0002    00000000201207230832230000000000000000000y
0107213000270TFNYF0200006134592BNFTW     FITX   201208                    00000+07015000             000000000             000000000             0002    00000000201207230832240000000000000000000y
0107213000271TFNYF0200006134592SNFTW     FITX   201208                    00000+07013000             000000000             000000000             0002    00000000201207230832240000000000000000000y
0107213000272TFNYF0200006134592BNFTW     FITX   201208                    00000+07019000             000000000             000000000             0002    00000000201207230832240000000000000000000y
0107213000273TFNYF0200006134592SNFTW     FITX   201208                    00000+07012000             000000000             000000000             0002    00000000201207230832240000000000000000000y
0107213000195TFNYF0200006134592SNFTW     FITX   201208                    00000+07013000             000000000             000000000             0002    00000000201207230832240000000000000000000y
0107213000196TFNYF0200006134592BNFTW     FITX   201208                    00000+07015000             000000000             000000000             0002    00000000201207230832240000000000000000000y
0107223000276TFNYF0200006134592SNFTW     FITX   201208                    00000+07014000             000000000             000000000             0002    00000000201207230832240000000000000000000y
0107223000277TFNYF0200006134592BNFTW     FITX   201208                    00000+07015000             000000000             000000000             0002    00000000201207230832240000000000000000000y
0107223000278TFNYF0200006134592SNFTW     FITX   201208                    00000+07016000             000000000             000000000             0001    00000000201207230832240000000000000000000y
0107223000279TFNYF0200006134592SNFTW     FITX   201208                    00000+07011000             000000000             000000000             0001    00000000201207230832240000000000000000000y
0107223000280TFNYF0200006134592BNFTW     FITX   201208                    00000+07015000             000000000             000000000             0002    00000000201207230832240000000000000000000y
0107213000346TFNYF0200006134592BNFTW     FITX   201208                    00000+07019000             000000000             000000000             0002    00000000201207230832250000000000000000000y
0107213000347TFNYF0200006134592SNFTW     FITX   201208                    00000+07012000             000000000             000000000             0002    00000000201207230832250000000000000000000y
0107213000348TFNYF0200006134592BNFTW     FITX   201208                    00000+07015000             000000000             000000000             0002    00000000201207230832250000000000000000000y
0107213000349TFNYF0200006134592SNFTW     FITX   201208                    00000+07008000             000000000             000000000             0002    00000000201207230832250000000000000000000y
0107213000350TFNYF0200006134592BNFTW     FITX   201208                    00000+07019000             000000000             000000000             0002    00000000201207230832250000000000000000000y
0107213000351TFNYF0200006134592SNFTW     FITX   201208                    00000+07028000             000000000             000000000             0002    00000000201207230832250000000000000000000y
0107213000352TFNYF0200006134592BNFTW     FITX   201208                    00000+07003000             000000000             000000000             0002    00000000201207230832250000000000000000000y
0107213000353TFNYF0200006134592SNFTW     FITX   201208                    00000+07003000             000000000             000000000             0002    00000000201207230832250000000000000000000y
0107213000354TFNYF0200006134592BNFTW     FITX   201208                    00000+07014000             000000000             000000000             0002    00000000201207230832250000000000000000000y
0107213000355TFNYF0200006134592SNFTW     FITX   201208                    00000+07013000             000000000             000000000             0002    00000000201207230832250000000000000000000y
0107213000356TFNYF0200006134592BNFTW     FITX   201208                    00000+07019000             000000000             000000000             0002    00000000201207230832250000000000000000000y
0107213000357TFNYF0200006134592SNFTW     FITX   201208                    00000+07012000             000000000             000000000             0002    00000000201207230832250000000000000000000y
0107213000358TFNYF0200006134592BNFTW     FITX   201208                    00000+07015000             000000000             000000000             0002    00000000201207230832250000000000000000000y
0107213000360TFNYF0200006134592SNFTW     FITX   201208                    00000+07013000             000000000             000000000             0002    00000000201207230832260000000000000000000y
0107213000361TFNYF0200006134592BNFTW     FITX   201208                    00000+07019000             000000000             000000000             0002    00000000201207230832260000000000000000000y
0107213000362TFNYF0200006134592SNFTW     FITX   201208                    00000+07012000             000000000             000000000             0002    00000000201207230832260000000000000000000y
0107213000363TFNYF0200006134592BNFTW     FITX   201208                    00000+07015000             000000000             000000000             0002    00000000201207230832260000000000000000000y
0107223000001TFNYF0200006134592SNFTW     FITX   201208                    00000+07013000             000000000             000000000             0002    00000000201207230832260000000000000000000y
0107223000002TFNYF0200006134592BNFTW     FITX   201208                    00000+07019000             000000000             000000000             0002    00000000201207230832260000000000000000000y
0107223000003TFNYF0200006134592SNFTW     FITX   201208                    00000+07012000             000000000             000000000             0002    00000000201207230832260000000000000000000y
0107223000004TFNYF0200006134592BNFTW     FITX   201208                    00000+07015000             000000000             000000000             0002    00000000201207230832260000000000000000000y
0107223000005TFNYF0200006134592SNFTW     FITX   201208                    00000+07013000             000000000             000000000             0002    00000000201207230832260000000000000000000y
0107223000006TFNYF0200006134592BNFTW     FITX   201208                    00000+07019000             000000000             000000000             0002    00000000201207230832260000000000000000000y
0107223000007TFNYF0200006134592SNFTW     FITX   201208                    00000+07012000             000000000             000000000             0002    00000000201207230832260000000000000000000y
0107223000008TFNYF0200006134592BNFTW     FITX   201208                    00000+07015000             000000000             000000000             0002    00000000201207230832270000000000000000000y
0107223000009TFNYF0200006134592SNFTW     FITX   201208                    00000+07013000             000000000             000000000             0002    00000000201207230832270000000000000000000y
0107213000274TFNYF0200006134592BNFTW     FITX   201208                    00000+07015000             000000000             000000000             0002    00000000201207230832270000000000000000000y
0107213000275TFNYF0200006134592SNFTW     FITX   201208                    00000+07007000             000000000             000000000             0002    00000000201207230832270000000000000000000y
0107213000276TFNYF0200006134592BNFTW     FITX   201208                    00000+07020000             000000000             000000000             0002    00000000201207230832270000000000000000000y
0107213000277TFNYF0200006134592SNFTW     FITX   201208                    00000+07020000             000000000             000000000             0002    00000000201207230832270000000000000000000y
0107213000278TFNYF0200006134592BNFTW     FITX   201208                    00000+07013000             000000000             000000000             0002    00000000201207230832270000000000000000000y
0107213000279TFNYF0200006134592SNFTW     FITX   201208                    00000+07001000             000000000             000000000             0002    00000000201207230832270000000000000000000y
0107213000280TFNYF0200006134592BNFTW     FITX   201208                    00000+07015000             000000000             000000000             0002    00000000201207230832270000000000000000000y
0107213000281TFNYF0200006134592SNFTW     FITX   201208                    00000+07013000             000000000             000000000             0002    00000000201207230832270000000000000000000y
0107213000282TFNYF0200006134592BNFTW     FITX   201208                    00000+07019000             000000000             000000000             0002    00000000201207230832270000000000000000000y
0107213000283TFNYF0200006134592SNFTW     FITX   201208                    00000+07012000             000000000             000000000             0002    00000000201207230832270000000000000000000y
0107213000284TFNYF0200006134592BNFTW     FITX   201208                    00000+07015000             000000000             000000000             0002    00000000201207230832270000000000000000000y
0107213000285TFNYF0200006134592SNFTW     FITX   201208                    00000+07007000             000000000             000000000             0002    00000000201207230832270000000000000000000y
0107213000286TFNYF0200006134592BNFTW     FITX   201208                    00000+07020000             000000000             000000000             0002    00000000201207230832280000000000000000000y
0107213000287TFNYF0200006134592SNFTW     FITX   201208                    00000+07020000             000000000             000000000             0002    00000000201207230832280000000000000000000y
0107213000288TFNYF0200006134592BNFTW     FITX   201208                    00000+07013000             000000000             000000000             0002    00000000201207230832280000000000000000000y
0107213000289TFNYF0200006134592SNFTW     FITX   201208                    00000+07001000             000000000             000000000             0002    00000000201207230832280000000000000000000y
0107213000290TFNYF0200006134592BNFTW     FITX   201208                    00000+07015000             000000000             000000000             0002    00000000201207230832280000000000000000000y
0107213000291TFNYF0200006134592SNFTW     FITX   201208                    00000+07013000             000000000             000000000             0002    00000000201207230832280000000000000000000y
0107213000292TFNYF0200006134592BNFTW     FITX   201208                    00000+07019000             000000000             000000000             0002    00000000201207230832280000000000000000000y
0107213000293TFNYF0200006134592SNFTW     FITX   201208                    00000+07012000             000000000             000000000             0002    00000000201207230832280000000000000000000y
0107213000294TFNYF0200006134592BNFTW     FITX   201208                    00000+07015000             000000000             000000000             0002    00000000201207230832280000000000000000000y
0107213000295TFNYF0200006134592SNFTW     FITX   201208                    00000+07013000             000000000             000000000             0002    00000000201207230832280000000000000000000y
0107213000296TFNYF0200006134592BNFTW     FITX   201208                    00000+07019000             000000000             000000000             0002    00000000201207230832290000000000000000000y
0107213000297TFNYF0200006134592SNFTW     FITX   201208                    00000+07012000             000000000             000000000             0002    00000000201207230832290000000000000000000y
0107213000298TFNYF0200006134592BNFTW     FITX   201208                    00000+07015000             000000000             000000000             0002    00000000201207230832290000000000000000000y
0107213000299TFNYF0200006134592SNFTW     FITX   201208                    00000+07009000             000000000             000000000             0002    00000000201207230832290000000000000000000y
0107213000300TFNYF0200006134592BNFTW     FITX   201208                    00000+07018000             000000000             000000000             0002    00000000201207230832290000000000000000000y
0107213000301TFNYF0200006134592SNFTW     FITX   201208                    00000+07026000             000000000             000000000             0002    00000000201207230832290000000000000000000y
0107213000302TFNYF0200006134592BNFTW     FITX   201208                    00000+07023000             000000000             000000000             0002    00000000201207230832290000000000000000000y
0107213000303TFNYF0200006134592SNFTW     FITX   201208                    00000+07018000             000000000             000000000             0002    00000000201207230832290000000000000000000y
0107213000304TFNYF0200006134592BNFTW     FITX   201208                    00000+07025000             000000000             000000000             0002    00000000201207230832290000000000000000000y
0107213000305TFNYF0200006134592SNFTW     FITX   201208                    00000+07012000             000000000             000000000             0002    00000000201207230832290000000000000000000y
0107213000306TFNYF0200006134592BNFTW     FITX   201208                    00000+07007000             000000000             000000000             0002    00000000201207230832290000000000000000000y
0107213000307TFNYF0200006134592SNFTW     FITX   201208                    00000+07005000             000000000             000000000             0002    00000000201207230832290000000000000000000y
0107213000308TFNYF0200006134592BNFTW     FITX   201208                    00000+07013000             000000000             000000000             0002    00000000201207230832300000000000000000000y
0107213000309TFNYF0200006134592SNFTW     FITX   201208                    00000+07003000             000000000             000000000             0002    00000000201207230832300000000000000000000y
0107213000221TFNYF0200006134592SNFTW     FITX   201208                    00000+07013000             000000000             000000000             0002    00000000201207230832300000000000000000000y
0107213000222TFNYF0200006134592BNFTW     FITX   201208                    00000+07022000             000000000             000000000             0002    00000000201207230832300000000000000000000y
0107213000223TFNYF0200006134592SNFTW     FITX   201208                    00000+07013000             000000000             000000000             0002    00000000201207230832300000000000000000000y
0107213000224TFNYF0200006134592BNFTW     FITX   201208                    00000+07019000             000000000             000000000             0002    00000000201207230832300000000000000000000y
0107213000225TFNYF0200006134592SNFTW     FITX   201208                    00000+07012000             000000000             000000000             0002    00000000201207230832300000000000000000000y
0107213000226TFNYF0200006134592BNFTW     FITX   201208                    00000+07015000             000000000             000000000             0002    00000000201207230832300000000000000000000y
0107213000227TFNYF0200006134592SNFTW     FITX   201208                    00000+07013000             000000000             000000000             0002    00000000201207230832300000000000000000000y
0107213000228TFNYF0200006134592BNFTW     FITX   201208                    00000+07019000             000000000             000000000             0002    00000000201207230832300000000000000000000y
0107213000229TFNYF0200006134592SNFTW     FITX   201208                    00000+07012000             000000000             000000000             0002    00000000201207230832300000000000000000000y
0107213000230TFNYF0200006134592BNFTW     FITX   201208                    00000+07015000             000000000             000000000             0002    00000000201207230832300000000000000000000y
0107213000231TFNYF0200006134592SNFTW     FITX   201208                    00000+07008000             000000000             000000000             0002    00000000201207230832300000000000000000000y
0107213000232TFNYF0200006134592BNFTW     FITX   201208                    00000+07018000             000000000             000000000             0002    00000000201207230832310000000000000000000y
0107213000233TFNYF0200006134592SNFTW     FITX   201208                    00000+07027000             000000000             000000000             0002    00000000201207230832310000000000000000000y
0107213000234TFNYF0200006134592BNFTW     FITX   201208                    00000+07004000             000000000             000000000             0002    00000000201207230832310000000000000000000y
0107213000235TFNYF0200006134592SNFTW     FITX   201208                    00000+07003000             000000000             000000000             0002    00000000201207230832310000000000000000000y
0107213000236TFNYF0200006134592BNFTW     FITX   201208                    00000+07014000             000000000             000000000             0002    00000000201207230832310000000000000000000y
0107213000237TFNYF0200006134592SNFTW     FITX   201208                    00000+07014000             000000000             000000000             0002    00000000201207230832310000000000000000000y
0107213000238TFNYF0200006134592SNFTW     FITX   201208                    00000+07013000             000000000             000000000             0002    00000000201207230832310000000000000000000y
0107213000239TFNYF0200006134592BNFTW     FITX   201208                    00000+07019000             000000000             000000000             0002    00000000201207230832310000000000000000000y
0107213000240TFNYF0200006134592SNFTW     FITX   201208                    00000+07012000             000000000             000000000             0002    00000000201207230832310000000000000000000y
0107213000241TFNYF0200006134592BNFTW     FITX   201208                    00000+07015000             000000000             000000000             0002    00000000201207230832310000000000000000000y
0107213000242TFNYF0200006134592SNFTW     FITX   201208                    00000+07007000             000000000             000000000             0002    00000000201207230832310000000000000000000y
0107213000243TFNYF0200006134592BNFTW     FITX   201208                    00000+07020000             000000000             000000000             0002    00000000201207230832310000000000000000000y
0107213000244TFNYF0200006134592SNFTW     FITX   201208                    00000+07020000             000000000             000000000             0002    00000000201207230832310000000000000000000y
0107213000245TFNYF0200006134592BNFTW     FITX   201208                    00000+07013000             000000000             000000000             0002    00000000201207230832320000000000000000000y
0107213000246TFNYF0200006134592SNFTW     FITX   201208                    00000+07001000             000000000             000000000             0002    00000000201207230832320000000000000000000y
0107223000010TFNYF0200006134592BNFTW     FITX   201208                    00000+07019000             000000000             000000000             0002    00000000201207230832320000000000000000000y
0107223000011TFNYF0200006134592SNFTW     FITX   201208                    00000+07012000             000000000             000000000             0002    00000000201207230832320000000000000000000y
0107223000012TFNYF0200006134592BNFTW     FITX   201208                    00000+07015000             000000000             000000000             0002    00000000201207230832320000000000000000000y
0107223000013TFNYF0200006134592SNFTW     FITX   201208                    00000+07013000             000000000             000000000             0002    00000000201207230832320000000000000000000y
0107223000014TFNYF0200006134592BNFTW     FITX   201208                    00000+07019000             000000000             000000000             0002    00000000201207230832320000000000000000000y
0107223000015TFNYF0200006134592SNFTW     FITX   201208                    00000+07012000             000000000             000000000             0002    00000000201207230832320000000000000000000y
0107223000016TFNYF0200006134592BNFTW     FITX   201208                    00000+07015000             000000000             000000000             0002    00000000201207230832320000000000000000000y
0107223000025TFNYF0200006134592SNFTW     FITX   201208                    00000+07013000             000000000             000000000             0002    00000000201207230832320000000000000000000y
0107223000026TFNYF0200006134592BNFTW     FITX   201208                    00000+07019000             000000000             000000000             0002    00000000201207230832320000000000000000000y
0107223000027TFNYF0200006134592SNFTW     FITX   201208                    00000+07012000             000000000             000000000             0002    00000000201207230832330000000000000000000y
0107223000028TFNYF0200006134592BNFTW     FITX   201208                    00000+07015000             000000000             000000000             0002    00000000201207230832330000000000000000000y
0107223000029TFNYF0200006134592SNFTW     FITX   201208                    00000+07013000             000000000             000000000             0002    00000000201207230832330000000000000000000y
0107223000030TFNYF0200006134592BNFTW     FITX   201208                    00000+07019000             000000000             000000000             0002    00000000201207230832330000000000000000000y
0107223000031TFNYF0200006134592SNFTW     FITX   201208                    00000+07012000             000000000             000000000             0002    00000000201207230832330000000000000000000y
0107223000032TFNYF0200006134592BNFTW     FITX   201208                    00000+07015000             000000000             000000000             0002    00000000201207230832330000000000000000000y
0107223000033TFNYF0200006134592SNFTW     FITX   201208                    00000+07013000             000000000             000000000             0002    00000000201207230832330000000000000000000y
0107223000034TFNYF0200006134592BNFTW     FITX   201208                    00000+07019000             000000000             000000000             0002    00000000201207230832330000000000000000000y
0107223000035TFNYF0200006134592SNFTW     FITX   201208                    00000+07012000             000000000             000000000             0002    00000000201207230832330000000000000000000y
0107223000036TFNYF0200006134592BNFTW     FITX   201208                    00000+07015000             000000000             000000000             0002    00000000201207230832330000000000000000000y
0107223000037TFNYF0200006134592SNFTW     FITX   201208                    00000+07013000             000000000             000000000             0002    00000000201207230832330000000000000000000y
0107223000038TFNYF0200006134592BNFTW     FITX   201208                    00000+07019000             000000000             000000000             0002    00000000201207230832330000000000000000000y
0107223000039TFNYF0200006134592SNFTW     FITX   201208                    00000+07012000             000000000             000000000             0002    00000000201207230832340000000000000000000y
0107223000040TFNYF0200006134592BNFTW     FITX   201208                    00000+07015000             000000000             000000000             0002    00000000201207230832340000000000000000000y
0107223000041TFNYF0200006134592SNFTW     FITX   201208                    00000+07013000             000000000             000000000             0002    00000000201207230832340000000000000000000y
0107223000042TFNYF0200006134592BNFTW     FITX   201208                    00000+07019000             000000000             000000000             0002    00000000201207230832340000000000000000000y
0107223000043TFNYF0200006134592SNFTW     FITX   201208                    00000+07012000             000000000             000000000             0002    00000000201207230832340000000000000000000y
0107223000044TFNYF0200006134592BNFTW     FITX   201208                    00000+07015000             000000000             000000000             0002    00000000201207230832340000000000000000000y
0107223000045TFNYF0200006134592SNFTW     FITX   201208                    00000+07008000             000000000             000000000             0002    00000000201207230832340000000000000000000y
0107223002652TFNYF0200006134592BNFTW     FITX   201208                    00000+07015000             000000000             000000000             0002    00000000201207230832340000000000000000000y
0107223002653TFNYF0200006134592SNFTW     FITX   201208                    00000+07016000             000000000             000000000             0001    00000000201207230832340000000000000000000y
0107223002654TFNYF0200006134592SNFTW     FITX   201208                    00000+07011000             000000000             000000000             0001    00000000201207230832340000000000000000000y
0107223002655TFNYF0200006134592BNFTW     FITX   201208                    00000+07015000             000000000             000000000             0002    00000000201207230832340000000000000000000y
0107223002656TFNYF0200006134592SNFTW     FITX   201208                    00000+07013000             000000000             000000000             0002    00000000201207230832350000000000000000000y
0107223002657TFNYF0200006134592BNFTW     FITX   201208                    00000+07019000             000000000             000000000             0002    00000000201207230832350000000000000000000y
0107223002658TFNYF0200006134592SNFTW     FITX   201208                    00000+07012000             000000000             000000000             0002    00000000201207230832350000000000000000000y
0107223002659TFNYF0200006134592BNFTW     FITX   201208                    00000+07015000             000000000             000000000             0002    00000000201207230832350000000000000000000y
0107223002660TFNYF0200006134592SNFTW     FITX   201208                    00000+07008000             000000000             000000000             0002    00000000201207230832350000000000000000000y
0107223002661TFNYF0200006134592BNFTW     FITX   201208                    00000+07019000             000000000             000000000             0002    00000000201207230832350000000000000000000y
0107223002662TFNYF0200006134592SNFTW     FITX   201208                    00000+07028000             000000000             000000000             0002    00000000201207230832350000000000000000000y
0107223002663TFNYF0200006134592BNFTW     FITX   201208                    00000+07003000             000000000             000000000             0002    00000000201207230832350000000000000000000y
0107223002664TFNYF0200006134592SNFTW     FITX   201208                    00000+07003000             000000000             000000000             0002    00000000201207230832350000000000000000000y
0107223002665TFNYF0200006134592BNFTW     FITX   201208                    00000+07014000             000000000             000000000             0002    00000000201207230832350000000000000000000y
0107223002650TFNYF0200006134592SNFTW     FITX   201208                    00000+07016000             000000000             000000000             0001    00000000201207230832350000000000000000000y
0107223002651TFNYF0200006134592SNFTW     FITX   201208                    00000+07011000             000000000             000000000             0001    00000000201207230832350000000000000000000y
0107223002287TFNYF0200006134592SNFTW     FITX   201208                    00000+07021000             000000000             000000000             0002    00000000201207230832360000000000000000000y
0107223002288TFNYF0200006134592BNFTW     FITX   201208                    00000+07012000             000000000             000000000             0002    00000000201207230832360000000000000000000y
0107223002289TFNYF0200006134592SNFTW     FITX   201208                    00000+07000000             000000000             000000000             0002    00000000201207230832360000000000000000000y
0107223002290TFNYF0200006134592BNFTW     FITX   201208                    00000+07015000             000000000             000000000             0002    00000000201207230832360000000000000000000y
0107223000046TFNYF0200006134592BNFTW     FITX   201208                    00000+07019000             000000000             000000000             0002    00000000201207230832360000000000000000000y
0107223000048TFNYF0200006134592BNFTW     FITX   201208                    00000+07003000             000000000             000000000             0002    00000000201207230832360000000000000000000y
0107223000047TFNYF0200006134592SNFTW     FITX   201208                    00000+07028000             000000000             000000000             0002    00000000201207230832360000000000000000000y
0107223000049TFNYF0200006134592SNFTW     FITX   201208                    00000+07003000             000000000             000000000             0002    00000000201207230832360000000000000000000y
0107223000050TFNYF0200006134592BNFTW     FITX   201208                    00000+07014000             000000000             000000000             0002    00000000201207230832360000000000000000000y
0107223001594TFNYF0200006134592BNFTW     FITX   201208                    00000+07015000             000000000             000000000             0002    00000000201207230832360000000000000000000y
0107223001539TFNYF0200006134592SNFTW     FITX   201208                    00000+07016000             000000000             000000000             0001    00000000201207230832360000000000000000000y
0107223001551TFNYF0200006134592SNFTW     FITX   201208                    00000+07011000             000000000             000000000             0001    00000000201207230832360000000000000000000y
---
---
0107213000312TFNYF0200006134592BNFTW     FITX   201208                    00000+07012000             000000000             000000000             0002    00000000201207230832190000000000000000000y
0107213000313TFNYF0200006134592SNFTW     FITX   201208                    00000+07009000             000000000             000000000             0002    00000000201207230832190000000000000000000y
0107213000314TFNYF0200006134592BNFTW     FITX   201208                    00000+07008000             000000000             000000000             0002    00000000201207230832190000000000000000000y
0107213000315TFNYF0200006134592SNFTW     FITX   201208                    00000+07013000             000000000             000000000             0002    00000000201207230832190000000000000000000y
0107213000316TFNYF0200006134592BNFTW     FITX   201208                    00000+07015000             000000000             000000000             0002    00000000201207230832190000000000000000000y
0107213000317TFNYF0200006134592SNFTW     FITX   201208                    00000+07013000             000000000             000000000             0002    00000000201207230832190000000000000000000y
0107213000318TFNYF0200006134592BNFTW     FITX   201208                    00000+07019000             000000000             000000000             0002    00000000201207230832190000000000000000000y
0107213000319TFNYF0200006134592SNFTW     FITX   201208                    00000+07012000             000000000             000000000             0002    00000000201207230832190000000000000000000y
0107213000320TFNYF0200006134592BNFTW     FITX   201208                    00000+07015000             000000000             000000000             0002    00000000201207230832190000000000000000000y
0107213000321TFNYF0200006134592SNFTW     FITX   201208                    00000+07013000             000000000             000000000             0002    00000000201207230832200000000000000000000y
0107213000322TFNYF0200006134592BNFTW     FITX   201208                    00000+07019000             000000000             000000000             0002    00000000201207230832200000000000000000000y
0107213000323TFNYF0200006134592SNFTW     FITX   201208                    00000+07012000             000000000             000000000             0002    00000000201207230832200000000000000000000y
0107213000310TFNYF0200006134592BNFTW     FITX   201208                    00000+07006000             000000000             000000000             0002    00000000201207230832200000000000000000000y
0107213000324TFNYF0200006134592BNFTW     FITX   201208                    00000+07015000             000000000             000000000             0002    00000000201207230832200000000000000000000y
0107213000311TFNYF0200006134592SNFTW     FITX   201208                    00000+07010000             000000000             000000000             0002    00000000201207230832200000000000000000000y
0107213000325TFNYF0200006134592SNFTW     FITX   201208                    00000+07008000             000000000             000000000             0002    00000000201207230832200000000000000000000y
0107213000326TFNYF0200006134592BNFTW     FITX   201208                    00000+07019000             000000000             000000000             0002    00000000201207230832200000000000000000000y
0107213000327TFNYF0200006134592SNFTW     FITX   201208                    00000+07028000             000000000             000000000             0002    00000000201207230832200000000000000000000y
0107213000328TFNYF0200006134592BNFTW     FITX   201208                    00000+07003000             000000000             000000000             0002    00000000201207230832200000000000000000000y
0107213000329TFNYF0200006134592SNFTW     FITX   201208                    00000+07003000             000000000             000000000             0002    00000000201207230832200000000000000000000y
0107213000330TFNYF0200006134592BNFTW     FITX   201208                    00000+07014000             000000000             000000000             0002    00000000201207230832210000000000000000000y
0107213000331TFNYF0200006134592SNFTW     FITX   201208                    00000+07013000             000000000             000000000             0002    00000000201207230832210000000000000000000y
0107213000332TFNYF0200006134592BNFTW     FITX   201208                    00000+07019000             000000000             000000000             0002    00000000201207230832210000000000000000000y
0107213000333TFNYF0200006134592SNFTW     FITX   201208                    00000+07012000             000000000             000000000             0002    00000000201207230832210000000000000000000y
0107213000334TFNYF0200006134592BNFTW     FITX   201208                    00000+07015000             000000000             000000000             0002    00000000201207230832210000000000000000000y
0107213000335TFNYF0200006134592SNFTW     FITX   201208                    00000+07008000             000000000             000000000             0002    00000000201207230832210000000000000000000y
0107213000336TFNYF0200006134592BNFTW     FITX   201208                    00000+07019000             000000000             000000000             0002    00000000201207230832210000000000000000000y
0107213000337TFNYF0200006134592SNFTW     FITX   201208                    00000+07028000             000000000             000000000             0002    00000000201207230832210000000000000000000y
0107213000338TFNYF0200006134592BNFTW     FITX   201208                    00000+07003000             000000000             000000000             0002    00000000201207230832210000000000000000000y
0107213000339TFNYF0200006134592SNFTW     FITX   201208                    00000+07003000             000000000             000000000             0002    00000000201207230832210000000000000000000y
0107213000340TFNYF0200006134592BNFTW     FITX   201208                    00000+07014000             000000000             000000000             0002    00000000201207230832210000000000000000000y
0107213000341TFNYF0200006134592SNFTW     FITX   201208                    00000+07013000             000000000             000000000             0002    00000000201207230832210000000000000000000y
0107213000342TFNYF0200006134592BNFTW     FITX   201208                    00000+07019000             000000000             000000000             0002    00000000201207230832220000000000000000000y
0107213000343TFNYF0200006134592SNFTW     FITX   201208                    00000+07012000             000000000             000000000             0002    00000000201207230832220000000000000000000y
0107213000344TFNYF0200006134592BNFTW     FITX   201208                    00000+07015000             000000000             000000000             0002    00000000201207230832220000000000000000000y
0107213000345TFNYF0200006134592SNFTW     FITX   201208                    00000+07013000             000000000             000000000             0002    00000000201207230832220000000000000000000y
0107213000248TFNYF0200006134592SNFTW     FITX   201208                    00000+07013000             000000000             000000000             0002    00000000201207230832220000000000000000000y
0107213000247TFNYF0200006134592BNFTW     FITX   201208                    00000+07015000             000000000             000000000             0002    00000000201207230832220000000000000000000y
0107213000249TFNYF0200006134592BNFTW     FITX   201208                    00000+07019000             000000000             000000000             0002    00000000201207230832220000000000000000000y
0107213000250TFNYF0200006134592SNFTW     FITX   201208                    00000+07012000             000000000             000000000             0002    00000000201207230832220000000000000000000y
0107213000251TFNYF0200006134592BNFTW     FITX   201208                    00000+07015000             000000000             000000000             0002    00000000201207230832220000000000000000000y
0107213000252TFNYF0200006134592SNFTW     FITX   201208                    00000+07007000             000000000             000000000             0002    00000000201207230832230000000000000000000y
0107213000253TFNYF0200006134592BNFTW     FITX   201208                    00000+07020000             000000000             000000000             0002    00000000201207230832230000000000000000000y
0107213000254TFNYF0200006134592SNFTW     FITX   201208                    00000+07020000             000000000             000000000             0002    00000000201207230832230000000000000000000y
0107213000255TFNYF0200006134592BNFTW     FITX   201208                    00000+07013000             000000000             000000000             0002    00000000201207230832230000000000000000000y
0107213000256TFNYF0200006134592SNFTW     FITX   201208                    00000+07001000             000000000             000000000             0002    00000000201207230832230000000000000000000y
0107213000257TFNYF0200006134592BNFTW     FITX   201208                    00000+07015000             000000000             000000000             0002    00000000201207230832230000000000000000000y
0107213000263TFNYF0200006134592SNFTW     FITX   201208                    00000+07013000             000000000             000000000             0002    00000000201207230832230000000000000000000y
0107213000264TFNYF0200006134592BNFTW     FITX   201208                    00000+07019000             000000000             000000000             0002    00000000201207230832230000000000000000000y
0107213000265TFNYF0200006134592SNFTW     FITX   201208                    00000+07012000             000000000             000000000             0002    00000000201207230832230000000000000000000y
0107213000266TFNYF0200006134592BNFTW     FITX   201208                    00000+07015000             000000000             000000000             0002    00000000201207230832230000000000000000000y
0107213000267TFNYF0200006134592SNFTW     FITX   201208                    00000+07013000             000000000             000000000             0002    00000000201207230832230000000000000000000y
0107213000268TFNYF0200006134592BNFTW     FITX   201208                    00000+07019000             000000000             000000000             0002    00000000201207230832230000000000000000000y
0107213000269TFNYF0200006134592SNFTW     FITX   201208                    00000+07012000             000000000             000000000             0002    00000000201207230832230000000000000000000y
0107213000270TFNYF0200006134592BNFTW     FITX   201208                    00000+07015000             000000000             000000000             0002    00000000201207230832240000000000000000000y
0107213000271TFNYF0200006134592SNFTW     FITX   201208                    00000+07013000             000000000             000000000             0002    00000000201207230832240000000000000000000y
0107213000272TFNYF0200006134592BNFTW     FITX   201208                    00000+07019000             000000000             000000000             0002    00000000201207230832240000000000000000000y
0107213000273TFNYF0200006134592SNFTW     FITX   201208                    00000+07012000             000000000             000000000             0002    00000000201207230832240000000000000000000y
0107213000195TFNYF0200006134592SNFTW     FITX   201208                    00000+07013000             000000000             000000000             0002    00000000201207230832240000000000000000000y
0107213000196TFNYF0200006134592BNFTW     FITX   201208                    00000+07015000             000000000             000000000             0002    00000000201207230832240000000000000000000y
0107223000276TFNYF0200006134592SNFTW     FITX   201208                    00000+07014000             000000000             000000000             0002    00000000201207230832240000000000000000000y
0107223000277TFNYF0200006134592BNFTW     FITX   201208                    00000+07015000             000000000             000000000             0002    00000000201207230832240000000000000000000y
0107223000278TFNYF0200006134592SNFTW     FITX   201208                    00000+07016000             000000000             000000000             0001    00000000201207230832240000000000000000000y
0107223000279TFNYF0200006134592SNFTW     FITX   201208                    00000+07011000             000000000             000000000             0001    00000000201207230832240000000000000000000y
0107223000280TFNYF0200006134592BNFTW     FITX   201208                    00000+07015000             000000000             000000000             0002    00000000201207230832240000000000000000000y
0107213000346TFNYF0200006134592BNFTW     FITX   201208                    00000+07019000             000000000             000000000             0002    00000000201207230832250000000000000000000y
0107213000347TFNYF0200006134592SNFTW     FITX   201208                    00000+07012000             000000000             000000000             0002    00000000201207230832250000000000000000000y
0107213000348TFNYF0200006134592BNFTW     FITX   201208                    00000+07015000             000000000             000000000             0002    00000000201207230832250000000000000000000y
0107213000349TFNYF0200006134592SNFTW     FITX   201208                    00000+07008000             000000000             000000000             0002    00000000201207230832250000000000000000000y
0107213000350TFNYF0200006134592BNFTW     FITX   201208                    00000+07019000             000000000             000000000             0002    00000000201207230832250000000000000000000y
0107213000351TFNYF0200006134592SNFTW     FITX   201208                    00000+07028000             000000000             000000000             0002    00000000201207230832250000000000000000000y
0107213000352TFNYF0200006134592BNFTW     FITX   201208                    00000+07003000             000000000             000000000             0002    00000000201207230832250000000000000000000y
0107213000353TFNYF0200006134592SNFTW     FITX   201208                    00000+07003000             000000000             000000000             0002    00000000201207230832250000000000000000000y
0107213000354TFNYF0200006134592BNFTW     FITX   201208                    00000+07014000             000000000             000000000             0002    00000000201207230832250000000000000000000y
0107213000355TFNYF0200006134592SNFTW     FITX   201208                    00000+07013000             000000000             000000000             0002    00000000201207230832250000000000000000000y
0107213000356TFNYF0200006134592BNFTW     FITX   201208                    00000+07019000             000000000             000000000             0002    00000000201207230832250000000000000000000y
0107213000357TFNYF0200006134592SNFTW     FITX   201208                    00000+07012000             000000000             000000000             0002    00000000201207230832250000000000000000000y
0107213000358TFNYF0200006134592BNFTW     FITX   201208                    00000+07015000             000000000             000000000             0002    00000000201207230832250000000000000000000y
0107213000360TFNYF0200006134592SNFTW     FITX   201208                    00000+07013000             000000000             000000000             0002    00000000201207230832260000000000000000000y
0107213000361TFNYF0200006134592BNFTW     FITX   201208                    00000+07019000             000000000             000000000             0002    00000000201207230832260000000000000000000y
0107213000362TFNYF0200006134592SNFTW     FITX   201208                    00000+07012000             000000000             000000000             0002    00000000201207230832260000000000000000000y
0107213000363TFNYF0200006134592BNFTW     FITX   201208                    00000+07015000             000000000             000000000             0002    00000000201207230832260000000000000000000y
0107223000001TFNYF0200006134592SNFTW     FITX   201208                    00000+07013000             000000000             000000000             0002    00000000201207230832260000000000000000000y
0107223000002TFNYF0200006134592BNFTW     FITX   201208                    00000+07019000             000000000             000000000             0002    00000000201207230832260000000000000000000y
0107223000003TFNYF0200006134592SNFTW     FITX   201208                    00000+07012000             000000000             000000000             0002    00000000201207230832260000000000000000000y
0107223000004TFNYF0200006134592BNFTW     FITX   201208                    00000+07015000             000000000             000000000             0002    00000000201207230832260000000000000000000y
0107223000005TFNYF0200006134592SNFTW     FITX   201208                    00000+07013000             000000000             000000000             0002    00000000201207230832260000000000000000000y
0107223000006TFNYF0200006134592BNFTW     FITX   201208                    00000+07019000             000000000             000000000             0002    00000000201207230832260000000000000000000y
0107223000007TFNYF0200006134592SNFTW     FITX   201208                    00000+07012000             000000000             000000000             0002    00000000201207230832260000000000000000000y
0107223000008TFNYF0200006134592BNFTW     FITX   201208                    00000+07015000             000000000             000000000             0002    00000000201207230832270000000000000000000y
0107223000009TFNYF0200006134592SNFTW     FITX   201208                    00000+07013000             000000000             000000000             0002    00000000201207230832270000000000000000000y
0107213000274TFNYF0200006134592BNFTW     FITX   201208                    00000+07015000             000000000             000000000             0002    00000000201207230832270000000000000000000y
0107213000275TFNYF0200006134592SNFTW     FITX   201208                    00000+07007000             000000000             000000000             0002    00000000201207230832270000000000000000000y
0107213000276TFNYF0200006134592BNFTW     FITX   201208                    00000+07020000             000000000             000000000             0002    00000000201207230832270000000000000000000y
0107213000277TFNYF0200006134592SNFTW     FITX   201208                    00000+07020000             000000000             000000000             0002    00000000201207230832270000000000000000000y
0107213000278TFNYF0200006134592BNFTW     FITX   201208                    00000+07013000             000000000             000000000             0002    00000000201207230832270000000000000000000y
0107213000279TFNYF0200006134592SNFTW     FITX   201208                    00000+07001000             000000000             000000000             0002    00000000201207230832270000000000000000000y
0107213000280TFNYF0200006134592BNFTW     FITX   201208                    00000+07015000             000000000             000000000             0002    00000000201207230832270000000000000000000y
0107213000281TFNYF0200006134592SNFTW     FITX   201208                    00000+07013000             000000000             000000000             0002    00000000201207230832270000000000000000000y
0107213000282TFNYF0200006134592BNFTW     FITX   201208                    00000+07019000             000000000             000000000             0002    00000000201207230832270000000000000000000y
0107213000283TFNYF0200006134592SNFTW     FITX   201208                    00000+07012000             000000000             000000000             0002    00000000201207230832270000000000000000000y
0107213000284TFNYF0200006134592BNFTW     FITX   201208                    00000+07015000             000000000             000000000             0002    00000000201207230832270000000000000000000y
0107213000285TFNYF0200006134592SNFTW     FITX   201208                    00000+07007000             000000000             000000000             0002    00000000201207230832270000000000000000000y
0107213000286TFNYF0200006134592BNFTW     FITX   201208                    00000+07020000             000000000             000000000             0002    00000000201207230832280000000000000000000y
0107213000287TFNYF0200006134592SNFTW     FITX   201208                    00000+07020000             000000000             000000000             0002    00000000201207230832280000000000000000000y
0107213000288TFNYF0200006134592BNFTW     FITX   201208                    00000+07013000             000000000             000000000             0002    00000000201207230832280000000000000000000y
0107213000289TFNYF0200006134592SNFTW     FITX   201208                    00000+07001000             000000000             000000000             0002    00000000201207230832280000000000000000000y
0107213000290TFNYF0200006134592BNFTW     FITX   201208                    00000+07015000             000000000             000000000             0002    00000000201207230832280000000000000000000y
0107213000291TFNYF0200006134592SNFTW     FITX   201208                    00000+07013000             000000000             000000000             0002    00000000201207230832280000000000000000000y
0107213000292TFNYF0200006134592BNFTW     FITX   201208                    00000+07019000             000000000             000000000             0002    00000000201207230832280000000000000000000y
0107213000293TFNYF0200006134592SNFTW     FITX   201208                    00000+07012000             000000000             000000000             0002    00000000201207230832280000000000000000000y
0107213000294TFNYF0200006134592BNFTW     FITX   201208                    00000+07015000             000000000             000000000             0002    00000000201207230832280000000000000000000y
0107213000295TFNYF0200006134592SNFTW     FITX   201208                    00000+07013000             000000000             000000000             0002    00000000201207230832280000000000000000000y
0107213000296TFNYF0200006134592BNFTW     FITX   201208                    00000+07019000             000000000             000000000             0002    00000000201207230832290000000000000000000y
0107213000297TFNYF0200006134592SNFTW     FITX   201208                    00000+07012000             000000000             000000000             0002    00000000201207230832290000000000000000000y
0107213000298TFNYF0200006134592BNFTW     FITX   201208                    00000+07015000             000000000             000000000             0002    00000000201207230832290000000000000000000y
0107213000299TFNYF0200006134592SNFTW     FITX   201208                    00000+07009000             000000000             000000000             0002    00000000201207230832290000000000000000000y
0107213000300TFNYF0200006134592BNFTW     FITX   201208                    00000+07018000             000000000             000000000             0002    00000000201207230832290000000000000000000y
0107213000301TFNYF0200006134592SNFTW     FITX   201208                    00000+07026000             000000000             000000000             0002    00000000201207230832290000000000000000000y
0107213000302TFNYF0200006134592BNFTW     FITX   201208                    00000+07023000             000000000             000000000             0002    00000000201207230832290000000000000000000y
0107213000303TFNYF0200006134592SNFTW     FITX   201208                    00000+07018000             000000000             000000000             0002    00000000201207230832290000000000000000000y
0107213000304TFNYF0200006134592BNFTW     FITX   201208                    00000+07025000             000000000             000000000             0002    00000000201207230832290000000000000000000y
0107213000305TFNYF0200006134592SNFTW     FITX   201208                    00000+07012000             000000000             000000000             0002    00000000201207230832290000000000000000000y
0107213000306TFNYF0200006134592BNFTW     FITX   201208                    00000+07007000             000000000             000000000             0002    00000000201207230832290000000000000000000y
0107213000307TFNYF0200006134592SNFTW     FITX   201208                    00000+07005000             000000000             000000000             0002    00000000201207230832290000000000000000000y
0107213000308TFNYF0200006134592BNFTW     FITX   201208                    00000+07013000             000000000             000000000             0002    00000000201207230832300000000000000000000y
0107213000309TFNYF0200006134592SNFTW     FITX   201208                    00000+07003000             000000000             000000000             0002    00000000201207230832300000000000000000000y
0107213000221TFNYF0200006134592SNFTW     FITX   201208                    00000+07013000             000000000             000000000             0002    00000000201207230832300000000000000000000y
0107213000222TFNYF0200006134592BNFTW     FITX   201208                    00000+07022000             000000000             000000000             0002    00000000201207230832300000000000000000000y
0107213000223TFNYF0200006134592SNFTW     FITX   201208                    00000+07013000             000000000             000000000             0002    00000000201207230832300000000000000000000y
0107213000224TFNYF0200006134592BNFTW     FITX   201208                    00000+07019000             000000000             000000000             0002    00000000201207230832300000000000000000000y
0107213000225TFNYF0200006134592SNFTW     FITX   201208                    00000+07012000             000000000             000000000             0002    00000000201207230832300000000000000000000y
0107213000226TFNYF0200006134592BNFTW     FITX   201208                    00000+07015000             000000000             000000000             0002    00000000201207230832300000000000000000000y
0107213000227TFNYF0200006134592SNFTW     FITX   201208                    00000+07013000             000000000             000000000             0002    00000000201207230832300000000000000000000y
0107213000228TFNYF0200006134592BNFTW     FITX   201208                    00000+07019000             000000000             000000000             0002    00000000201207230832300000000000000000000y
0107213000229TFNYF0200006134592SNFTW     FITX   201208                    00000+07012000             000000000             000000000             0002    00000000201207230832300000000000000000000y
0107213000230TFNYF0200006134592BNFTW     FITX   201208                    00000+07015000             000000000             000000000             0002    00000000201207230832300000000000000000000y
0107213000231TFNYF0200006134592SNFTW     FITX   201208                    00000+07008000             000000000             000000000             0002    00000000201207230832300000000000000000000y
0107213000232TFNYF0200006134592BNFTW     FITX   201208                    00000+07018000             000000000             000000000             0002    00000000201207230832310000000000000000000y
0107213000233TFNYF0200006134592SNFTW     FITX   201208                    00000+07027000             000000000             000000000             0002    00000000201207230832310000000000000000000y
0107213000234TFNYF0200006134592BNFTW     FITX   201208                    00000+07004000             000000000             000000000             0002    00000000201207230832310000000000000000000y
0107213000235TFNYF0200006134592SNFTW     FITX   201208                    00000+07003000             000000000             000000000             0002    00000000201207230832310000000000000000000y
0107213000236TFNYF0200006134592BNFTW     FITX   201208                    00000+07014000             000000000             000000000             0002    00000000201207230832310000000000000000000y
0107213000237TFNYF0200006134592SNFTW     FITX   201208                    00000+07014000             000000000             000000000             0002    00000000201207230832310000000000000000000y
0107213000238TFNYF0200006134592SNFTW     FITX   201208                    00000+07013000             000000000             000000000             0002    00000000201207230832310000000000000000000y
0107213000239TFNYF0200006134592BNFTW     FITX   201208                    00000+07019000             000000000             000000000             0002    00000000201207230832310000000000000000000y
0107213000240TFNYF0200006134592SNFTW     FITX   201208                    00000+07012000             000000000             000000000             0002    00000000201207230832310000000000000000000y
0107213000241TFNYF0200006134592BNFTW     FITX   201208                    00000+07015000             000000000             000000000             0002    00000000201207230832310000000000000000000y
0107213000242TFNYF0200006134592SNFTW     FITX   201208                    00000+07007000             000000000             000000000             0002    00000000201207230832310000000000000000000y
0107213000243TFNYF0200006134592BNFTW     FITX   201208                    00000+07020000             000000000             000000000             0002    00000000201207230832310000000000000000000y
0107213000244TFNYF0200006134592SNFTW     FITX   201208                    00000+07020000             000000000             000000000             0002    00000000201207230832310000000000000000000y
0107213000245TFNYF0200006134592BNFTW     FITX   201208                    00000+07013000             000000000             000000000             0002    00000000201207230832320000000000000000000y
0107213000246TFNYF0200006134592SNFTW     FITX   201208                    00000+07001000             000000000             000000000             0002    00000000201207230832320000000000000000000y
0107223000010TFNYF0200006134592BNFTW     FITX   201208                    00000+07019000             000000000             000000000             0002    00000000201207230832320000000000000000000y
0107223000011TFNYF0200006134592SNFTW     FITX   201208                    00000+07012000             000000000             000000000             0002    00000000201207230832320000000000000000000y
0107223000012TFNYF0200006134592BNFTW     FITX   201208                    00000+07015000             000000000             000000000             0002    00000000201207230832320000000000000000000y
0107223000013TFNYF0200006134592SNFTW     FITX   201208                    00000+07013000             000000000             000000000             0002    00000000201207230832320000000000000000000y
0107223000014TFNYF0200006134592BNFTW     FITX   201208                    00000+07019000             000000000             000000000             0002    00000000201207230832320000000000000000000y
0107223000015TFNYF0200006134592SNFTW     FITX   201208                    00000+07012000             000000000             000000000             0002    00000000201207230832320000000000000000000y
0107223000016TFNYF0200006134592BNFTW     FITX   201208                    00000+07015000             000000000             000000000             0002    00000000201207230832320000000000000000000y
0107223000025TFNYF0200006134592SNFTW     FITX   201208                    00000+07013000             000000000             000000000             0002    00000000201207230832320000000000000000000y
0107223000026TFNYF0200006134592BNFTW     FITX   201208                    00000+07019000             000000000             000000000             0002    00000000201207230832320000000000000000000y
0107223000027TFNYF0200006134592SNFTW     FITX   201208                    00000+07012000             000000000             000000000             0002    00000000201207230832330000000000000000000y
0107223000028TFNYF0200006134592BNFTW     FITX   201208                    00000+07015000             000000000             000000000             0002    00000000201207230832330000000000000000000y
0107223000029TFNYF0200006134592SNFTW     FITX   201208                    00000+07013000             000000000             000000000             0002    00000000201207230832330000000000000000000y
0107223000030TFNYF0200006134592BNFTW     FITX   201208                    00000+07019000             000000000             000000000             0002    00000000201207230832330000000000000000000y
0107223000031TFNYF0200006134592SNFTW     FITX   201208                    00000+07012000             000000000             000000000             0002    00000000201207230832330000000000000000000y
0107223000032TFNYF0200006134592BNFTW     FITX   201208                    00000+07015000             000000000             000000000             0002    00000000201207230832330000000000000000000y
0107223000033TFNYF0200006134592SNFTW     FITX   201208                    00000+07013000             000000000             000000000             0002    00000000201207230832330000000000000000000y
0107223000034TFNYF0200006134592BNFTW     FITX   201208                    00000+07019000             000000000             000000000             0002    00000000201207230832330000000000000000000y
0107223000035TFNYF0200006134592SNFTW     FITX   201208                    00000+07012000             000000000             000000000             0002    00000000201207230832330000000000000000000y
0107223000036TFNYF0200006134592BNFTW     FITX   201208                    00000+07015000             000000000             000000000             0002    00000000201207230832330000000000000000000y
0107223000037TFNYF0200006134592SNFTW     FITX   201208                    00000+07013000             000000000             000000000             0002    00000000201207230832330000000000000000000y
0107223000038TFNYF0200006134592BNFTW     FITX   201208                    00000+07019000             000000000             000000000             0002    00000000201207230832330000000000000000000y
0107223000039TFNYF0200006134592SNFTW     FITX   201208                    00000+07012000             000000000             000000000             0002    00000000201207230832340000000000000000000y
0107223000040TFNYF0200006134592BNFTW     FITX   201208                    00000+07015000             000000000             000000000             0002    00000000201207230832340000000000000000000y
0107223000041TFNYF0200006134592SNFTW     FITX   201208                    00000+07013000             000000000             000000000             0002    00000000201207230832340000000000000000000y
0107223000042TFNYF0200006134592BNFTW     FITX   201208                    00000+07019000             000000000             000000000             0002    00000000201207230832340000000000000000000y
0107223000043TFNYF0200006134592SNFTW     FITX   201208                    00000+07012000             000000000             000000000             0002    00000000201207230832340000000000000000000y
0107223000044TFNYF0200006134592BNFTW     FITX   201208                    00000+07015000             000000000             000000000             0002    00000000201207230832340000000000000000000y
0107223000045TFNYF0200006134592SNFTW     FITX   201208                    00000+07008000             000000000             000000000             0002    00000000201207230832340000000000000000000y
0107223002652TFNYF0200006134592BNFTW     FITX   201208                    00000+07015000             000000000             000000000             0002    00000000201207230832340000000000000000000y
0107223002653TFNYF0200006134592SNFTW     FITX   201208                    00000+07016000             000000000             000000000             0001    00000000201207230832340000000000000000000y
0107223002654TFNYF0200006134592SNFTW     FITX   201208                    00000+07011000             000000000             000000000             0001    00000000201207230832340000000000000000000y
0107223002655TFNYF0200006134592BNFTW     FITX   201208                    00000+07015000             000000000             000000000             0002    00000000201207230832340000000000000000000y
0107223002656TFNYF0200006134592SNFTW     FITX   201208                    00000+07013000             000000000             000000000             0002    00000000201207230832350000000000000000000y
0107223002657TFNYF0200006134592BNFTW     FITX   201208                    00000+07019000             000000000             000000000             0002    00000000201207230832350000000000000000000y
0107223002658TFNYF0200006134592SNFTW     FITX   201208                    00000+07012000             000000000             000000000             0002    00000000201207230832350000000000000000000y
0107223002659TFNYF0200006134592BNFTW     FITX   201208                    00000+07015000             000000000             000000000             0002    00000000201207230832350000000000000000000y
0107223002660TFNYF0200006134592SNFTW     FITX   201208                    00000+07008000             000000000             000000000             0002    00000000201207230832350000000000000000000y
0107223002661TFNYF0200006134592BNFTW     FITX   201208                    00000+07019000             000000000             000000000             0002    00000000201207230832350000000000000000000y
0107223002662TFNYF0200006134592SNFTW     FITX   201208                    00000+07028000             000000000             000000000             0002    00000000201207230832350000000000000000000y
0107223002663TFNYF0200006134592BNFTW     FITX   201208                    00000+07003000             000000000             000000000             0002    00000000201207230832350000000000000000000y
0107223002664TFNYF0200006134592SNFTW     FITX   201208                    00000+07003000             000000000             000000000             0002    00000000201207230832350000000000000000000y
0107223002665TFNYF0200006134592BNFTW     FITX   201208                    00000+07014000             000000000             000000000             0002    00000000201207230832350000000000000000000y
0107223002650TFNYF0200006134592SNFTW     FITX   201208                    00000+07016000             000000000             000000000             0001    00000000201207230832350000000000000000000y
0107223002651TFNYF0200006134592SNFTW     FITX   201208                    00000+07011000             000000000             000000000             0001    00000000201207230832350000000000000000000y
0107223002287TFNYF0200006134592SNFTW     FITX   201208                    00000+07021000             000000000             000000000             0002    00000000201207230832360000000000000000000y
0107223002288TFNYF0200006134592BNFTW     FITX   201208                    00000+07012000             000000000             000000000             0002    00000000201207230832360000000000000000000y
0107223002289TFNYF0200006134592SNFTW     FITX   201208                    00000+07000000             000000000             000000000             0002    00000000201207230832360000000000000000000y
0107223002290TFNYF0200006134592BNFTW     FITX   201208                    00000+07015000             000000000             000000000             0002    00000000201207230832360000000000000000000y
0107223000046TFNYF0200006134592BNFTW     FITX   201208                    00000+07019000             000000000             000000000             0002    00000000201207230832360000000000000000000y
0107223000048TFNYF0200006134592BNFTW     FITX   201208                    00000+07003000             000000000             000000000             0002    00000000201207230832360000000000000000000y
0107223000047TFNYF0200006134592SNFTW     FITX   201208                    00000+07028000             000000000             000000000             0002    00000000201207230832360000000000000000000y
0107223000049TFNYF0200006134592SNFTW     FITX   201208                    00000+07003000             000000000             000000000             0002    00000000201207230832360000000000000000000y
0107223000050TFNYF0200006134592BNFTW     FITX   201208                    00000+07014000             000000000             000000000             0002    00000000201207230832360000000000000000000y
0107223001594TFNYF0200006134592BNFTW     FITX   201208                    00000+07015000             000000000             000000000             0002    00000000201207230832360000000000000000000y
0107223001539TFNYF0200006134592SNFTW     FITX   201208                    00000+07016000             000000000             000000000             0001    00000000201207230832360000000000000000000y
0107223001551TFNYF0200006134592SNFTW     FITX   201208                    00000+07011000             000000000             000000000             0001    00000000201207230832360000000000000000000y
---
---
0107213000312TFNYF0200006134592BNFTW     FITX   201208                    00000+07012000             000000000             000000000             0002    00000000201207230832190000000000000000000y
0107213000313TFNYF0200006134592SNFTW     FITX   201208                    00000+07009000             000000000             000000000             0002    00000000201207230832190000000000000000000y
0107213000314TFNYF0200006134592BNFTW     FITX   201208                    00000+07008000             000000000             000000000             0002    00000000201207230832190000000000000000000y
0107213000315TFNYF0200006134592SNFTW     FITX   201208                    00000+07013000             000000000             000000000             0002    00000000201207230832190000000000000000000y
0107213000316TFNYF0200006134592BNFTW     FITX   201208                    00000+07015000             000000000             000000000             0002    00000000201207230832190000000000000000000y
0107213000317TFNYF0200006134592SNFTW     FITX   201208                    00000+07013000             000000000             000000000             0002    00000000201207230832190000000000000000000y
0107213000318TFNYF0200006134592BNFTW     FITX   201208                    00000+07019000             000000000             000000000             0002    00000000201207230832190000000000000000000y
0107213000319TFNYF0200006134592SNFTW     FITX   201208                    00000+07012000             000000000             000000000             0002    00000000201207230832190000000000000000000y
0107213000320TFNYF0200006134592BNFTW     FITX   201208                    00000+07015000             000000000             000000000             0002    00000000201207230832190000000000000000000y
0107213000321TFNYF0200006134592SNFTW     FITX   201208                    00000+07013000             000000000             000000000             0002    00000000201207230832200000000000000000000y
0107213000322TFNYF0200006134592BNFTW     FITX   201208                    00000+07019000             000000000             000000000             0002    00000000201207230832200000000000000000000y
0107213000323TFNYF0200006134592SNFTW     FITX   201208                    00000+07012000             000000000             000000000             0002    00000000201207230832200000000000000000000y
0107213000310TFNYF0200006134592BNFTW     FITX   201208                    00000+07006000             000000000             000000000             0002    00000000201207230832200000000000000000000y
0107213000324TFNYF0200006134592BNFTW     FITX   201208                    00000+07015000             000000000             000000000             0002    00000000201207230832200000000000000000000y
0107213000311TFNYF0200006134592SNFTW     FITX   201208                    00000+07010000             000000000             000000000             0002    00000000201207230832200000000000000000000y
0107213000325TFNYF0200006134592SNFTW     FITX   201208                    00000+07008000             000000000             000000000             0002    00000000201207230832200000000000000000000y
0107213000326TFNYF0200006134592BNFTW     FITX   201208                    00000+07019000             000000000             000000000             0002    00000000201207230832200000000000000000000y
0107213000327TFNYF0200006134592SNFTW     FITX   201208                    00000+07028000             000000000             000000000             0002    00000000201207230832200000000000000000000y
0107213000328TFNYF0200006134592BNFTW     FITX   201208                    00000+07003000             000000000             000000000             0002    00000000201207230832200000000000000000000y
0107213000329TFNYF0200006134592SNFTW     FITX   201208                    00000+07003000             000000000             000000000             0002    00000000201207230832200000000000000000000y
0107213000330TFNYF0200006134592BNFTW     FITX   201208                    00000+07014000             000000000             000000000             0002    00000000201207230832210000000000000000000y
0107213000331TFNYF0200006134592SNFTW     FITX   201208                    00000+07013000             000000000             000000000             0002    00000000201207230832210000000000000000000y
0107213000332TFNYF0200006134592BNFTW     FITX   201208                    00000+07019000             000000000             000000000             0002    00000000201207230832210000000000000000000y
0107213000333TFNYF0200006134592SNFTW     FITX   201208                    00000+07012000             000000000             000000000             0002    00000000201207230832210000000000000000000y
0107213000334TFNYF0200006134592BNFTW     FITX   201208                    00000+07015000             000000000             000000000             0002    00000000201207230832210000000000000000000y
0107213000335TFNYF0200006134592SNFTW     FITX   201208                    00000+07008000             000000000             000000000             0002    00000000201207230832210000000000000000000y
0107213000336TFNYF0200006134592BNFTW     FITX   201208                    00000+07019000             000000000             000000000             0002    00000000201207230832210000000000000000000y
0107213000337TFNYF0200006134592SNFTW     FITX   201208                    00000+07028000             000000000             000000000             0002    00000000201207230832210000000000000000000y
0107213000338TFNYF0200006134592BNFTW     FITX   201208                    00000+07003000             000000000             000000000             0002    00000000201207230832210000000000000000000y
0107213000339TFNYF0200006134592SNFTW     FITX   201208                    00000+07003000             000000000             000000000             0002    00000000201207230832210000000000000000000y
0107213000340TFNYF0200006134592BNFTW     FITX   201208                    00000+07014000             000000000             000000000             0002    00000000201207230832210000000000000000000y
0107213000341TFNYF0200006134592SNFTW     FITX   201208                    00000+07013000             000000000             000000000             0002    00000000201207230832210000000000000000000y
0107213000342TFNYF0200006134592BNFTW     FITX   201208                    00000+07019000             000000000             000000000             0002    00000000201207230832220000000000000000000y
0107213000343TFNYF0200006134592SNFTW     FITX   201208                    00000+07012000             000000000             000000000             0002    00000000201207230832220000000000000000000y
0107213000344TFNYF0200006134592BNFTW     FITX   201208                    00000+07015000             000000000             000000000             0002    00000000201207230832220000000000000000000y
0107213000345TFNYF0200006134592SNFTW     FITX   201208                    00000+07013000             000000000             000000000             0002    00000000201207230832220000000000000000000y
0107213000248TFNYF0200006134592SNFTW     FITX   201208                    00000+07013000             000000000             000000000             0002    00000000201207230832220000000000000000000y
0107213000247TFNYF0200006134592BNFTW     FITX   201208                    00000+07015000             000000000             000000000             0002    00000000201207230832220000000000000000000y
0107213000249TFNYF0200006134592BNFTW     FITX   201208                    00000+07019000             000000000             000000000             0002    00000000201207230832220000000000000000000y
0107213000250TFNYF0200006134592SNFTW     FITX   201208                    00000+07012000             000000000             000000000             0002    00000000201207230832220000000000000000000y
0107213000251TFNYF0200006134592BNFTW     FITX   201208                    00000+07015000             000000000             000000000             0002    00000000201207230832220000000000000000000y
0107213000252TFNYF0200006134592SNFTW     FITX   201208                    00000+07007000             000000000             000000000             0002    00000000201207230832230000000000000000000y
0107213000253TFNYF0200006134592BNFTW     FITX   201208                    00000+07020000             000000000             000000000             0002    00000000201207230832230000000000000000000y
0107213000254TFNYF0200006134592SNFTW     FITX   201208                    00000+07020000             000000000             000000000             0002    00000000201207230832230000000000000000000y
0107213000255TFNYF0200006134592BNFTW     FITX   201208                    00000+07013000             000000000             000000000             0002    00000000201207230832230000000000000000000y
0107213000256TFNYF0200006134592SNFTW     FITX   201208                    00000+07001000             000000000             000000000             0002    00000000201207230832230000000000000000000y
0107213000257TFNYF0200006134592BNFTW     FITX   201208                    00000+07015000             000000000             000000000             0002    00000000201207230832230000000000000000000y
0107213000263TFNYF0200006134592SNFTW     FITX   201208                    00000+07013000             000000000             000000000             0002    00000000201207230832230000000000000000000y
0107213000264TFNYF0200006134592BNFTW     FITX   201208                    00000+07019000             000000000             000000000             0002    00000000201207230832230000000000000000000y
0107213000265TFNYF0200006134592SNFTW     FITX   201208                    00000+07012000             000000000             000000000             0002    00000000201207230832230000000000000000000y
0107213000266TFNYF0200006134592BNFTW     FITX   201208                    00000+07015000             000000000             000000000             0002    00000000201207230832230000000000000000000y
0107213000267TFNYF0200006134592SNFTW     FITX   201208                    00000+07013000             000000000             000000000             0002    00000000201207230832230000000000000000000y
0107213000268TFNYF0200006134592BNFTW     FITX   201208                    00000+07019000             000000000             000000000             0002    00000000201207230832230000000000000000000y
0107213000269TFNYF0200006134592SNFTW     FITX   201208                    00000+07012000             000000000             000000000             0002    00000000201207230832230000000000000000000y
0107213000270TFNYF0200006134592BNFTW     FITX   201208                    00000+07015000             000000000             000000000             0002    00000000201207230832240000000000000000000y
0107213000271TFNYF0200006134592SNFTW     FITX   201208                    00000+07013000             000000000             000000000             0002    00000000201207230832240000000000000000000y
0107213000272TFNYF0200006134592BNFTW     FITX   201208                    00000+07019000             000000000             000000000             0002    00000000201207230832240000000000000000000y
0107213000273TFNYF0200006134592SNFTW     FITX   201208                    00000+07012000             000000000             000000000             0002    00000000201207230832240000000000000000000y
0107213000195TFNYF0200006134592SNFTW     FITX   201208                    00000+07013000             000000000             000000000             0002    00000000201207230832240000000000000000000y
0107213000196TFNYF0200006134592BNFTW     FITX   201208                    00000+07015000             000000000             000000000             0002    00000000201207230832240000000000000000000y
0107223000276TFNYF0200006134592SNFTW     FITX   201208                    00000+07014000             000000000             000000000             0002    00000000201207230832240000000000000000000y
0107223000277TFNYF0200006134592BNFTW     FITX   201208                    00000+07015000             000000000             000000000             0002    00000000201207230832240000000000000000000y
0107223000278TFNYF0200006134592SNFTW     FITX   201208                    00000+07016000             000000000             000000000             0001    00000000201207230832240000000000000000000y
0107223000279TFNYF0200006134592SNFTW     FITX   201208                    00000+07011000             000000000             000000000             0001    00000000201207230832240000000000000000000y
0107223000280TFNYF0200006134592BNFTW     FITX   201208                    00000+07015000             000000000             000000000             0002    00000000201207230832240000000000000000000y
0107213000346TFNYF0200006134592BNFTW     FITX   201208                    00000+07019000             000000000             000000000             0002    00000000201207230832250000000000000000000y
0107213000347TFNYF0200006134592SNFTW     FITX   201208                    00000+07012000             000000000             000000000             0002    00000000201207230832250000000000000000000y
0107213000348TFNYF0200006134592BNFTW     FITX   201208                    00000+07015000             000000000             000000000             0002    00000000201207230832250000000000000000000y
0107213000349TFNYF0200006134592SNFTW     FITX   201208                    00000+07008000             000000000             000000000             0002    00000000201207230832250000000000000000000y
0107213000350TFNYF0200006134592BNFTW     FITX   201208                    00000+07019000             000000000             000000000             0002    00000000201207230832250000000000000000000y
0107213000351TFNYF0200006134592SNFTW     FITX   201208                    00000+07028000             000000000             000000000             0002    00000000201207230832250000000000000000000y
0107213000352TFNYF0200006134592BNFTW     FITX   201208                    00000+07003000             000000000             000000000             0002    00000000201207230832250000000000000000000y
0107213000353TFNYF0200006134592SNFTW     FITX   201208                    00000+07003000             000000000             000000000             0002    00000000201207230832250000000000000000000y
0107213000354TFNYF0200006134592BNFTW     FITX   201208                    00000+07014000             000000000             000000000             0002    00000000201207230832250000000000000000000y
0107213000355TFNYF0200006134592SNFTW     FITX   201208                    00000+07013000             000000000             000000000             0002    00000000201207230832250000000000000000000y
0107213000356TFNYF0200006134592BNFTW     FITX   201208                    00000+07019000             000000000             000000000             0002    00000000201207230832250000000000000000000y
0107213000357TFNYF0200006134592SNFTW     FITX   201208                    00000+07012000             000000000             000000000             0002    00000000201207230832250000000000000000000y
0107213000358TFNYF0200006134592BNFTW     FITX   201208                    00000+07015000             000000000             000000000             0002    00000000201207230832250000000000000000000y
0107213000360TFNYF0200006134592SNFTW     FITX   201208                    00000+07013000             000000000             000000000             0002    00000000201207230832260000000000000000000y
0107213000361TFNYF0200006134592BNFTW     FITX   201208                    00000+07019000             000000000             000000000             0002    00000000201207230832260000000000000000000y
0107213000362TFNYF0200006134592SNFTW     FITX   201208                    00000+07012000             000000000             000000000             0002    00000000201207230832260000000000000000000y
0107213000363TFNYF0200006134592BNFTW     FITX   201208                    00000+07015000             000000000             000000000             0002    00000000201207230832260000000000000000000y
0107223000001TFNYF0200006134592SNFTW     FITX   201208                    00000+07013000             000000000             000000000             0002    00000000201207230832260000000000000000000y
0107223000002TFNYF0200006134592BNFTW     FITX   201208                    00000+07019000             000000000             000000000             0002    00000000201207230832260000000000000000000y
0107223000003TFNYF0200006134592SNFTW     FITX   201208                    00000+07012000             000000000             000000000             0002    00000000201207230832260000000000000000000y
0107223000004TFNYF0200006134592BNFTW     FITX   201208                    00000+07015000             000000000             000000000             0002    00000000201207230832260000000000000000000y
0107223000005TFNYF0200006134592SNFTW     FITX   201208                    00000+07013000             000000000             000000000             0002    00000000201207230832260000000000000000000y
0107223000006TFNYF0200006134592BNFTW     FITX   201208                    00000+07019000             000000000             000000000             0002    00000000201207230832260000000000000000000y
0107223000007TFNYF0200006134592SNFTW     FITX   201208                    00000+07012000             000000000             000000000             0002    00000000201207230832260000000000000000000y
0107223000008TFNYF0200006134592BNFTW     FITX   201208                    00000+07015000             000000000             000000000             0002    00000000201207230832270000000000000000000y
0107223000009TFNYF0200006134592SNFTW     FITX   201208                    00000+07013000             000000000             000000000             0002    00000000201207230832270000000000000000000y
0107213000274TFNYF0200006134592BNFTW     FITX   201208                    00000+07015000             000000000             000000000             0002    00000000201207230832270000000000000000000y
